:100000000C94D8060C9451270C942A270C940007C2
:100010000C9400070C9400070C9400070C94000744
:100020000C9400070C9400070C9400070C94000734
:100030000C9400070C9400070C9400070C94000724
:100040000C94E0260C9400070C949E270C947827BF
:100050000C9400070C9400070C9400070C94000704
:100060000C94D0270C9400074E414E494E495459E8
:10007000494E46CDCCCC3D0AD7233C17B7D1387773
:10008000CC2B329595E6241FB14F0A000020410089
:1000900000C84200401C4620BCBE4CCA1B0E5AAED3
:1000A000C59D74120003030405040406101000FE2D
:1000B0000EFC0EFD00000000012D200500104D2A51
:1000C0000F78F4D9886454D92126A58924002B19E6
:1000D000CC1869C78171601C1807460F0FE33830D0
:1000E0000E8C03E3C028002C0A54D2CCAC48262244
:1000F000002D0735924F3C042E0733144D1C042F5E
:100100000F06D352EA265413AA09B5098500301107
:10011000EA12D7110F21A164E81F2742D1950631B9
:100120000CE712578E0E87086DB87F3213EA12D78C
:10013000D50E21A171BE3CA6B28EC78783013314B0
:10014000EA1257154FB3F962B50E9943E6C6D3E8E4
:100150005803341AEB12D7925B25C3C950341BCD18
:1001600064A3D9E8F0109E43E69011003517EA1217
:10017000571C2407C97CFD103A488672C8DC681BEE
:100180001D6B003617EA12D7154F42917C2E291DA0
:100190002443C9D07122145D69003713EA12573C19
:1001A000D8C7F331793E9E8FE763F214003815EA21
:1001B0001257D90E91A1A3E8681B4D861E27879878
:1001C00009003919EA12D7114F43C95032349E2819
:1001D0000799682E198A64A3630D003A0AA3164F83
:1001E0001CE4D0830000000004FFFF0000120004A4
:1001F0000405050405071B1F00FB19F919FB000086
:10020000000002072006002054022A21AE71B7CE5A
:10021000905144480D19672810A1070F84101964E4
:100220008EC4B021A388100B1408002B33B43E14E5
:10023000A77830E2C18807231E8C7830E2C1880796
:10024000231E8CC8070F548A07231E8C7830E2C106
:100250008807231E8C7830E2C188072312002C10F7
:1002600027E95A4A113244C8901943CD20002D077E
:10027000A9E45DC20F2E08A52C54C203052F238BC1
:10028000AB7BE2387203C75137701CB981E3C80DEC
:100290001C47DDC071E4068EA36EE03872030702CE
:1002A000302231279C96D174ABCA5455841C1172EC
:1002B00024CAE97F57821C1172444A95A96A5DCA13
:1002C000530031122B2F9C5AA133281EAC4872A820
:1002D00058FDFF03321C31279C9A49658CDC14328F
:1002E00051AC44B1C2B52D6BD43E2D6AED831F20B5
:1002F0003323302B9C9641456D5C182A51AC6C59C8
:10030000A2C6D29D4498B8DAB2CA345B54C40D2B4D
:1003100075A700342833239CE6E1B348B3245192F7
:10032000444122E58A9423538C50A942A548152ABA
:1003300055885899077F10B678BD01352531279C1F
:10034000C2939F14AE13436E9E183251AC4439D2FF
:10035000852B26518E44B11286CAB869B5F01800B3
:10036000362C31279C9A49658CDC9829628A48B1E1
:100370001265CD96295422C91334254E2DDB598997
:1003800062254C953853C6113385A700371E302B94
:100390009CC21F90ADB46CA5658B962D6AB46CD1D0
:1003A000B2458D16355AD4D28200382831279CD6D2
:1003B00039464F5E982A514E5D0972444A956996B6
:1003C0004E599B4246C89128A777AB4C3C79B4F074
:1003D0001400392C31279CD641658CDC143251CA6B
:1003E00044B112C57675A2D089074152142A53D65A
:1003F000DA12C58A903252C65023662A8D013A0B12
:1004000045365CC203F5903E5000000004FFFF003B
:10041000001200030304040304060C0D00FE0BFD90
:100420000BFE0000000000F2200500C4122A0A564C
:100430006E3534914946012B1499479871481C1226
:1004400087040FC238240E894382002C0943B53239
:10045000128A04002D07245D1387002E0622C6127F
:10046000042F0ED5B5736A31B5604C2DA616043035
:100470000EB8C554349144C88F12918C04310AB51A
:10048000C57492C348A61F3211B8C554A5C94426E5
:10049000964E8534DA707A083311B8C534A5C9444C
:1004A0002696D1E544DAC446023412B9C5945346BF
:1004B000896C2213A9890E07AA5C043510B8C514EB
:1004C00017B1F2653416D30EA312003612B8C55414
:1004D000B48928489650464546894846023710B8A0
:1004E000C51487B0742A9D4AA7D2C521003811B817
:1004F000C5349651B134A2892442C6D28804391237
:10050000B8C554349144482C4DCE629A48322301E8
:100510003A0882C61274080100000004FFFF0000C0
:10052000424C4F434B45442021004944202D20009C
:100530002E002E002B3338303637353438363730EE
:1005400031002000200020005350524F42202D2027
:10055000004944202D200050415353574F5244002E
:10056000202000202020002020200046494C544517
:10057000522000544F54414C5F004C495445525F47
:10058000004F55545F00494E5F00534E5F004B4192
:100590004C4942524F564B4100204C2E0020200027
:1005A0002020200020200031303E20524553455469
:1005B0000034203E20494E464F20310032203E205C
:1005C0004558495400212053455256495320210093
:1005D00000000000240027002A0000000000250081
:1005E00028002B000000000023002600290004043E
:1005F00004040404040402020202020203030303CB
:1006000003030102040810204080010204081020A6
:10061000010204081020000000080002010000038D
:100620000407000000000000000060020202030353
:10063000010104040500000500050000FD01ED02B4
:10064000D72006EC3C9F002107EC8CB4B1042207B4
:10065000EC4C6A73012309EC4C4AAB5A1500240890
:10066000EC5C5C5A2D002509EC4C8A4AA60C01264C
:1006700008EC5C8E4B47002707EC6CD45C00280725
:10068000EC6C5DA3042908EC4C46B9CC002A08ECBC
:100690004C8A7156092B07EC3C8C33132C07EC3C2D
:1006A0005794002D06EC3CB9192E07EC3C5B4A0030
:1006B0002F08EC6C8E3966003008EC5C4C3D230052
:1006C0003107EC5CD44D003208EC8C46B15E00334F
:1006D00008EC8C4651A7053408EC4CEAB5130035FC
:1006E00008ECCCCA1A25093608EC9CCAAB5A00376C
:1006F00007ECCC2E73043808ECCCAA56B5003908A8
:10070000ECCCAA7692003A08EC8CD4584A003B080C
:10071000EC8CD45494003C08EC6C1B6594003D08B0
:10072000EC3CDA7043003E08EC4C4619C51A3F0811
:10073000ECCC8E1A47004008EC9CAA64460A41089B
:10074000ECCCAA5617004208ECCCAA644A0B43072B
:10075000ECCCCAF5024408EC8C4CBD24004508ECF6
:10076000CCCA2B2F004608ECCCCA2B67004708ECFC
:10077000CCCAA9B5004808EC4C6AAD2E004907EC7C
:10078000CCCCE5024A07EC6CAEAA054B08EC4C6AEF
:10079000C9D4024C07EC4C6E2F004D08EC4C4AAB10
:1007A0002F004E07ECCCEA2F004F07ECCCEA6B0190
:1007B0005008ECCCAA56CE005107ECCCEAD20A5233
:1007C00008ECCCAA646A015308ECCCCA3B2D005457
:1007D00007ECCCCC4D005507EC4CEAD7025607ECA1
:1007E0004CEA67045708EC4CEAB52A005808EC4C70
:1007F0004A33AE0A5908EC4C6ACD1C015A07ECCCBE
:100800008EF5025B07EC9CCCB5025C09EC4CCE2863
:100810006794005D07EC8C6E4A005E07EC5C4C99B7
:100820000B5F06EC3CAF056007EC5CD65C00610832
:10083000EC3C9AAA5A006207EC4C5E5D0B6308EC34
:100840003C5A392F006407EC6C5A5D0B6508EC3C90
:100850005A955C006608EC9CCA3267006708EC3C5D
:100860005AA55A006807EC4C5E7D016907EC3CCC48
:100870004D006A07EC3CAEAA056B09EC4C4E49CA28
:1008800094006C06EC8CEE046D08EC3CAA56170044
:100890006E07EC3C5A7D016F07EC3C5A5D0B70080B
:1008A000EC3C5AD5CA007108EC3C5AD54E00720790
:1008B000EC3C5AED0C7308EC3C5A5A2D007408ECD1
:1008C0005C9C392B007507EC3CEA6B017607EC3C2D
:1008D000EA33027708EC3CEA5A15007808EC3C2A27
:1008E000734C097907EC3CEA54127A08EC3C9A4ABA
:1008F0002E007B08EC9C8C3A2B007C06EC5CEE0412
:100900007D08EC8CCE324A007E07EC3CD29A017F07
:1009100007EC9CCCA50400000004FFFF00005F0072
:10092000020204040304050C0BFFFE08FE08FE018E
:100930006A032C0471200500CC09210882C4C991E6
:10094000F2082207336D4BB202231087447CCAA8F9
:100950001C3365548E9932AA012410A53C6B1E2AC3
:10096000A938E28849A5A1230025158AC49DD44A47
:10097000655523554995544649E5A87256002611F8
:1009800088C4AC862A2395A186494B73A4A5002769
:1009900006316DCA00280BA4B47A8C4ABA75460198
:1009A000290AA4B44A46D974C91A2A09555C6B5558
:1009B000AD66042B0B554C6B4671C88C22002C077E
:1009C00042B4C9480A2D06135CCA002E0622C4C9C7
:1009D000082F0A84C47A99638E3903300E8544DB6C
:1009E00052238D34D24823A905310984459B9ABEF0
:1009F0004600320C8544DB52236929F33802330E5A
:100A00008544DB5223498D461A492D00340B854419
:100A1000EB95549A636439350D8544CB2BA391D162
:100A20004823A905360E8544DB52238FA4461A4974
:100A30002D00370A8444CBA1638E2E00380E8544E6
:100A4000DB5223A9A5461A492D00390E8544DB52F5
:100A5000238DA4461E492D003A0752C4C988233B62
:100A60000972B4C9882329003C0956CC3B9236D67A
:100A7000583D083554CBD070083E0A56CC8BC61A68
:100A80004B1B013F0A8544DBB2A5CCB4094012A937
:100A90003CFD465A6698E248FE5432939A1E114134
:100AA0001289433CCAD4C61B468DA21E2366A4E607
:100AB00008420E8744CC694935A425951C4301435F
:100AC000108744ECAA47461B6AA8518DE2480044AF
:100AD0000F88C4CCADA3565A69A5954E6302450E46
:100AE00086C4CB25938A23AA28931C23460E86C44A
:100AF000CB25934C2A8EA8A21E11470E8744ECAA40
:100B000047461BCAA155962B48128944CD482369F4
:100B1000A9E518514B2DB51A6904490984C4CA487E
:100B2000D2D7084A0C86C4EBC81A69E42BCA094B11
:100B30001189C4CC88769619A90C8746525B230E7E
:100B40004C0F86C4CBC81A69A4914632C931024DF4
:100B5000158B44CEC823ED9954924925995492D1CE
:100B60008CD652234E1188C48C5E3ACE38524C2318
:100B7000C699D54E004F0E8744ECAEF4C8238FAC17
:100B8000729E00500F8744CC694925D5901A6A346B
:100B900032005113983CEC46396AA595562349A575
:100BA000D148192A00520D88C4CC2D3DF3D0D2353E
:100BB000D200530D86C4DB39F2D068E811D7025455
:100BC0000E86C4CB915C51238D34D22301551088FD
:100BD000C4CC484B471D75D451479D4704561188D6
:100BE000C4CC484B479D55462A2395A1C61A571594
:100BF0008B44CE486A4919CDA8928A2AA9BC36D21C
:100C00001A6909581088C4CC484BC795D1C61BA592
:100C100099D511591188C4CC484B679591CA506336
:100C20008D351C115A0B86C4CB91F57CEB31025BE0
:100C300008A334CA50FE1A5C0C84C44ACE286794B8
:100C400033CA015D08A334CAF2D7105E0A65546B3B
:100C50004679A65A075F061634CB01600623748ACC
:100C600014610954C4CA56238D01620E86C48B4692
:100C70001A69641D71C4B50063095544DB925BA613
:100C800005640E86C4FB461AA931E288232D03654C
:100C9000095544DB52E34623660C85C4EA52498E6B
:100CA000A8CD9100670D86343B8A5339F7D8632469
:100CB00000680E86C48B461A69641D71C4110569EB
:100CC0000A84C49AD470BA46006A09A3B49ABDBC17
:100CD00046026B0E86448B461A69648D38A2B206B2
:100CE0006C0884C4CAF46B046D0D5AC48D92EA1169
:100CF000E5887244036E0B56C48B52471C71440145
:100D00006F0C56C4DB4872C411D54800700D76B420
:100D10008B52471C718CA4D106710E77B4DB5052F4
:100D200049A5A6D250A311720954C48A1A239A0065
:100D3000730954C4DA90230E05740973445A52435C
:100D40009902750B56C48B1C71C4919601760B5693
:100D5000C4CBB2A2CA1A4900770C5944CDF28A4AD0
:100D600065A59109780A56C4CBB2B24ED600790D6A
:100D700076B4CBB2A2CA1AC9AD11007A085544CBD9
:100D800025CD317B0AA4B4AA9296966E017C068189
:100D900046CB217D0AA4B48A96B6922E097E0726F8
:100DA000DCDB520B00000004FFFF0000EB28C43323
:100DB00011241FBECFEFD8E0DEBFCDBF26E0A6EBEB
:100DC000B2E001C01D92AF30B207E1F712E0A0E03F
:100DD000B1E0ECE5F5E702C005900D92A63BB10746
:100DE000D9F716E0C7EDD6E004C02197FE010E94B6
:100DF0008E38C63DD107C9F70E94E0290C94A13A6C
:100E00000C940000662329F06A3019F0862F90E0D8
:100E100008958FEF9FEF08950F93CF93DF93DC0139
:100E2000ED91FC915089362F3770E0E8F0E002C078
:100E3000F595E7953A95E2F73E2FA52FB0E0FC0136
:100E4000C0ADD1AD669566956695E62FF0E0549FEE
:100E5000E00DF11D1124EC0FFD1FEC01C758DF4F11
:100E6000011116C08881823018F49081932B9083F1
:100E70008881813019F0908193279083369511F401
:100E8000319630E8215071F7DF91CF910F9108959D
:100E90008881823018F49081932B908388818130EF
:100EA00019F0908193279083EA0FFB1F215081F75F
:100EB000EBCF80E0089580E00895833081F028F43E
:100EC000813099F08230A9F008958730A9F08830F8
:100ED000C9F08430B1F4809180008F7D03C080918F
:100EE00080008F7780938000089584B58F7784BDCC
:100EF000089584B58F7DFBCF8091B0008F7780936C
:100F0000B00008958091B0008F7DF9CFCF93DF932B
:100F1000282F30E0F901EA5EF94F8491F901EE5F84
:100F2000F94FD491F901E251FA4FC491CC23A1F0C9
:100F300081110E945D07EC2FF0E0EE0FFF1FEC51D6
:100F4000FA4FA591B491EC91ED2381E090E009F482
:100F500080E0DF91CF91089580E090E0FACF1F9379
:100F6000CF93DF93282F30E0F901EA5EF94F8491A7
:100F7000F901EE5FF94FD491F901E251FA4FC491B2
:100F8000CC23A9F0162F81110E945D07EC2FF0E011
:100F9000EE0FFF1FE652FA4FA591B4918FB7F89468
:100FA000EC91111108C0D095DE23DC938FBFDF9147
:100FB000CF911F910895DE2BF8CFCF93DF9390E070
:100FC000FC01EE5FF94F249182519A4FFC0184910C
:100FD0008823D1F090E0880F991FFC01E053FA4F6D
:100FE000A591B491FC01E652FA4FC591D4916230BB
:100FF00071F49FB7F8943C91822F809583238C9352
:10100000E8812E2B28839FBFDF91CF9108958FB762
:10101000F894EC912E2B2C938FBFF6CF3FB7F8941A
:101020008091C7039091C803A091C903B091CA03EE
:1010300026B5A89B05C02F3F19F00196A11DB11D33
:101040003FBFBA2FA92F982F8827BC01CD01620F6F
:10105000711D811D911D42E0660F771F881F991F2A
:101060004A95D1F708958F929F92AF92BF92CF92F7
:10107000DF92EF92FF926B017C010E940E084B0100
:101080005C01C114D104E104F104B9F00E940E081E
:10109000681979098A099B09683E734081059105A1
:1010A00080F321E0C21AD108E108F10888EE880E29
:1010B00083E0981EA11CB11CE4CFFF90EF90DF905D
:1010C000CF90BF90AF909F908F9008952FB7F894D6
:1010D0006091C3037091C4038091C5039091C603CE
:1010E0002FBF08958B589F4FFC0180818F5F08951B
:1010F00008950895DC01ED91FC910190F081E02DBF
:101100000994DB0114964D915C9115976D917C913A
:10111000DC01ED91FC910280F381E02D0994AF9206
:10112000BF92CF92DF92EF92FF920F931F93CF93D4
:10113000DF936C017B018B01040F151FEB015E0136
:10114000AE18BF08C017D10759F06991D601ED91CB
:10115000FC910190F081E02DC6010995892B79F76A
:10116000C501DF91CF911F910F91FF90EF90DF901C
:10117000CF90BF90AF900895FC01538D448D252FE3
:1011800030E0842F90E0821B930B541710F0CF9621
:10119000089501970895FC01918D828D981761F053
:1011A000A28DAE0FBF2FB11D5D968C91928D9F5F6A
:1011B0009F73928F90E008958FEF9FEF08950F93A4
:1011C0001F930E9466086093D9037093DA0380939B
:1011D000DB039093DC0381ED93E00E94CB0897FF43
:1011E0001DC00E9466080091D9031091DA03209176
:1011F000DB033091DC03601B710B820B930B0091BE
:10120000D5031091D6032091D7033091D8036017EE
:10121000710782079307F8F28FEF9FEF1F910F91ED
:101220000895FC01918D828D981731F0828DE80F21
:10123000F11D858D90E008958FEF9FEF0895FC01DB
:10124000918D228D892F90E0805C9F4F821B9109A8
:101250008F739927089581ED93E00E941F0921E083
:10126000892B09F420E0822F089580E090E0892BFB
:1012700029F00E942B0981110C9400000895FC01B3
:10128000A48DA80FB92FB11DA35ABF4F2C91848DE7
:1012900090E001968F739927848FA689B7892C9344
:1012A000A089B1898C91837080648C93938D848D97
:1012B000981306C00288F389E02D80818F7D80839A
:1012C0000895EF92FF920F931F93CF93DF93EC015A
:1012D00081E0888F9B8D8C8D98131AC0E889F989DD
:1012E000808185FF15C09FB7F894EE89FF896083E0
:1012F000E889F98980818370806480839FBF81E061
:1013000090E0DF91CF911F910F91FF90EF900895A2
:10131000F62E0B8D10E00F5F1F4F0F731127E02E7D
:101320008C8D8E110CC00FB607FCFACFE889F989B5
:10133000808185FFF5CFCE010E943F09F1CFEB8D73
:10134000EC0FFD2FF11DE35AFF4FF0829FB7F89489
:101350000B8FEA89FB8980818062CFCFCF93DF93A7
:10136000EC01888D8823B9F0AA89BB89E889F989BD
:101370008C9185FD03C0808186FD0DC00FB607FCF2
:10138000F7CF8C9185FFF2CF808185FFEDCFCE0125
:101390000E943F09E9CFDF91CF9108952091360354
:1013A000260F3327331F21323105ECF420915A03E5
:1013B000FC0190E080E0243069F082E00895A09183
:1013C00036032191AC014A5E5C4FA40FB52FB11DCD
:1013D0002C930196861798F380913603680F6093DB
:1013E000360380E0089581E0089508958FEF9FEF20
:1013F00008958FEF9FEF089580910F0390E09195EE
:10140000819591090895CF93DF93CB01EA01642F71
:101410000E94CE09CE01DF91CF910895CF93DF9343
:101420001F92CDB7DEB7698361E0CE0101960E94BD
:10143000CE0981E090E00F90DF91CF910895DC011B
:101440001A96ED91FC9130E020E00994DC011696AB
:10145000ED91FC9130E020E040E069E10994DC018D
:101460001696ED91FC9130E020E040E068E10994AF
:101470009A01DC011696ED91FC91462F67E10994E3
:10148000EF92FF920F931F93CF93DF931F92CDB7ED
:10149000DEB77C018B01D8016C91673129F150F4E2
:1014A0006531A0F40F90DF91CF911F910F91FF90C4
:1014B000EF9008956A3118F16E3FA1F7F80141816C
:1014C000498369E2C7010E941F0A0BC0F8014181EC
:1014D0004983D7011696ED91FC9130E020E0C701D9
:1014E00009950E5F1F4FD7CFF80181818983AE0127
:1014F0004F5F5F4F61E0C7010E94380AF2CF0F5F74
:101500001F4FD7011696ED91FC9130E020E040E0AE
:10151000C7010995C0CF462FDC011696ED91FC91CD
:1015200030E020E065E10994AF92BF92CF92DF9264
:10153000EF92FF920F931F93CF93DF93EC016930EB
:1015400089F486E491E0998388831C8A81E0DF91A5
:10155000CF911F910F91FF90EF90DF90CF90BF90B0
:10156000AF90089579016B3009F440C06F3009F4F1
:1015700044C080E06A3059F7EA85FB8530E020E01E
:1015800040E068E2CE010995EE81FF8130E020E085
:1015900040E064E1CE01099541E06BE4CE010E9498
:1015A0001F0AE881F981448169E2CE010E941F0A85
:1015B00040E06BE4CE010E941F0AE881F98144817A
:1015C00069E2CE010E941F0A41E06BE4CE010E9455
:1015D0001F0AE881F981458169E2CE010E941F0A54
:1015E00063E371E0CE010E94400AB0CF6CE271E08B
:1015F0004423C1F361E271E0F5CFF9010481000FEA
:10160000000F000F13811695003210F00052185F82
:10161000CE010E942F0AF701A080B1806EE3CE01B7
:101620000E948B0A6EE3CE010E948B0AD12C1068B7
:10163000602F6D0D6068CE010E948B0A612FCE0174
:101640000E948B0AF701C280A5016C2DCE010E9479
:10165000380AAC0CB11CD394F8E0DF12E9CFCE010C
:101660000E94260A73CF9A01DC011896ED91FC9135
:10167000462F67E10994CF93DF931F92CDB7DEB772
:101680006983AE014F5F5F4F61E00E94330B0F90A3
:10169000DF91CF910895CF92DF92EF92FF920F9357
:1016A0001F93CF93DF93EC01142F79016631C1F1C1
:1016B00030F4643149F06531A9F080E040C0673111
:1016C00009F446C06A31C8F7E885F9859701412FCA
:1016D000CE01DF91CF911F910F91FF90EF90DF909E
:1016E000CF90099468EF0E943B0B41E06CE2CE0181
:1016F0000E941F0A612F607FCE010E943B0B41E0D8
:101700006CE2CE010E941F0A612F6295607FCE01BC
:101710000E943B0B41E06CE2CE010E941F0A0EC00A
:1017200068EF0E943B0B612F607FCE010E943B0B54
:10173000612F6295607FCE010E943B0B81E0DF91BB
:10174000CF911F910F91FF90EF90DF90CF90089570
:101750006AEF0E943B0B41E06CE2CE010E941F0A3F
:10176000DE2CCF2C012F083008F5012F06950695A9
:101770000695D12E88EF089FD00C1124E8E00E9F2B
:10178000800111240E0D1F1DDD2021F2F801F190C2
:101790008F016F2D607FCE010E943B0B6F2D6295F4
:1017A000607FCE010E943B0BDA94EECFAFEFB2E048
:1017B000ED2DFC2D9F01285F3F4F8191982F907F49
:1017C0009C938295807F11968C9311971296E217C5
:1017D000F30799F7DE2ECF2E08504FEF52E060E16D
:1017E000CE010E94330BBFCFFC016623D9F16A30D2
:1017F000C9F1808D811125C06C3F48F085E0808F54
:10180000617070E0738B628B2EEF3FEF29C0683FF1
:1018100020F084E0808F6370F4CF603F20F083E09D
:10182000808F6770EECF603E20F082E0808F6F7017
:10183000E8CF262F30E0603C98F081E0808F6F7118
:10184000E0CF8150808F2289338996E0220F331FA9
:101850009A95E1F76F73262B338B228B8111D4CFAE
:10186000C90108952FEF3FEFFBCF0F93DC01DE9608
:101870003C91DE97431BD496ED91FC9109950F9115
:101880000895CF93DF93FC01A081B18182AD982FA1
:10189000990F990F990F95AF50969C915097903250
:1018A00008F09FE1990F990F990F94AF23AD922FF4
:1018B000990F990F990F96AF51963C915197682FB8
:1018C000620F7727771F3617170614F4832F821BB2
:1018D00097AFEF01C05CDF4F880F880F880F890F2B
:1018E0008883219680EF888354968D919C9155979B
:1018F000813F910508F48883EE5BFF4F56968C91EB
:101900008083DF91CF9108950F93FC01EB5BFF4F34
:10191000308131965081451730F4301738F0041774
:1019200028F080E013C03017D0F3FBCFFC01ED5B53
:10193000FF4F30818C5B9F4FFC018081681740F422
:1019400081E0321718F081E0261758F70F910895BB
:101950003217C8F3E6CF2F923F924F925F926F9269
:101960007F928F929F92AF92BF92CF92DF92EF922F
:10197000FF920F931F93CF93DF93EC014C0183E40D
:10198000880E911CF4011082329720805E01F4E4ED
:10199000AF0EB11CF50120823FAC6E01F5E4CF0E15
:1019A000D11CF6013082359740807E01F6E4EF0EBF
:1019B000F11CF70140823496108132976080319695
:1019C000708032975080012F262D472D652DCE0136
:1019D0000E94840CCD58DF4F811114C01882DF9112
:1019E000CF911F910F91FF90EF90DF90CF90BF901C
:1019F000AF909F908F907F906F905F904F903F90AF
:101A00002F90089581E08883552011F0F4015082D1
:101A1000621410F4F5016082371410F4F60170823C
:101A20001415E8F6F7011083DACF0F93DC01802F4D
:101A3000FD01ED58FF4F90819923E9F12223D9F15F
:101A4000223020F0023079F56F5F621B082F0170A1
:101A5000FD0180FD32C0EB5BFF4F8081481758F1DC
:101A600031968081481738F532979081319780817F
:101A7000260F2617F0F46917D8F42FEF290F8217D5
:101A8000D0F4681708F4682F291708F4922F961BD2
:101A9000D696ED91FC91D7970480F581E02D292F02
:101AA000CD01099508C0033089F64F5F421BCECFA8
:101AB000682F691720F30F910895ED5BFF4F808128
:101AC0006817C8F3319680816817A8F7329690811D
:101AD00031978081240F241778F4491760F42FEF91
:101AE000290F821740F7481708F4482F291708F4E0
:101AF000922F941BCDCF482F4917E8F6F2CF0F93C2
:101B00009091C9056917A0F09091CA05691780F4F2
:101B10009091C705891760F09091C805891740F426
:101B2000462F682F00E021E084E895E00E94150D23
:101B30000F910895FF920F931F93CF93DF93F82E89
:101B4000D62F142FC22F00FF0CC0622F6D1B842FC5
:101B50008F0D0E947F0D6C2F6F198D2F810F0E94AA
:101B60007F0D01FF0CC06C2F6D1B812F8F190E9400
:101B70007F0D6C2F6F19812F8D1B0E947F0D03FF2E
:101B80000CC06C2F6D0F812F8F0D0E947F0D6C2F5D
:101B90006F0D8D2F810F0E947F0D02FF11C06C2FE2
:101BA0006D0F812F8F190E947F0D6C2F6F0D812F6C
:101BB0008D1BDF91CF911F910F91FF900C947F0DA2
:101BC000DF91CF911F910F91FF900895CF92DF92F7
:101BD000EF92FF920F931F93CF93DF93F82EE62E91
:101BE000C42E08E0060F28E0280F49EF460F69EFE2
:101BF000680F84E895E00E94840C8823D1F00C2DB6
:101C00002E2D4F2D67E080E00E949A0DC0E017E076
:101C100082EFD82EDAEFCF5F8C2F880F8F5FD80F2F
:101C20000C2D2E2D4F2D612F8C2F0E949A0DC11738
:101C300048F0DF91CF911F910F91FF90EF90DF90CF
:101C4000CF900895D7FDE7CF1150D394D394DD0DF5
:101C5000E2CF0F931F93CF93DF93C82F2BE1280F71
:101C60000BE34CE1682F84E895E00E94840C882304
:101C7000C9F117E01C0FD3E1DC0F42E063E2812FD2
:101C80000E94E60D41E063E28D2F0E94E60D44E0E4
:101C900063E3812F0E94E60D48E063E38D2F0E94ED
:101CA000E60DD8E0DC0F00E02BE04CE16D2F84E87E
:101CB00095E00E94150D2BE04AE36D2F84E895E036
:101CC0000E94150D01E02FE044E26C2F84E895E0BE
:101CD0000E94150D6AE16C0F2FE044E284E895E064
:101CE0000E94150DDF91CF911F910F910895213022
:101CF00039F020F0223031F0840F0895860F0895D6
:101D0000841B0895861B0895213039F020F022307D
:101D100031F0861B0895840F0895860F0895841B63
:101D200008955F926F927F928F929F92AF92BF922F
:101D3000CF92DF92EF92FF920F931F93CF93DF9397
:101D40005C01162F642EEC01C15BDF4FDC80ED805F
:101D50004C0189E7880E911CFE80FD18C12EF116FA
:101D600008F4CF2C5B800C85202F4E2D6D2D8A81A1
:101D70000E94770E782E202F4E2D6D2D852D0E94DE
:101D8000840E482F662071F08A85F40180832C2D03
:101D9000672DC5010E94150D1F1548F01F19E3940A
:101DA000D12CDACF89858111F7CF8B85EECF1D0D30
:101DB0001C83ED82DF91CF911F910F91FF90EF90E7
:101DC000DF90CF90BF90AF909F908F907F906F905B
:101DD0005F900895DC0118964C911897ED91FC9155
:101DE0001197249130E0042E02C0359527950A946E
:101DF000E2F7842F860F883068F031961196FC93B5
:101E0000EE93E49198E0941B01C0EE0F9A95EAF7E7
:101E10002E2B885018968C938FEF9FEF01C0880F60
:101E20006A95EAF7809582230895FC01E60FF11D7B
:101E3000849190E0982F88273196E4918E0F911D20
:101E40000895CF93DF932091CF053091D0052817C7
:101E5000390709F490C0EC019093D0058093CF0529
:101E6000FC0184918093E0053196E491E093E105D3
:101E7000FE013296E491E093E205FE013396E4918F
:101E8000E093E305FE013496E491E093E405FE015E
:101E90003596E491E093E505FE013696E491E093F2
:101EA000E605FE013796E491E093E705FE013896DA
:101EB000E491E093E805FE013996E491E093E905A9
:101EC000FE013A96E491E093EA05FE013B96E49127
:101ED000E093EB05FE013C96E491E093EC05FE01F6
:101EE0003D96E491E093ED05FE013E96E491E0938A
:101EF000EE05FE013F96E491E093EF05FE0170963A
:101F0000E491E093F00561E1CE010E94150F9093FA
:101F1000F2058093F10563E1CE010E94150F9093C5
:101F2000F4058093F30565E1CE010E94150F9093AF
:101F3000F6058093F5058091CF059091D005892B0A
:101F4000D1F08091ED058093F9054091EE05409325
:101F5000FA059091F805992371F0913079F49091F8
:101F6000EF05891714F49093F9058091F005841713
:101F700014F48093FA05DF91CF9108953091EA052A
:101F80002091EC05082E000C990B622F022E000CFC
:101F9000770B630F711D37FD7A95861797071CF431
:101FA000320F3093F905241734F72093FA05E3CF65
:101FB0006F927F928F929F92AF92BF92CF92DF9259
:101FC000EF92FF920F931F93CF93DF93EC01062FB5
:101FD000142F7901FC01E55AFF4F8081813009F40B
:101FE00045C0D0F1823009F44BC0833009F452C0AF
:101FF000FE01EF5AFF4F008331961083379780819F
:10200000918147962FEFE216F10411F008F0E6C037
:10201000E1E6EE16F10408F447C0FE01E159FF4F76
:1020200020813181820F931F9C012F5F3F4FF90167
:102030004491411142C0712C872DDF91CF911F91A6
:102040000F91FF90EF90DF90CF90BF90AF909F9057
:102050008F907F906F900895FE01E35BFF4F01909A
:10206000F081E02DCE010995180FC2CFFE01E35B90
:10207000FF4F0190F081E02DCE010995081BB8CFEC
:10208000FE01E35BFF4F0190F081E02DCE01099549
:10209000181BAECFFE01E35BFF4F0190F081E02DF6
:1020A000CE010995080FA4CFF1E4EF16F10408F46E
:1020B000BBCFFE01E359FF4FB3CFFC0144914E1556
:1020C0001F0409F086C00296009709F4B4CF7E0180
:1020D000FFE4EF0EF11CF701918380831086719667
:1020E0006081C7010E94EA0EF701868372966081C3
:1020F000C7010E94EA0EA82EF70187836E01F9E757
:10210000CF0ED11CF6019081F701928781E09111E9
:1021100080E0F7018387FE01EE59FF4FB0806B2D01
:10212000C7010E94EA0E882EFE01ED59FF4F108173
:10213000612FC7010E94EA0E982EFE01EC59FF4F55
:102140000081602FC7010E94EA0E015041E050E07B
:102150009A0101C0220F0A95EAF7782E721AF70148
:10216000068110160CF068CFBA94CA0101C0880F1E
:10217000BA94EAF7881AB4849A0C115001C0440F3B
:102180001A95EAF7F42FF9199F2E2B2D4F2F682D52
:10219000F70182810E94770E182FF70182832B2D81
:1021A000492D682D83810E94840EF7018383F1E01D
:1021B000BF1609F47CC0BF1608F43FC022E0B21677
:1021C00009F47BC093E0B91609F482C0082F212FCF
:1021D00038C0F9012491820F911D26CFFE01EF58DE
:1021E000FF4F00811181080F191F680160E0C601CF
:1021F0000E94150F080F191F62E0C6010E94150FFB
:10220000F4E0CF0ED11C8E159F0580F3F801849168
:1022100090E0982F88273196E4918E2B009709F44F
:102220000ACFE816F90619F4C80103964DCFF80154
:102230003296E4910E0F111DE9CF202F210F082FA8
:102240000A0D482F612FCE010E94840C882309F4C7
:10225000F3CEF701148215828E01025A1F4F4E01F0
:10226000FFE58F0E911CF8016081C7010E94EA0E04
:10227000682EF4016081C7010E94EA0EB82E40E08A
:10228000662DCE010E94910E41E06B2DCE010E9481
:10229000910E61E0C7010E94EA0E8111F0CFF701B3
:1022A00085818A1504F38285F6018083C5CEBA182C
:1022B00021E0210F080F1B0DC4CF91E0392F301BF7
:1022C00021E0210F9A1901E0080F890F130FB9CFF0
:1022D000212F2A0D982F901B01E0080F81E0890F14
:1022E000B0CFFF920F931F93CF93DF93C82FD62FBA
:1022F00010929C058A01F12CF80161918F01E09107
:102300008605F091870584E895E009958F3F980749
:10231000F1F08E3F2FEF920779F39C014D2F6C2F38
:1023200084E895E00E94D80F9091DF05913049F044
:1023300030F0923041F0933041F0F80EDDCFC80F0D
:10234000FCCFD80FFACFC81BF8CFD81BF6CF8F2DF4
:10235000DF91CF911F910F91FF900895CF93DF935D
:10236000EC016BAFEEA9FFA90190F081E02D09957A
:10237000EEA9FFA90280F381E02DCE01DF91CF917C
:102380000994AF92BF92CF92DF92EF92FF920F9398
:102390001F93CF93DF9300D000D01F92CDB7DEB74D
:1023A0008C01DC01DA96AC90DA97DB96EC90DB9747
:1023B000ED91FC91B188FE2CD12CC12CD801ED916E
:1023C000FC9111978089D8962D913C911C82FD82B9
:1023D0008B83B8E08B9FC00111248C9DA0018D9D43
:1023E000500D9C9D500D1124240F351F3A832983D5
:1023F000D8011496ED91FC919E012F5F3F4F41E073
:102400006FE0C8010995F3948F2D8E198A1528F471
:10241000BFEFCB1ADB0AFB1488F20F900F900F90DE
:102420000F900F90DF91CF911F910F91FF90EF9040
:10243000DF90CF90BF90AF9008950F931F93CF93ED
:10244000DF938C01C62F642FCC32E8F4CA3208F037
:1024500041C0C83271F1C93209F442C080E0C034D1
:10246000D0F1CF73F801EC0FF11D868D8F3F91F104
:10247000C031E0F00E94860721E0892B09F420E0BA
:10248000F801218F27C0CD3289F140F384EB8C0F06
:10249000823020F7CF73C00FD12FD11D8E8D411107
:1024A00033C061E00E94DD0760E08E8D0E94AF07BF
:1024B00011C0025E1F4FD0E0F80181918F018F3F64
:1024C00031F061E0D03108F062E00E94DD07DF5FAB
:1024D000D63191F781E0DF91CF911F910F9108954F
:1024E00070E090E080E00E943308F4CF85E090E057
:1024F000433010F082E090E0880F991F880F991FF9
:1025000005970197F1F7E6CF62E00E94DD07E2CF81
:102510008AE296E00C94210F8F929F92AF92BF9225
:10252000CF92DF92EF92FF920E9466086093A10320
:102530007093A2038093A3039093A403289A0E940C
:102540006608C090DB02D090DC02E090DD02F090E3
:10255000DE02AB01BC014C195D096E097F09809157
:10256000BE0390E0B0E0A0E0481759076A077B0778
:1025700060F01092DA020E9466086093DB027093AA
:10258000DC028093DD029093DE028091DA028111F9
:10259000D9C081E08093DA0260918F03709190033B
:1025A000809191039091920320E030E040E85FE356
:1025B0000E946B3760938F03709390038093910315
:1025C0009093920380910601882309F4BBC0C090C8
:1025D0001201D0901301E0901401F090150120E059
:1025E00030E040E85FE3C701B6010E947838181672
:1025F0000CF035C160910E0170910F0180911001B6
:102600009091110120E030E040E85FE30E946B37D9
:1026100060930E0170930F0180931001909311014C
:102620006091A5037091A6038091A7039091A803E0
:1026300020E030E040E85FE30E946B376093A50341
:102640007093A6038093A7039093A8036091F2026E
:102650007091F3028091F4029091F50220E030E055
:1026600040E85FE30E946B376093F2027093F302DD
:102670008093F4029093F50260910E0170910F0126
:1026800080911001909111018090B1039090B2035C
:10269000A090B303B090B403A70196010E94D7376E
:1026A000A50194010E946B376093B5037093B60344
:1026B0008093B7039093B8036091A5037091A6032C
:1026C0008091A7039091A8038090A9039090AA03FA
:1026D000A090AB03B090AC03A70196010E94D7373E
:1026E000A50194010E946B376093AD037093AE0314
:1026F0008093AF039093B0036091F2027091F30264
:102700008091F4029091F5028090F6029090F70289
:10271000A090F802B090F902A70196010E94D73765
:1027200020E030E04AE754E40E942336A5019401FA
:102730000E946B376093FA027093FB028093FC0255
:102740009093FD0280910C01882309F455C020E08C
:1027500030E040E85FE360911201709113018091D5
:102760001401909115010E94783818160CF044C09D
:102770006091FA027091FB028091FC029091FD023F
:1027800020E030E046EC52E40E94783887FD34C007
:102790006091800370918103809182039091830303
:1027A00020E030E040E85FE30E946B3760938003F5
:1027B0007093810380938203909383036091FA0264
:1027C0007091FB028091FC029091FD0220E030E0CC
:1027D00048EC52E40E946A376093F6027093F70265
:1027E0008093F8029093F9021092F2021092F30291
:1027F0001092F4021092F50280910C01882331F1BD
:1028000020E030E040E85FE3609112017091130135
:1028100080911401909115010E94BD35811116C05F
:102820006091800370918103809182039091830372
:1028300020E030E040E251E40E946B376093800377
:10284000709381038093820390938303FF90EF90B2
:10285000DF90CF90BF90AF909F908F90089520E031
:1028600030E040E85FE3C701B6010E94BD35811149
:1028700069CF6091B5037091B6038091B7039091D1
:10288000B80320E030E040E85FE30E946B376093DC
:10289000B5037093B6038093B7039093B803609128
:1028A000AD037091AE038091AF039091B00320E02F
:1028B00030E040E85FE30E946B376093AD037093B4
:1028C000AE038093AF039093B0033CCFCF92DF92DF
:1028D000EF92FF920F931F93CF93DF936C01EB0165
:1028E0007B01E40EF51E10E000E0CE15DF0561F07F
:1028F0006991D601ED91FC910190F081E02DC60126
:102900000995080F191FF1CFC801DF91CF911F91D1
:102910000F91FF90EF90DF90CF900895CF92DF92CC
:10292000EF92FF920F931F93CF93DF93EC016C0113
:1029300024E0C20ED11CFC01E158FF4F0190F08150
:10294000E02DC60109958E3FEFEF9E07C8F48E017A
:102950000E571F4F7E01F1E8EF0EF11C9C01F801AC
:102960004081F7016081C6010E94D80FC15ADF4F34
:1029700098819130A9F078F09230A1F09330B9F0BD
:1029800081E090E0DF91CF911F910F91FF90EF9048
:10299000DF90CF900895F7019081890F8083F0CF69
:1029A000F801FACFF7019081981B892FF7CFF80132
:1029B000FACF0F931F93CF93DF938C01D0E0C0E049
:1029C000F801EC0FFD1F6491662341F080E895E06B
:1029D0000E948E14892B11F02196F2CFCE01DF9147
:1029E000CF911F910F91089590E080E00895CF93CB
:1029F000DF9384E190E00E94E136CFECD3E088835E
:102A000085E190E00E94E1368983CE01DF91CF918C
:102A10000895CF93DF938CE390E00E94E136CBECF6
:102A2000D3E088838DE390E00E94E13689838EE3D2
:102A300090E00E94E1368A838FE390E00E94E136C5
:102A40008B83CE01DF91CF910895CF93DF93EB017C
:102A50000E94E1368883CE01DF91CF910895CF9215
:102A6000DF92EF92FF920F931F93CF93DF93EB01CF
:102A70007B0124E0E20EF11C8B016C01C61AD70A1F
:102A8000C601800F911F0E94E136F80181938F01EA
:102A9000EE15FF05A9F7CE01DF91CF911F910F91A0
:102AA000FF90EF90DF90CF9008951F93CF93DF9327
:102AB00085ED8093BC008091120390911303A09147
:102AC0001403B09115030796A11DB11D23E0B6951F
:102AD000A795979587952A95D1F72091BC0024FD5D
:102AE00003C010925A0352C0409112035091130335
:102AF0006091140370911503452B462B472B69F306
:102B00000097A105B10541F02AE22A95F1F700C02E
:102B10000197A109B109E1CF80911103C1E0C093F0
:102B20001003882399F1D091B8001091BA008091D8
:102B3000BC008A7B8093BC0060E082E10E94AF070A
:102B400060E083E10E94AF0710925A03C0935C03D8
:102B500010925B0361E082E10E94AF0761E083E1D4
:102B60000E94AF078091B9008E7F8093B900809159
:102B7000B9008D7F8093B90088E48093B80085E424
:102B80008093BC001093BA00D093B800DF91CF912E
:102B90001F910895FB0101900020E9F73197AF01E3
:102BA000461B570BDC01ED91FC910280F381E02D77
:102BB00009948F929F92AF92BF92EF92FF920F93E0
:102BC0001F93CF93DF93CDB7DEB7A1970FB6F894DD
:102BD000DEBF0FBECDBF7C01FA01CB0119A22230AE
:102BE00008F42AE08E010F5D1F4F822E912CB12C2C
:102BF000A12CBF01A50194010E94F736F901CA0179
:102C00006A300CF5605DD8016E938D01232B242B67
:102C1000252B79F790E080E0109721F0BD01C701E6
:102C20000E94CA15A1960FB6F894DEBF0FBECDBFA5
:102C3000DF91CF911F910F91FF90EF90BF90AF90D8
:102C40009F908F900895695CDECF462F50E070E032
:102C500060E02AE00C94D915CF92DF92EF92FF92B8
:102C60000F931F93CF93DF936B01770FEE08FF084D
:102C7000F7FE1BC0EC016DE20E947A088C0144272C
:102C80005527BA014C195D096E097F092AE0CE016A
:102C90000E94D915800F911FDF91CF911F910F9145
:102CA000FF90EF90DF90CF9008952AE0B701A60142
:102CB000DF91CF911F910F91FF90EF90DF90CF9018
:102CC0000C94D9154F925F926F927F928F929F9240
:102CD000AF92BF92EF92FF920F931F93CF93DF9328
:102CE0008C014A015B01E22EAB019401CB01B401DE
:102CF0000E947D3862E871E0811126C0240135010F
:102D0000E89477F82FEF3FEF4FE75FE7C301B20199
:102D10000E947D3881110CC02FEF3FEF4FE75FE736
:102D2000C301B2010E94BD3566E871E0181664F077
:102D30002FEF3FEF4FE75FE4C501B4010E94783801
:102D400018169CF46AE871E0C801DF91CF911F91D9
:102D50000F91FF90EF90BF90AF909F908F907F90DA
:102D60006F905F904F900C94CA152FEF3FEF4FE795
:102D70005FECC501B4010E94BD3587FDE3CF20E0C3
:102D800030E0A901C501B4010E94BD35D0E0C0E02A
:102D900087FF09C06DE2C8010E947A08EC01B7FA0A
:102DA000B094B7F8B094FE2C712C60E070E080E035
:102DB0009FE37E1440F420E030E040E251E40E94C2
:102DC000D7377394F6CFA50194010E946B374B015E
:102DD0005C010E9449382B013C012AE0BC01A201A0
:102DE000C8010E94D915C80FD91FEE20D1F1C30127
:102DF000B2010E94C2359B01AC01C501B4010E9421
:102E00006A374B015C016EE2C8010E947A08C80F64
:102E1000D91FFA948FEFF81621F120E030E040E25C
:102E200051E4C501B4010E9423362B013C010E94EC
:102E300049384B01B12CA12C2AE0B501A401C801ED
:102E40000E94D915C80FD91FC501B4010E94C2350F
:102E50009B01AC01C301B2010E946A374B015C01C6
:102E6000D8CFCE01DF91CF911F910F91FF90EF90BE
:102E7000BF90AF909F908F907F906F905F904F909A
:102E800008950C94CA150F931F93CF93DF93EC0111
:102E9000683109F46EC058F46431F9F0F901673112
:102EA00081F080E0DF91CF911F910F9108956931FA
:102EB00009F49CC06032A9F76AE4CE010E941F0A9F
:102EC00056C0442309F453C081918EBD00000DB457
:102ED00007FEFDCF8EB54150F4CFE881F9818C8596
:102EE0009D85AE85BF85892B8A2B8B2B41F48085F0
:102EF0009185A285B3858C879D87AE87BF874181E9
:102F000069E4CE010E941F0ACFB7F8948091FE02B7
:102F1000811127C0E8EFF5E08491ECE0F6E09491B0
:102F2000E82FF0E0EE0FFF1FE053FA4FA591B491A8
:102F3000EC91E92321F461E08AE00E94AF0761E0AF
:102F40008AE00E94DD078CB580618CBD8CB5806401
:102F50008CBD61E08DE00E94DD0761E08BE00E94A6
:102F6000DD078091FE028F5F8093FE02CFBF81E07C
:102F700099CFE881F981E485E15090E0E33020F4D5
:102F8000F0E0E25EFE4F90810C851D852E853F8529
:102F900040E052E16AE770E080E004171507260779
:102FA000370740F476956795579547958F5F86303C
:102FB000A1F787E09C709065282F2695922B80952D
:102FC00081709CBD8DBDE881F981408169E4CE01AD
:102FD0000E941F0AA881B981EA85FB8530E020E0C4
:102FE00012964C916CE2CE010995C1CFA881B981AE
:102FF000EA85FB8530E020E013964C916CE2099560
:10300000E881F981418169E458CFCF93DF93EC01E6
:1030100088819981009711F00E94303919821882B5
:103020001D821C821B821A82DF91CF910895FC01C0
:1030300080819181009711F00C9430390895CF93DD
:10304000DF93FC01248135814217530788F4C08146
:10305000D181062E000C770BCE01840F951F0E94A4
:10306000863A009729F08C1B9D0BDF91CF91089534
:103070008FEF9FEFFACFFC0124813581232B39F4A8
:1030800021E0FB018081882349F020E007C0808196
:1030900091810E94913A21E0892BB9F7822F0895FE
:1030A0000F931F93CF93DF93EC0188819981009751
:1030B00059F02A813B812617370730F081E0DF91F4
:1030C000CF911F910F9108958B016F5F7F4F0E94E9
:1030D000B939009759F0998388831B830A832C811F
:1030E0003D81232B59F7FC011082E8CF80E0E7CF28
:1030F000EF92FF920F931F93CF93DF9361157105AA
:1031000041F480E0DF91CF911F910F91FF90EF90FC
:10311000089541155105B1F07B01EC010C811D8131
:10312000040F151FB8010E945018882351F32881FD
:1031300039818C819D81B701820F931F0E949A3A39
:103140001D830C8381E0DECFEF92FF920F931F93DC
:10315000CF93DF93EC017B018A01BA010E945018E2
:1031600081110BC0CE010E940518CE01DF91CF91D5
:103170001F910F91FF90EF9008951D830C83B7016D
:10318000888199810E949A3AF0CFFB01019000203A
:10319000E9F73197AF01461B570B0C94A418CF9356
:1031A000DF93EC01FB018617970749F0608171817D
:1031B0006115710541F0448155810E94A418CE012A
:1031C000DF91CF9108950E940518F9CFFC0111827B
:1031D00010821382128215821482FB01019000205A
:1031E000E9F73197AF01461B570B0C94A418AF9227
:1031F000BF92CF92DF92EF92FF920F931F93CF93E4
:10320000DF936C015B017A0189012417350720F4F3
:103210008F2D7901042F182F6CEA71E0C6010E94EE
:10322000E618D5011496CD91DC91EC16FD06E0F47C
:103230000C171D0708F4E801D501ED91FC911197D9
:10324000EC0FFD1F108110826D917C916E0D7F1D22
:10325000C60161157105A1F00E94C518F5018081B4
:103260009181C80FD91F1883C601DF91CF911F919B
:103270000F91FF90EF90DF90CF90BF90AF900895A7
:103280000E940518EBCFFC01A081B18150962C91D2
:1032900082AD38E0839FC0011124289FA001299F9F
:1032A000500D112470E060E080AD91AD0C947F3A38
:1032B0001F93CF93DF93EC010E94C1111BAD8AAD28
:1032C000180FE881F9818189181768F0EC81FD8178
:1032D00030E020E040E060E1CE01099580E0DF9140
:1032E000CF911F910895FE01E658FF4F80818823FA
:1032F00019F0CE010E944319612FCE010E94AE1138
:1033000081E0EDCFCF93DF93EC01FC01E658FF4F56
:103310008081882319F0CE010E94431960E0CE011C
:10332000DF91CF910C94AE11E091E103F091E203B3
:1033300082E08083E091DD03F091DE031082E09172
:10334000DF03F091E0038FEC80831092E903E091BA
:10335000E503F091E60386E08083E091E303F091DA
:10336000E403808180618083E091E303F091E403D2
:10337000808188608083E091E303F091E4038081A1
:1033800080688083E091E303F091E40380818F7D86
:10339000808382E390E0A0E0B0E08093D503909337
:1033A000D603A093D703B093D80384B184B9539ABA
:1033B000229855985B9A5A9A289AE0918805F0913C
:1033C000890530E020E040E06AE084E895E0099576
:1033D00084E895E00E94821984E895E00E945819DB
:1033E0008111FACF60E084E895E00E94AE11E0918F
:1033F0008805F091890530E020E040E06BE084E84A
:1034000095E0099584EF9BE0909300068093FF057B
:103410008CE892E190930801809307018091690004
:103420008C7F826080936900E89A62E171E081E0BC
:1034300090E00E942F1561EB73E085E090E00E9420
:103440002F1565EB73E085E090E00E942F150E9438
:10345000F71460E873E089E190E00E942F156EEBAD
:1034600073E08EE190E00E94251561EC73E08FE13E
:1034700090E00E94251566E171E080E290E00E94F4
:1034800025156DEA73E08DE290E00E942F1569EA40
:1034900073E08DE290E00E942F150E9409156CEBFD
:1034A00073E08BE490E00E9425156BEB73E08CE4F5
:1034B00090E00E9425156AEB73E08DE490E00E9495
:1034C000251569EB73E08EE490E00E94251561EC10
:1034D00073E080E590E00E9425156DEB73E08AE5CE
:1034E00090E00C942515FF920F931F93CF93DF93D9
:1034F000EC01F62E08811981C8010E94E136F81608
:1035000021F06F2DC8010E94E936CE01DF91CF91E5
:103510001F910F91FF900895CF93DF9300D0CDB707
:10352000DEB785E390E09A83898360911701CE012D
:1035300001960E94731A87E191E00F900F90DF913E
:10354000CF910895AF92BF92CF92DF92EF92FF9208
:103550000F931F93CF93DF9300D0CDB7DEB78B01CE
:103560006B0124E0C20ED11C7B015C01A61AB70AD4
:10357000C5018E0D9F1D9A838983F70161917F019B
:10358000CE0101960E94731AEC14FD0489F7C8015C
:103590000F900F90DF91CF911F910F91FF90EF90BF
:1035A000DF90CF90BF90AF90089560918A037091A3
:1035B0008B0380918C0390918D0320E030E0A90172
:1035C0000E94BD3581110CC080E090E0A0E8BFE30F
:1035D00080938A0390938B03A0938C03B0938D0305
:1035E0006AE873E081E090E00E94A21A8FE39CE910
:1035F0000197F1F700C0000010928F031092900322
:1036000010929103109292031092B5031092B60398
:103610001092B7031092B8031092B1031092B20344
:103620001092B3031092B40310920E0110920F0186
:1036300010921001109211011092FA021092FB02E6
:103640001092FC021092FD021092F6021092F70204
:103650001092F8021092F9021092F2021092F30204
:103660001092F4021092F5021092AD031092AE0384
:103670001092AF031092B0031092A5031092A6030C
:103680001092A7031092A8031092A9031092AA0304
:103690001092AB031092AC038FE39CE90197F1F712
:1036A00000C0000062E171E081E090E00E942F150F
:1036B0008FE39CE90197F1F700C0000065EB73E030
:1036C00085E090E00E94A21A8FE39CE90197F1F750
:1036D00000C0000010928E0381E080930C01809363
:1036E000060108950F931F936091800370918103E9
:1036F000809182039091830320E030E0A9010E9431
:10370000783887FD48C00E9466080091DF0210915A
:10371000E0022091E1023091E202601B710B820B0A
:10372000930B6230710581059105A8F10E9466082E
:103730006093DF027093E0028093E1029093E202D3
:103740005B986091BD0370E090E080E00E943308D8
:103750005B9A6091800370918103809182039091C4
:10376000830320E030E040E85FE30E946A37609323
:10377000800370938103809382039093830360E8B6
:1037800073E089E190E00E94A21A8AE090E09093B1
:10379000A00380939F031F910F910895EF92FF92D2
:1037A0000F931F93CF93DF9300D0CDB7DEB78C017B
:1037B0007B019A838983FB016081CE0101960E947F
:1037C000731A0F5F1F4F1A830983F7016181CE01BE
:1037D00001960E94731AC7010F900F90DF91CF914D
:1037E0001F910F91FF90EF9008950F931F93CF9328
:1037F000DF9300D000D0CDB7DEB789E390E390939C
:10380000D0038093CF0380E090E0A0E8BFE38983FA
:103810009A83AB83BC83BE016F5F7F4F81E090E0F2
:103820000E94A21A1A821982BE016F5F7F4F85E043
:1038300090E00E94CE1B6FEC73E084E190E00E9468
:10384000CE1B1A821982BE016F5F7F4F89E190E023
:103850000E94CE1B84E190E09A838983BE016F5F52
:103860007F4F8EE190E00E94CE1B05E010E01A83AE
:103870000983BE016F5F7F4F8FE190E00E94CE1BF6
:1038800081E090E09A838983BE016F5F7F4F80E281
:1038900090E00E94CE1B1A821982BE016F5F7F4F9B
:1038A0008DE290E00E94CE1B0E948C1A1A8219822F
:1038B000BE016F5F7F4F8BE490E00E94CE1B1A82A7
:1038C0001982BE016F5F7F4F8CE490E00E94CE1B97
:1038D0001A821982BE016F5F7F4F8DE490E00E94D3
:1038E000CE1B1A821982BE016F5F7F4F8EE490E07B
:1038F0000E94CE1B1A830983BE016F5F7F4F80E554
:1039000090E00E94CE1B89E190E09A838983BE01FA
:103910006F5F7F4F8AE590E00E94CE1B0F900F9063
:103920000F900F90DF91CF911F910F9108950F93FA
:103930001F93CF93DF9300D0CDB7DEB78B019A836F
:103940008983FB016081CE0101960E94731AC80130
:103950000F900F90DF91CF911F910F910895CF930A
:10396000DF9300D000D000D0CDB7DEB71092950322
:103970001092940382E390E09093850380938403F4
:1039800080E090E0A0E8BFE38093120190931301E0
:10399000A0931401B093150162E171E081E090E021
:1039A0000E94A21A8FE39CE90197F1F700C0000082
:1039B0001E821D82BE016B5F7F4F85E090E00E94FA
:1039C000CE1B8FE39CE90197F1F700C000001A823B
:1039D0001982BE016F5F7F4F8DE290E00E94CE1B87
:1039E0008FE39CE90197F1F700C0000019821A8269
:1039F0001B821C82BE016F5F7F4F89E190E00E94B5
:103A0000A21A8FE39CE90197F1F700C0000084E15E
:103A100090E09E838D83BE016B5F7F4F8EE190E0CF
:103A20000E94CE1B8FE39CE90197F1F700C00000D4
:103A30001092FA021092FB021092FC021092FD0208
:103A40001092F6021092F7021092F8021092F90208
:103A50001092F2021092F3021092F4021092F50208
:103A600010920E0110920F0110921001109211018C
:103A700010928F0310929003109291031092920370
:103A80001092A5031092A6031092A7031092A80308
:103A90001092B5031092B6031092B7031092B803B8
:103AA0001092B1031092B2031092B3031092B403B8
:103AB0001092AD031092AE031092AF031092B003B8
:103AC0001092A9031092AA031092AB031092AC03B8
:103AD000109280031092810310928203109283034C
:103AE0001092880310928703109286038FE08093D0
:103AF000BE0381E08093160185E08093C10310929C
:103B0000C00361EC73E08FE190E00E94971C8FE3AB
:103B10009CE90197F1F700C0000066E171E080E2E6
:103B200090E00E94971C88E0809316018FE39CE947
:103B30000197F1F700C000006EEB73E08EE190E0BA
:103B40000E94971C26960FB6F894DEBF0FBECDBF1D
:103B5000DF91CF9108958F929F92AF92BF92CF92B3
:103B6000DF92EF92FF920F931F93CF93DF9300D0DA
:103B700000D000D0CDB7DEB710911601113009F09A
:103B8000B7C020E030E040E85FE36091120170913F
:103B9000130180911401909115010E94BD3581118E
:103BA000B3C382E798E09093D2058093D1058DEE60
:103BB00091E00E94210F1093010682E0809302069B
:103BC0004091B5035091B6036091B7037091B8036B
:103BD00030E020E080E895E00E94621665EB73E03B
:103BE00085E090E00E94A21A83EA90E00E94210FF3
:103BF00082E0809301068FE2809302064091AD033C
:103C00005091AE036091AF037091B00330E020E0BB
:103C100080E895E00E9462166DEA73E08DE290E024
:103C20000E94A21A0E94721B8AE296E00E94210F53
:103C300081E08093010612E21093020663E076E0D1
:103C400080E895E00E948108409112015091130193
:103C5000609114017091150122E030E080E895E058
:103C60000E94621684EA95E00E94D9146091940340
:103C70007091950380E895E00E942C1680EA95E00B
:103C80000E94D9148091880364E10E948238682FD1
:103C900070E080E895E00E942C168DE995E00E9486
:103CA000D9146091BE0380E895E00E94251683E652
:103CB00080930106109302066EE871E080E895E0BB
:103CC0000E94411721E030E04AE959E969ED7FE3BC
:103CD00080E895E00E94621684E78093010685E300
:103CE000809302066EE675E080E895E00E94810808
:103CF00010911601123009F0A4C082E798E0909369
:103D0000D2058093D10581E194E00E94210F1093A8
:103D1000010681E38093020640918F035091900346
:103D2000609191037091920330E020E080E895E08B
:103D30000E9462160E9488121093010612E21093EC
:103D4000020663E076E080E895E00E9481088BE15E
:103D50008093010610930206C0908F03D0909003C9
:103D6000E0909103F090920360918E0370E090E0F8
:103D700080E00E94C4359B01AC01C701B6010E94DE
:103D8000D737AB01BC0122E030E080E895E00E942B
:103D9000621682E097E0909387058093860543E959
:103DA00051E062E282E30E94711189E6809301068C
:103DB0001093020660918E0380E895E00E9425161C
:103DC00089E995E00E94D91480910501882301F1C9
:103DD0008091F1028E3138F500E024E14AE268E694
:103DE00084E895E00E94150D22E14AE26AE184E848
:103DF00095E00E94150D8091F1028F5F8093F10292
:103E00008D3111F4109205018091050181110BC0D3
:103E10008091F102882339F081508093F102813042
:103E200011F4809305018EE199E00E94210F89E150
:103E30008093010682E0809302068EE895E00E945E
:103E4000D91480911601833009F095C082E798E07B
:103E50009093D2058093D1050E948812109201069A
:103E600082E0809302068AE895E00E94D91440918E
:103E7000CB035091CC036091CD037091CE032AE027
:103E800080E895E00E94D915109201068CE080939D
:103E9000020686E895E00E94D91440918F03509164
:103EA0009003609191037091920330E020E080E8EC
:103EB00095E00E9462160E94721B1092010686E134
:103EC0008093020681E895E00E94D9144091800316
:103ED00050918103609182037091830330E020E070
:103EE00080E895E00E9462161092010680E28093BD
:103EF00002068AE795E00E94D9144091B5035091DB
:103F0000B6036091B7037091B80325E030E080E814
:103F100095E00E946216109201068AE280930206E2
:103F200083E795E00E94D9144091AD035091AE0310
:103F30006091AF037091B00325E030E080E895E038
:103F40000E9462161092010684E38093020663E0E9
:103F500076E080E895E00E9481084091120150913E
:103F60001301609114017091150123E030E080E8A5
:103F700095E00E94621680911601873009F0A3C077
:103F800082E798E09093D2058093D1058EE199E085
:103F90000E94210F83E28093010682E08093020653
:103FA0008BE695E00E94D9140E94881281E08093EC
:103FB000010612E21093020663E076E080E895E0E5
:103FC0000E948108409112015091130160911401E7
:103FD0007091150121E030E080E895E00E946216C2
:103FE00087E695E00E94D91460919403709195033F
:103FF00080E895E00E942C160E94721B83E695E0F3
:104000000E94D9148091880364E10E948238682F4D
:1040100070E080E895E00E942C1680E695E00E9412
:10402000D91483E580930106109302066091BE03C4
:1040300080E895E00E94251680910501882301F112
:104040008091F1028E3138F500E02DE049E262E521
:1040500084E895E00E94150D2DE04AE262E584E8CF
:1040600095E00E94150D8091F1028F5F8093F1021F
:104070008D3111F4109205018091050181110BC061
:104080008091F102882339F081508093F1028130D0
:1040900011F48093050185E00E94860720919E031C
:1040A000892B09F400C521110AC00E94660860939B
:1040B0009A0370939B0380939C0390939D031092AB
:1040C000950310929403809116018830B1F482E731
:1040D00098E09093D2058093D10583EA90E00E9406
:1040E000210F82E097E090938705809386054EE943
:1040F00051E06FE282E00E947111109116011930B7
:1041000009F0D9C182E798E09093D2058093D10558
:104110000E9488120EE1009301061092020687E5C4
:1041200095E00E94D9148DE1809301061093020658
:1041300081E595E00E94D9144091CB035091CC03C6
:104140006091CD037091CE032AE080E895E00E9453
:10415000D9158AE08093010682E18093020688E403
:1041600095E00E94D9146091C10380E895E00E9417
:1041700025168DEE91E00E94210F10930106009309
:1041800002066091F00280E895E00E94251686E420
:1041900095E00E94D9146091EF0280E895E00E94BA
:1041A000251684E495E00E94D9146091EE0280E81F
:1041B00095E00E94251682E495E00E94D914609152
:1041C000ED0280E895E00E94251685E00E948607B2
:1041D000892B51F50E9466080091A1031091A2035A
:1041E0002091A3033091A403601B710B820B930BEE
:1041F00060367A4E81059105B8F00E94660860939A
:10420000A1037093A2038093A3039093A40381E07E
:1042100080931601809304011092F0021092EF0235
:104220001092EE021092ED0210920B0185E00E94B6
:104230008607892B49F1809186038F5F80938603DF
:10424000843621F50E946608009196031091970329
:104250002091980330919903601B710B820B930B93
:10426000683E73408105910588F00E94660860935E
:10427000960370939703809398039093990380918A
:1042800004018F5F809304011092860385E00E94F1
:10429000860711E0009709F410E0892B09F0C9C0E6
:1042A00080919E03882309F4C4C00E946608C090D0
:1042B0009603D0909703E0909803F09099036C19BF
:1042C0007D098E099F09663971058105910508F4FC
:1042D000B0C00E9466086093960370939703809322
:1042E00098039093990380910401813039F590915E
:1042F000F0029F5F9093F0029091ED02843031F5CF
:104300009F5F9093ED0222C082E798E09093D205E0
:104310008093D1058DEE91E00E94210F109301064C
:1043200082E0809302064091B5035091B6036091FC
:10433000B7037091B80321E030E04CCC823009F033
:1043400017C29091EF029F5F9093EF029091F0025D
:104350009A3010F01092F0029091EF029A3010F023
:104360001092EF029091EE029A3010F01092EE024D
:104370009091ED029A3010F01092ED029BEF980FA1
:10438000983018F0803108F43CC081E02091F002B0
:104390009091BC03291380E091E03091EF022091CD
:1043A000BB03321390E0892391E03091EE0220911B
:1043B000BA03321390E0892309F4E3C19091ED022E
:1043C0008091B9039813DDC185E08093C10381E03A
:1043D0008093040110920D0180930B0180931601CC
:1043E00061EC73E08FE190E00E94971C81E090E027
:1043F0009A838983BE016F5F7F4F80E290E00E94C5
:10440000CE1B809104018D50833098F48091BC03C1
:104410008093F0028091BB038093EF028091BA03F6
:104420008093EE028091B9038093ED0284E0809343
:104430000401109295031092940310939E038091AF
:104440000501882369F18091F1028E31A0F58091F8
:104450000401813019F485E00E94290E8091040145
:10446000823019F482E20E94290E80910401833087
:1044700019F48FE30E94290E80910401843019F40D
:104480008CE50E94290E8091F1028F5F8093F102EA
:104490008D3111F4109205018091050181110BC03D
:1044A0008091F102882339F081508093F1028130AC
:1044B00011F480930501809116018A3009F0DAC069
:1044C00082E798E09093D2058093D10581E194E052
:1044D0000E94210F11E0109301068FE280930206E3
:1044E00084E395E00E94D9140E948812109301067B
:1044F000109302066091EB027091EC0280E895E067
:104500000E942C1682E395E00E94D9146091040168
:1045100080E895E00E94251680E395E00E94D9147A
:104520006091860380E895E00E9425168DE18093D6
:1045300001068FE0809302068AE295E00E94D9147A
:104540004091CB035091CC036091CD037091CE0389
:104550002AE080E895E00E94D9158CE0809301065E
:104560008EE18093020680E295E00E94D91485E0F6
:104570000E948607892B11F50E9466080091E702C8
:104580001091E8022091E9023091EA02601B710B60
:10459000820B930B683E73408105910578F00E9471
:1045A00066086093E7027093E8028093E9029093B3
:1045B000EA02809186038F5F8093860381E0909169
:1045C000F002953009F080E091E02091EF02253073
:1045D00009F090E0892391E02091EE02253009F066
:1045E00090E0892391E02091ED02253009F090E0E0
:1045F000892391E02091E602253009F090E089239B
:10460000E9F09091E5029530C9F481E080930401CE
:1046100010920D0180930B01809316019093C103BA
:104620001092C00361EC73E08FE190E00E94971C50
:1046300066E171E080E290E00E94971C85E00E94B4
:1046400086079C01FF24F394892B09F4F12C9091A7
:104650009E03232B09F45BC291110AC00E946608D5
:1046600060939A0370939B0380939C0390939D03A4
:10467000F0929E03809116018B3009F0A4C181E075
:104680008093C0036CEA71E0CE0101960E94E618A7
:1046900082E798E09093D2058093D1058091030141
:1046A00069EB71E0882311F06DEA71E0CE010196AB
:1046B0000E94C5180E94881281E08093010612E2D0
:1046C0001093020663E076E080E895E00E9481089E
:1046D00040911201509113016091140170911501E4
:1046E00023E030E080E895E00E94621687E4809342
:1046F000010610930206BE016F5F7F4F80E895E0D0
:104700000E9481088AE580930106109302066FEAF1
:1047100071E080E895E00E944117C0901201D090AE
:104720001301E0901401F090150120E030E048EC16
:1047300052E4C701B6010E94783887FD5FC08091BE
:1047400001019091020120E230E08130910531F0C9
:104750008230910509F049C028E230E03093E4024C
:104760002093E302069709F049C08AE590E042C031
:10477000833009F0C1CD9091EE029F5F9093EE02DD
:10478000E5CD8091C10381508093C10381E0809386
:104790000B0180931601809304011092F002109295
:1047A000EF021092EE021092ED0261EC73E08FE1E5
:1047B00090E00E94971C25CE1092EC021092EB0222
:1047C00057CF0F5F1F4F1093EC020093EB020E9434
:1047D0006608609396037093970380939803909371
:1047E000990381E08093930343CF8330910589F54A
:1047F0008CE290E09093E4028093E30220E030E0CA
:1048000046EC52E4C701B6010E94BD351816BCF152
:1048100020E030E040E251E4C701B6010E94783860
:1048200087FD2DC080910101909102012CE130E0C3
:104830008130910529F082309105C1F424E230E005
:104840003093E4022093E3020697C9F48AE590E0EE
:1048500012C08430910519F480E390E0CBCF85300D
:10486000910509F07FCF86E490E0C4CF83309105B5
:1048700081F588E290E09093E4028093E30220E0E7
:1048800030E040E151E4C701B6010E94BD35181681
:10489000BCF120E030E0A901C701B6010E947838E0
:1048A00087FD2EC0809101019091020128E130E046
:1048B0008130910529F082309105C1F420E230E089
:1048C0003093E4022093E3020697D1F48AE590E066
:1048D00013C08430910519F48CE290E0CCCF853080
:1048E000910509F0B1CF86E490E0C5CF8330910502
:1048F00009F07CC084E290E09093E4028093E302AC
:1049000085E00E9486079C01FF24F394892B09F41B
:10491000F12C90919E03232B09F4B4C191110AC08C
:104920000E94660860939A0370939B0380939C0394
:1049300090939D03F0929E03809105018823D9F006
:104940008091F1028E3110F500E02091000149E2E2
:104950006091E30284E895E00E94150D8091F102D8
:104960008F5F8093F1028D3111F4109205018091D7
:10497000050181110BC08091F102882339F081502B
:104980008093F102813011F48093050185E00E944B
:104990008607892B91F0809186038F5F8093860331
:1049A000883C69F48091010190910201019709F41A
:1049B00077C0909302018093010110928603CE018B
:1049C00001960E94171826960FB6F894DEBF0FBE08
:1049D000CDBFDF91CF911F910F91FF90EF90DF90AE
:1049E000CF90BF90AF909F908F90089584309105A5
:1049F00019F488E290E080CF8530910509F064CF0A
:104A000086E490E079CF02301105A9F4609112019B
:104A1000709113018091140190911501209103016F
:104A2000222309F490C125E0209300012DEC3CECF9
:104A30004CEC5DE366C10330110509F0A0C1609143
:104A40001201709113018091140190911501209130
:104A50000301222309F481C125E0209300012AE00B
:104A600037ED43E25CE30E946B3760931201709371
:104A7000130180931401909315010630110509F07C
:104A800059CF8FE08093000162E171E081E090E016
:104A90000E94A21A81E0809316011092C0034ACFAF
:104AA00086E090E086CF222309F409CB0E946608B5
:104AB00000919603109197032091980330919903E8
:104AC000601B710B820B930B643671058105910598
:104AD00008F4F5CA0E9466086093960370939703E2
:104AE00080939803909399038091BE038F5F809386
:104AF000BE036EEB73E08EE190E00E94971C809104
:104B0000BE03833308F4DBCA1092BE03D8CA9923CC
:104B100009F4AECD0E94660800919A0310919B03A0
:104B200020919C0330919D03601B710B820B930BB2
:104B30006B3071058105910508F49ACD0E946608D5
:104B40000091EB021091EC028090960390909703F5
:104B5000A0909803B0909903681979098A099B0974
:104B6000683273428105910508F42BCE0E946608D5
:104B7000609396037093970380939803909399039F
:104B800080910401813079F40530110561F482E0EF
:104B90008093040185E08093F0021092EC02109261
:104BA000EB02109286038091EB029091EC02059744
:104BB00081F480910401823061F483E080930401E8
:104BC00085E08093EF021092EC021092EB021092BB
:104BD00086038091EB029091EC02059781F480911D
:104BE0000401833061F484E08093040185E08093C4
:104BF000EE021092EC021092EB021092860380916A
:104C0000EB029091EC02059779F4809104018430D5
:104C100059F485E0809304018093ED021092EC0238
:104C20001092EB02109286038091EB029091EC02BD
:104C3000059779F480910401853059F496E09093BA
:104C400004018093E6021092EC021092EB021092A3
:104C500086038091EB029091EC02059709F0ACCDB0
:104C600080910401863009F0A7CD87E0809304018C
:104C700085E08093E5021092EC021092EB02109214
:104C80008603F6CC992309F455CE0E94660800915C
:104C90009A0310919B0320919C0330919D03601B0C
:104CA000710B820B930B6B3071058105910508F434
:104CB00041CE0E9466086093960370939703809399
:104CC00098039093990381E08093930300910101ED
:104CD000109102010130110509F095CE6091120189
:104CE000709113018091140190911501209103019D
:104CF0002223F9F025E02093000120E030E040E895
:104D00005FE30E946B3760931201709313018093ED
:104D10001401909315010530110509F0AECE85E020
:104D2000809300018091030191E089278093030122
:104D300001CE25E02093000120E030E040E85FE371
:104D40000E946A37E0CF25E0209300012DEC3CEC77
:104D50004CEC5DE30E946A3788CE25E02093000189
:104D60002AE037ED43E25CE30E946A3720C025E089
:104D7000209300012FE632E143E85AE3F5CF0430F7
:104D8000110549F66091120170911301809114018F
:104D90009091150120910301222349F325E02093EE
:104DA00000012FE632E143E85AE30E946B3760933B
:104DB0001201709313018093140190931501BACDE1
:104DC0001F920F920FB60F9211242F933F938F9340
:104DD0009F93AF93BF938091C3039091C403A0911D
:104DE000C503B091C6033091C20323E0230F2D37D2
:104DF00058F50196A11DB11D2093C2038093C303F2
:104E00009093C403A093C503B093C6038091C703D6
:104E10009091C803A091C903B091CA030196A11D46
:104E2000B11D8093C7039093C803A093C903B093A7
:104E3000CA03BF91AF919F918F913F912F910F9096
:104E40000FBE0F901F90189526E8230F0296A11D04
:104E5000B11DD2CF1F920F920FB60F9211242F9334
:104E60003F934F935F936F937F938F939F93AF93F2
:104E7000BF93EF93FF93E0910901F0910A01099527
:104E8000FF91EF91BF91AF919F918F917F916F9122
:104E90005F914F913F912F910F900FBE0F901F90F8
:104EA00018951F920F920FB60F9211242F933F93D4
:104EB0004F935F936F937F938F939F93AF93BF9322
:104EC000EF93FF93E0910701F09108010995FF919D
:104ED000EF91BF91AF919F918F917F916F915F9172
:104EE0004F913F912F910F900FBE0F901F901895EB
:104EF0001F920F920FB60F9211242F933F934F934F
:104F00005F936F937F938F939F93AF93BF93EF9331
:104F1000FF9381ED93E00E943F09FF91EF91BF91D4
:104F2000AF919F918F917F916F915F914F913F9141
:104F30002F910F900FBE0F901F9018951F920F92F8
:104F40000FB60F9211242F938F939F93EF93FF939C
:104F5000E091E103F091E2038081E091E703F091B9
:104F6000E80382FD1BC090818091EA038F5F8F73FD
:104F70002091EB03821741F0E091EA03F0E0EF5259
:104F8000FC4F958F8093EA03FF91EF919F918F9152
:104F90002F910F900FBE0F901F9018958081F4CF26
:104FA0001F920F920FB60F9211242F933F934F939E
:104FB0005F936F937F938F939F93AF93BF93EF9381
:104FC000FF938091B900887F803609F44AC0F0F5DC
:104FD000883209F4A5C018F5803109F499C0B8F4F5
:104FE000882309F4F5C0883009F492C0FF91EF914D
:104FF000BF91AF919F918F917F916F915F914F91F1
:105000003F912F910F900FBE0F901F9018958831F0
:1050100009F486C0803251F78093590314C080345C
:1050200009F49BC040F48033B9F38833F9F68093D8
:10503000590385ECAEC0803509F483C0883509F486
:1050400094C0883499F60E945515D0CF883909F458
:105050008AC038F5883729F050F4883611F0803747
:1050600029F683E080935A031092580355C088387C
:1050700009F479C0803919F0803809F0B7CF8091F0
:105080005803803208F06FC0E091580381E08E0F22
:10509000809358038091BB00F0E0E85CFC4F808374
:1050A0003BC0803B39F0D0F4803A09F477C0883AAD
:1050B00009F09CCF84E080935A031092370310923A
:1050C0003603F0E0E0E009958091360381110FC0CE
:1050D00081E0809336031092160309C0803C09F4E6
:1050E000A8CF883C09F4A5CF883B09F07FCFE09199
:1050F000370381E08E0F80933703F0E0EA5EFC4FC8
:1051000080818093BB00909137038091360329C042
:1051100080917F038093BB0085EC8093BC0066CFB9
:1051200090917E0380917D03981758F5E0917E035E
:1051300081E08E0F80937E03F0E0E35AFC4F808184
:10514000E9CFE0917E0381E08E0F80937E03809112
:10515000BB00F0E0E35AFC4F808390917E03809186
:105160007D039817C8F285E8D8CFE0917E0381E0EF
:105170008E0F80937E038091BB00F0E0E35AFC4FDA
:10518000808380915C0381115ECF81E080935B031B
:1051900084EA8093BC0010925A0328CF85EC809358
:1051A000BC0010925A0380915803803230F4E09191
:1051B0005803F0E0E85CFC4F10826091580370E007
:1051C00088E393E0F0E0E0E00995109258030ECFF9
:1051D0001092590338CFCF931092D4031092D30377
:1051E00088EE93E0A0E0B0E08093D5039093D603DF
:1051F000A093D703B093D80382E691E09093D203B3
:105200008093D10385EC90E09093DE038093DD03DF
:1052100084EC90E09093E0038093DF0380EC90E0D7
:105220009093E2038093E10381EC90E09093E40398
:105230008093E30382EC90E09093E6038093E50390
:1052400086EC90E09093E8038093E7031092EA03E2
:105250001092EB031092EC031092ED0364EB71E0FB
:1052600083E096E00E94E618109283051092820572
:1052700082E097E0909300068093FF05109201066C
:105280001092020610929C0584E791E090938105AC
:1052900080938005109285051092840510929905DF
:1052A000109290051092910510929205109293051C
:1052B0008FEF80939A0580939E05E2EAF5E088EBF4
:1052C00095E0CFEFC1938E179F07E1F784E99AE04D
:1052D00090938905809388058BE49BE090938B05E0
:1052E00080938A0583E497E190938D0580938C05E4
:1052F0008DE192E190938F0580938E0530E020E060
:1053000040E069E084E895E00E94940A1092D0059C
:105310001092CF058CE097E09093B9058093B80583
:105320008EE694E09093BD058093BC0582E0809367
:10533000BE051092BF051092DC051092FC0581E0BD
:105340008093FD058093FE058CE791E09093BB056B
:105350008093BA0584E895E00E94410C1092CB0539
:105360001092CD05C093CC05C093CE05E091BA054F
:10537000F091BB050280F381E02D84E895E009956A
:105380008BE597E09093D2058093D1051092DF05CD
:105390008CE08093AB05C093AD056BEB71E08AE7C1
:1053A00095E00E94E6186CEA71E084E795E00E94BF
:1053B000E6186CEA71E08EE695E0CF910C94E61861
:1053C000CF93DF93CDB7DEB7EB970FB6F894DEBF80
:1053D0000FBECDBF789484B5826084BD84B58160F2
:1053E00084BD85B5826085BD85B5816085BD8091B0
:1053F0006E00816080936E00109281008091810028
:10540000826080938100809181008160809381001F
:10541000809180008160809380008091B1008460E1
:105420008093B1008091B00081608093B000809142
:105430007A00846080937A0080917A008260809301
:105440007A0080917A00816080937A0080917A005E
:10545000806880937A001092C1000E949419209174
:10546000AC012BAF88248A94982CF9E32F2EF0E31B
:105470003F2E81ED93E00E941F09892B09F4E3C0C0
:10548000FBAC0E94DF0897FFF82E6CEA71E0CE01BA
:10549000C5960E94E6180E94DF0897FD0CC089831C
:1054A0001A8241E050E0BE016F5F7F4FCE01C5968A
:1054B0000E947818F0CF6CEA71E0CE0143960E940A
:1054C000E6189A8E898E9C8E8B8ECB8CDC8CA9AC48
:1054D000BAACCA14DB0409F001C418AA1FA61AAAA0
:1054E00019AA1CAA1BAABE016D5E7F4FCE018F9622
:1054F0000E94CF1850E040E06DE3CE018F960E94ED
:105500001F186C019C0150E040E0BE01615D7F4FBF
:10551000CE0189960E94F7188FEFC81AD80AABA857
:10552000BCA8CA14DB0400F5A6016EE2CE018F967A
:105530000E941F189501A601BE01615D7F4F97FD76
:1055400019C4CE0101960E94F71889819A81412CD5
:10555000512C3201009721F00E94D4332B013C01E1
:10556000CE0101960E9417181E8E1D8E18A21F8E46
:105570001AA219A24AE0BE016F5F7F4F81E190E05D
:105580000E940834BE016F5F7F4FCE014D960E948E
:10559000C5186EEB71E0CE0101960E94E61849A194
:1055A0005AA16D8D7E8DCE0101960E9478188111D1
:1055B00004C0CE0101960E94051846E050E061EC5F
:1055C00071E0CE0101960E947818811104C0CE01CD
:1055D00001960E9405181CA21BA21EA21DA218A6BD
:1055E0001FA2BE016F5F7F4FCE0183960E94CF182E
:1055F000CE0101960E941718CE014D960E941718F1
:10560000E5E2FE1609F4E1C4EF150CF4C3C3F3E2BE
:10561000FF1609F48BC524E2F21609F473C4CE0117
:1056200083960E941718CE0189960E941718CE0102
:105630008F960E941718CE0143960E941718CE012C
:10564000C5960E9417186091B5037091B6038091BA
:10565000B7039091B80320E03CE34CE156E40E948C
:10566000783887FD1EC01092B5031092B6031092D1
:10567000B7031092B8031092B1031092B2031092C4
:10568000B3031092B40310920E0110920F01109206
:1056900010011092110165EB73E085E090E00E942B
:1056A000A21A6091AD037091AE038091AF03909107
:1056B000B00320EF33E244E759E40E94783887FDD5
:1056C0001EC01092AD031092AE031092AF03109261
:1056D000B0031092A9031092AA031092AB03109288
:1056E000AC031092A5031092A6031092A703109288
:1056F000A8036DEA73E08DE290E00E94A21A20E018
:1057000030E040E85FE360911201709113018091F5
:105710001401909115010E94BD35811102C01092B3
:105720000D018091C10381110CC081E08093C00301
:105730008AE08093160166E171E080E290E00E94C9
:10574000971C80911701882309F4C4C64D991EC087
:105750000E946608C090A103D090A203E090A3032A
:10576000F090A4036C197D098E099F0960367A4E6A
:105770008105910558F00E9466086093A10370931B
:10578000A2038093A3039093A40328984D9B0BC07E
:105790000E9466086093A1037093A2038093A30301
:1057A0009093A403289AC0909F03D090A0031C1448
:1057B0001D040CF091C66AE775E08EE695E00E9444
:1057C000CF18F1E0CF1AD108D092A003C0929F0366
:1057D0000E94721B84E895E00E9482190E94AB1D12
:1057E00084E895E00E9458198111F8CF8091C00398
:1057F00081112CC785E00E9486079C01FF24F39449
:10580000892B09F4F12C90919E03232B09F446C7B0
:1058100091110AC00E94660860939A0370939B03DB
:1058200080939C0390939D03F0929E038091930339
:10583000882309F4A0C60E946608C0909603D09001
:105840009703E0909803F09099036C197D098E09F5
:105850009F096F3E72408105910508F48CC6109235
:1058600093038091940390919503877F0297029709
:1058700020F41092950310929403809194039091D8
:105880009503049759F41092950310929403809114
:105890000D0181113FC687E080931601809194032A
:1058A00090919503059759F41092950310929403E3
:1058B00080910D01811130C68BE08093160180919B
:1058C000940390919503069709F052C010929503A6
:1058D0001092940380910D01811120C610920C0149
:1058E00010928F03109290031092910310929203E2
:1058F00080E090E0A0E8BFE3809312019093130151
:10590000A0931401B09315018AE080938E0382E086
:105910008093160185E00E948607892B31F584E883
:1059200095E00E9482190E94AB1D84E895E00E94D8
:1059300058198111F8CF4D9BEDCF60918F03709175
:105940009003809191039091920320E030E040E237
:1059500051E40E94D73760938A0370938B0380933E
:105960008C0390938D030E94D51A81E080931601D9
:105970008091940390919503079709F052C010927B
:1059800095031092940380910D018111C9C5109265
:105990000C0110928F0310929003109291031092B9
:1059A000920380E090E0A0E8BFE38093120190931F
:1059B0001301A0931401B093150184E180938E0329
:1059C00082E08093160185E00E948607892B31F5DD
:1059D00084E895E00E9482190E94AB1D84E895E05E
:1059E0000E9458198111F8CF4D9BEDCF60918F0324
:1059F00070919003809191039091920320E030E0A8
:105A000040EA51E40E94D73760938A0370938B0376
:105A100080938C0390938D030E94D51A81E080932C
:105A200016018091940390919503089709F052C054
:105A3000109295031092940380910D01811172C50B
:105A400010920C0110928F03109290031092910308
:105A50001092920380E090E0A0E8BFE380931201EF
:105A600090931301A0931401B093150182E38093E6
:105A70008E0382E08093160185E00E948607892BC1
:105A800031F584E895E00E9482190E94AB1D84E8FC
:105A900095E00E9458198111F8CF4D9BEDCF609190
:105AA0008F0370919003809191039091920320E075
:105AB00030E048E452E40E94D73760938A03709341
:105AC0008B0380938C0390938D030E94D51A81E001
:105AD000809316018091940390919503099709F0A2
