:100000000C94BE0A0C9406290C94DF280C94E60A82
:100010000C94E60A0C94E60A0C94E60A0C94E60AA0
:100020000C94E60A0C94E60A0C94E60A0C94E60A90
:100030000C94E60A0C94E60A0C94E60A0C94E60A80
:100040000C9495280C94E60A0C9453290C942D29B1
:100050000C94E60A0C94E60A0C94E60A0C94E60A60
:100060000C9485290C94E60A120003030405040489
:1000700006101000FE0EFC0EFD00000000012D20F9
:100080000500104D2A0F78F4D9886454D92126A58B
:100090008924002B19CC1869C78171601C18074688
:1000A0000F0FE338300E8C03E3C028002C0A54D223
:1000B000CCAC482622002D0735924F3C042E073346
:1000C000144D1C042F0F06D352EA265413AA09B567
:1000D0000985003011EA12D7110F21A164E81F270A
:1000E00042D19506310CE712578E0E87086DB87F06
:1000F0003213EA12D7D50E21A171BE3CA6B28EC72B
:100100008783013314EA1257154FB3F962B50E997C
:1001100043E6C6D3E85803341AEB12D7925B25C3E3
:10012000C950341BCD64A3D9E8F0109E43E690116A
:10013000003517EA12571C2407C97CFD103A48867F
:1001400072C8DC681B1D6B003617EA12D7154F42C8
:10015000917C2E291D2443C9D07122145D6900377A
:1001600013EA12573CD8C7F331793E9E8FE763F20A
:1001700014003815EA1257D90E91A1A3E8681B4D57
:10018000861E27879809003919EA12D7114F43C9EB
:100190005032349E280799682E198A64A3630D0093
:1001A0003A0AA3164F1CE4D0830000000004FFFFAE
:1001B00000001200040405050405071B1F00FB19BD
:1001C000F919FB0000000002072006002054022A53
:1001D00021AE71B7CE905144480D19672810A10780
:1001E0000F841019648EC4B021A388100B1408006A
:1001F0002B33B43E14A77830E2C18807231E8C78D5
:1002000030E2C18807231E8CC8070F548A07231EBB
:100210008C7830E2C18807231E8C7830E2C18807D1
:100220002312002C1027E95A4A113244C89019436E
:10023000CD20002D07A9E45DC20F2E08A52C54C2C5
:1002400003052F238BAB7BE2387203C75137701C39
:10025000B981E3C80D1C47DDC071E4068EA36EE0D2
:100260003872030702302231279C96D174ABCA54EE
:1002700055841C117224CAE97F57821C1172444AAA
:1002800095A96A5DCA530031122B2F9C5AA13328BD
:100290001EAC4872A858FDFF03321C31279C9A49B6
:1002A000658CDC143251AC44B1C2B52D6BD43E2DFB
:1002B0006AED831F203323302B9C9641456D5C18DB
:1002C0002A51AC6C59A2C6D29D4498B8DAB2CA344D
:1002D0005B54C40D2B75A700342833239CE6E1B38F
:1002E00048B3245192444122E58A9423538C50A967
:1002F00042A548152A55885899077F10B678BD0140
:10030000352531279CC2939F14AE13436E9E18323D
:1003100051AC4439D2852B26518E44B11286CAB8CD
:1003200069B5F01800362C31279C9A49658CDC9809
:1003300029628A48B11265CD96295422C913342501
:100340004E2DDB598962254C953853C6113385A74C
:1003500000371E302B9CC21F90ADB46CA5658B96E8
:100360002D6AB46CD1B2458D16355AD4D28200387C
:100370002831279CD639464F5E982A514E5D097226
:10038000444A9569964E599B4246C89128A777AB37
:100390004C3C79B4F01400392C31279CD641658C43
:1003A000DC143251CA44B112C57675A2D089074116
:1003B00052142A53D6DA12C58A903252C650236696
:1003C0002A8D013A0B45365CC203F5903E50000081
:1003D0000004FFFF00001200030304040304060CE2
:1003E0000D00FE0BFD0BFE0000000000F2200500DA
:1003F000C4122A0A566E3534914946012B14994786
:100400009871481C1287040FC238240E8943820059
:100410002C0943B532128A04002D07245D1387008E
:100420002E0622C612042F0ED5B5736A31B5604C64
:100430002DA61604300EB8C554349144C88F1291BD
:100440008C04310AB5C57492C348A61F3211B8C5D1
:1004500054A5C94426964E8534DA707A083311B80B
:10046000C534A5C9442696D1E544DAC446023412FF
:10047000B9C5945346896C2213A9890E07AA5C0456
:100480003510B8C51417B1F2653416D30EA3120097
:100490003612B8C554B4892848965046454689480E
:1004A00046023710B8C51487B0742A9D4AA7D2C532
:1004B00021003811B8C5349651B134A2892442C6FE
:1004C000D288043912B8C554349144482C4DCE62B8
:1004D0009A483223013A0882C612740801000000CB
:1004E00004FFFF00004944202D20002E002E002094
:1004F0000020002000D097D090D09BD098D0A8D0DA
:1005000098D09BD09ED0A1D0AC20D0A1D09FD0A01D
:10051000D09ED091202D20004944202D2000202065
:100520000020202000D0A2D09ED0A2D090D09B5FEF
:1005300000D09B49D0A2D0A0D0985F00D092D09894
:10054000D0A549D0945F00D092D0A549D0945F0047
:10055000204C2E00202000202020002020200031D0
:10056000303E20D0A1D09AD098D094D090D09DD0B9
:100570009DD0AF20D09DD090D09BD090D0A8D0A2BD
:10058000D0A3D092D090D09DD0AC0034203E20D0CB
:100590009CD09ED09D49D0A2D09ED0A020310032C8
:1005A000203E20D092D098D0A549D094002120534D
:1005B0004552564953202100000000002400270026
:1005C0002A0000000000250028002B000000000089
:1005D0002300260029000404040404040404020285
:1005E00002020202030303030303010204081020B2
:1005F00040800102040810200102040810200000BD
:1006000000080002010000030407000000000000D1
:100610000000D50002020304030404050800FF06DD
:10062000FF0600011A0231032F2005007E03210777
:10063000316333520022079B6E93AC00230D3D6261
:1006400057A634543554991200240A3D629B57BD75
:1006500053DA112508AB6613536700260A3C62176C
:1006600053B36AA6002705196F332807B262A79A09
:10067000012908B2621353A5002A0A2C6213931AA7
:1006800049C5002B0A2D629B511C32A3082C079BE5
:100690005EA74A002D060C6A33022E079B5E975612
:1006A000022F0834625FB633003008B36257B92AAC
:1006B000003107B36297646B320A3462A7624E2A34
:1006C0008F00330A34623362D4482605340A346218
:1006D0001B5535624E00350A346233F44632290028
:1006E000360A3462A7F28A322900370A346233723A
:1006F000CC314700380A3462A76252512605390AC4
:100700003462A7A24C3B29003A07AA6233E2083BB5
:1007100008B35E672355023C07B3629BCA5C3D0881
:100720001C6633321A013E08B36293CB54023F0970
:10073000B362D74C192600400C455E2BA35C4925BB
:1007400059430541093462A7A21C5306420A346288
:10075000B3E248518E0443093462A7A22E930244A7
:10076000093462B3A27324004509346233F4CA79B0
:10077000044609346233F4CA3500470A3462A7A23A
:100780004E3329004809346213E59866004907B3DF
:1007900062B3626B4A09346237735546004B0934C1
:1007A00062135592A9334C08346293BB47004D093C
:1007B000346213C711CD004E09346213D758670055
:1007C0004F093462A7A2332900500A3462B3A21C35
:1007D00029670051093C5EA7A25C6E14520A34627C
:1007E000B3A21C29CA00530A3462A762CAA84C0AE1
:1007F0005408B362B362170055083462133D930284
:1008000056093462139D492A005709346213CD7189
:10081000C400580A34621365922ACA00590B356223
:100820009375AA33CA28025A09346233726C8F0056
:100830005B07B3623362735C0A34629333CA28A3E2
:100840001C5D07B362339B235E069372D7005F067D
:100850000C5E33026006927213036108246237A2B1
:100860004C03620A346293F38A7224006307A36222
:1008700037B300640934625F8D28D30065082462B1
:10088000A7D2C80A660934625B9533470067092C12
:100890005EA762DA49016809346293F38A660069E7
:1008A00008B3629791AC066A09BB5E9B61A92A00F6
:1008B0006B09346293CB91A20C6C07B36223BB0625
:1008C0006D092562A35A2AA9026E072462B3A219F0
:1008D0006F082462A7A24C0A70092C5EB3E2483963
:1008E0000371082C5E3762DA057208246293929DC8
:1008F000017307A36237F202740A346297E3CC29CA
:1009000026007507246213CD347607A36293AC0AE0
:10091000770925629355525D007808246213935439
:1009200031790A2C5E13651A3129007A0824623362
:100930006239027B0B3C62AB324A1AC58C047C05DF
:100940003163737D0C3C62A351CC48659424007ED6
:1009500007147297540200000004FFFF04010A34D8
:100960006233F4CA790404020B3C5E33B34CED9855
:100970000004030934623374370004040B3462A7A3
:10098000E2CC31290004050B3462A762CAA84C0AE4
:10099000040608B362B3626B040708B362B3626B08
:1009A0000408093462DF96490104090C35622753B3
:1009B0004CAA52C902040A0D356293628A23552A51
:1009C0005900040B09346233B34C3D040C0B346200
:1009D000135592329501040D06007E03040E0AB3EE
:1009E0006293AC324500040F0ABB5E93BC464A00DA
:1009F00004100A3462A7A21C530604110B3462B31C
:100A0000F28A72240004120B3462B3E248518E045D
:100A1000041309346233A46E0304140A3C5EA7FA7B
:100A20006BC80004150A346233F4CA790404160C46
:100A300035629392AA56A5922A04170B3462A762D4
:100A40008D64520004180A346213AD91A40C041989
:100A50000C3C6213938A6A242903041A0B34621330
:100A60005592A99401041B093462ABFA2503041CB6
:100A70000A346213C711CD00041D0A346213E598CD
:100A80006600041E0A3462A7A2332900041F093439
:100A90006233A4670004200B3462B3A21C296700F0
:100AA00004210A3462A7A22E9302042209B362B37E
:100AB00062170004230A346213CDB4470204240BE6
:100AC00035629B57A5AA1D0104250AB36293549968
:100AD000920A04260A3C5E93FAD7C801042709B398
:100AE0006293AC240B04280D356293924A2AA9A480
:100AF000D21804290E3D5E93924A2AA9A4D2D8287E
:100B0000042A0D3562B351463AC5141500042B0B67
:100B1000356293F55449A519042C0AB36213A34A0C
:100B20006A01042D0B3462B351DA792400042E0DCE
:100B30003562135335924A2AC904042F0B346237A5
:100B4000A24C23CA00043009246237A24C030431AA
:100B50000B3462A7F28A3229000432092462B356A8
:100B60001C09043308A3623362090434092C5EB7FC
:100B7000921C330435092462A7D2C80A04360A2518
:100B80006293AA55A902043708A362B3E4020438A9
:100B900009246213D5483204390B346213938A6AEC
:100BA0002419043A09246213476A06043B082462A4
:100BB000AB5A32043C0A256293D74AAA00043D0985
:100BC000246213C79401043E092462A7A24C0A04BC
:100BD0003F08246233A41904400A2C5EB3A21C29E6
:100BE00003044108A36237B300044208A362B3625E
:100BF0000504430A2C5E13652A4B0004440BBB5EBC
:100C000023AB91464A0004450924621393543104EE
:100C100046092C5E13CDA10304470924621365DA4B
:100C20000104480B256293924A2A8D0104490C2D38
:100C30005E93924A2A8D8D02044A092462A3654A72
:100C40000A044B09246213971A29044C092462935D
:100C5000571C09044D08A36223E502044E0A2462CE
:100C600093925A2A01044F08A362B7D20A04510B87
:100C7000346293325669640504520B3C5E176796E2
:100C800029C70404530934625B0E5D03045408A3AE
:100C900062375216045509246237341A0A04560979
:100CA000B3629791AC06045709B36293B2AC0604E1
:100CB000580ABB5E9B61A92A0004590A256227D302
:100CC00048C902045A0A256293E2489505045B0A62
:100CD0003462176796A901045C093462DB1CA91908
:100CE000045D06007E03045E0B3C5E13938655593B
:100CF00002045F0AAB5E93AC911200049008346268
:100D00003F761B0491082C623F760D04920A3462F0
:100D1000B7E2CC25000493092462B7E28C00049664
:100D20000E3D5E9392AA56A592AA510004970B2DF0
:100D30005E93AA55A91A05049A0D3D5E1353A95353
:100D4000AC724601049B0B2D5E13D34CB18601049B
:100D5000AE0C35629375AA33CA280204AF0B2D5E20
:100D600093539D51461104B00C35629375AA86CCFD
:100D7000280204B10B2D5E93533564461104B20B67
:100D8000BC5E939A39A6360A04B30A2D5E13A39665
:100D9000350C04BA0A346293F38A660004BB0AB3C2
:100DA0006213A34A560004D80B3462A7621E33298B
:100DB0000004D9092462A7474A0A04E209BB62B3C6
:100DC00057AC0604E308B362B3653504E80B34623C
:100DD000A7E29832290004E9092462A7864C0A0494
:100DE000EE0B3C6233328ACEA40004EF0A34623345
:100DF000328A661A00006002020203030101040441
:100E00000500000500050000FD01ED02D72006ECFD
:100E10003C9F002107EC8CB4B1042207EC4C6A73B0
:100E2000012309EC4C4AAB5A15002408EC5C5C5ACF
:100E30002D002509EC4C8A4AA60C012608EC5C8E94
:100E40004B47002707EC6CD45C002807EC6C5DA3D3
:100E5000042908EC4C46B9CC002A08EC4C8A71569F
:100E6000092B07EC3C8C33132C07EC3C5794002DDA
:100E700006EC3CB9192E07EC3C5B4A002F08EC6CE1
:100E80008E3966003008EC5C4C3D23003107EC5C89
:100E9000D44D003208EC8C46B15E003308EC8C4631
:100EA00051A7053408EC4CEAB513003508ECCCCA60
:100EB0001A25093608EC9CCAAB5A003707ECCC2E31
:100EC00073043808ECCCAA56B5003908ECCCAA76E5
:100ED00092003A08EC8CD4584A003B08EC8CD4546D
:100EE00094003C08EC6C1B6594003D08EC3CDA7007
:100EF00043003E08EC4C4619C51A3F08ECCC8E1A4C
:100F000047004008EC9CAA64460A4108ECCCAA566B
:100F100017004208ECCCAA644A0B4307ECCCCAF594
:100F2000024408EC8C4CBD24004508ECCCCA2B2FA5
:100F3000004608ECCCCA2B67004708ECCCCAA9B520
:100F4000004808EC4C6AAD2E004907ECCCCCE50219
:100F50004A07EC6CAEAA054B08EC4C6AC9D4024CAB
:100F600007EC4C6E2F004D08EC4C4AAB2F004E079F
:100F7000ECCCEA2F004F07ECCCEA6B015008ECCC2C
:100F8000AA56CE005107ECCCEAD20A5208ECCCAA01
:100F9000646A015308ECCCCA3B2D005407ECCCCC5E
:100FA0004D005507EC4CEAD7025607EC4CEA6704B3
:100FB0005708EC4CEAB52A005808EC4C4A33AE0A04
:100FC0005908EC4C6ACD1C015A07ECCC8EF5025B3B
:100FD00007EC9CCCB5025C09EC4CCE286794005D14
:100FE00007EC8C6E4A005E07EC5C4C990B5F06ECDC
:100FF0003CAF056007EC5CD65C006108EC3C9AAA4B
:101000005A006207EC4C5E5D0B6308EC3C5A392FCA
:10101000006407EC6C5A5D0B6508EC3C5A955C006B
:101020006608EC9CCA3267006708EC3C5AA55A0077
:101030006807EC4C5E7D016907EC3CCC4D006A070B
:10104000EC3CAEAA056B09EC4C4E49CA94006C0608
:10105000EC8CEE046D08EC3CAA5617006E07EC3CD5
:101060005A7D016F07EC3C5A5D0B7008EC3C5AD579
:10107000CA007108EC3C5AD54E007207EC3C5AEDA0
:101080000C7308EC3C5A5A2D007408EC5C9C392B0C
:10109000007507EC3CEA6B017607EC3CEA3302771B
:1010A00008EC3CEA5A15007808EC3C2A734C0979A4
:1010B00007EC3CEA54127A08EC3C9A4A2E007B0872
:1010C000EC9C8C3A2B007C06EC5CEE047D08EC8CEE
:1010D000CE324A007E07EC3CD29A017F07EC9CCCD2
:1010E000A50400000004FFFF00005F0002020404EA
:1010F0000304050C0BFFFE08FE08FE016A032C0426
:1011000071200500CC09210882C4C991F208220788
:10111000336D4BB202231087447CCAA81C3365543C
:101120008E9932AA012410A53C6B1E2AA938E288A8
:1011300049A5A1230025158AC49DD44A6555235588
:101140004995544649E5A8725600261188C4AC86D4
:101150002A2395A186494B73A4A5002706316DCAA1
:1011600000280BA4B47A8C4ABA754601290AA4B4A3
:101170004A46D974C91A2A09555C6B55AD66042BC9
:101180000B554C6B4671C88C22002C0742B4C948E1
:101190000A2D06135CCA002E0622C4C9082F0A8431
:1011A000C47A99638E3903300E8544DB52238D3423
:1011B000D24823A905310984459B9ABE4600320CCA
:1011C0008544DB52236929F33802330E8544DB5210
:1011D00023498D461A492D00340B8544EB95549ACA
:1011E000636439350D8544CB2BA391D14823A905E0
:1011F000360E8544DB52238FA4461A492D00370A48
:101200008444CBA1638E2E00380E8544DB5223A983
:10121000A5461A492D00390E8544DB52238DA4467C
:101220001E492D003A0752C4C988233B0972B4C92C
:10123000882329003C0956CC3B9236D6583D0835C8
:1012400054CBD070083E0A56CC8BC61A4B1B013FBC
:101250000A8544DBB2A5CCB4094012A93CFD465A2C
:101260006698E248FE5432939A1E11411289433C1B
:10127000CAD4C61B468DA21E2366A4E608420E876A
:1012800044CC694935A425951C430143108744EC9F
:10129000AA47461B6AA8518DE24800440F88C4CC77
:1012A000ADA3565A69A5954E6302450E86C4CB255B
:1012B000938A23AA28931C23460E86C4CB25934CDD
:1012C0002A8EA8A21E11470E8744ECAA47461BCAC5
:1012D000A155962B48128944CD482369A9E5185198
:1012E0004B2DB51A6904490984C4CA48D2D7084AA3
:1012F0000C86C4EBC81A69E42BCA094B1189C4CC0B
:1013000088769619A90C8746525B230E4C0F86C42B
:10131000CBC81A69A4914632C931024D158B44CE0F
:10132000C823ED9954924925995492D18CD65223D1
:101330004E1188C48C5E3ACE38524C23C699D54E95
:10134000004F0E8744ECAEF4C8238FAC729E005061
:101350000F8744CC694925D5901A6A34320051135D
:10136000983CEC46396AA595562349A5D148192AD7
:1013700000520D88C4CC2D3DF3D0D235D200530D90
:1013800086C4DB39F2D068E811D702540E86C4CB8C
:10139000915C51238D34D22301551088C4CC484B25
:1013A000471D75D451479D4704561188C4CC484BFE
:1013B000479D55462A2395A1C61A57158B44CE48FA
:1013C0006A4919CDA8928A2AA9BC36D21A69095845
:1013D0001088C4CC484BC795D1C61BA599D51159C7
:1013E0001188C4CC484B679591CA50638D351C1148
:1013F0005A0B86C4CB91F57CEB31025B08A334CA4F
:1014000050FE1A5C0C84C44ACE28679433CA015D2E
:1014100008A334CAF2D7105E0A65546B4679A65AFF
:10142000075F061634CB01600623748A14610954E1
:10143000C4CA56238D01620E86C48B461A69641D88
:1014400071C4B50063095544DB925BA605640E8642
:10145000C4FB461AA931E288232D0365095544DBF4
:1014600052E34623660C85C4EA52498EA8CD91000A
:10147000670D86343B8A5339F7D8632400680E869B
:10148000C48B461A69641D71C41105690A84C49A23
:10149000D470BA46006A09A3B49ABDBC46026B0E6A
:1014A00086448B461A69648D38A2B2066C0884C4DF
:1014B000CAF46B046D0D5AC48D92EA11E58872442A
:1014C000036E0B56C48B52471C7144016F0C56C4FB
:1014D000DB4872C411D54800700D76B48B52471C9E
:1014E000718CA4D106710E77B4DB505249A5A6D2F7
:1014F00050A311720954C48A1A239A00730954C460
:10150000DA90230E05740973445A52439902750BFD
:1015100056C48B1C71C4919601760B56C4CBB2A2F3
:10152000CA1A4900770C5944CDF28A4A65A5910937
:10153000780A56C4CBB2B24ED600790D76B4CBB28F
:10154000A2CA1AC9AD11007A085544CB25CD317B0A
:101550000AA4B4AA9296966E017C068146CB217DA0
:101560000AA4B48A96B6922E097E0726DCDB520BBB
:1015700000000004FFFF0000A02AAB3511241FBEAD
:10158000CFEFD8E0DEBFCDBF26E0AAE5B3E001C0D3
:101590001D92AC39B207E1F713E0A0E0B1E0E4E856
:1015A000F5E702C005900D92AA35B107D9F71AE008
:1015B000CDEBDAE004C02197FE010E94A238CC3BBB
:1015C000D107C9F70E94902B0C94B53A0C940000F7
:1015D000662329F06A3019F0862F90E008958FEF86
:1015E0009FEF08950F93CF93DF93DC01ED91FC9172
:1015F0005089362F3770E0E8F0E002C0F595E795A6
:101600003A95E2F73E2FA52FB0E0FC01C0ADD1AD79
:10161000669566956695E62FF0E0549FE00DF11D06
:101620001124EC0FFD1FEC01C758DF4F011116C04C
:101630008881823018F49081932B90838881813047
:1016400019F0908193279083369511F4319630E804
:10165000215071F7DF91CF910F91089588818230E9
:1016600018F49081932B90838881813019F09081B8
:1016700093279083EA0FFB1F215081F7EBCF80E087
:10168000089580E00895833081F028F4813099F046
:101690008230A9F008958730A9F08830C9F08430ED
:1016A000B1F4809180008F7D03C0809180008F779E
:1016B00080938000089584B58F7784BD089584B5A4
:1016C0008F7DFBCF8091B0008F778093B00008951D
:1016D0008091B0008F7DF9CFCF93DF93282F30E03A
:1016E000F901E250FA4F8491F901E651FA4FD49191
:1016F000F901EA52FA4FC491CC23A1F081110E9462
:10170000430BEC2FF0E0EE0FFF1FE453FA4FA591CF
:10171000B491EC91ED2381E090E009F480E0DF9159
:10172000CF91089580E090E0FACF1F93CF93DF939D
:10173000282F30E0F901E250FA4F8491F901E65187
:10174000FA4FD491F901EA52FA4FC491CC23A9F08F
:10175000162F81110E94430BEC2FF0E0EE0FFF1FBC
:10176000EE53FA4FA591B4918FB7F894EC91111103
:1017700008C0D095DE23DC938FBFDF91CF911F91FE
:101780000895DE2BF8CFCF93DF9390E0FC01E65174
:10179000FA4F24918A529A4FFC0184918823D1F008
:1017A00090E0880F991FFC01E854FA4FA591B4917D
:1017B000FC01EE53FA4FC591D491623071F49FB79A
:1017C000F8943C91822F809583238C93E8812E2B73
:1017D00028839FBFDF91CF9108958FB7F894EC9144
:1017E0002E2B2C938FBFF6CF3FB7F89480916804CF
:1017F00090916904A0916A04B0916B0426B5A89BEE
:1018000005C02F3F19F00196A11DB11D3FBFBA2F92
:10181000A92F982F8827BC01CD01620F711D811D52
:10182000911D42E0660F771F881F991F4A95D1F7D7
:1018300008958F929F92AF92BF92CF92DF92EF92D4
:10184000FF926B017C010E94F40B4B015C01C114FF
:10185000D104E104F104B9F00E94F40B681979098C
:101860008A099B09683E73408105910580F321E058
:10187000C21AD108E108F10888EE880E83E0981EAC
:10188000A11CB11CE4CFFF90EF90DF90CF90BF90F0
:10189000AF909F908F9008952FB7F8946091640453
:1018A0007091650480916604909167042FBF08953C
:1018B0008B589F4FFC0180818F5F08958F929F927C
:1018C000AF92BF92CF92DF92EF92FF920E944C0CA8
:1018D000C0907F03D0908003E0908103F09082035A
:1018E000AB01BC014C195D096E097F09809161044F
:1018F00090E0B0E0A0E0481759076A077B0760F066
:1019000010927E030E944C0C60937F0370938003BF
:10191000809381039093820380917E038111CEC0D6
:1019200081E080937E036091330470913404809150
:1019300035049091360420E030E040E85FE30E94F7
:101940005D3760933304709334048093350490932F
:10195000360480910601882309F4B0C060910F011C
:1019600070911001809111019091120120E030E0FE
:1019700040E85FE30E945D3760930F0170931001B0
:101980008093110190931201609148047091490471
:1019900080914A0490914B0420E030E040E85FE3FE
:1019A0000E945D37609348047093490480934A0411
:1019B00090934B04609196037091970380919803E4
:1019C0009091990320E030E040E85FE30E945D37AA
:1019D0006093960370939703809398039093990371
:1019E00060910F017091100180911101909112018D
:1019F000C0901301D0901401E0901501F0901601F1
:101A00008090540490905504A0905604B0905704D0
:101A1000A70196010E94C937A50194010E945D3774
:101A2000609358047093590480935A0490935B0414
:101A3000609148047091490480914A0490914B044C
:101A400080904C0490904D04A0904E04B0904F04B0
:101A5000A70196010E94C937A50194010E945D3734
:101A600060935004709351048093520490935304F4
:101A700060919603709197038091980390919903D8
:101A800080909A0390909B03A0909C03B0909D033C
:101A9000A70196010E94C93720E030E04AE754E4EC
:101AA0000E945136A50194010E945D3760939E0308
:101AB00070939F038093A0039093A10380910C01E6
:101AC000882309F444C060919E0370919F03809124
:101AD000A0039091A10320E030E046EC52E40E9484
:101AE0006A3887FD34C06091260470912704809184
:101AF00028049091290420E030E040E85FE30E9450
:101B00005D37609326047093270480932804909394
:101B1000290460919E0370919F038091A00390918E
:101B2000A10320E030E048EC52E40E945C3760936F
:101B30009A0370939B0380939C0390939D03109250
:101B40009603109297031092980310929903FF90B6
:101B5000EF90DF90CF90BF90AF909F908F900895BF
:101B600008950895AF92BF92CF92DF92EF92FF92C5
:101B70000F931F93CF93DF936C017B018B01040FB5
:101B8000151FEB015E01AE18BF08C017D10759F051
:101B90006991D601ED91FC910190F081E02DC60193
:101BA0000995892B79F7C501DF91CF911F910F918D
:101BB000FF90EF90DF90CF90BF90AF900895FC0121
:101BC000538D448D252F30E0842F90E0821B930BA2
:101BD000541710F0CF96089501970895FC01918D48
:101BE000828D981761F0A28DAE0FBF2FB11D5D964B
:101BF0008C91928D9F5F9F73928F90E008958FEFED
:101C00009FEF08950F931F930E944C0C60937A04EA
:101C100070937B0480937C0490937D0482E794E02E
:101C20000E94EE0D97FF1DC00E944C0C00917A049B
:101C300010917B0420917C0430917D04601B710B1A
:101C4000820B930B00917604109177042091780415
:101C5000309179046017710782079307F8F28FEFCC
:101C60009FEF1F910F910895FC01918D828D981720
:101C700031F0828DE80FF11D858D90E008958FEF92
:101C80009FEF0895FC01918D228D892F90E0805C5B
:101C90009F4F821B91098F739927089582E794E0E3
:101CA0000E94420E21E0892B09F420E0822F089542
:101CB00080E090E0892B29F00E944E0E81110C9457
:101CC00000000895FC01A48DA80FB92FB11DA35ADF
:101CD000BF4F2C91848D90E001968F739927848F4C
:101CE000A689B7892C93A089B1898C91837080646F
:101CF0008C93938D848D981306C00288F389E02D10
:101D000080818F7D80830895EF92FF920F931F93C0
:101D1000CF93DF93EC0181E0888F9B8D8C8D98139E
:101D20001AC0E889F989808185FF15C09FB7F894AA
:101D3000EE89FF896083E889F989808183708064F6
:101D400080839FBF81E090E0DF91CF911F910F9141
:101D5000FF90EF900895F62E0B8D10E00F5F1F4F50
:101D60000F731127E02E8C8D8E110CC00FB607FC5F
:101D7000FACFE889F989808185FFF5CFCE010E94ED
:101D8000620EF1CFEB8DEC0FFD2FF11DE35AFF4FEB
:101D9000F0829FB7F8940B8FEA89FB89808180627B
:101DA000CFCFCF93DF93EC01888D8823B9F0AA8938
:101DB000BB89E889F9898C9185FD03C0808186FD06
:101DC0000DC00FB607FCF7CF8C9185FFF2CF808155
:101DD00085FFEDCFCE010E94620EE9CFDF91CF915A
:101DE00008952091DA03260F3327331F213231055E
:101DF000ECF42091FE03FC0190E080E0243069F0D7
:101E000082E00895A091DA032191AC0146545C4F21
:101E1000A40FB52FB11D2C930196861798F38091CE
:101E2000DA03680F6093DA0380E0089581E0089593
:101E300008958FEF9FEF08958FEF9FEF08958091A2
:101E4000B30390E09195819591090895CF93DF9325
:101E5000CB01EA01642F0E94F10ECE01DF91CF91F8
:101E60000895CF93DF931F92CDB7DEB7698361E00A
:101E7000CE0101960E94F10E81E090E00F90DF917B
:101E8000CF910895DC011A96ED91FC9130E020E0AD
:101E90000994DC011696ED91FC9130E020E040E0E1
:101EA00069E10994DC011696ED91FC9130E020E0A7
:101EB00040E068E109949A01DC011696ED91FC91ED
:101EC000462F67E10994EF92FF920F931F93CF93F0
:101ED000DF931F92CDB7DEB77C018B01D8016C91E7
:101EE000673129F150F46531A0F40F90DF91CF9163
:101EF0001F910F91FF90EF9008956A3118F16E3F96
:101F0000A1F7F8014181498369E2C7010E94420FAC
:101F10000BC0F80141814983D7011696ED91FC91E0
:101F200030E020E0C70109950E5F1F4FD7CFF801C1
:101F300081818983AE014F5F5F4F61E0C7010E94DD
:101F40005B0FF2CF0F5F1F4FD7011696ED91FC91FB
:101F500030E020E040E0C7010995C0CF462FDC010A
:101F60001696ED91FC9130E020E065E10994AF9286
:101F7000BF92CF92DF92EF92FF920F931F93CF9376
:101F8000DF93EC01693089F485E491E099838883DB
:101F90001C8A81E0DF91CF911F910F91FF90EF900C
:101FA000DF90CF90BF90AF90089579016B3009F426
:101FB00040C06F3009F444C080E06A3059F7EA85C8
:101FC000FB8530E020E040E068E2CE010995EE813B
:101FD000FF8130E020E040E064E1CE01099541E07E
:101FE0006BE4CE010E94420FE881F981448169E2ED
:101FF000CE010E94420F40E06BE4CE010E94420FEE
:10200000E881F981448169E2CE010E94420F41E0FA
:102010006BE4CE010E94420FE881F981458169E2BB
:10202000CE010E94420F62E371E0CE010E94630F75
:10203000B0CF6BE271E04423C1F360E271E0F5CF11
:10204000F9010481000F000F000F13811695003273
:1020500010F00052185FCE010E94520FF701A080CD
:10206000B1806EE3CE010E94AE0F6EE3CE010E94FE
:10207000AE0FD12C1068602F6D0D6068CE010E94EC
:10208000AE0F612FCE010E94AE0FF701C280A501F5
:102090006C2DCE010E945B0FAC0CB11CD394F8E008
:1020A000DF12E9CFCE010E94490F73CF9A01DC0104
:1020B0001896ED91FC91462F67E10994CF93DF9339
:1020C0001F92CDB7DEB76983AE014F5F5F4F61E00E
:1020D0000E9456100F90DF91CF910895CF92DF921A
:1020E000EF92FF920F931F93CF93DF93EC01142F86
:1020F00079016631C1F130F4643149F06531A9F0FC
:1021000080E040C0673109F446C06A31C8F7E8850D
:10211000F9859701412FCE01DF91CF911F910F914A
:10212000FF90EF90DF90CF90099468EF0E945E10CF
:1021300041E06CE2CE010E94420F612F607FCE0130
:102140000E945E1041E06CE2CE010E94420F612FBE
:102150006295607FCE010E945E1041E06CE2CE018C
:102160000E94420F0EC068EF0E945E10612F607FD8
:10217000CE010E945E10612F6295607FCE010E94A9
:102180005E1081E0DF91CF911F910F91FF90EF9052
:10219000DF90CF9008956AEF0E945E1041E06CE2FC
:1021A000CE010E94420FDE2CCF2C012F083008F503
:1021B000012F069506950695D12E88EF089FD00C25
:1021C0001124E8E00E9F800111240E0D1F1DDD205B
:1021D00021F2F801F1908F016F2D607FCE010E94F6
:1021E0005E106F2D6295607FCE010E945E10DA94C2
:1021F000EECFA3EAB3E0ED2DFC2D9F01285F3F4F0A
:102200008191982F907F9C938295807F11968C93DB
:1022100011971296E217F30799F7DE2ECF2E08508A
:1022200043EA53E060E1CE010E945610BFCFFC01AB
:102230006623D9F16A30C9F1808D811125C06C3FC8
:1022400048F085E0808F617070E0738B628B2EEFB9
:102250003FEF29C0683F20F084E0808F6370F4CFA7
:10226000603F20F083E0808F6770EECF603E20F00B
:1022700082E0808F6F70E8CF262F30E0603C98F0CE
:1022800081E0808F6F71E0CF8150808F2289338908
:1022900096E0220F331F9A95E1F76F73262B338B4D
:1022A000228B8111D4CFC90108952FEF3FEFFBCFCF
:1022B0000F93DC01DE963C91DE97431BD496ED91A3
:1022C000FC9109950F910895CF93DF93FC01A081B4
:1022D000B18182AD982F990F990F990F95AF5096B4
:1022E0009C915097903208F09FE1990F990F990FA8
:1022F00094AF23AD922F990F990F990F96AF5196E6
:102300003C915197682F620F7727771F3617170672
:1023100014F4832F821B97AFEF01C05CDF4F880F4F
:10232000880F880F890F8883219680EF88835496C1
:102330008D919C915597813F910508F48883EE5BC0
:10234000FF4F56968C918083DF91CF9108950F9324
:10235000FC01EB5BFF4F308131965081451730F423
:10236000301738F0041728F080E013C03017D0F38E
:10237000FBCFFC01ED5BFF4F30818C5B9F4FFC017D
:102380008081681740F481E0321718F081E0261749
:1023900058F70F9108953217C8F3E6CF2F923F9266
:1023A0004F925F926F927F928F929F92AF92BF9265
:1023B000CF92DF92EF92FF920F931F93CF93DF9311
:1023C000EC014C0183E4880E911CF40110823297D9
:1023D00020805E01F4E4AF0EB11CF50120823FAC19
:1023E0006E01F5E4CF0ED11CF601308235974080A6
:1023F0007E01F6E4EF0EF11CF70140823496108165
:10240000329760803196708032975080012F262D50
:10241000472D652DCE010E94A711CD58DF4F8111A8
:1024200014C01882DF91CF911F910F91FF90EF9010
:10243000DF90CF90BF90AF909F908F907F906F90E4
:102440005F904F903F902F90089581E088835520B2
:1024500011F0F4015082621410F4F5016082371417
:1024600010F4F60170821415E8F6F7011083DACF44
:102470000F93DC01802FFD01ED58FF4F90819923D0
:10248000E9F12223D9F1223020F0023079F56F5F93
:10249000621B082F0170FD0180FD32C0EB5BFF4F16
:1024A0008081481758F131968081481738F5329766
:1024B000908131978081260F2617F0F46917D8F4A0
:1024C0002FEF290F8217D0F4681708F4682F291707
:1024D00008F4922F961BD696ED91FC91D797048025
:1024E000F581E02D292FCD01099508C0033089F62B
:1024F0004F5F421BCECF682F691720F30F910895CD
:10250000ED5BFF4F80816817C8F3319680816817B3
:10251000A8F73296908131978081240F241778F4A0
:10252000491760F42FEF290F821740F7481708F476
:10253000482F291708F4922F941BCDCF482F491705
:10254000E8F6F2CF0F93909158066917A0F090919A
:102550005906691780F490915606891760F090919A
:102560005706891740F4462F682F00E021E083E1E9
:1025700096E00E9438120F910895FF920F931F93D7
:10258000CF93DF93F82ED62F142FC22F00FF0CC04D
:10259000622F6D1B842F8F0D0E94A2126C2F6F195A
:1025A0008D2F810F0E94A21201FF0CC06C2F6D1B9A
:1025B000812F8F190E94A2126C2F6F19812F8D1BF2
:1025C0000E94A21203FF0CC06C2F6D0F812F8F0D84
:1025D0000E94A2126C2F6F0D8D2F810F0E94A212EC
:1025E00002FF11C06C2F6D0F812F8F190E94A21254
:1025F0006C2F6F0D812F8D1BDF91CF911F910F914C
:10260000FF900C94A212DF91CF911F910F91FF9038
:102610000895CF92DF92EF92FF920F931F93CF9383
:10262000DF93F82EE62EC42E08E0060F28E0280FD0
:1026300049EF460F69EF680F83E196E00E94A7110A
:102640008823D1F00C2D2E2D4F2D67E080E00E94C5
:10265000BD12C0E017E082EFD82EDAEFCF5F8C2FEB
:10266000880F8F5FD80F0C2D2E2D4F2D612F8C2FA3
:102670000E94BD12C11748F0DF91CF911F910F91B9
:10268000FF90EF90DF90CF900895D7FDE7CF1150E6
:10269000D394D394DD0DE2CF0F931F93CF93DF93A9
:1026A000C82F2BE1280F0BE34CE1682F83E196E064
:1026B0000E94A7118823C9F117E01C0FD3E1DC0F9A
:1026C00042E063E2812F0E94091341E063E28D2F13
:1026D0000E94091344E063E3812F0E94091348E03C
:1026E00063E38D2F0E940913D8E0DC0F00E02BE09C
:1026F0004CE16D2F83E196E00E9438122BE04AE313
:102700006D2F83E196E00E94381201E02FE044E251
:102710006C2F83E196E00E9438126AE16C0F2FE083
:1027200044E283E196E00E943812DF91CF911F913D
:102730000F910895213039F020F0223031F0840FCC
:102740000895860F0895841B0895861B08952130EF
:1027500039F020F0223031F0861B0895840F08955F
:10276000860F0895841B08955F926F927F928F92D7
:102770009F92AF92BF92CF92DF92EF92FF920F9310
:102780001F93CF93DF935C01162F642EEC01C15B86
:10279000DF4FDC80ED804C0189E7880E911CFE80C4
:1027A000FD18C12EF11608F4CF2C5B800C85202F6C
:1027B0004E2D6D2D8A810E949A13782E202F4E2D3A
:1027C0006D2D852D0E94A713482F662071F08A85F4
:1027D000F40180832C2D672DC5010E9438121F152E
:1027E00048F01F19E394D12CDACF89858111F7CFF6
:1027F0008B85EECF1D0D1C83ED82DF91CF911F9154
:102800000F91FF90EF90DF90CF90BF90AF909F908F
:102810008F907F906F905F900895DC0118964C9197
:102820001897ED91FC911197249130E0042E02C08D
:10283000359527950A94E2F7842F860F883068F043
:1028400031961196FC93EE93E49198E0941B01C0AD
:10285000EE0F9A95EAF72E2B885018968C938FEFEF
:102860009FEF01C0880F6A95EAF78095822308954B
:10287000FC01E60FF11D849190E0982F8827319696
:10288000E4918E0F911D0895CF93DF9320915E0602
:1028900030915F062817390709F490C0EC01909336
:1028A0005F0680935E06FC01849180936F063196EB
:1028B000E491E0937006FE013296E491E093710694
:1028C000FE013396E491E0937206FE013496E491A2
:1028D000E0937306FE013596E491E0937406FE01E1
:1028E0003696E491E0937506FE013796E491E09305
:1028F0007606FE013896E491E0937706FE0139965C
:10290000E491E0937806FE013A96E491E09379062B
:10291000FE013B96E491E0937A06FE013C96E49139
:10292000E0937B06FE013D96E491E0937C06FE0178
:102930003E96E491E0937D06FE013F96E491E0939C
:102940007E06FE017096E491E0937F0661E1CE0180
:102950000E943814909381068093800663E1CE0133
:102960000E943814909383068093820665E1CE011D
:102970000E943814909385068093840680915E06A9
:1029800090915F06892BD1F080917C068093880618
:1029900040917D064093890690918706992371F0B6
:1029A000913079F490917E06891714F490938806FB
:1029B00080917F06841714F480938906DF91CF916C
:1029C00008953091790620917B06082E000C990B12
:1029D000622F022E000C770B630F711D37FD7A9565
:1029E000861797071CF4320F30938806241734F7A4
:1029F00020938906E3CF6F927F928F929F92AF923E
:102A0000BF92CF92DF92EF92FF920F931F93CF93DB
:102A1000DF93EC01062F142F7901FC01E55AFF4FDB
:102A20008081813009F445C0D0F1823009F44BC077
:102A3000833009F452C0FE01EF5AFF4F00833196F4
:102A4000108337978081918147962FEFE216F1042A
:102A500011F008F0E6C0E1E6EE16F10408F447C014
:102A6000FE01E159FF4F20813181820F931F9C01AC
:102A70002F5F3F4FF9014491411142C0712C872DC6
:102A8000DF91CF911F910F91FF90EF90DF90CF904A
:102A9000BF90AF909F908F907F906F900895FE01B0
:102AA000E35BFF4F0190F081E02DCE010995180FF7
:102AB000C2CFFE01E35BFF4F0190F081E02DCE011C
:102AC0000995081BB8CFFE01E35BFF4F0190F08131
:102AD000E02DCE010995181BAECFFE01E35BFF4F41
:102AE0000190F081E02DCE010995080FA4CFF1E40B
:102AF000EF16F10408F4BBCFFE01E359FF4FB3CF4B
:102B0000FC0144914E151F0409F086C002960097FF
:102B100009F4B4CF7E01FFE4EF0EF11CF7019183BD
:102B20008083108671966081C7010E940D14F701A1
:102B3000868372966081C7010E940D14A82EF7014A
:102B400087836E01F9E7CF0ED11CF6019081F70162
:102B5000928781E0911180E0F7018387FE01EE59B1
:102B6000FF4FB0806B2DC7010E940D14882EFE010F
:102B7000ED59FF4F1081612FC7010E940D14982E4F
:102B8000FE01EC59FF4F0081602FC7010E940D1418
:102B9000015041E050E09A0101C0220F0A95EAF786
:102BA000782E721AF701068110160CF068CFBA94CD
:102BB000CA0101C0880FBA94EAF7881AB4849A0C43
:102BC000115001C0440F1A95EAF7F42FF9199F2EFE
:102BD0002B2D4F2F682DF70182810E949A13182FF9
:102BE000F70182832B2D492D682D83810E94A71325
:102BF000F7018383F1E0BF1609F47CC0BF1608F427
:102C00003FC022E0B21609F47BC093E0B91609F484
:102C100082C0082F212F38C0F9012491820F911D05
:102C200026CFFE01EF58FF4F00811181080F191FB9
:102C3000680160E0C6010E943814080F191F62E0A5
:102C4000C6010E943814F4E0CF0ED11C8E159F05EA
:102C500080F3F801849190E0982F88273196E491D1
:102C60008E2B009709F40ACFE816F90619F4C8016B
:102C700003964DCFF8013296E4910E0F111DE9CF66
:102C8000202F210F082F0A0D482F612FCE010E94FF
:102C9000A711882309F4F3CEF701148215828E015F
:102CA000025A1F4F4E01FFE58F0E911CF801608103
:102CB000C7010E940D14682EF4016081C7010E94B3
:102CC0000D14B82E40E0662DCE010E94B41341E0F1
:102CD0006B2DCE010E94B41361E0C7010E940D1458
:102CE0008111F0CFF70185818A1504F38285F60101
:102CF0008083C5CEBA1821E0210F080F1B0DC4CF69
:102D000091E0392F301B21E0210F9A1901E0080FC3
:102D1000890F130FB9CF212F2A0D982F901B01E097
:102D2000080F81E0890FB0CFFF920F931F93CF93CD
:102D3000DF93C82FD62F10922B068A01F12CF801B1
:102D400061918F01E0911506F091160683E196E0FE
:102D500009958F3F9807F1F08E3F2FEF920779F397
:102D60009C014D2F6C2F83E196E00E94FB14909103
:102D70006E06913049F030F0923041F0933041F0DE
:102D8000F80EDDCFC80FFCCFD80FFACFC81BF8CF95
:102D9000D81BF6CF8F2DDF91CF911F910F91FF9010
:102DA0000895CF93DF93EC016BAFEEA9FFA90190DB
:102DB000F081E02D0995EEA9FFA90280F381E02DB5
:102DC000CE01DF91CF910994AF92BF92CF92DF9263
:102DD000EF92FF920F931F93CF93DF9300D000D019
:102DE0001F92CDB7DEB78C01DC01DA96AC90DA9792
:102DF000DB96EC90DB97ED91FC91B188FE2CD12C09
:102E0000C12CD801ED91FC9111978089D8962D9114
:102E10003C911C82FD828B83B8E08B9FC001112402
:102E20008C9DA0018D9D500D9C9D500D1124240F53
:102E3000351F3A832983D8011496ED91FC919E01A8
:102E40002F5F3F4F41E06FE0C8010995F3948F2D4C
:102E50008E198A1528F4BFEFCB1ADB0AFB1488F20F
:102E60000F900F900F900F900F90DF91CF911F91C7
:102E70000F91FF90EF90DF90CF90BF90AF900895AB
:102E80000F931F93CF93DF938C01C62F642FCC3207
:102E9000E8F4CA3208F041C0C83271F1C93209F40D
:102EA00042C080E0C034D0F1CF73F801EC0FF11DC7
:102EB000868D8F3F91F1C031E0F00E946C0B21E0D4
:102EC000892B09F420E0F801218F27C0CD3289F148
:102ED00040F384EB8C0F823020F7CF73C00FD12FDB
:102EE000D11D8E8D411133C061E00E94C30B60E0A3
:102EF0008E8D0E94950B11C0025E1F4FD0E0F8012D
:102F000081918F018F3F31F061E0D03108F062E0B4
:102F10000E94C30BDF5FD63191F781E0DF91CF9143
:102F20001F910F91089570E090E080E00E94190CCD
:102F3000F4CF85E090E0433010F082E090E0880F1D
:102F4000991F880F991F05970197F1F7E6CF62E067
:102F50000E94C30BE2CF86EF9DE00C94441482E103
:102F600096E00C944414CF92DF92EF92FF920F936D
:102F70001F93CF93DF936C01EB017B01E40EF51EF1
:102F800010E000E0CE15DF0561F06991D601ED910A
:102F9000FC910190F081E02DC6010995080F191FE1
:102FA000F1CFC801DF91CF911F910F91FF90EF906A
:102FB000DF90CF900895FC0144815581608171813B
:102FC0008FE096E00C94B317CF92DF92EF92FF92CE
:102FD0000F931F93CF93DF93EC016C0124E0C20E9B
:102FE000D11CFC01E158FF4F0190F081E02DC6019A
:102FF00009958E3FEFEF9E07C8F48E010E571F4FC5
:103000007E01F1E8EF0EF11C9C01F8014081F7010F
:103010006081C6010E94FB14C15ADF4F9881913034
:10302000A9F078F09230A1F09330B9F081E090E00F
:10303000DF91CF911F910F91FF90EF90DF90CF9094
:103040000895F7019081890F8083F0CFF801FACFBE
:10305000F7019081981B892FF7CFF801FACF0F93D2
:103060001F93CF93DF938C01D0E0C0E0F801EC0F09
:10307000FD1F6491662341F08FE096E00E94E41703
:10308000892B11F02196F2CFCE01DF91CF911F91C4
:103090000F91089590E080E00895CF93DF9384E14D
:1030A00090E00E940F37C0E7D4E0888385E190E08C
:1030B0000E940F378983CE01DF91CF910895CF937E
:1030C000DF938CE390E00E940F37CCE6D4E0888356
:1030D0008DE390E00E940F3789838EE390E00E9499
:1030E0000F378A838FE390E00E940F378B83CE01E6
:1030F000DF91CF910895CF93DF93EB010E940F37BB
:103100008883CE01DF91CF910895CF92DF92EF9225
:10311000FF920F931F93CF93DF93EB017B0124E08A
:10312000E20EF11C8B016C01C61AD70AC601800F92
:10313000911F0E940F37F80181938F01EE15FF0553
:10314000A9F7CE01DF91CF911F910F91FF90EF90E2
:10315000DF90CF900895FC0180819181009711F05C
:103160000C9444390895FB0101900020E9F7319750
:10317000AF01461B570BDC01ED91FC910280F381FE
:10318000E02D09948F929F92AF92BF92EF92FF929F
:103190000F931F93CF93DF93CDB7DEB7A1970FB6F1
:1031A000F894DEBF0FBECDBF7C01FA01CB0119A29E
:1031B000223008F42AE08E010F5D1F4F822E912CE1
:1031C000B12CA12CBF01A50194010E948038F90106
:1031D000CA016A300CF5605DD8016E938D01232B16
:1031E000242B252B79F790E080E0109721F0BD018A
:1031F000C7010E94B318A1960FB6F894DEBF0FBEA8
:10320000CDBFDF91CF911F910F91FF90EF90BF90B5
:10321000AF909F908F900895695CDECF462F50E06D
:1032200070E060E02AE00C94C218CF92DF92EF9237
:10323000FF92CF93DF936C01990FEE08FF08F7FE22
:103240001BC06DE28FE096E00E94E417EC0144277A
:103250005527BA014C195D096E097F092AE08FE0F4
:1032600096E00E94C2188C0F9D1FDF91CF91FF90B6
:10327000EF90DF90CF9008952AE0B701A6018FE08C
:1032800096E0DF91CF91FF90EF90DF90CF900C947C
:10329000C2184F925F926F927F928F929F92AF92DD
:1032A000BF92EF92FF920F931F93CF93DF93EC01A6
:1032B0004A015B01E22EAB019401CB01B4010E94F3
:1032C0006F3861E871E0811126C024013501E8946E
:1032D00077F82FEF3FEF4FE75FE7C301B2010E949E
:1032E0006F3881110CC02FEF3FEF4FE75FE7C3014D
:1032F000B2010E94EB3565E871E0181664F02FEF1B
:103300003FEF4FE75FE4C501B4010E946A38181629
:103310009CF469E871E0CE01DF91CF911F910F918C
:10332000FF90EF90BF90AF909F908F907F906F90A5
:103330005F904F900C94B3182FEF3FEF4FE75FEC87
:10334000C501B4010E94EB3587FDE3CF20E030E0FA
:10335000A901C501B4010E94EB3510E000E087FF30
:103360000DC0E881F9810190F081E02D6DE2CE0180
:1033700009958C01B7FAB094B7F8B094FE2C712C73
:1033800060E070E080E09FE37E1440F420E030E0F5
:1033900040E251E40E94C9377394F6CFA50194012D
:1033A0000E945D374B015C010E943B382B013C01C0
:1033B0002AE0BC01A201CE010E94C218080F191F09
:1033C000EE20F1F1C301B2010E94F0359B01AC0186
:1033D000C501B4010E945C374B015C01E881F981B1
:1033E0000190F081E02D6EE2CE010995080F191FC2
:1033F000FA948FEFF81621F120E030E040E251E43A
:10340000C501B4010E9451362B013C010E943B389A
:103410004B01B12CA12C2AE0B501A401CE010E94E0
:10342000C218080F191FC501B4010E94F0359B0195
:10343000AC01C301B2010E945C374B015C01D8CFE3
:10344000C801DF91CF911F910F91FF90EF90BF9036
:10345000AF909F908F907F906F905F904F90089566
:103460000C94B318FC0124813581232B39F421E01D
:10347000FB018081882349F020E007C08081918191
:103480000E94A53A21E0892BB9F7822F08950F9366
:103490001F93CF93DF93EC0188819981009759F0B6
:1034A0002A813B812617370730F081E0DF91CF91E9
:1034B0001F910F9108958B016F5F7F4F0E94CD394F
:1034C000009759F0998388831B830A832C813D815F
:1034D000232B59F7FC011082E8CF80E0E7CFEF9271
:1034E000FF920F931F93CF93DF93EC017B018A012F
:1034F000BA010E94471A28813981811114C021150F
:10350000310519F0C9010E944439198218821D82BF
:103510001C821B821A82CE01DF91CF911F910F91E5
:10352000FF90EF9008951D830C83B701C9010E949D
:10353000AE3AF1CFFB0101900020E9F73197AF01DE
:10354000461B570B0C946F1AFB0101900020E9F702
:103550003197AF01461B570B0C946F1AAF92BF9275
:10356000CF92DF92EF92FF920F931F93CF93DF934F
:10357000EC015B016A0179012417350720F48D2DD8
:103580006901E42EF82E198218821B821A821D828C
:103590001C826CEE71E0CE010E94A41AD501149633
:1035A0000D911C91C016D106E8F4E016F10608F45E
:1035B0008701D501ED91FC911197E00FF11FF0808B
:1035C00010826D917C916C0D7D1D61157105B1F0BE
:1035D000CE010E949A1AF50180819181080F191F6E
:1035E000D801FC92CE01DF91CF911F910F91FF90F6
:1035F000EF90DF90CF90BF90AF9008958881998130
:10360000009711F00E944439198218821D821C8291
:103610001B821A82E0CF1F93CF93DF9385ED8093B7
:10362000BC008091B6039091B703A091B803B0910C
:10363000B9030796A11DB11D23E0B695A7959795EF
:1036400087952A95D1F72091BC0024FD03C01092E4
:10365000FE0352C04091B6035091B7036091B80386
:103660007091B903452B462B472B69F30097A105B1
:10367000B10541F02AE22A95F1F700C00197A109AE
:10368000B109E1CF8091B503C1E0C093B4038823B1
:1036900099F1D091B8001091BA008091BC008A7B5A
:1036A0008093BC0060E082E10E94950B60E083E1C2
:1036B0000E94950B1092FE03C09300041092FF032A
:1036C00061E082E10E94950B61E083E10E94950B2D
:1036D0008091B9008E7F8093B9008091B9008D7F71
:1036E0008093B90088E48093B80085E48093BC009F
:1036F0001093BA00D093B800DF91CF911F91089535
:10370000FC01A081B18150962C9182AD38E0839F5D
:10371000C0011124289FA001299F500D112470E0A1
:1037200060E080AD91AD0C94933A1F93CF93DF93FB
:10373000EC010E94E4161BAD8AAD180FE881F981F7
:103740008189181768F0EC81FD8130E020E040E0CD
:1037500060E1CE01099580E0DF91CF911F9108953E
:10376000FE01E658FF4F8081882319F0CE010E94A8
:10377000801B612FCE010E94D11681E0EDCFCF9347
:10378000DF93EC01FC01E658FF4F8081882319F09C
:10379000CE010E94801B60E0CE01DF91CF910C949E
:1037A000D1160F931F93CF93DF93EC01683109F487
:1037B0006EC058F46431F9F0F901673181F080E0AE
:1037C000DF91CF911F910F910895693109F49CC049
:1037D0006032A9F76AE4CE010E94420F56C044232A
:1037E00009F453C081918EBD00000DB407FEFDCFDA
:1037F0008EB54150F4CFE881F9818C859D85AE85E9
:10380000BF85892B8A2B8B2B41F480859185A285DE
:10381000B3858C879D87AE87BF87418169E4CE01E0
:103820000E94420FCFB7F8948091A203811127C064
:10383000E0EEF5E08491E4EFF5E09491E82FF0E01C
:10384000EE0FFF1FE854FA4FA591B491EC91E923D4
:1038500021F461E08AE00E94950B61E08AE00E9419
:10386000C30B8CB580618CBD8CB580648CBD61E070
:103870008DE00E94C30B61E08BE00E94C30B80913E
:10388000A2038F5F8093A203CFBF81E099CFE8812D
:10389000F981E485E15090E0E33020F4F0E0E35E6C
:1038A000FE4F90810C851D852E853F8540E052E1BD
:1038B0006AE770E080E0041715072607370740F431
:1038C00076956795579547958F5F8630A1F787E086
:1038D0009C709065282F2695922B809581709CBDB9
:1038E0008DBDE881F981408169E4CE010E94420FDB
:1038F000A881B981EA85FB8530E020E012964C91E1
:103900006CE2CE010995C1CFA881B981EA85FB851A
:1039100030E020E013964C916CE20995E881F98142
:10392000418169E458CFFF920F931F93CF93DF93A8
:10393000EC01F62E08811981C8010E940F37F81694
:1039400021F06F2DC8010E941737CE01DF91CF9172
:103950001F910F91FF900895AF92BF92CF92DF9287
:10396000EF92FF920F931F93CF93DF9300D0CDB7C9
:10397000DEB78B016B0124E0C20ED11C7B015C0120
:10398000A61AB70AC5018E0D9F1D9A838983F70178
:1039900061917F01CE0101960E94931CEC14FD04FD
:1039A00089F7C8010F900F90DF91CF911F910F9170
:1039B000FF90EF90DF90CF90BF90AF90089560910F
:1039C0002E0470912F04809130049091310420E0F6
:1039D00030E0A9010E94EB3581110CC080E090E03D
:1039E000A0E8BFE380932E0490932F04A0933004AB
:1039F000B09331046EE274E081E090E00E94AC1C70
:103A00008FE39CE90197F1F700C0000010923304A6
:103A10001092340410923504109236041092580417
:103A20001092590410925A0410925B04109254049C
:103A300010925504109256041092570410920F01E0
:103A400010921001109211011092120110929E0317
:103A500010929F031092A0031092A10310929A0358
:103A600010929B0310929C0310929D031092960358
:103A70001092970310929803109299031092500499
:103A80001092510410925204109253041092480460
:103A90001092490410924A0410924B0410924C0464
:103AA00010924D0410924E0410924F048FE39CE943
:103AB0000197F1F700C0000063E171E081E090E060
:103AC0000E9485188FE39CE90197F1F700C0000080
:103AD00068E574E085E090E00E94AC1C8FE39CE90F
:103AE0000197F1F700C000008FE39CE90197F1F71F
:103AF00000C000001092320481E080930C0180939A
:103B0000060108950F931F93609126047091270476
:103B1000809128049091290420E030E0A9010E94BE
:103B20006A3887FD44C00E944C0C009183031091B9
:103B300084032091850330918603601B710B820BF7
:103B4000930B623071058105910588F10E944C0C40
:103B5000609383037093840380938503909386031B
:103B60005B986091600470E090E080E00E94190C26
:103B70005B9A6091260470912704809128049091AB
:103B8000290420E030E040E85FE30E945C37609366
:103B9000260470932704809328049093290466E2F6
:103BA00074E089E190E01F910F910C94AC1C1F917F
:103BB0000F910895EF92FF920F931F93CF93DF938E
:103BC00000D0CDB7DEB78C017B019A838983FB01DE
:103BD0006081CE0101960E94931C0F5F1F4F1A83D4
:103BE0000983F7016181CE0101960E94931CC701F0
:103BF0000F900F90DF91CF911F910F91FF90EF9059
:103C00000895CF93DF9300D000D0CDB7DEB789E31E
:103C100090E3909371048093700480E090E0A0E8BA
:103C2000BFE389839A83AB83BC83BE016F5F7F4F01
:103C300081E090E00E94AC1C1A821982BE016F5F85
:103C40007F4F85E090E00E94DA1D60E774E084E138
:103C500090E00E94DA1D1A821982BE016F5F7F4FC9
:103C600089E190E00E94DA1D84E190E09A838983E3
:103C7000BE016F5F7F4F8EE190E00E94DA1D85E00C
:103C800090E09A838983BE016F5F7F4F8FE190E060
:103C90000E94DA1D81E090E09A838983BE016F5F04
:103CA0007F4F80E290E00E94DA1D1A821982BE01E5
:103CB0006F5F7F4F8DE290E00E94DA1D1A821982B9
:103CC000BE016F5F7F4F8CE390E00E94DA1D1A8285
:103CD0001982BE016F5F7F4F8BE490E00E94DA1D76
:103CE0001A821982BE016F5F7F4F8CE490E00E94C0
:103CF000DA1D1A821982BE016F5F7F4F8DE490E05A
:103D00000E94DA1D1A821982BE016F5F7F4F8EE416
:103D100090E00E94DA1D8FE090E09A838983BE01D3
:103D20006F5F7F4F8AE590E00E94DA1D0F900F9041
:103D30000F900F90DF91CF9108950F931F93CF9322
:103D4000DF9300D0CDB7DEB78B019A838983FB0167
:103D50006081CE0101960E94931CC8010F900F90C4
:103D6000DF91CF911F910F910895CF93DF9300D0F2
:103D700000D000D0CDB7DEB71092390410923804CD
:103D800082E390E0909325048093240480E090E007
:103D9000A0E8BFE38093130190931401A093150151
:103DA000B093160163E171E081E090E00E94AC1CE9
:103DB0008FE39CE90197F1F700C000001E821D828D
:103DC000BE016B5F7F4F85E090E00E94DA1D8FE3BC
:103DD0009CE90197F1F700C000001A821982BE0128
:103DE0006F5F7F4F8DE290E00E94DA1D8FE39CE9C8
:103DF0000197F1F700C0000019821A821B821C8211
:103E0000BE016F5F7F4F89E190E00E94AC1C8FE3A1
:103E10009CE90197F1F700C0000084E190E09E83E7
:103E20008D83BE016B5F7F4F8EE190E00E94DA1DB3
:103E30008FE39CE90197F1F700C0000010929E0308
:103E400010929F031092A0031092A10310929A0364
:103E500010929B0310929C0310929D031092960364
:103E600010929703109298031092990310920F01E9
:103E7000109210011092110110921201109233044D
:103E800010923404109235041092360410924804B3
:103E90001092490410924A0410924B041092580454
:103EA0001092590410925A0410925B041092540418
:103EB0001092550410925604109257041092500418
:103EC00010925104109252041092530410924C0418
:103ED00010924D0410924E0410924F04109226043A
:103EE00010922704109228041092290410922C0496
:103EF00010922B0410922A048FE08093610481E0D9
:103F000080930D0185E0809362041092470462E67D
:103F100074E08FE190E00E949D1E8FE39CE9019781
:103F2000F1F700C000006DE071E080E290E00E94D7
:103F30009D1E88E080930D018FE39CE90197F1F7C6
:103F400000C0000061E674E08EE190E00E949D1EDA
:103F500026960FB6F894DEBF0FBECDBFDF91CF918E
:103F600008958F929F92AF92BF92CF92DF92EF927D
:103F7000FF920F931F93CF93DF9300D000D000D018
:103F8000CDB7DEB710910D01113009F090C088E572
:103F90009CE0909361068093600682EB91E00E9422
:103FA00044141093900602E0009391064091580447
:103FB0005091590460915A0470915B0421E030E003
:103FC0008FE096E00E94491968E574E085E090E092
:103FD0000E94AC1C88E690E00E9444140093900676
:103FE0008FE280939106409150045091510460916A
:103FF00052047091530430E020E08FE096E00E947C
:10400000491960E574E08DE290E00E94AC1C0E94CA
:10401000821D0E94AB171093900612E21093910636
:1040200082E996E00E94DB17409113015091140140
:10403000609115017091160122E030E08FE096E06A
:104040000E9449198BE595E00E942F188091380451
:10405000909139040E94151987E595E00E942F1868
:1040600080912C0464E10E94743890E00E9415193C
:1040700084E595E00E942F18609161048FE096E03E
:104080000E940E1983E680939006109391066DE8C6
:1040900071E08FE096E00E94301A21E030E040E0CD
:1040A00050E060EC7FE38FE096E00E9449191091A8
:1040B0000D01123009F093C088E59CE090936106F1
:1040C0008093600686ED93E00E944414109390065E
:1040D00081E38093910640913304509134046091C0
:1040E00035047091360430E020E08FE096E00E94C5
:1040F00049190E94AB171093900612E21093910693
:1041000082E996E00E94DB178BE180939006109382
:104110009106409113015091140160911501709125
:10412000160121E030E08FE096E00E94491988EE08
:104130009AE0909316068093150642E951E062E2F8
:1041400082E30E94941689E680939006109391066C
:10415000609132048FE096E00E940E1980E595E0B0
:104160000E942F1880910501882301F18091950309
:104170008E3138F500E024E14AE268E683E196E01A
:104180000E94381222E14AE26AE183E196E00E944D
:104190003812809195038F5F809395038D3111F4D0
:1041A000109205018091050181110BC0809195034A
:1041B000882339F0815080939503813011F48093E6
:1041C00005010E94AF1788E28093900684E18093F6
:1041D00091066DE971E08FE096E00E94301A8091BF
:1041E0000D01833009F07DC088E59CE09093610665
:1041F000809360060E94AF17109290068CE0809327
:10420000910687E495E00E942F1840913304509165
:104210003404609135047091360430E020E08FE082
:1042200096E00E9449190E94821D1092900686E134
:10423000809391068CE395E00E942F18409126040C
:1042400050912704609128047091290430E020E007
:104250008FE096E00E9449191092900680E28093C8
:10426000910681E395E00E942F18409158045091E7
:10427000590460915A0470915B0425E030E08FE0AE
:1042800096E00E944919109290068AE28093910666
:1042900085E295E00E942F184091500450915104FE
:1042A000609152047091530425E030E08FE096E075
:1042B0000E9449191092900684E38093910682E946
:1042C00096E00E94DB174091130150911401609118
:1042D00015017091160123E030E08FE096E00E9416
:1042E000491980910D01873009F0A9C088E59CE04B
:1042F00090936106809360060E94AF1711E01093BF
:10430000900685E08093910662EB71E08FE096E085
:104310000E94301A8BE4809390068FE08093910680
:1043200066ED71E08FE096E00E94301A0E94AB17B4
:104330001093900612E21093910682E996E00E9493
:10434000DB17409113015091140160911501709198
:10435000160121E030E08FE096E00E94491969EEF5
:1043600071E08FE096E00E94301A809138049091BD
:1043700039040E9415190E94821D81E295E00E9475
:104380002F1880912C0464E10E94743890E00E9400
:1043900015198EE195E00E942F1883E58093900611
:1043A00010939106609161048FE096E00E940E19CF
:1043B00080910501882301F1809195038E3138F5B4
:1043C00000E02DE049E262E583E196E00E943812C8
:1043D0002DE04AE262E583E196E00E943812809186
:1043E00095038F5F809395038D3111F41092050131
:1043F0008091050181110BC080919503882339F0CC
:10440000815080939503813011F48093050185E0FC
:104410000E946C0B20914204892B09F4F9C42111EC
:104420000AC00E944C0C60933E0470933F0480933A
:104430004004909341041092390410923804809102
:104440000D01883021F588E59CE09093610680930A
:1044500060068AEE90E10E94441408EE1AE0109380
:104460001606009315064DEE51E06CE088E20E94BE
:10447000941688E690E00E94441410931606009368
:10448000150647EF51E06FE282E00E94941610910A
:104490000D01193009F0C1C188E59CE090936106D7
:1044A000809360060E94AF170EE100939006109271
:1044B000910666E072E08FE096E00E94301A8DE18E
:1044C000809390061093910688E195E00E942F1842
:1044D00040916C0450916D0460916E0470916F0472
:1044E0002AE08FE096E00E94C2188AE0809390064E
:1044F00082E18093910685EF94E00E942F186091ED
:1045000062048FE096E00E940E1982EB91E00E9417
:1045100044141093900600939106609194038FE0E9
:1045200096E00E940E1983EF94E00E942F1860918C
:1045300093038FE096E00E940E1981EF94E00E94B1
:104540002F18609192038FE096E00E940E198FEE73
:1045500094E00E942F18609191038FE096E00E94F2
:104560000E1985E00E946C0B892B51F50E944C0CB2
:104570000091430410914404209145043091460475
:10458000601B710B820B930B60367A4E810591058F
:10459000B8F00E944C0C60934304709344048093E1
:1045A00045049093460481E080930D0180930401BB
:1045B000109294031092930310929203109291031D
:1045C00010920B0185E00E946C0B892B49F18091C0
:1045D0002A048F5F80932A04843621F50E944C0CB4
:1045E00000913A0410913B0420913C0430913D0429
:1045F000601B710B820B930B683E73408105910524
:1046000088F00E944C0C60933A0470933B048093B2
:104610003C0490933D04809104018F5F80930401DA
:1046200010922A0485E00E946C0B11E0009709F4B7
:1046300010E0892B09F0AFC080914204882309F46F
:10464000AAC00E944C0CC0903A04D0903B04E09069
:104650003C04F0903D046C197D098E099F09663970
:1046600071058105910508F496C00E944C0C609379
:104670003A0470933B0480933C0490933D048091F2
:104680000401813069F4909194039F5F90939403A7
:1046900090919103843061F49F5F9093910308C0DF
:1046A000823009F01AC2909193039F5F9093930315
:1046B000909194039A3010F0109294039091930388
:1046C0009A3010F010929303909192039A3010F068
:1046D00010929203909191039A3010F010929103EE
:1046E0009BEF980F983018F0803108F43CC081E0BF
:1046F0002091940390915F04291380E091E0309120
:10470000930320915E04321390E0892391E030916D
:10471000920320915D04321390E0892309F4E6C1ED
:104720009091910380915C049813E0C185E080939F
:10473000620481E08093040110920E0180930B01CA
:1047400080930D0162E674E08FE190E00E949D1E6F
:1047500081E090E09A838983BE016F5F7F4F80E2A2
:1047600090E00E94DA1D809104018D50833098F40E
:1047700080915F048093940380915E0480939303FF
:1047800080915D048093920380915C0480939103F7
:1047900084E080930401109239041092380410933D
:1047A000420480910501882369F1809195038E313F
:1047B000A0F580910401813019F485E00E944C132A
:1047C00080910401823019F482E20E944C1380919E
:1047D0000401833019F48FE30E944C13809104018B
:1047E000843019F48CE50E944C13809195038F5FFF
:1047F000809395038D3111F410920501809105018C
:1048000081110BC080919503882339F081508093EA
:104810009503813011F48093050180910D018A3058
:1048200009F0DCC088E59CE0909361068093600607
:1048300086ED93E00E94441411E0109390068FE2FD
:104840008093910662E272E08FE096E00E94301A57
:104850000E94AF17109390061093910680918F03DA
:10486000909190030E9415198DEE94E00E942F18EC
:10487000609104018FE096E00E940E198BEE94E0A7
:104880000E942F1860912A048FE096E00E940E1972
:104890008DE1809390068FE08093910685EE94E001
:1048A0000E942F1840916C0450916D0460916E0429
:1048B00070916F042AE08FE096E00E94C2188CE0AD
:1048C000809390068EE18093910660E372E08FE022
:1048D00096E00E94301A85E00E946C0B892B11F53E
:1048E0000E944C0C00918B0310918C0320918D033E
:1048F00030918E03601B710B820B930B683E7340EB
:104900008105910578F00E944C0C60938B037093A5
:104910008C0380938D0390938E0380912A048F5F84
:1049200080932A0481E090919403953009F080E00F
:1049300091E020919303253009F090E0892391E0E4
:1049400020919203253009F090E0892391E0209195
:104950009103253009F090E0892391E020918A03AA
:10496000253009F090E08923E9F090918903953092
:10497000C9F481E08093040110920E0180930B0131
:1049800080930D01909362041092470462E674E0F4
:104990008FE190E00E949D1E6DE071E080E290E06A
:1049A0000E949D1E85E00E946C0B9C01FF24F394E5
:1049B000892B09F4F12C90914204232B09F45CC259
:1049C00091110AC00E944C0C60933E0470933F0406
:1049D0008093400490934104F092420480910D0131
:1049E0008B3009F0A5C181E0809347041A821982B7
:1049F0001C821B821E821D826CEE71E0CE0101962C
:104A00000E94A41A88E59CE090936106809360065A
:104A10008091030166E672E0882311F06AE572E096
:104A2000CE0101960E949A1A0E94AB1781E08093F2
:104A3000900612E21093910682E996E00E94DB173D
:104A4000409113015091140160911501709116016C
:104A500023E030E08FE096E00E94491987E48093DC
:104A6000900610939106CE0101960E94DB178AE50D
:104A700080939006109391066CE572E08FE096E0CB
:104A80000E94301AC0901301D0901401E0901501DB
:104A9000F090160120E030E048EC52E4C701B60186
:104AA0000E946A3887FD5FC08091010190910201E8
:104AB00020E230E08130910531F08230910509F03B
:104AC00049C028E230E0309388032093870306979B
:104AD00009F049C08AE590E042C0833009F0D8CDA2
:104AE000909192039F5F90939203E2CD8091620434
:104AF00081508093620481E080930B0180930D01CB
:104B000080930401109294031092930310929203E5
:104B10001092910362E674E08FE190E00E949D1E86
:104B200022CE1092900310928F0356CF0F5F1F4F2B
:104B30001093900300938F030E944C0C60933A04EF
:104B400070933B0480933C0490933D0481E08093F8
:104B5000370442CF8330910589F58CE290E0909341
:104B600088038093870320E030E046EC52E4C701DD
:104B7000B6010E94EB351816BCF120E030E040E2AF
:104B800051E4C701B6010E946A3887FD2DC08091AB
:104B90000101909102012CE130E08130910529F072
:104BA00082309105C1F424E230E0309388032093F1
:104BB00087030697C9F48AE590E012C08430910516
:104BC00019F480E390E0CBCF8530910509F07FCFD9
:104BD00086E490E0C4CF8330910581F588E290E0CF
:104BE000909388038093870320E030E040E151E414
:104BF000C701B6010E94EB351816BCF120E030E089
:104C0000A901C701B6010E946A3887FD2EC08091B4
:104C100001019091020128E130E08130910529F0F5
:104C200082309105C1F420E230E030938803209374
:104C300087030697D1F48AE590E013C0843091058C
:104C400019F48CE290E0CCCF8530910509F0B1CF1A
:104C500086E490E0C5CF8330910509F07CC084E202
:104C600090E0909388038093870385E00E946C0B0B
:104C70009C01FF24F394892B09F4F12C90914204B8
:104C8000232B09F4B4C191110AC00E944C0C60930B
:104C90003E0470933F048093400490934104F0924B
:104CA0004204809105018823D9F0809195038E31CB
:104CB00010F500E02091000149E26091870383E153
:104CC00096E00E943812809195038F5F8093950340
:104CD0008D3111F4109205018091050181110BC0F5
:104CE00080919503882339F081508093950381301A
:104CF00011F48093050185E00E946C0B892B91F0E3
:104D000080912A048F5F80932A04883C69F4809103
:104D1000010190910201019709F477C0909302017B
:104D20008093010110922A04CE0101960E94AB18D3
:104D300026960FB6F894DEBF0FBECDBFDF91CF91A0
:104D40001F910F91FF90EF90DF90CF90BF90AF90A9
:104D50009F908F9008958430910519F488E290E037
:104D600080CF8530910509F064CF86E490E079CF5B
:104D700002301105A9F46091130170911401809122
:104D800015019091160120910301222309F490C18D
:104D900025E0209300012DEC3CEC4CEC5DE366C17A
:104DA0000330110509F0A0C1609113017091140145
:104DB000809115019091160120910301222309F49D
:104DC00081C125E0209300012AE037ED43E25CE356
:104DD0000E945D3760931301709314018093150155
:104DE000909316010630110509F059CF8FE080939A
:104DF000000163E171E081E090E00E94AC1C81E081
:104E000080930D01109247044ACF86E090E086CF50
:104E1000222309F410CB0E944C0C00913A0410910B
:104E20003B0420913C0430913D04601B710B820BCC
:104E3000930B643671058105910508F4FCCA0E9444
:104E40004C0C60933A0470933B0480933C04909321
:104E50003D04809161048B5F8093610461E674E09E
:104E60008EE190E00E949D1E809161048B3F08F4CA
:104E7000E2CA10926104DFCA992309F4ADCD0E9401
:104E80004C0C00913E0410913F042091400430915D
:104E90004104601B710B820B930B6B307105810514
:104EA000910508F499CD0E944C0C00918F0310914C
:104EB000900380903A0490903B04A0903C04B09002
:104EC0003D04681979098A099B0968327342810592
:104ED000910508F42BCE0E944C0C60933A04709319
:104EE0003B0480933C0490933D0480910401813005
:104EF00079F40530110561F482E08093040185E0C6
:104F0000809394031092900310928F0310922A04BE
:104F100080918F0390919003059781F48091040113
:104F2000823061F483E08093040185E080939303F1
:104F30001092900310928F0310922A0480918F0395
:104F400090919003059781F480910401833061F47E
:104F500084E08093040185E0809392031092900393
:104F600010928F0310922A0480918F0390919003E6
:104F7000059779F480910401843059F485E0809399
:104F80000401809391031092900310928F0310926A
:104F90002A0480918F0390919003059779F4809172
:104FA0000401853059F496E09093040180938A03BC
:104FB0001092900310928F0310922A0480918F0315
:104FC00090919003059709F0ACCD80910401863053
:104FD00009F0A7CD87E08093040185E080938903E1
:104FE0001092900310928F0310922A04F5CC99230B
:104FF00009F455CE0E944C0C00913E0410913F04E0
:105000002091400430914104601B710B820B930B83
:105010006B3071058105910508F441CE0E944C0C5E
:1050200060933A0470933B0480933C0490933D0456
:1050300081E0809337040091010110910201013059
:10504000110509F095CE60911301709114018091C2
:10505000150190911601209103012223F9F025E01A
:105060002093000120E030E040E85FE30E945D37DC
:1050700060931301709314018093150190931601AE
:105080000530110509F0AECE85E0809300018091D6
:10509000030191E089278093030101CE25E020934D
:1050A000000120E030E040E85FE30E945C37E0CFA1
:1050B00025E0209300012DEC3CEC4CEC5DE30E94DC
:1050C0005C3788CE25E0209300012AE037ED43E2EB
:1050D0005CE30E945C3720C025E0209300012FE6AE
:1050E00032E143E85AE3F5CF0430110549F6609107
:1050F0001301709114018091150190911601209176
:105100000301222349F325E0209300012FE632E139
:1051100043E85AE30E945D376093130170931401D2
:105120008093150190931601BACD1F920F920FB67E
:105130000F9211242F933F938F939F93AF93BF931D
:105140008091640490916504A0916604B091670415
:105150003091630423E0230F2D3758F50196A11DEC
:10516000B11D209363048093640490936504A0931D
:105170006604B09367048091680490916904A091DB
:105180006A04B0916B040196A11DB11D809368045F
:1051900090936904A0936A04B0936B04BF91AF919C
:1051A0009F918F913F912F910F900FBE0F901F9065
:1051B000189526E8230F0296A11DB11DD2CF1F928C
:1051C0000F920FB60F9211242F933F934F935F933B
:1051D0006F937F938F939F93AF93BF93EF93FF93BF
:1051E000E0910901F0910A010995FF91EF91BF91BA
:1051F000AF919F918F917F916F915F914F913F916F
:105200002F910F900FBE0F901F9018951F920F9225
:105210000FB60F9211242F933F934F935F936F9389
:105220007F938F939F93AF93BF93EF93FF93E091FF
:105230000701F09108010995FF91EF91BF91AF919E
:105240009F918F917F916F915F914F913F912F919E
:105250000F900FBE0F901F9018951F920F920FB6D0
:105260000F9211242F933F934F935F936F937F93EC
:105270008F939F93AF93BF93EF93FF9382E794E055
:105280000E94620EFF91EF91BF91AF919F918F911C
:105290007F916F915F914F913F912F910F900FBE32
:1052A0000F901F9018951F920F920FB60F92112416
:1052B0002F938F939F93EF93FF93E0918204F0914C
:1052C00083048081E0918804F091890482FD1BC0F1
:1052D000908180918B048F5F8F7320918C04821753
:1052E00041F0E0918B04F0E0EE58FB4F958F8093F6
:1052F0008B04FF91EF919F918F912F910F900FBE93
:105300000F901F9018958081F4CF1F920F920FB6C7
:105310000F9211242F933F934F935F936F937F933B
:105320008F939F93AF93BF93EF93FF938091B900B7
:10533000887F803609F44AC0F0F5883209F4A5C0A8
:1053400018F5803109F499C0B8F4882309F4F5C040
:10535000883009F492C0FF91EF91BF91AF919F9176
:105360008F917F916F915F914F913F912F910F900E
:105370000FBE0F901F901895883109F486C08032B7
:1053800051F78093FD0314C0803409F49BC040F4AE
:105390008033B9F38833F9F68093FD0385ECAEC012
:1053A000803509F483C0883509F494C0883499F6AF
:1053B0000E940B1BD0CF883909F48AC038F5883792
:1053C00029F050F4883611F0803729F683E0809375
:1053D000FE031092FC0355C0883809F479C0803967
:1053E00019F0803809F0B7CF8091FC03803208F0C3
:1053F0006FC0E091FC0381E08E0F8093FC038091ED
:10540000BB00F0E0E452FC4F80833BC0803B39F0AE
:10541000D0F4803A09F477C0883A09F09CCF84E050
:105420008093FE031092DB031092DA03F0E0E0E0D9
:1054300009958091DA0381110FC081E08093DA032E
:105440001092BA0309C0803C09F4A8CF883C09F443
:10545000A5CF883B09F07FCFE091DB0381E08E0F81
:105460008093DB03F0E0E654FC4F80818093BB0027
:105470009091DB038091DA0329C08091230480930B
:10548000BB0085EC8093BC0066CF90912204809194
:105490002104981758F5E091220481E08E0F809343
:1054A0002204F0E0EF5FFB4F8081E9CFE09122041E
:1054B00081E08E0F809322048091BB00F0E0EF5FCB
:1054C000FB4F808390912204809121049817C8F2A9
:1054D00085E8D8CFE091220481E08E0F80932204EA
:1054E0008091BB00F0E0EF5FFB4F80838091000470
:1054F00081115ECF81E08093FF0384EA8093BC003A
:105500001092FE0328CF85EC8093BC001092FE031E
:105510008091FC03803230F4E091FC03F0E0E4522F
:10552000FC4F10826091FC0370E08CED93E0F0E0A2
:10553000E0E009951092FC030ECF1092FD0338CFE6
:10554000CF93109275041092740488EE93E0A0E05B
:10555000B0E08093760490937704A0937804B0939E
:10556000790481E691E0909373048093720485EC52
:1055700090E090937F0480937E0484EC90E090937D
:1055800081048093800480EC90E090938304809366
:10559000820481EC90E0909385048093840482ECF3
:1055A00090E0909387048093860486EC90E090933B
:1055B00089048093880410928B0410928C041092BA
:1055C0008D0410928E0410929306109292061092FF
:1055D000950610929406109297061092960661E630
:1055E00072E082E996E00E94A41A109212061092CC
:1055F000110688EE9AE090938F0680938E061092A3
:1056000090061092910610922B0683E791E09093FA
:10561000100680930F061092140610921306109233
:10562000280610921F061092200610922106109252
:1056300022068FEF8093290680932D06E1E3F6E0A2
:1056400087E496E0CFEFC1938E179F07E1F787EBD2
:105650009FE090931806809317068EE690E1909352
:105660001A068093190681ED9BE190931C068093A6
:105670001B0680E497E190931E0680931D0630E0A0
:1056800020E040E069E083E196E00E94B70F1092CD
:105690005F0610925E0682EF9AE090934806809330
:1056A00047068FE095E090934C0680934B0682E08E
:1056B00080934D0610924E0610926B0610928B0648
:1056C00081E080938C0680938D068BE791E0909328
:1056D0004A068093490683E196E00E946411109285
:1056E0005A0610925C06C0935B06C0935D06E0917B
:1056F0004906F0914A060280F381E02D83E196E0AD
:10570000099581E49BE09093610680936006109276
:105710006E068CE080933A06C0933C06CF910895C4
:10572000CF93DF93CDB7DEB7A3970FB6F894DEBF64
:105730000FBECDBF789484B5826084BD84B581608E
:1057400084BD85B5826085BD85B5816085BD80914C
:105750006E00816080936E001092810080918100C4
:1057600082608093810080918100816080938100BC
:10577000809180008160809380008091B10084607E
:105780008093B1008091B00081608093B0008091DF
:105790007A00846080937A0080917A00826080939E
:1057A0007A0080917A00816080937A0080917A00FB
:1057B000806880937A001092C100E0918204F09199
:1057C000830482E08083E0917E04F0917F04108264
:1057D000E0918004F09181048FEC808310928A0420
:1057E000E0918604F091870486E08083E091840450
:1057F000F0918504808180618083E0918404F09140
:105800008504808188608083E0918404F091850420
:10581000808180688083E0918404F0918504808198
:105820008F7D808382E390E0A0E0B0E080937604F7
:1058300090937704A0937804B093790484B184B9E9
:10584000539A229855985B9A5A9A289AE09117068B
:10585000F091180630E020E040E06AE083E196E055
:10586000099583E196E00E94BF1B83E196E00E94C8
:10587000951B8111FACF60E083E196E00E94D1167A
:10588000E0911706F091180630E020E040E06BE070
:1058900083E196E0099587E191E190938F068093EB
:1058A0008E068EE59CE0909308018093070180911D
:1058B00069008C7F826080936900E89A63E171E0FF
:1058C00081E090E00E94851864E574E085E090E056
:1058D0000E94851868E574E085E090E00E948518D4
:1058E0000E944D1866E274E089E190E00E948518FC
:1058F00061E674E08EE190E00E947B1862E674E05D
:105900008FE190E00E947B186DE071E080E290E012
:105910000E947B1860E574E08DE290E00E9485189B
:105920006CE474E08DE290E00E9485180E945F189C
:105930006FE574E08BE490E00E947B186EE574E004
:105940008CE490E00E947B186DE574E08DE490E0BB
:105950000E947B186CE574E08EE490E00E947B1856
:1059600060E674E08AE590E00E947B1864E1462ED0
:10597000512C612C712C2091EC012BA322242A9410
:10598000322C82E794E00E94420E892B09F405C173
:105990001BA10E94020E97FF182F1E8E1D8E18A2AB
:1059A0001F8E1AA219A26CEE71E0CE014D960E94D4
:1059B000A41A0E94020E97FD1CC089831A82E9A0D6
:1059C000FAA08FEFE81AF80AB701CE014D960E94AF
:1059D000471A882371F32D8D3E8D89A19AA1BE01AE
:1059E0006F5F7F4F820F931F0E94AE3AFAA2E9A227
:1059F000E0CF1A8219821C821B821E821D826CEEED
:105A000071E0CE0101960E94A41A38862F823A8650
:105A10002986E984FA84C9A0DAA0EC14FD0409F40B
:105A200056C09FEFE91AF90AF886EF82EC14FD04DC
:105A300048F1DA86C98629853A85A701BE01635EE9
:105A40007F4FCE010B960E94AE1A89819A810097F2
:105A500069F16B857C856115710531F14B815C8144
:105A60002F85388942175307F8F00E94AE3A8F8588
:105A700098899E838D83188A1F86CE010B960E947B
:105A8000AB18C7CF8D8C9E8C6AE370E0C4018E0D7D
:105A90009F1D0E949A3A009761F2881999099A8786
:105AA000898797FDC6CFC7CF0E9444398B859C85D7
:105AB0009A8389838D859E859C838B838F85988926
:105AC0009E838D831C861B861E861D86D4CF188ED2
:105AD0001F8A1A8E198E1C8E1B8E69817A81611520
