:100000000C94B40A0C9450280C9429280C94DC0A03
:100010000C94DC0A0C94DC0A0C94DC0A0C94DC0AC8
:100020000C94DC0A0C94DC0A0C94DC0A0C94DC0AB8
:100030000C94DC0A0C94DC0A0C94DC0A0C94DC0AA8
:100040000C94DF270C94DC0A0C949D280C947728E0
:100050000C94DC0A0C94DC0A0C94DC0A0C94DC0A88
:100060000C94CF280C94DC0A12000303040504044A
:1000700006101000FE0EFC0EFD00000000012D20F9
:100080000500104D2A0F78F4D9886454D92126A58B
:100090008924002B19CC1869C78171601C18074688
:1000A0000F0FE338300E8C03E3C028002C0A54D223
:1000B000CCAC482622002D0735924F3C042E073346
:1000C000144D1C042F0F06D352EA265413AA09B567
:1000D0000985003011EA12D7110F21A164E81F270A
:1000E00042D19506310CE712578E0E87086DB87F06
:1000F0003213EA12D7D50E21A171BE3CA6B28EC72B
:100100008783013314EA1257154FB3F962B50E997C
:1001100043E6C6D3E85803341AEB12D7925B25C3E3
:10012000C950341BCD64A3D9E8F0109E43E690116A
:10013000003517EA12571C2407C97CFD103A48867F
:1001400072C8DC681B1D6B003617EA12D7154F42C8
:10015000917C2E291D2443C9D07122145D6900377A
:1001600013EA12573CD8C7F331793E9E8FE763F20A
:1001700014003815EA1257D90E91A1A3E8681B4D57
:10018000861E27879809003919EA12D7114F43C9EB
:100190005032349E280799682E198A64A3630D0093
:1001A0003A0AA3164F1CE4D0830000000004FFFFAE
:1001B00000001200040405050405071B1F00FB19BD
:1001C000F919FB0000000002072006002054022A53
:1001D00021AE71B7CE905144480D19672810A10780
:1001E0000F841019648EC4B021A388100B1408006A
:1001F0002B33B43E14A77830E2C18807231E8C78D5
:1002000030E2C18807231E8CC8070F548A07231EBB
:100210008C7830E2C18807231E8C7830E2C18807D1
:100220002312002C1027E95A4A113244C89019436E
:10023000CD20002D07A9E45DC20F2E08A52C54C2C5
:1002400003052F238BAB7BE2387203C75137701C39
:10025000B981E3C80D1C47DDC071E4068EA36EE0D2
:100260003872030702302231279C96D174ABCA54EE
:1002700055841C117224CAE97F57821C1172444AAA
:1002800095A96A5DCA530031122B2F9C5AA13328BD
:100290001EAC4872A858FDFF03321C31279C9A49B6
:1002A000658CDC143251AC44B1C2B52D6BD43E2DFB
:1002B0006AED831F203323302B9C9641456D5C18DB
:1002C0002A51AC6C59A2C6D29D4498B8DAB2CA344D
:1002D0005B54C40D2B75A700342833239CE6E1B38F
:1002E00048B3245192444122E58A9423538C50A967
:1002F00042A548152A55885899077F10B678BD0140
:10030000352531279CC2939F14AE13436E9E18323D
:1003100051AC4439D2852B26518E44B11286CAB8CD
:1003200069B5F01800362C31279C9A49658CDC9809
:1003300029628A48B11265CD96295422C913342501
:100340004E2DDB598962254C953853C6113385A74C
:1003500000371E302B9CC21F90ADB46CA5658B96E8
:100360002D6AB46CD1B2458D16355AD4D28200387C
:100370002831279CD639464F5E982A514E5D097226
:10038000444A9569964E599B4246C89128A777AB37
:100390004C3C79B4F01400392C31279CD641658C43
:1003A000DC143251CA44B112C57675A2D089074116
:1003B00052142A53D6DA12C58A903252C650236696
:1003C0002A8D013A0B45365CC203F5903E50000081
:1003D0000004FFFF00001200030304040304060CE2
:1003E0000D00FE0BFD0BFE0000000000F2200500DA
:1003F000C4122A0A566E3534914946012B14994786
:100400009871481C1287040FC238240E8943820059
:100410002C0943B532128A04002D07245D1387008E
:100420002E0622C612042F0ED5B5736A31B5604C64
:100430002DA61604300EB8C554349144C88F1291BD
:100440008C04310AB5C57492C348A61F3211B8C5D1
:1004500054A5C94426964E8534DA707A083311B80B
:10046000C534A5C9442696D1E544DAC446023412FF
:10047000B9C5945346896C2213A9890E07AA5C0456
:100480003510B8C51417B1F2653416D30EA3120097
:100490003612B8C554B4892848965046454689480E
:1004A00046023710B8C51487B0742A9D4AA7D2C532
:1004B00021003811B8C5349651B134A2892442C6FE
:1004C000D288043912B8C554349144482C4DCE62B8
:1004D0009A483223013A0882C612740801000000CB
:1004E00004FFFF00004944202D20002E002E002094
:1004F0000020002000D0A1D09FD0A0D09ED091207D
:100500002D20004944202D20002020002020200004
:10051000D0A2D09ED0A2D090D09B5F00D09B49D0DB
:10052000A2D0A0D0985F00D092D098D0A549D09406
:100530005F00D092D0A549D0945F00204C2E0020BF
:100540002000202020002020200031303E20D0A19B
:10055000D09AD098D094D090D09DD09DD0AF20D0BC
:100560009DD090D09BD090D0A8D0A2D0A3D092D034
:1005700090D09DD0AC0034203E20D09CD09ED09D09
:1005800049D0A2D09ED0A020310032203E20D0926F
:10059000D098D0A549D094002120534552564953B4
:1005A00020210000000000240027002A0000000095
:1005B00000250028002B0000000000230026002951
:1005C00000040404040404040402020202020203FC
:1005D0000303030303010204081020408001020406
:1005E0000810200102040810200000000800020189
:1005F00000000304070000000000000000D5000216
:10060000020304030404050800FF06FF0600011AA4
:100610000231032F2005007E03210731633352008E
:1006200022079B6E93AC00230D3D6257A6345435D0
:1006300054991200240A3D629B57BD53DA112508D4
:10064000AB6613536700260A3C621753B36AA600D1
:100650002705196F332807B262A79A012908B262E9
:100660001353A5002A0A2C6213931A49C5002B0ABA
:100670002D629B511C32A3082C079B5EA74A002DBC
:10068000060C6A33022E079B5E9756022F083462CF
:100690005FB633003008B36257B92A003107B3623E
:1006A00097646B320A3462A7624E2A8F00330A3491
:1006B000623362D4482605340A34621B5535624ED3
:1006C00000350A346233F446322900360A3462A710
:1006D000F28A322900370A34623372CC314700384B
:1006E0000A3462A76252512605390A3462A7A24C25
:1006F0003B29003A07AA6233E2083B08B35E67234E
:1007000055023C07B3629BCA5C3D081C6633321A33
:10071000013E08B36293CB54023F09B362D74C1930
:100720002600400C455E2BA35C4925594305410931
:100730003462A7A21C5306420A3462B3E248518EC7
:100740000443093462A7A22E930244093462B3A27F
:100750007324004509346233F4CA790446093462CB
:1007600033F4CA3500470A3462A7A24E3329004841
:1007700009346213E59866004907B362B3626B4AB5
:1007800009346237735546004B093462135592A9F8
:10079000334C08346293BB47004D09346213C711D0
:1007A000CD004E09346213D75867004F093462A751
:1007B000A2332900500A3462B3A21C2967005109F0
:1007C0003C5EA7A25C6E14520A3462B3A21C29CA12
:1007D00000530A3462A762CAA84C0A5408B362B331
:1007E00062170055083462133D93025609346213B0
:1007F0009D492A005709346213CD71C400580A3448
:10080000621365922ACA00590B35629375AA33CADE
:1008100028025A09346233726C8F005B07B362336B
:1008200062735C0A34629333CA28A31C5D07B36207
:10083000339B235E069372D7005F060C5E33026023
:1008400006927213036108246237A24C03620A34D1
:100850006293F38A7224006307A36237B3006409CA
:1008600034625F8D28D30065082462A7D2C80A6667
:100870000934625B9533470067092C5EA762DA4949
:10088000016809346293F38A66006908B36297913C
:10089000AC066A09BB5E9B61A92A006B09346293AE
:1008A000CB91A20C6C07B36223BB066D092562A332
:1008B0005A2AA9026E072462B3A2196F082462A7FC
:1008C000A24C0A70092C5EB3E248390371082C5E11
:1008D0003762DA057208246293929D017307A3625E
:1008E00037F202740A346297E3CC29260075072494
:1008F0006213CD347607A36293AC0A77092562931D
:1009000055525D007808246213935431790A2C5EA5
:1009100013651A3129007A082462336239027B0B8D
:100920003C62AB324A1AC58C047C053163737D0C82
:100930003C62A351CC48659424007E0714729754FE
:100940000200000004FFFF04010A346233F4CA7994
:100950000404020B3C5E33B34CED980004030934ED
:10096000623374370004040B3462A7E2CC312900EF
:1009700004050B3462A762CAA84C0A040608B362D5
:10098000B3626B040708B362B3626B040809346294
:10099000DF96490104090C356227534CAA52C9025B
:1009A000040A0D356293628A23552A5900040B0903
:1009B000346233B34C3D040C0B34621355923295C0
:1009C00001040D06007E03040E0AB36293AC3245A7
:1009D00000040F0ABB5E93BC464A0004100A34624E
:1009E000A7A21C530604110B3462B3F28A722400CE
:1009F00004120B3462B3E248518E040413093462CA
:100A000033A46E0304140A3C5EA7FA6BC8000415F5
:100A10000A346233F4CA790404160C35629392AA3C
:100A200056A5922A04170B3462A7628D6452000403
:100A3000180A346213AD91A40C04190C3C62139390
:100A40008A6A242903041A0B3462135592A994016B
:100A5000041B093462ABFA2503041C0A346213C771
:100A600011CD00041D0A346213E5986600041E0AC5
:100A70003462A7A2332900041F09346233A467003B
:100A800004200B3462B3A21C29670004210A3462DB
:100A9000A7A22E9302042209B362B36217000423B3
:100AA0000A346213CDB4470204240B35629B57A568
:100AB000AA1D0104250AB362935499920A04260AD6
:100AC0003C5E93FAD7C801042709B36293AC240BA8
:100AD00004280D356293924A2AA9A4D21804290E3B
:100AE0003D5E93924A2AA9A4D2D828042A0D3562E1
:100AF000B351463AC5141500042B0B356293F554D7
:100B000049A519042C0AB36213A34A6A01042D0BE8
:100B10003462B351DA792400042E0D356213533553
:100B2000924A2AC904042F0B346237A24C23CA000C
:100B3000043009246237A24C0304310B3462A7F25B
:100B40008A3229000432092462B3561C090433088E
:100B5000A3623362090434092C5EB7921C33043556
:100B6000092462A7D2C80A04360A256293AA55A9A5
:100B700002043708A362B3E402043809246213D5DF
:100B8000483204390B346213938A6A2419043A09EF
:100B9000246213476A06043B082462AB5A32043CC1
:100BA0000A256293D74AAA00043D09246213C79418
:100BB00001043E092462A7A24C0A043F08246233C0
:100BC000A41904400A2C5EB3A21C2903044108A303
:100BD0006237B300044208A362B3620504430A2CDF
:100BE0005E13652A4B0004440BBB5E23AB91464A5F
:100BF000000445092462139354310446092C5E1302
:100C0000CDA10304470924621365DA0104480B25CA
:100C10006293924A2A8D0104490C2D5E93924A2ACE
:100C20008D8D02044A092462A3654A0A044B0924F3
:100C30006213971A29044C09246293571C09044D26
:100C400008A36223E502044E0A246293925A2A0101
:100C5000044F08A362B7D20A04510B346293325690
:100C600069640504520B3C5E17679629C704045358
:100C70000934625B0E5D03045408A3623752160404
:100C80005509246237341A0A045609B3629791ACA5
:100C900006045709B36293B2AC0604580ABB5E9BC4
:100CA00061A92A0004590A256227D348C902045AB7
:100CB0000A256293E2489505045B0A346217679639
:100CC000A901045C093462DB1CA919045D06007EDD
:100CD00003045E0B3C5E139386555902045F0AAB16
:100CE0005E93AC91120004900834623F761B04912D
:100CF000082C623F760D04920A3462B7E2CC2500DC
:100D00000493092462B7E28C0004960E3D5E939230
:100D1000AA56A592AA510004970B2D5E93AA55A935
:100D20001A05049A0D3D5E1353A953AC7246010493
:100D30009B0B2D5E13D34CB1860104AE0C35629330
:100D400075AA33CA280204AF0B2D5E93539D5146FA
:100D50001104B00C35629375AA86CC280204B10B3D
:100D60002D5E93533564461104B20BBC5E939A39E1
:100D7000A6360A04B30A2D5E13A396350C04BA0AEC
:100D8000346293F38A660004BB0AB36213A34A5623
:100D90000004D80B3462A7621E33290004D9092449
:100DA00062A7474A0A04E209BB62B357AC0604E3F0
:100DB00008B362B3653504E80B3462A7E2983229C0
:100DC0000004E9092462A7864C0A04EE0B3C623356
:100DD000328ACEA40004EF0A346233328A661A00E3
:100DE0000060020202030301010404050000050083
:100DF000050000FD01ED02D72006EC3C9F00210715
:100E0000EC8CB4B1042207EC4C6A73012309EC4C5E
:100E10004AAB5A15002408EC5C5C5A2D002509ECFD
:100E20004C8A4AA60C012608EC5C8E4B470027072B
:100E3000EC6CD45C002807EC6C5DA3042908EC4C36
:100E400046B9CC002A08EC4C8A7156092B07EC3CB9
:100E50008C33132C07EC3C5794002D06EC3CB9194D
:100E60002E07EC3C5B4A002F08EC6C8E3966003094
:100E700008EC5C4C3D23003107EC5CD44D0032089B
:100E8000EC8C46B15E003308EC8C4651A705340863
:100E9000EC4CEAB513003508ECCCCA1A2509360823
:100EA000EC9CCAAB5A003707ECCC2E73043808EC24
:100EB000CCAA56B5003908ECCCAA7692003A08ECD8
:100EC0008CD4584A003B08EC8CD45494003C08EC79
:100ED0006C1B6594003D08EC3CDA7043003E08EC66
:100EE0004C4619C51A3F08ECCC8E1A47004008EC56
:100EF0009CAA64460A4108ECCCAA5617004208ECAA
:100F0000CCAA644A0B4307ECCCCAF5024408EC8C2B
:100F10004CBD24004508ECCCCA2B2F004608ECCC75
:100F2000CA2B67004708ECCCCAA9B5004808EC4CAE
:100F30006AAD2E004907ECCCCCE5024A07EC6CAE5A
:100F4000AA054B08EC4C6AC9D4024C07EC4C6E2F36
:100F5000004D08EC4C4AAB2F004E07ECCCEA2F00BA
:100F60004F07ECCCEA6B015008ECCCAA56CE0051EE
:100F700007ECCCEAD20A5208ECCCAA646A01530806
:100F8000ECCCCA3B2D005407ECCCCC4D005507EC03
:100F90004CEAD7025607EC4CEA67045708EC4CEAD7
:100FA000B52A005808EC4C4A33AE0A5908EC4C6A92
:100FB000CD1C015A07ECCC8EF5025B07EC9CCCB53E
:100FC000025C09EC4CCE286794005D07EC8C6E4AFD
:100FD000005E07EC5C4C990B5F06EC3CAF056007CC
:100FE000EC5CD65C006108EC3C9AAA5A006207EC03
:100FF0004C5E5D0B6308EC3C5A392F006407EC6CC7
:101000005A5D0B6508EC3C5A955C006608EC9CCA7E
:101010003267006708EC3C5AA55A006807EC4C5E42
:101020007D016907EC3CCC4D006A07EC3CAEAA059B
:101030006B09EC4C4E49CA94006C06EC8CEE046DC6
:1010400008EC3CAA5617006E07EC3C5A7D016F076E
:10105000EC3C5A5D0B7008EC3C5AD5CA007108ECA8
:101060003C5AD54E007207EC3C5AED0C7308EC3C30
:101070005A5A2D007408EC5C9C392B007507EC3C27
:10108000EA6B017607EC3CEA33027708EC3CEA5A5B
:1010900015007808EC3C2A734C097907EC3CEA54BB
:1010A000127A08EC3C9A4A2E007B08EC9C8C3A2B76
:1010B000007C06EC5CEE047D08EC8CCE324A007EAF
:1010C00007EC3CD29A017F07EC9CCCA50400000001
:1010D00004FFFF00005F00020204040304050C0B80
:1010E000FFFE08FE08FE016A032C0471200500CCF7
:1010F00009210882C4C991F2082207336D4BB2025C
:10110000231087447CCAA81C3365548E9932AA01E7
:101110002410A53C6B1E2AA938E28849A5A123000A
:1011200025158AC49DD44A65552355499554464989
:10113000E5A8725600261188C4AC862A2395A1869C
:10114000494B73A4A5002706316DCA00280BA4B42F
:101150007A8C4ABA754601290AA4B44A46D974C998
:101160001A2A09555C6B55AD66042B0B554C6B4622
:1011700071C88C22002C0742B4C9480A2D06135CA2
:10118000CA002E0622C4C9082F0A84C47A99638E25
:101190003903300E8544DB52238D34D24823A90510
:1011A000310984459B9ABE4600320C8544DB5223AC
:1011B0006929F33802330E8544DB5223498D461AE0
:1011C000492D00340B8544EB95549A636439350DF1
:1011D0008544CB2BA391D14823A905360E8544DB4A
:1011E00052238FA4461A492D00370A8444CBA163A9
:1011F0008E2E00380E8544DB5223A9A5461A492DB0
:1012000000390E8544DB52238DA4461E492D003A39
:101210000752C4C988233B0972B4C9882329003CFA
:101220000956CC3B9236D6583D083554CBD0700881
:101230003E0A56CC8BC61A4B1B013F0A8544DBB2D3
:10124000A5CCB4094012A93CFD465A6698E248FE76
:101250005432939A1E11411289433CCAD4C61B468C
:101260008DA21E2366A4E608420E8744CC69493548
:10127000A425951C430143108744ECAA47461B6AEA
:10128000A8518DE24800440F88C4CCADA3565A69DA
:10129000A5954E6302450E86C4CB25938A23AA28C2
:1012A000931C23460E86C4CB25934C2A8EA8A21EDF
:1012B00011470E8744ECAA47461BCAA155962B48F6
:1012C000128944CD482369A9E518514B2DB51A69F7
:1012D00004490984C4CA48D2D7084A0C86C4EBC85A
:1012E0001A69E42BCA094B1189C4CC88769619A9CE
:1012F0000C8746525B230E4C0F86C4CBC81A69A4D8
:10130000914632C931024D158B44CEC823ED995414
:10131000924925995492D18CD652234E1188C48C6F
:101320005E3ACE38524C23C699D54E004F0E8744B4
:10133000ECAEF4C8238FAC729E00500F8744CC698A
:101340004925D5901A6A3432005113983CEC46393D
:101350006AA595562349A5D148192A00520D88C47B
:10136000CC2D3DF3D0D235D200530D86C4DB39F2FB
:10137000D068E811D702540E86C4CB915C51238DFE
:1013800034D22301551088C4CC484B471D75D45125
:10139000479D4704561188C4CC484B479D55462A63
:1013A0002395A1C61A57158B44CE486A4919CDA872
:1013B000928A2AA9BC36D21A6909581088C4CC4826
:1013C0004BC795D1C61BA599D511591188C4CC48D6
:1013D0004B679591CA50638D351C115A0B86C4CB4F
:1013E00091F57CEB31025B08A334CA50FE1A5C0C09
:1013F00084C44ACE28679433CA015D08A334CAF274
:10140000D7105E0A65546B4679A65A075F061634F4
:10141000CB01600623748A14610954C4CA56238D13
:1014200001620E86C48B461A69641D71C4B50063DF
:10143000095544DB925BA605640E86C4FB461AA9D7
:1014400031E288232D0365095544DB52E3462366C8
:101450000C85C4EA52498EA8CD9100670D86343BB5
:101460008A5339F7D8632400680E86C48B461A69FC
:10147000641D71C41105690A84C49AD470BA460007
:101480006A09A3B49ABDBC46026B0E86448B461A09
:1014900069648D38A2B2066C0884C4CAF46B046D0A
:1014A0000D5AC48D92EA11E5887244036E0B56C43E
:1014B0008B52471C7144016F0C56C4DB4872C41137
:1014C000D54800700D76B48B52471C718CA4D106A0
:1014D000710E77B4DB505249A5A6D250A311720900
:1014E00054C48A1A239A00730954C4DA90230E054F
:1014F000740973445A52439902750B56C48B1C717C
:10150000C4919601760B56C4CBB2A2CA1A49007791
:101510000C5944CDF28A4A65A59109780A56C4CB84
:10152000B2B24ED600790D76B4CBB2A2CA1AC9AD0A
:1015300011007A085544CB25CD317B0AA4B4AA9278
:1015400096966E017C068146CB217D0AA4B48A96CC
:10155000B6922E097E0726DCDB520B00000004FF4A
:10156000FF000000EA29ED3411241FBECFEFD8E0C0
:10157000DEBFCDBF26E0ACE4B3E001C01D92AA38C7
:10158000B207E1F713E0A0E0B1E0E8E0F4E702C061
:1015900005900D92AC34B107D9F71AE0C3EBDAE04D
:1015A00004C02197FE010E94E437C23BD107C9F76E
:1015B0000E94DA2A0C94F7390C940000662329F073
:1015C0006A3019F0862F90E008958FEF9FEF08950D
:1015D0000F93CF93DF93DC01ED91FC915089362F6F
:1015E0003770E0E8F0E002C0F595E7953A95E2F74C
:1015F0003E2FA52FB0E0FC01C0ADD1AD669566953C
:101600006695E62FF0E0549FE00DF11D1124EC0FDC
:10161000FD1FEC01C758DF4F011116C088818230D1
:1016200018F49081932B90838881813019F09081F8
:1016300093279083369511F4319630E8215071F755
:10164000DF91CF910F9108958881823018F49081B5
:10165000932B90838881813019F090819327908318
:10166000EA0FFB1F215081F7EBCF80E0089580E067
:101670000895833081F028F4813099F08230A9F008
:1016800008958730A9F08830C9F08430B1F4809192
:1016900080008F7D03C0809180008F7780938000D1
:1016A000089584B58F7784BD089584B58F7DFBCF71
:1016B0008091B0008F778093B00008958091B00042
:1016C0008F7DF9CFCF93DF93282F30E0F901E751D9
:1016D000FA4F8491F901EB52FA4FD491F901EF538B
:1016E000FA4FC491CC23A1F081110E94390BEC2F49
:1016F000F0E0EE0FFF1FE954FA4FA591B491EC9181
:10170000ED2381E090E009F480E0DF91CF9108952E
:1017100080E090E0FACF1F93CF93DF93282F30E043
:10172000F901E751FA4F8491F901EB52FA4FD49144
:10173000F901EF53FA4FC491CC23A9F0162F811170
:101740000E94390BEC2FF0E0EE0FFF1FE355FA4F2C
:10175000A591B4918FB7F894EC91111108C0D09570
:10176000DE23DC938FBFDF91CF911F910895DE2B95
:10177000F8CFCF93DF9390E0FC01EB52FA4F249126
:101780008F539A4FFC0184918823D1F090E0880F09
:10179000991FFC01ED55FA4FA591B491FC01E35559
:1017A000FA4FC591D491623071F49FB7F8943C918F
:1017B000822F809583238C93E8812E2B28839FBFD3
:1017C000DF91CF9108958FB7F894EC912E2B2C9345
:1017D0008FBFF6CF3FB7F89480915A0490915B0485
:1017E000A0915C04B0915D0426B5A89B05C02F3F75
:1017F00019F00196A11DB11D3FBFBA2FA92F982F37
:101800008827BC01CD01620F711D811D911D42E031
:10181000660F771F881F991F4A95D1F708958F92F9
:101820009F92AF92BF92CF92DF92EF92FF926B01A5
:101830007C010E94EA0B4B015C01C114D104E1045C
:10184000F104B9F00E94EA0B681979098A099B0929
:10185000683E73408105910580F321E0C21AD108EA
:10186000E108F10888EE880E83E0981EA11CB11CE7
:10187000E4CFFF90EF90DF90CF90BF90AF909F901C
:101880008F9008952FB7F894609156047091570483
:1018900080915804909159042FBF08958B589F4F01
:1018A000FC0180818F5F089508950895AF92BF92E3
:1018B000CF92DF92EF92FF920F931F93CF93DF931C
:1018C0006C017B018B01040F151FEB015E01AE184B
:1018D000BF08C017D10759F06991D601ED91FC916D
:1018E0000190F081E02DC6010995892B79F7C5019A
:1018F000DF91CF911F910F91FF90EF90DF90CF90EC
:10190000BF90AF900895FC01538D448D252F30E09A
:10191000842F90E0821B930B541710F0CF960895FC
:1019200001970895FC01918D828D981761F0A28D29
:10193000AE0FBF2FB11D5D968C91928D9F5F9F73EF
:10194000928F90E008958FEF9FEF08950F931F936C
:101950000E94420C609368047093690480936A0447
:1019600090936B0480E694E00E94920C97FF1DC058
:101970000E94420C009168041091690420916A044D
:1019800030916B04601B710B820B930B009164040C
:101990001091650420916604309167046017710707
:1019A00082079307F8F28FEF9FEF1F910F91089531
:1019B000FC01918D828D981731F0828DE80FF11D19
:1019C000858D90E008958FEF9FEF0895FC01918D34
:1019D000228D892F90E0805C9F4F821B91098F732D
:1019E0009927089580E694E00E94E60C21E0892B77
:1019F00009F420E0822F089580E090E0892B29F0FF
:101A00000E94F20C81110C9400000895FC01A48D39
:101A1000A80FB92FB11DA35ABF4F2C91848D90E010
:101A200001968F739927848FA689B7892C93A089F3
:101A3000B1898C91837080648C93938D848D98137D
:101A400006C00288F389E02D80818F7D8083089510
:101A5000EF92FF920F931F93CF93DF93EC0181E0FE
:101A6000888F9B8D8C8D98131AC0E889F9898081A5
:101A700085FF15C09FB7F894EE89FF896083E889D8
:101A8000F98980818370806480839FBF81E090E0CA
:101A9000DF91CF911F910F91FF90EF900895F62E57
:101AA0000B8D10E00F5F1F4F0F731127E02E8C8DF1
:101AB0008E110CC00FB607FCFACFE889F989808136
:101AC00085FFF5CFCE010E94060DF1CFEB8DEC0F17
:101AD000FD2FF11DE35AFF4FF0829FB7F8940B8F53
:101AE000EA89FB8980818062CFCFCF93DF93EC01BD
:101AF000888D8823B9F0AA89BB89E889F9898C91F6
:101B000085FD03C0808186FD0DC00FB607FCF7CFB1
:101B10008C9185FFF2CF808185FFEDCFCE010E94B1
:101B2000060DE9CFDF91CF9108952091CC03260FC8
:101B30003327331F21323105ECF42091F003FC01EF
:101B400090E080E0243069F082E00895A091CC0319
:101B50002191AC0144555C4FA40FB52FB11D2C93BE
:101B60000196861798F38091CC03680F6093CC039D
:101B700080E0089581E0089508958FEF9FEF089524
:101B80008FEF9FEF08958091A50390E09195819547
:101B900091090895CF93DF93CB01EA01642F0E944E
:101BA000950DCE01DF91CF910895CF93DF931F92D2
:101BB000CDB7DEB7698361E0CE0101960E94950D35
:101BC00081E090E00F90DF91CF910895DC011A96AB
:101BD000ED91FC9130E020E00994DC011696ED9146
:101BE000FC9130E020E040E069E10994DC011696C8
:101BF000ED91FC9130E020E040E068E109949A0129
:101C0000DC011696ED91FC91462F67E10994EF9265
:101C1000FF920F931F93CF93DF931F92CDB7DEB741
:101C20007C018B01D8016C91673129F150F4653149
:101C3000A0F40F90DF91CF911F910F91FF90EF9043
:101C400008956A3118F16E3FA1F7F8014181498387
:101C500069E2C7010E94E60D0BC0F801418149838A
:101C6000D7011696ED91FC9130E020E0C70109956F
:101C70000E5F1F4FD7CFF80181818983AE014F5F7F
:101C80005F4F61E0C7010E94FF0DF2CF0F5F1F4F52
:101C9000D7011696ED91FC9130E020E040E0C701BD
:101CA0000995C0CF462FDC011696ED91FC9130E0EE
:101CB00020E065E10994AF92BF92CF92DF92EF925C
:101CC000FF920F931F93CF93DF93EC01693089F458
:101CD00089E491E0998388831C8A81E0DF91CF9128
:101CE0001F910F91FF90EF90DF90CF90BF90AF903A
:101CF000089579016B3009F440C06F3009F444C095
:101D000080E06A3059F7EA85FB8530E020E040E06A
:101D100068E2CE010995EE81FF8130E020E040E0ED
:101D200064E1CE01099541E06BE4CE010E94E60D2D
:101D3000E881F981448169E2CE010E94E60D40E02C
:101D40006BE4CE010E94E60DE881F981448169E2ED
:101D5000CE010E94E60D41E06BE4CE010E94E60D4B
:101D6000E881F981458169E2CE010E94E60D66E3D2
:101D700071E0CE010E94070EB0CF6FE271E0442304
:101D8000C1F364E271E0F5CFF9010481000F000FA7
:101D9000000F13811695003210F00052185FCE012B
:101DA0000E94F60DF701A080B1806EE3CE010E9483
:101DB000520E6EE3CE010E94520ED12C1068602F9D
:101DC0006D0D6068CE010E94520E612FCE010E94FF
:101DD000520EF701C280A5016C2DCE010E94FF0DAD
:101DE000AC0CB11CD394F8E0DF12E9CFCE010E9415
:101DF000ED0D73CF9A01DC011896ED91FC91462F01
:101E000067E10994CF93DF931F92CDB7DEB7698363
:101E1000AE014F5F5F4F61E00E94FA0E0F90DF91BD
:101E2000CF910895CF92DF92EF92FF920F931F937D
:101E3000CF93DF93EC01142F79016631C1F130F4B7
:101E4000643149F06531A9F080E040C0673109F4A0
:101E500046C06A31C8F7E885F9859701412FCE0160
:101E6000DF91CF911F910F91FF90EF90DF90CF9076
:101E7000099468EF0E94020F41E06CE2CE010E94DB
:101E8000E60D612F607FCE010E94020F41E06CE2FF
:101E9000CE010E94E60D612F6295607FCE010E9407
:101EA000020F41E06CE2CE010E94E60D0EC068EF29
:101EB0000E94020F612F607FCE010E94020F612FEE
:101EC0006295607FCE010E94020F81E0DF91CF9189
:101ED0001F910F91FF90EF90DF90CF9008956AEFE0
:101EE0000E94020F41E06CE2CE010E94E60DDE2C62
:101EF000CF2C012F083008F5012F06950695069581
:101F0000D12E88EF089FD00C1124E8E00E9F8001AD
:101F100011240E0D1F1DDD2021F2F801F1908F011B
:101F20006F2D607FCE010E94020F6F2D6295607F42
:101F3000CE010E94020FDA94EECFA5E9B3E0ED2DB9
:101F4000FC2D9F01285F3F4F8191982F907F9C939C
:101F50008295807F11968C9311971296E217F30762
:101F600099F7DE2ECF2E085045E953E060E1CE010F
:101F70000E94FA0EBFCFFC016623D9F16A30C9F185
:101F8000808D811125C06C3F48F085E0808F6170A5
:101F900070E0738B628B2EEF3FEF29C0683F20F01B
:101FA00084E0808F6370F4CF603F20F083E0808F07
:101FB0006770EECF603E20F082E0808F6F70E8CFD8
:101FC000262F30E0603C98F081E0808F6F71E0CF89
:101FD0008150808F2289338996E0220F331F9A9592
:101FE000E1F76F73262B338B228B8111D4CFC9017C
:101FF00008952FEF3FEFFBCF0F93DC01DE963C916E
:10200000DE97431BD496ED91FC9109950F910895AD
:10201000CF93DF93FC01A081B18182AD982F990FFE
:10202000990F990F95AF50969C915097903208F068
:102030009FE1990F990F990F94AF23AD922F990FAC
:10204000990F990F96AF51963C915197682F620F57
:102050007727771F3617170614F4832F821B97AF45
:10206000EF01C05CDF4F880F880F880F890F8883CE
:10207000219680EF888354968D919C915597813F4E
:10208000910508F48883EE5BFF4F56968C91808310
:10209000DF91CF9108950F93FC01EB5BFF4F3081EF
:1020A00031965081451730F4301738F0041728F076
:1020B00080E013C03017D0F3FBCFFC01ED5BFF4F86
:1020C00030818C5B9F4FFC018081681740F481E078
:1020D000321718F081E0261758F70F91089532173C
:1020E000C8F3E6CF2F923F924F925F926F927F920A
:1020F0008F929F92AF92BF92CF92DF92EF92FF9218
:102100000F931F93CF93DF93EC014C0183E4880E70
:10211000911CF4011082329720805E01F4E4AF0E2E
:10212000B11CF50120823FAC6E01F5E4CF0ED11C4D
:10213000F6013082359740807E01F6E4EF0EF11C07
:10214000F70140823496108132976080319670801A
:1021500032975080012F262D472D652DCE010E94EC
:102160004B10CD58DF4F811114C01882DF91CF91F1
:102170001F910F91FF90EF90DF90CF90BF90AF90A5
:102180009F908F907F906F905F904F903F902F9097
:10219000089581E08883552011F0F4015082621483
:1021A00010F4F5016082371410F4F60170821415F2
:1021B000E8F6F7011083DACF0F93DC01802FFD01E1
:1021C000ED58FF4F90819923E9F12223D9F1223074
:1021D00020F0023079F56F5F621B082F0170FD015E
:1021E00080FD32C0EB5BFF4F8081481758F131967C
:1021F0008081481738F53297908131978081260F7A
:102200002617F0F46917D8F42FEF290F8217D0F4AE
:10221000681708F4682F291708F4922F961BD69692
:10222000ED91FC91D7970480F581E02D292FCD0108
:10223000099508C0033089F64F5F421BCECF682F47
:10224000691720F30F910895ED5BFF4F80816817A8
:10225000C8F3319680816817A8F73296908131973C
:102260008081240F241778F4491760F42FEF290F89
:10227000821740F7481708F4482F291708F4922FBF
:10228000941BCDCF482F4917E8F6F2CF0F939091CA
:1022900046066917A0F090914706691780F490915F
:1022A0004406891760F090914506891740F4462F3F
:1022B000682F00E021E081E096E00E94DC100F91A1
:1022C0000895FF920F931F93CF93DF93F82ED62F8D
:1022D000142FC22F00FF0CC0622F6D1B842F8F0D97
:1022E0000E9446116C2F6F198D2F810F0E9446118D
:1022F00001FF0CC06C2F6D1B812F8F190E9446119E
:102300006C2F6F19812F8D1B0E94461103FF0CC08B
:102310006C2F6D0F812F8F0D0E9446116C2F6F0D4A
:102320008D2F810F0E94461102FF11C06C2F6D0F7F
:10233000812F8F190E9446116C2F6F0D812F8D1BDD
:10234000DF91CF911F910F91FF900C944611DF9177
:10235000CF911F910F91FF900895CF92DF92EF924E
:10236000FF920F931F93CF93DF93F82EE62EC42E88
:1023700008E0060F28E0280F49EF460F69EF680FC5
:1023800081E096E00E944B108823D1F00C2D2E2D79
:102390004F2D67E080E00E946111C0E017E082EFFE
:1023A000D82EDAEFCF5F8C2F880F8F5FD80F0C2DD0
:1023B0002E2D4F2D612F8C2F0E946111C11748F0D7
:1023C000DF91CF911F910F91FF90EF90DF90CF9011
:1023D0000895D7FDE7CF1150D394D394DD0DE2CF0C
:1023E0000F931F93CF93DF93C82F2BE1280F0BE39D
:1023F0004CE1682F81E096E00E944B108823C9F1E0
:1024000017E01C0FD3E1DC0F42E063E2812F0E9452
:10241000AD1141E063E28D2F0E94AD1144E063E312
:10242000812F0E94AD1148E063E38D2F0E94AD1112
:10243000D8E0DC0F00E02BE04CE16D2F81E096E06E
:102440000E94DC102BE04AE36D2F81E096E00E94B1
:10245000DC1001E02FE044E26C2F81E096E00E9466
:10246000DC106AE16C0F2FE044E281E096E00E940C
:10247000DC10DF91CF911F910F910895213039F039
:1024800020F0223031F0840F0895860F0895841BC8
:102490000895861B0895213039F020F0223031F064
:1024A000861B0895840F0895860F0895841B089550
:1024B0005F926F927F928F929F92AF92BF92CF92D4
:1024C000DF92EF92FF920F931F93CF93DF935C0104
:1024D000162F642EEC01C15BDF4FDC80ED804C01D8
:1024E00089E7880E911CFE80FD18C12EF11608F4B4
:1024F000CF2C5B800C85202F4E2D6D2D8A810E9464
:102500003E12782E202F4E2D6D2D852D0E944B12C0
:10251000482F662071F08A85F40180832C2D672D69
:10252000C5010E94DC101F1548F01F19E394D12C3F
:10253000DACF89858111F7CF8B85EECF1D0D1C83F6
:10254000ED82DF91CF911F910F91FF90EF90DF907F
:10255000CF90BF90AF909F908F907F906F905F9043
:102560000895DC0118964C911897ED91FC91119704
:10257000249130E0042E02C0359527950A94E2F7A5
:10258000842F860F883068F031961196FC93EE9375
:10259000E49198E0941B01C0EE0F9A95EAF72E2B78
:1025A000885018968C938FEF9FEF01C0880F6A9523
:1025B000EAF7809582230895FC01E60FF11D8491CE
:1025C00090E0982F88273196E4918E0F911D089501
:1025D000CF93DF9320914C0630914D062817390791
:1025E00009F490C0EC0190934D0680934C06FC01D9
:1025F000849180935D063196E491E0935E06FE013E
:102600003296E491E0935F06FE013396E491E09305
:102610006006FE013496E491E0936106FE01359672
:10262000E491E0936206FE013696E491E09363063E
:10263000FE013796E491E0936406FE013896E4913A
:10264000E0936506FE013996E491E0936606FE018B
:102650003A96E491E0936706FE013B96E491E0939D
:102660006806FE013C96E491E0936906FE013D9602
:10267000E491E0936A06FE013E96E491E0936B06D6
:10268000FE013F96E491E0936C06FE017096E491A2
:10269000E0936D0661E1CE010E94DC1290936F061B
:1026A00080936E0663E1CE010E94DC129093710666
:1026B0008093700665E1CE010E94DC129093730650
:1026C0008093720680914C0690914D06892BD1F033
:1026D00080916A068093760640916B064093770658
:1026E00090917506992371F0913079F490916C0670
:1026F000891714F49093760680916D06841714F46C
:1027000080937706DF91CF910895309167062091ED
:102710006906082E000C990B622F022E000C770B15
:10272000630F711D37FD7A95861797071CF4320FDA
:1027300030937606241734F720937706E3CF6F9211
:102740007F928F929F92AF92BF92CF92DF92EF9241
:10275000FF920F931F93CF93DF93EC01062F142F5B
:102760007901FC01E55AFF4F8081813009F445C0B1
:10277000D0F1823009F44BC0833009F452C0FE011D
:10278000EF5AFF4F008331961083379780819181F4
:1027900047962FEFE216F10411F008F0E6C0E1E6EB
:1027A000EE16F10408F447C0FE01E159FF4F208105
:1027B0003181820F931F9C012F5F3F4FF90144919C
:1027C000411142C0712C872DDF91CF911F910F9144
:1027D000FF90EF90DF90CF90BF90AF909F908F9041
:1027E0007F906F900895FE01E35BFF4F0190F081B1
:1027F000E02DCE010995180FC2CFFE01E35BFF4F1C
:102800000190F081E02DCE010995081BB8CFFE01A3
:10281000E35BFF4F0190F081E02DCE010995181B7D
:10282000AECFFE01E35BFF4F0190F081E02DCE01C2
:102830000995080FA4CFF1E4EF16F10408F4BBCF1B
:10284000FE01E359FF4FB3CFFC0144914E151F0425
:1028500009F086C00296009709F4B4CF7E01FFE428
:10286000EF0EF11CF70191838083108671966081D1
:10287000C7010E94B112F701868372966081C70179
:102880000E94B112A82EF70187836E01F9E7CF0EDF
:10289000D11CF6019081F701928781E0911180E0CF
:1028A000F7018387FE01EE59FF4FB0806B2DC70102
:1028B0000E94B112882EFE01ED59FF4F1081612F49
:1028C000C7010E94B112982EFE01EC59FF4F008102
:1028D000602FC7010E94B112015041E050E09A01FF
:1028E00001C0220F0A95EAF7782E721AF7010681C5
:1028F00010160CF068CFBA94CA0101C0880FBA94C0
:10290000EAF7881AB4849A0C115001C0440F1A9542
:10291000EAF7F42FF9199F2E2B2D4F2F682DF70171
:1029200082810E943E12182FF70182832B2D492DA0
:10293000682D83810E944B12F7018383F1E0BF165B
:1029400009F47CC0BF1608F43FC022E0B21609F4B7
:102950007BC093E0B91609F482C0082F212F38C03C
:10296000F9012491820F911D26CFFE01EF58FF4FF0
:1029700000811181080F191F680160E0C6010E94E3
:10298000DC12080F191F62E0C6010E94DC12F4E09D
:10299000CF0ED11C8E159F0580F3F801849190E035
:1029A000982F88273196E4918E2B009709F40ACF4F
:1029B000E816F90619F4C80103964DCFF8013296CE
:1029C000E4910E0F111DE9CF202F210F082F0A0DC2
:1029D000482F612FCE010E944B10882309F4F3CEBB
:1029E000F701148215828E01025A1F4F4E01FFE536
:1029F0008F0E911CF8016081C7010E94B112682EF0
:102A0000F4016081C7010E94B112B82E40E0662D2A
:102A1000CE010E94581241E06B2DCE010E94581247
:102A200061E0C7010E94B1128111F0CFF7018581E9
:102A30008A1504F38285F6018083C5CEBA1821E099
:102A4000210F080F1B0DC4CF91E0392F301B21E05F
:102A5000210F9A1901E0080F890F130FB9CF212F09
:102A60002A0D982F901B01E0080F81E0890FB0CF4D
:102A7000FF920F931F93CF93DF93C82FD62F1092FF
:102A800019068A01F12CF80161918F01E09103068A
:102A9000F091040681E096E009958F3F9807F1F0E8
:102AA0008E3F2FEF920779F39C014D2F6C2F81E021
:102AB00096E00E949F1390915C06913049F030F0AF
:102AC000923041F0933041F0F80EDDCFC80FFCCFCB
:102AD000D80FFACFC81BF8CFD81BF6CF8F2DDF91B8
:102AE000CF911F910F91FF900895CF93DF93EC0149
:102AF0006BAFEEA9FFA90190F081E02D0995EEA939
:102B0000FFA90280F381E02DCE01DF91CF910994DE
:102B1000AF92BF92CF92DF92EF92FF920F931F93EB
:102B2000CF93DF9300D000D01F92CDB7DEB78C01DA
:102B3000DC01DA96AC90DA97DB96EC90DB97ED91BE
:102B4000FC91B188FE2CD12CC12CD801ED91FC91C7
:102B500011978089D8962D913C911C82FD828B83A0
:102B6000B8E08B9FC00111248C9DA0018D9D500D5C
:102B70009C9D500D1124240F351F3A832983D801C1
:102B80001496ED91FC919E012F5F3F4F41E06FE065
:102B9000C8010995F3948F2D8E198A1528F4BFEF7B
:102BA000CB1ADB0AFB1488F20F900F900F900F9056
:102BB0000F90DF91CF911F910F91FF90EF90DF90D9
:102BC000CF90BF90AF9008950F931F93CF93DF9353
:102BD0008C01C62F642FCC32E8F4CA3208F041C011
:102BE000C83271F1C93209F442C080E0C034D0F17A
:102BF000CF73F801EC0FF11D868D8F3F91F1C0313D
:102C0000E0F00E94620B21E0892B09F420E0F8013A
:102C1000218F27C0CD3289F140F384EB8C0F8230B5
:102C200020F7CF73C00FD12FD11D8E8D411133C02E
:102C300061E00E94B90B60E08E8D0E948B0B11C089
:102C4000025E1F4FD0E0F80181918F018F3F31F07C
:102C500061E0D03108F062E00E94B90BDF5FD6314D
:102C600091F781E0DF91CF911F910F91089570E06E
:102C700090E080E00E940F0CF4CF85E090E04330BC
:102C800010F082E090E0880F991F880F991F059738
:102C90000197F1F7E6CF62E00E94B90BE2CF81EE37
:102CA0009DE00C94E8128DEF95E00C94E8120F93E0
:102CB0001F930E94420C00917103109172032091A6
:102CC000730330917403AB01BC01401B510B620BC9
:102CD000730B8091530490E0B0E0A0E048175907CF
:102CE0006A077B0760F0109270030E94420C6093A9
:102CF00071037093720380937303909374038091B4
:102D00007003811153C081E080937003809125048A
:102D100090912604A0912704B09128040196A11D4A
:102D2000B11D8093250490932604A0932704B093AB
:102D30002804809106018823C9F180914A0490916A
:102D40004B04A0914C04B0914D040196A11DB11DFE
:102D500080934A0490934B04A0934C04B0934D0489
:102D60008091420490914304A0914404B0914504A1
:102D70000196A11DB11D8093420490934304A0933A
:102D80004404B09345048091180490911904A091D3
:102D90001A04B0911B040A96A11DB11D809318045A
:102DA00090931904A0931A04B0931B041F910F91E0
:102DB0000895CF92DF92EF92FF920F931F93CF93DC
:102DC000DF936C01EB017B01E40EF51E10E000E0E7
:102DD000CE15DF0561F06991D601ED91FC9101906E
:102DE000F081E02DC6010995080F191FF1CFC80128
:102DF000DF91CF911F910F91FF90EF90DF90CF90D7
:102E00000895FC0144815581608171818DEF95E0C9
:102E10000C94D916CF92DF92EF92FF920F931F93EB
:102E2000CF93DF93EC016C0124E0C20ED11CFC01B6
:102E3000E158FF4F0190F081E02DC60109958E3FCA
:102E4000EFEF9E07C8F48E010E571F4F7E01F1E889
:102E5000EF0EF11C9C01F8014081F7016081C60171
:102E60000E949F13C15ADF4F98819130A9F078F0EA
:102E70009230A1F09330B9F081E090E0DF91CF91F2
:102E80001F910F91FF90EF90DF90CF900895F70181
:102E90009081890F8083F0CFF801FACFF7019081FC
:102EA000981B892FF7CFF801FACF0F931F93CF9379
:102EB000DF938C01D0E0C0E0F801EC0FFD1F6491BE
:102EC000662341F08DEF95E00E940A17892B11F0DF
:102ED0002196F2CFCE01DF91CF911F910F910895EE
:102EE00090E080E00895CF93DF9381E090E00E942E
:102EF0005136C7E1D1E0888382E090E00E945136EC
:102F0000898383E090E00E9451368A8384E090E0D8
:102F10000E9451368B83CE01DF91CF910895CF93DC
:102F2000DF9384E190E00E945136CEE5D4E08883BF
:102F300085E190E00E9451368983CE01DF91CF91E7
:102F40000895CF92DF92EF92FF920F931F93CF934A
:102F5000DF93EB017B0124E0E20EF11C8B016C019D
:102F6000C61AD70AC601800F911F0E945136F80178
:102F700081938F01EE15FF05A9F7CE01DF91CF9167
:102F80001F910F91FF90EF90DF90CF900895CF9316
:102F9000DF93EB010E9451368883CE01DF91CF9100
:102FA0000895FC0180819181009711F00C9486387E
:102FB0000895FB0101900020E9F73197AF01461B0E
:102FC000570BDC01ED91FC910280F381E02D099417
:102FD0008F929F92AF92BF92EF92FF920F931F93A7
:102FE000CF93DF93CDB7DEB7A1970FB6F894DEBFCE
:102FF0000FBECDBF7C01FA01CB0119A2223008F42B
:103000002AE08E010F5D1F4F822E912CB12CA12C36
:10301000BF01A50194010E94C237F901CA016A30BB
:103020000CF5605DD8016E938D01232B242B252B8D
:1030300079F790E080E0109721F0BD01C7010E9470
:10304000D917A1960FB6F894DEBF0FBECDBFDF91A2
:10305000CF911F910F91FF90EF90BF90AF909F90F5
:103060008F900895695CDECF462F50E070E060E0FD
:103070002AE00C94E817CF92DF92EF92FF92CF9361
:10308000DF936C01990FEE08FF08F7FE1BC06DE29D
:103090008DEF95E00E940A17EC0144275527BA01ED
:1030A0004C195D096E097F092AE08DEF95E00E94B9
:1030B000E8178C0F9D1FDF91CF91FF90EF90DF906D
:1030C000CF9008952AE0B701A6018DEF95E0DF913A
:1030D000CF91FF90EF90DF90CF900C94E8174F9234
:1030E0005F926F927F928F929F92AF92BF92CF9298
:1030F000DF92EF92FF921F93CF93DF93EC016A016F
:103100007B01822EAB019601CB01B6010E94B13743
:1031100065E871E0811126C026013701E89477F84F
:103120002FEF3FEF4FE75FE7C301B2010E94B137D6
:1031300081110CC02FEF3FEF4FE75FE7C301B201F2
:103140000E942D3569E871E0181664F02FEF3FEF0B
:103150004FE75FE4C701B6010E94AC371816A4F42C
:103160006DE871E0CE01DF91CF911F91FF90EF905C
:10317000DF90CF90BF90AF909F908F907F906F9097
:103180005F904F900C94D9172FEF3FEF4FE75FEC14
:10319000C701B6010E942D3587FDE2CF20E030E067
:1031A000A901C701B6010E942D35B12CA12C87FFC2
:1031B0000DC0E881F9810190F081E02D6DE2CE0132
:1031C00009955C01F7FAF094F7F8F094182D60E097
:1031D00070E080E09FE3912C20E030E040E251E499
:1031E0000E940B3793949814B8F3A70196010E949C
:1031F0009F362B013C010E947D376B017C010E94B0
:1032000032359B01AC01C301B2010E949E362B01F5
:103210003C012AE0B701A601CE010E94E8177C011B
:10322000E881F9810190F081E02D6EE2CE010995EF
:10323000E80EF91EEA0CFB1C115020F120E030E0F2
:1032400040E251E4C301B2010E9493352B013C01DD
:103250000E947D374B01B12CA12C2AE0B501A401BD
:10326000CE010E94E817E80EF91EC501B4010E94C4
:1032700032359B01AC01C301B2010E949E362B0185
:103280003C01DACFC701DF91CF911F91FF90EF9002
:10329000DF90CF90BF90AF909F908F907F906F9076
:1032A0005F904F9008950C94D917FC0124813581CB
:1032B000232B39F421E0FB018081882349F020E0B1
:1032C00007C0808191810E94E73921E0892BB9F7FD
:1032D000822F08950F931F93CF93DF93EC01888182
:1032E0009981009759F02A813B812617370730F0E2
:1032F00081E0DF91CF911F910F9108958B016F5F56
:103300007F4F0E940F39009759F0998388831B8360
:103310000A832C813D81232B59F7FC011082E8CFD1
:1033200080E0E7CFEF92FF920F931F93CF93DF934D
:10333000EC017B018A01BA010E946A192881398156
:10334000811114C02115310519F0C9010E94863878
:10335000198218821D821C821B821A82CE01DF9183
:10336000CF911F910F91FF90EF9008951D830C83D3
:10337000B701C9010E94F039F1CFFB010190002093
:10338000E9F73197AF01461B570B0C949219FB01DB
:1033900001900020E9F73197AF01461B570B0C94C1
:1033A0009219AF92BF92CF92DF92EF92FF920F935A
:1033B0001F93CF93DF93EC015B016A01790124171E
:1033C000350720F48D2D6901E42EF82E198218821C
:1033D0001B821A821D821C8260EF71E0CE010E9466
:1033E000C719D50114960D911C91C016D106E8F4A9
:1033F000E016F10608F48701D501ED91FC911197D3
:10340000E00FF11FF08010826D917C916C0D7D1D9D
:1034100061157105B1F0CE010E94BD19F5018081E1
:103420009181080F191FD801FC92CE01DF91CF9135
:103430001F910F91FF90EF90DF90CF90BF90AF90D2
:10344000089588819981009711F00E948638198229
:1034500018821D821C821B821A82E0CF1F93CF9399
:10346000DF9385ED8093BC008091A8039091A90320
:10347000A091AA03B091AB030796A11DB11D23E053
:10348000B695A795979587952A95D1F72091BC0079
:1034900024FD03C01092F00352C04091A803509144
:1034A000A9036091AA037091AB03452B462B472BD0
:1034B00069F30097A105B10541F02AE22A95F1F7D9
:1034C00000C00197A109B109E1CF8091A703C1E034
:1034D000C093A603882399F1D091B8001091BA0047
:1034E0008091BC008A7B8093BC0060E082E10E94F6
:1034F0008B0B60E083E10E948B0B1092F003C09372
:10350000F2031092F10361E082E10E948B0B61E013
:1035100083E10E948B0B8091B9008E7F8093B9006C
:103520008091B9008D7F8093B90088E48093B800C2
:1035300085E48093BC001093BA00D093B800DF916B
:10354000CF911F910895FC01A081B18150962C91DB
:1035500082AD38E0839FC0011124289FA001299FDC
:10356000500D112470E060E080AD91AD0C94D53920
:103570001F93CF93DF93EC010E9488151BAD8AAD9A
:10358000180FE881F9818189181768F0EC81FD81B5
:1035900030E020E040E060E1CE01099580E0DF917D
:1035A000CF911F910895FE01E658FF4F8081882337
:1035B00019F0CE010E94A31A612FCE010E94751549
:1035C00081E0EDCFCF93DF93EC01FC01E658FF4F94
:1035D0008081882319F0CE010E94A31A60E0CE01F9
:1035E000DF91CF910C9475150F931F93CF93DF93B9
:1035F000EC01683109F46EC058F46431F9F0F90156
:10360000673181F080E0DF91CF911F910F91089594
:10361000693109F49CC06032A9F76AE4CE010E94C6
:10362000E60D56C0442309F453C081918EBD0000BD
:103630000DB407FEFDCF8EB54150F4CFE881F9817E
:103640008C859D85AE85BF85892B8A2B8B2B41F47C
:1036500080859185A285B3858C879D87AE87BF873E
:10366000418169E4CE010E94E60DCFB7F8948091C4
:103670009403811127C0EBECF5E08491EFEDF5E0C8
:103680009491E82FF0E0EE0FFF1FED55FA4FA59152
:10369000B491EC91E92321F461E08AE00E948B0B64
:1036A00061E08AE00E94B90B8CB580618CBD8CB55D
:1036B00080648CBD61E08DE00E94B90B61E08BE01D
:1036C0000E94B90B809194038F5F80939403CFBFC6
:1036D00081E099CFE881F981E485E15090E0E33021
:1036E00020F4F0E0EF5DFE4F90810C851D852E8566
:1036F0003F8540E052E16AE770E080E0041715077B
:103700002607370740F476956795579547958F5F5D
:103710008630A1F787E09C709065282F2695922B24
:10372000809581709CBD8DBDE881F981408169E4FF
:10373000CE010E94E60DA881B981EA85FB8530E0C3
:1037400020E012964C916CE2CE010995C1CFA88180
:10375000B981EA85FB8530E020E013964C916CE25C
:103760000995E881F981418169E458CFFF920F936F
:103770001F93CF93DF93EC01F62E08811981C801C6
:103780000E945136F81621F06F2DC8010E9459365B
:10379000CE01DF91CF911F910F91FF900895AF92CD
:1037A000BF92CF92DF92EF92FF920F931F93CF932E
:1037B000DF9300D0CDB7DEB78B016B0124E0C20EE2
:1037C000D11C7B015C01A61AB70AC5018E0D9F1D95
:1037D0009A838983F70161917F01CE0101960E944E
:1037E000B61BEC14FD0489F7C8010F900F90DF9110
:1037F000CF911F910F91FF90EF90DF90CF90BF90EE
:10380000AF900895EF92FF920F931F93CF93DF93A2
:1038100000D0CDB7DEB78C017B019A838983FB0191
:103820006081CE0101960E94B61B0F5F1F4F1A8365
:103830000983F7016181CE0101960E94B61BC70181
:103840000F900F90DF91CF911F910F91FF90EF900C
:103850000895CF93DF9300D000D0CDB7DEB789E3D2
:1038600090E390935F0480935E0480E090E0A0E892
:10387000BFE389839A83AB83BC83BE016F5F7F4FB5
:1038800081E090E00E94CF1B1A821982BE016F5F17
:103890007F4F85E090E00E94021C6EE574E084E1B9
:1038A00090E00E94021C1A821982BE016F5F7F4F56
:1038B00089E190E00E94021C84E190E09A83898370
:1038C000BE016F5F7F4F8EE190E00E94021C85E099
:1038D00090E09A838983BE016F5F7F4F8FE190E014
:1038E0000E94021C81E090E09A838983BE016F5F91
:1038F0007F4F80E290E00E94021C1A821982BE0172
:103900006F5F7F4F8DE290E00E94021C1A82198245
:10391000BE016F5F7F4F8CE390E00E94021C1A8211
:103920001982BE016F5F7F4F8BE490E00E94021C02
:103930001A821982BE016F5F7F4F8CE490E00E9473
:10394000021C1A821982BE016F5F7F4F8DE490E0E6
:103950000E94021C1A821982BE016F5F7F4F8EE4A3
:1039600090E00E94021C8FE090E09A838983BE0160
:103970006F5F7F4F8AE590E00E94021C0F900F90CE
:103980000F900F90DF91CF910895AF92BF92CF9299
:10399000DF92EF92FF920F931F93CF93DF9300D0AC
:1039A000CDB7DEB78B016B0124E0C20ED11C7B01C9
:1039B0005C01A61AB70AC5018E0D9F1D9A838983E3
:1039C000F70161917F01CE0101960E94B61BEC14B4
:1039D000FD0489F7C8010F900F90DF91CF911F91DF
:1039E0000F91FF90EF90DF90CF90BF90AF90089530
:1039F000609120047091210480912204909123040D
:103A000020E030E0A9010E942D3581110CC080E03A
:103A100090E0A0E8BFE38093200490932104A0935A
:103A20002204B093230460E274E081E090E00E94FD
:103A3000CF1B8FE39CE90197F1F700C000001092C3
:103A40002504109226041092270410922804109244
:103A50004A0410924B0410924C0410924D041092A0
:103A600046041092470410924804109249041092A0
:103A70000F01109210011092110110921201109278
:103A8000900310929103109292031092930310925C
:103A90008C0310928D0310928E0310928F0310925C
:103AA00088031092890310928A0310928B0310925C
:103AB0004204109243041092440410924504109260
:103AC0003A0410923B0410923C0410923D04109270
:103AD0003E0410923F0410924004109241048FE380
:103AE0009CE90197F1F700C000000E9473178FE373
:103AF0009CE90197F1F700C000006AE474E085E0FA
:103B000090E00E94C51C8FE39CE90197F1F700C08B
:103B100000008FE39CE90197F1F700C000001092CC
:103B2000240481E080930C018093060108950F9393
:103B30001F938091180490911904A0911A04B091D8
:103B40001B04892B8A2B8B2B09F447C00E94420C43
:103B500000917503109176032091770330917803DB
:103B6000601B710B820B930B603171058105910510
:103B7000A0F10E94420C60937503709376038093CA
:103B80007703909378035B986091520470E090E023
:103B900080E00E940F0C5B9A8091180490911904A8
:103BA000A0911A04B0911B040197A109B109809357
:103BB000180490931904A0931A04B0931B0468E1AD
:103BC00074E089E190E00E94C51C65E070E080E04F
:103BD00090E01F910F910C940F0C1F910F9108957D
:103BE0000F931F93CF93DF9300D0CDB7DEB78B0138
:103BF0009A838983FB016081CE0101960E94B61BE6
:103C0000C8010F900F90DF91CF911F910F910895F0
:103C1000CF93DF9300D000D000D0CDB7DEB71092A5
:103C20002B0410922A0482E390E09093170480936F
:103C3000160480E090E0A0E8BFE380931701909322
:103C40001801A0931901B0931A0167E171E081E0B6
:103C500090E00E94CF1B8FE39CE90197F1F700C031
:103C600000001E821D82BE016B5F7F4F85E090E0E9
:103C70000E94021C8FE39CE90197F1F700C000004D
:103C80001A821982BE016F5F7F4F8DE290E00E9421
:103C9000021C8FE39CE90197F1F700C00000198234
:103CA0001A821B821C82BE016F5F7F4F89E190E008
:103CB0000E94CF1B8FE39CE90197F1F700C0000041
:103CC00084E190E09E838D83BE016B5F7F4F8EE128
:103CD00090E00E94021C8FE39CE90197F1F700C07D
:103CE0000000109290031092910310929203109290
:103CF000930310928C0310928D0310928E031092F6
:103D00008F03109288031092890310928A031092F5
:103D10008B0310920F01109210011092110110925A
:103D2000120110922504109226041092270410927A
:103D3000280410923A0410923B0410923C04109212
:103D40003D0410924A0410924B0410924C041092BD
:103D50004D041092460410924704109248041092A9
:103D600049041092420410924304109244041092A9
:103D7000450410923E0410923F04109240041092A9
:103D80004104109218041092190410921A0410920F
:103D90001B0410921E0410921D0410921C048FE04C
:103DA0008093530481E080930D0185E08093540457
:103DB0001092390464E574E08FE190E00E94F01DF8
:103DC0008FE39CE90197F1F700C000006DE071E01E
:103DD00080E290E00E94F01D88E080930D018FE367
:103DE0009CE90197F1F700C0000063E574E08EE103
:103DF00090E00E94F01D26960FB6F894DEBF0FBE2D
:103E0000CDBFDF91CF9108958F929F92AF92BF92D5
:103E1000CF92DF92EF92FF920F931F93CF93DF9396
:103E200000D000D000D0CDB7DEB710910D01113019
:103E300009F08EC08EE49CE090934F0680934E066E
:103E400082EB91E00E94E81210937E0602E000935C
:103E50007F0640914A0450914B0460914C0470914C
:103E60004D042AE08DEF95E00E94E8176AE474E0C3
:103E700085E090E00E94C51C88E690E00E94E81270
:103E800000937E068FE280937F064091420450911A
:103E9000430460914404709145042AE08DEF95E05D
:103EA0000E94E81762E474E08DE290E00E94C51C75
:103EB0000E94971D0E944F1610937E0612E21093E7
:103EC0007F0680E896E00E9401174091170150910B
:103ED00018016091190170911A0122E030E08DEF14
:103EE00095E00E946F1886E495E00E945517809136
:103EF0002A0490912B040E943B1882E495E00E94D2
:103F0000551780911E0464E10E94B63790E00E942C
:103F10003B188FE395E00E945517609153048DEF95
:103F200095E00E94341883E680937E0610937F0606
:103F300061E971E08DEF95E00E94531921E030E0D6
:103F40004DEC5CEC6CEC7FE38DEF95E00E946F181C
:103F500010910D01123009F092C08EE49CE0909314
:103F60004F0680934E0686ED93E00E94E812109370
:103F70007E0681E380937F064091250450912604BC
:103F800060912704709128042AE08DEF95E00E944B
:103F9000E8170E944F1610937E0612E210937F06D8
:103FA00080E896E00E9401178BE180937E061093D3
:103FB0007F0640911701509118016091190170918D
:103FC0001A0121E030E08DEF95E00E946F188EED30
:103FD0009AE0909304068093030646E951E062E27A
:103FE00082E30E94381589E680937E0610937F064F
:103FF000609124048DEF95E00E9434188BE395E0E6
:104000000E94551780910501882301F18091870353
:104010008E3138F500E024E14AE268E681E096E07E
:104020000E94DC1022E14AE26AE181E096E00E940F
:10403000DC10809187038F5F809387038D3111F4AB
:10404000109205018091050181110BC080918703B9
:10405000882339F0815080938703813011F4809355
:1040600005010E94531688E280937E0684E18093C6
:104070007F0661EA71E08DEF95E00E94531980910F
:104080000D01833009F077C08EE49CE090934F06D9
:1040900080934E060E94531610927E068CE0809309
:1040A0007F0682E395E00E94551760912504709188
:1040B000260480912704909128048DEF95E00E94BA
:1040C0000A170E94971D10927E0686E180937F0654
:1040D00087E295E00E9455176091180470911904C9
:1040E00080911A0490911B048DEF95E00E940A17AD
:1040F00010927E0680E280937F068CE195E00E941C
:10410000551740914A0450914B0460914C047091B2
:104110004D0425E08DEF95E00E94E81710927E0691
:104120008AE280937F0680E195E00E9455174091D6
:10413000420450914304609144047091450425E089
:104140008DEF95E00E94E81710927E0684E380933D
:104150007F0680E896E00E94011740911701509178
:1041600018016091190170911A0123E030E08DEF80
:1041700095E00E946F1880910D01873009F0A9C069
:104180008EE49CE090934F0680934E060E94531657
:1041900011E010937E0685E080937F0666EB71E068
:1041A0008DEF95E00E9453198BE480937E068FE09B
:1041B00080937F066AED71E08DEF95E00E945319C0
:1041C0000E944F1610937E0612E210937F0680E83D
:1041D00096E00E94011740911701509118016091DB
:1041E000190170911A0121E030E08DEF95E00E94F5
:1041F0006F186DEE71E08DEF95E00E94531980917C
:104200002A0490912B040E943B180E94971D8CE079
:1042100095E00E94551780911E0464E10E94B63714
:1042200090E00E943B1889E095E00E94551783E5D5
:1042300080937E0610937F06609153048DEF95E086
:104240000E94341880910501882301F18091870331
:104250008E3138F500E02DE049E262E581E096E03C
:104260000E94DC102DE04AE262E581E096E00E94C7
:10427000DC10809187038F5F809387038D3111F469
:10428000109205018091050181110BC08091870377
:10429000882339F0815080938703813011F4809313
:1042A000050185E00E94620B20913404892B09F4FA
:1042B000F9C421110AC00E94420C6093300470932B
:1042C0003104809332049093330410922B041092A3
:1042D0002A0480910D01883021F58EE49CE09093B2
:1042E0004F0680934E0685ED90E10E94E8120EED98
:1042F0001AE0109304060093030641EF51E06CE0CE
:1043000088E20E94381588E690E00E94E812109337
:104310000406009303064BEF51E06FE282E00E9437
:10432000381510910D01193009F0C1C18EE49CE0DF
:1043300090934F0680934E060E9453160EE1009311
:104340007E0610927F0668E072E08DEF95E00E9495
:1043500053198DE180937E0610937F0683E095E0EC
:104360000E9455174091130150911401609115015D
:10437000709116012AE08DEF95E00E94E8178AE01F
:1043800080937E0682E180937F0685EF94E00E9411
:104390005517609154048DEF95E00E94341882EB1C
:1043A00091E00E94E81210937E0600937F066091D0
:1043B00086038DEF95E00E94341883EF94E00E940D
:1043C0005517609185038DEF95E00E94341881EFB9
:1043D00094E00E945517609184038DEF95E00E9450
:1043E00034188FEE94E00E945517609183038DEF8F
:1043F00095E00E94341885E00E94620B892B51F5EC
:104400000E94420C0091350410913604209137042B
:1044100030913804601B710B820B930B60367A4E1F
:1044200081059105B8F00E94420C609335047093A9
:104430003604809337049093380481E080930D0113
:1044400080930401109286031092850310928403D6
:104450001092830310920B0185E00E94620B892B5E
:1044600049F180911C048F5F80931C04843621F5F0
:104470000E94420C00912C0410912D0420912E04D6
:1044800030912F04601B710B820B930B683E7340BD
:104490008105910588F00E94420C60932C04709372
:1044A0002D0480932E0490932F04809104018F5F3C
:1044B0008093040110921C0485E00E94620B11E0BD
:1044C000009709F410E0892B09F0AFC08091340403
:1044D000882309F4AAC00E94420CC0902C04D090FA
:1044E0002D04E0902E04F0902F046C197D098E09A4
:1044F0009F09663971058105910508F496C00E94EF
:10450000420C60932C0470932D0480932E0490939E
:104510002F0480910401813069F4909186039F5F9C
:104520009093860390918303843061F49F5F90930E
:10453000830308C0823009F01AC2909185039F5FFF
:1045400090938503909186039A3010F01092860321
:10455000909185039A3010F0109285039091840316
:104560009A3010F010928403909183039A3010F0E7
:10457000109283039BEF980F983018F0803108F465
:104580003CC081E02091860390915104291380E082
:1045900091E03091850320915004321390E08923FB
:1045A00091E03091840320914F04321390E08923ED
:1045B00009F4E6C19091830380914E049813E0C101
:1045C00085E08093540481E08093040110920E01F1
:1045D00080930B0180930D0164E574E08FE190E01E
:1045E0000E94F01D81E090E09A838983BE016F5F95
:1045F0007F4F80E290E00E94021C809104018D5068
:10460000833098F480915104809386038091500404
:104610008093850380914F048093840380914E049E
:104620008093830384E08093040110922B04109202
:104630002A041093340480910501882369F1809144
:1046400087038E31A0F580910401813019F485E053
:104650000E94F01180910401823019F482E20E94DC
:10466000F01180910401833019F48FE30E94F0115E
:1046700080910401843019F48CE50E94F01180913E
:1046800087038F5F809387038D3111F410920501AA
:104690008091050181110BC080918703882339F037
:1046A000815080938703813011F4809305018091BC
:1046B0000D018A3009F0DCC08EE49CE090934F0637
:1046C00080934E0686ED93E00E94E81211E010936D
:1046D0007E068FE280937F0664E272E08DEF95E0C4
:1046E0000E9453190E94531610937E0610937F0662
:1046F00080918103909182030E943B188DEE94E09B
:104700000E945517609104018DEF95E00E943418C6
:104710008BEE94E00E94551760911C048DEF95E09C
:104720000E9434188DE180937E068FE080937F068F
:1047300085EE94E00E9455174091130150911401A9
:1047400060911501709116012AE08DEF95E00E94AD
:10475000E8178CE080937E068EE180937F0662E30B
:1047600072E08DEF95E00E94531985E00E94620B84
:10477000892B11F50E94420C00917D0310917E035C
:1047800020917F0330918003601B710B820B930B90
:10479000683E73408105910578F00E94420C609359
:1047A0007D0370937E0380937F03909380038091B9
:1047B0001C048F5F80931C0481E0909186039530E8
:1047C00009F080E091E020918503253009F090E028
:1047D000892391E020918403253009F090E089231A
:1047E00091E020918303253009F090E0892391E046
:1047F00020917C03253009F090E08923E9F0909125
:104800007B039530C9F481E08093040110920E017E
:1048100080930B0180930D019093540410923904FE
:1048200064E574E08FE190E00E94F01D6DE071E0BE
:1048300080E290E00E94F01D85E00E94620B9C01E6
:10484000FF24F394892B09F4F12C90913404232B49
:1048500009F45CC291110AC00E94420C60933004BA
:10486000709331048093320490933304F0923404B3
:1048700080910D018B3009F0A5C181E0809339044E
:104880001A8219821C821B821E821D8260EF71E0D7
:10489000CE0101960E94C7198EE49CE090934F06CA
:1048A00080934E068091030167E572E0882311F042
:1048B0006BE472E0CE0101960E94BD190E944F1672
:1048C00081E080937E0612E210937F0680E896E0F6
:1048D0000E94011740911701509118016091190130
:1048E00070911A0123E030E08DEF95E00E946F187F
:1048F00087E480937E0610937F06CE0101960E9486
:1049000001178AE580937E0610937F066DE472E0BE
:104910008DEF95E00E945319C0901701D0901801B7
:10492000E0901901F0901A0120E030E048EC52E4E8
:10493000C701B6010E94AC3787FD5FC080910101BD
:104940009091020120E230E08130910531F0823017
:10495000910509F049C028E230E030937A032093B2
:104960007903069709F049C08AE590E042C0833098
:1049700009F0D8CD909184039F5F90938403E2CD9A
:104980008091540481508093540481E080930B0102
:1049900080930D0180930401109286031092850389
:1049A000109284031092830364E574E08FE190E039
:1049B0000E94F01D22CE109282031092810356CFE6
:1049C0000F5F1F4F10938203009381030E94420CDC
:1049D00060932C0470932D0480932E0490932F04E5
:1049E00081E08093290442CF8330910589F58CE2E0
:1049F00090E090937A038093790320E030E046ECD6
:104A000052E4C701B6010E942D351816BCF120E012
:104A100030E040E251E4C701B6010E94AC3787FDA7
:104A20002DC080910101909102012CE130E0813094
:104A3000910529F082309105C1F424E230E03093F1
:104A40007A03209379030697C9F48AE590E012C0AF
:104A50008430910519F480E390E0CBCF8530910547
:104A600009F07FCF86E490E0C4CF8330910581F5D3
:104A700088E290E090937A038093790320E030E01D
:104A800040E151E4C701B6010E942D351816BCF172
:104A900020E030E0A901C701B6010E94AC3787FDD4
:104AA0002EC0809101019091020128E130E0813017
:104AB000910529F082309105C1F420E230E0309375
:104AC0007A03209379030697D1F48AE590E013C026
:104AD0008430910519F48CE290E0CCCF85309105BB
:104AE00009F0B1CF86E490E0C5CF8330910509F09D
:104AF0007CC084E290E090937A038093790385E010
:104B00000E94620B9C01FF24F394892B09F4F12C81
:104B100090913404232B09F4B4C191110AC00E946E
:104B2000420C60933004709331048093320490936C
:104B30003304F0923404809105018823D9F08091E8
:104B400087038E3110F500E02091000149E2609169
:104B5000790381E096E00E94DC10809187038F5FEB
:104B6000809387038D3111F4109205018091050126
:104B700081110BC080918703882339F08150809385
:104B80008703813011F48093050185E00E94620B58
:104B9000892B91F080911C048F5F80931C04883CCA
:104BA00069F48091010190910201019709F477C0A5
:104BB000909302018093010110921C04CE01019692
:104BC0000E94D11726960FB6F894DEBF0FBECDBF58
:104BD000DF91CF911F910F91FF90EF90DF90CF90D9
:104BE000BF90AF909F908F9008958430910519F4F5
:104BF00088E290E080CF8530910509F064CF86E4AB
:104C000090E079CF02301105A9F4609117017091FD
:104C100018018091190190911A012091030122231A
:104C200009F490C125E0209300012DEC3CEC4CEC04
:104C30005DE366C10330110509F0A0C16091170161
:104C4000709118018091190190911A01209103012E
:104C5000222309F481C125E0209300012AE037EDE9
:104C600043E25CE30E949F36609317017093180142
:104C70008093190190931A010630110509F059CF5C
:104C80008FE08093000167E171E081E090E00E9495
:104C9000CF1B81E080930D01109239044ACF86E04A
:104CA00090E086CF222309F410CB0E94420C0091A1
:104CB0002C0410912D0420912E0430912F04601BA0
:104CC000710B820B930B643671058105910508F415
:104CD000FCCA0E94420C60932C0470932D048093B4
:104CE0002E0490932F04809153048B5F8093530480
:104CF00063E574E08EE190E00E94F01D8091530422
:104D00008B3F08F4E2CA10925304DFCA992309F4D6
:104D1000ADCD0E94420C00913004109131042091DD
:104D2000320430913304601B710B820B930B6B3098
:104D300071058105910508F499CD0E94420C0091FE
:104D400081031091820380902C0490902D04A090F8
:104D50002E04B0902F04681979098A099B096832DA
:104D600073428105910508F42BCE0E94420C60939A
:104D70002C0470932D0480932E0490932F04809123
:104D80000401813079F40530110561F482E08093EB
:104D9000040185E0809386031092820310928103C0
:104DA00010921C048091810390918203059781F4F5
:104DB00080910401823061F483E08093040185E0F6
:104DC00080938503109282031092810310921C0439
:104DD0008091810390918203059781F48091040171
:104DE000833061F484E08093040185E08093840340
:104DF000109282031092810310921C04809181030F
:104E000090918203059779F480910401843059F4DC
:104E100085E08093040180938303109282031092B3
:104E2000810310921C048091810390918203059765
:104E300079F480910401853059F496E0909304014F
:104E400080937C03109282031092810310921C04C1
:104E50008091810390918203059709F0ACCD8091F8
:104E60000401863009F0A7CD87E08093040185E036
:104E700080937B03109282031092810310921C0492
:104E8000F5CC992309F455CE0E94420C00913004D0
:104E9000109131042091320430913304601B710B66
:104EA000820B930B6B3071058105910508F441CE9F
:104EB0000E94420C60932C0470932D0480932E0466
:104EC00090932F0481E080932904009101011091B7
:104ED00002010130110509F095CE60911701709122
:104EE00018018091190190911A0120910301222348
:104EF000F9F025E02093000120E030E040E85FE396
:104F00000E949F36609317017093180180931901D6
:104F100090931A010530110509F0AECE85E080931B
:104F200000018091030191E089278093030101CE64
:104F300025E02093000120E030E040E85FE30E949C
:104F40009E36E0CF25E0209300012DEC3CEC4CECAC
:104F50005DE30E949E3688CE25E0209300012AE082
:104F600037ED43E25CE30E949E3620C025E02093AB
:104F700000012FE632E143E85AE3F5CF0430110592
:104F800049F6609117017091180180911901909173
:104F90001A0120910301222349F325E02093000107
:104FA0002FE632E143E85AE30E949F3660931701EF
:104FB000709318018093190190931A01BACD1F9232
:104FC0000F920FB60F9211242F933F938F939F93BD
:104FD000AF93BF938091560490915704A0915804C9
:104FE000B09159043091550423E0230F2D3758F523
:104FF0000196A11DB11D20935504809356049093F2
:105000005704A0935804B093590480915A04909186
:105010005B04A0915C04B0915D040196A11DB11DDB
:1050200080935A0490935B04A0935C04B0935D0456
:10503000BF91AF919F918F913F912F910F900FBE94
:105040000F901F90189526E8230F0296A11DB11D01
:10505000D2CF1F920F920FB60F9211242F933F932E
:105060004F935F936F937F938F939F93AF93BF9370
:10507000EF93FF93E0910901F0910A010995FF91E7
:10508000EF91BF91AF919F918F917F916F915F91C0
:105090004F913F912F910F900FBE0F901F90189539
:1050A0001F920F920FB60F9211242F933F934F939D
:1050B0005F936F937F938F939F93AF93BF93EF9380
:1050C000FF93E0910701F09108010995FF91EF919D
:1050D000BF91AF919F918F917F916F915F914F9110
:1050E0003F912F910F900FBE0F901F9018951F9218
:1050F0000F920FB60F9211242F933F934F935F930C
:105100006F937F938F939F93AF93BF93EF93FF938F
:1051100080E694E00E94060DFF91EF91BF91AF9160
:105120009F918F917F916F915F914F913F912F91BF
:105130000F900FBE0F901F9018951F920F920FB6F1
:105140000F9211242F938F939F93EF93FF93E091EE
:105150007004F09171048081E0917604F0917704FD
:1051600082FD1BC09081809179048F5F8F732091A5
:105170007A04821741F0E0917904F0E0E05AFB4FA5
:10518000958F80937904FF91EF919F918F912F914B
:105190000F900FBE0F901F9018958081F4CF1F9233
:1051A0000F920FB60F9211242F933F934F935F935B
:1051B0006F937F938F939F93AF93BF93EF93FF93DF
:1051C0008091B900887F803609F44AC0F0F58832B2
:1051D00009F4A5C018F5803109F499C0B8F4882302
:1051E00009F4F5C0883009F492C0FF91EF91BF91A6
:1051F000AF919F918F917F916F915F914F913F916F
:105200002F910F900FBE0F901F901895883109F4C1
:1052100086C0803251F78093EF0314C0803409F4C4
:105220009BC040F48033B9F38833F9F68093EF03E1
:1052300085ECAEC0803509F483C0883509F494C08C
:10524000883499F60E942E1AD0CF883909F48AC082
:1052500038F5883729F050F4883611F0803729F670
:1052600083E08093F0031092EE0355C0883809F470
:1052700079C0803919F0803809F0B7CF8091EE03FA
:10528000803208F06FC0E091EE0381E08E0F8093D2
:10529000EE038091BB00F0E0E253FC4F80833BC003
:1052A000803B39F0D0F4803A09F477C0883A09F0AD
:1052B0009CCF84E08093F0031092CD031092CC0336
:1052C000F0E0E0E009958091CC0381110FC081E00E
:1052D0008093CC031092AC0309C0803C09F4A8CFA2
:1052E000883C09F4A5CF883B09F07FCFE091CD033E
:1052F00081E08E0F8093CD03F0E0E455FC4F808178
:105300008093BB009091CD038091CC0329C0809104
:1053100015048093BB0085EC8093BC0066CF909110
:10532000140480911304981758F5E091140481E057
:105330008E0F80931404F0E0ED50FC4F8081E9CF94
:10534000E091140481E08E0F809314048091BB00DF
:10535000F0E0ED50FC4F8083909114048091130491
:105360009817C8F285E8D8CFE091140481E08E0F39
:10537000809314048091BB00F0E0ED50FC4F8083DB
:105380008091F20381115ECF81E08093F10384EA82
:105390008093BC001092F00328CF85EC8093BC0072
:1053A0001092F0038091EE03803230F4E091EE032E
:1053B000F0E0E253FC4F10826091EE0370E08EEC5F
:1053C00093E0F0E0E0E009951092EE030ECF10922A
:1053D000EF0338CFCF93109263041092620488EEEB
:1053E00093E0A0E0B0E08093640490936504A09300
:1053F0006604B093670485E691E09093610480931E
:10540000600485EC90E090936D0480936C0484ECD0
:1054100090E090936F0480936E0480EC90E0909302
:1054200071048093700481EC90E0909373048093F6
:10543000720482EC90E0909375048093740486EC7F
:1054400090E0909377048093760410927904109200
:105450007A0410927B0410927C04109281061092C0
:105460008006109283061092820610928506109292
:10547000840662E572E080E896E00E94C719109207
:1054800000061092FF058EED9AE090937D068093C2
:105490007C0610927E0610927F061092190687E70E
:1054A00091E09093FE058093FD0510920206109204
:1054B00001061092160610920D0610920E0610921A
:1054C0000F06109210068FEF8093170680931B062D
:1054D000EFE1F6E085E396E0CFEFC1938E179F07EB
:1054E000E1F78BE59EE0909306068093050682E146
:1054F0009FE0909308068093070684EF9AE19093CB
:105500000A068093090684EE95E190930C06809339
:105510000B0630E020E040E069E081E096E00E9488
:105520005B0E10924D0610924C0688EE9AE0909316
:105530003606809335068DEF94E090933A0680937B
:10554000390682E080933B0610923C061092590681
:105550001092790681E080937A0680937B068FE72C
:1055600091E0909338068093370681E096E00E94A0
:1055700008101092480610924A06C0934906C0933C
:105580004B06E0913706F09138060280F381E02D5A
:1055900081E096E0099587E39BE090934F06809326
:1055A0004E0610925C068CE080932806C0932A0673
:1055B000CF910895CF93DF93CDB7DEB7A2970FB603
:1055C000F894DEBF0FBECDBF789484B5826084BDF1
:1055D00084B5816084BD85B5826085BD85B58160F7
:1055E00085BD80916E00816080936E001092810075
:1055F0008091810082608093810080918100816030
:1056000080938100809180008160809380008091F0
:10561000B10084608093B1008091B000816080937C
:10562000B00080917A00846080937A0080917A0043
:10563000826080937A0080917A00816080937A0002
:1056400080917A00806880937A001092C100E09186
:105650007004F091710482E08083E0916C04F09119
:105660006D041082E0916E04F0916F048FEC8083E2
:1056700010927804E0917404F091750486E08083C0
:10568000E0917204F0917304808180618083E091E5
:105690007204F0917304808188608083E0917204C9
:1056A000F0917304808180688083E0917204F091AE
:1056B000730480818F7D808382E390E0A0E0B0E07E
:1056C0008093640490936504A0936604B093670488
:1056D00084B184B9539A229855985B9A5A9A289A19
:1056E000E0910506F091060630E020E040E06AE037
:1056F00081E096E0099581E096E00E94E21A81E05F
:1057000096E00E94B81A8111FACF60E081E096E03D
:105710000E947515E0910506F091060630E020E044
:1057200040E06BE081E096E009958BEB9FE0909381
:105730007D0680937C0687E596E19093080180932F
:105740000701809169008C7F826080936900E89AEC
:105750000E94731766E474E085E090E00E94A11750
:105760006AE474E085E090E00E94A1170E948F1720
:1057700068E174E089E190E00E94A11763E574E0BC
:105780008EE190E00E94C71764E574E08FE190E03D
:105790000E94C7176DE071E080E290E00E94C71799
:1057A00062E474E08DE290E00E94A1176EE374E081
:1057B0008DE290E00E94A11763E171E08CE390E03C
:1057C0000E94A11761E574E08BE490E00E94C71786
:1057D00060E574E08CE490E00E94C7176FE474E029
:1057E0008DE490E00E94C7176EE474E08EE490E0D0
:1057F0000E94C71762E574E08AE590E00E94C7172F
:1058000074E1472E512C612C712C9090F0012224D0
:105810002A94322C80E694E00E94E60C892B09F44D
:1058200005C1192D0E94A60C97FF182F1E8E1D8EE4
:1058300018A21F8E1AA219A260EF71E0CE014D9638
:105840000E94C7190E94A60C97FD1CC089831A826A
:10585000E9A0FAA02FEFE21AF20AB701CE014D96A5
:105860000E946A19882371F32D8D3E8D89A19AA11A
:10587000BE016F5F7F4F820F931F0E94F039FAA223
:10588000E9A2E0CF1A8219821C821B821E821D822D
:1058900060EF71E0CE0101960E94C71938862F8211
:1058A0003A862986E984FA84C9A0DAA0EC14FD04BA
:1058B00009F456C08FEFE81AF80AF886EF82EC1464
:1058C000FD0448F1DA86C98629853A85A701BE011B
:1058D000635E7F4FCE010B960E94D11989819A8118
:1058E000009769F16B857C856115710531F14B81FC
:1058F0005C812F85388942175307F8F00E94F039F0
:105900008F8598899E838D83188A1F86CE010B967A
:105910000E94D117C7CFAD8CBE8C6AE370E0C50181
:105920008E0D9F1D0E94DC39009761F28A199B0938
:105930009A87898797FDC6CFC7CF0E9486388B8507
:105940009C859A8389838D859E859C838B838F8597
:1059500098899E838D831C861B861E861D86D4CFC8
:10596000188E1F8A1A8E198E1C8E1B8E69817A8161
:105970006115710531F04D815E81CE0147960E941F
:1059800092198B8D9C8D892B61F0CF88D88C6DE31B
:1059900070E0C6010E94DC397C01EC18FD08892BFF
:1059A00019F4EE24EA94FE2C970150E040E0BE0189
:1059B000695E7F4FCE0141960E94D1192B8D3C8D9F
:1059C000A7014F5F5F4FBE01695E7F4FCE010B960F
:1059D0000E94D1198B859C85C12CD12C7601009712
:1059E00021F00E94F1346B017C01CE010B960E94E4
:1059F000D117153209F44AC40CF063C3133209F409
:105A00000CC50CF0F8C3113209F4D1C3CE01419694
:105A10000E94D117CE0147960E94D117CE01019660
:105A20000E94D117CE014D960E94D11780914A0451
:105A300090914B04A0914C04B0914D048F3097424B
:105A4000A105B105F0F010924A0410924B04109297
:105A50004C0410924D041092460410924704109288
:105A600048041092490410920F01109210011092F4
:105A70001101109212016AE474E085E090E00E9446
:105A8000C51C8091420490914304A0914404B091BC
:105A900045048F339244AF40B105F0F010924204B8
:105AA00010924304109244041092450410923E0454
:105AB00010923F04109240041092410410923A0454
:105AC00010923B0410923C0410923D0462E474E096
:105AD0008DE290E00E94C51C20E030E040E85FE3EA
