:100000000C945C080C9444230C941D230C948408D9
:100010000C9484080C9484080C9484080C94840830
:100020000C9484080C9484080C9484080C94840820
:100030000C9484080C9484080C9484080C94840810
:100040000C94D3220C9484080C9491230C946B236D
:100050000C9484080C9484080C9484080C948408F0
:100060000C94C3230C9484084E414E494E49545974
:10007000494E46CDCCCC3D0AD7233C17B7D1387773
:10008000CC2B329595E6241FB14F0A000020410089
:1000900000C84200401C4620BCBE4CCA1B0E5AAED3
:1000A000C59D74D09AD090D09DD090D09B202D200B
:1000B00000D09AD090D09BD086D091D0A0D09ED0A6
:1000C00092D09AD09000204C2E0000000000230017
:1000D00026002900D097D090D09BD098D0A8D09857
:1000E000D09BD09ED0A1D0AC20D0A1D09FD0A0D00A
:1000F0009ED091202D20004944202D2000D092D068
:1001000092D095D094D086D0A2D0AC20D09FD09061
:10011000D0A0D09ED09BD0AC00D097D092D095D01C
:10012000A0D09DD086D0A2D0ACD0A1D0AF20D0940A
:10013000D09E20D092D098D0A0D09ED091D09DD0EB
:1001400098D09AD09000D09FD0A0D098D0A1D0A223
:10015000D0A0D086D09920D097D090D091D09BD0ED
:100160009ED09AD09ED092D090D09DD09E21005308
:100170004E202D200020002000200036202D20447D
:100180005245425F32203D200035202D204452450B
:10019000425F31203D200034202D204B5F4F5554CD
:1001A000203D200033202D204B5F494E5F32203D03
:1001B000200032202D204B5F494E5F31203D200032
:1001C00031202D20534E203D2000D092D098D0A534
:1001D000D086D09400D086D09DD0A4D09E00D09A56
:1001E000D090D09BD086D091D0A0D09ED092D09AE3
:1001F000D09020313030D0BB2E00D09AD090D09B00
:10020000D086D091D0A0D09ED092D09AD0902035D8
:1002100030D0BB2E00D09AD090D09BD086D091D039
:10022000A0D09ED092D09AD090203230D0BB2E0059
:10023000D09AD090D09BD086D091D0A0D09ED09292
:10024000D09AD090203130D0BB2E00D09AD090D010
:100250009DD090D09B202D2000000000002400277E
:10026000002A0000000000250028002B00040404E0
:10027000040404040402020202020203030303034F
:10028000030102040810204080010204081020012C
:10029000020408102000000008000201000003040E
:1002A00007000000000000000060020202030301DA
:1002B0000104040500000500050000FD01ED02D762
:1002C0002006EC3C9F002107EC8CB4B1042207EC23
:1002D0004C6A73012309EC4C4AAB5A15002408EC14
:1002E0005C5C5A2D002509EC4C8A4AA60C012608B4
:1002F000EC5C8E4B47002707EC6CD45C002807ECC5
:100300006C5DA3042908EC4C46B9CC002A08EC4CDF
:100310008A7156092B07EC3C8C33132C07EC3C57A5
:1003200094002D06EC3CB9192E07EC3C5B4A002FDB
:1003300008EC6C8E3966003008EC5C4C3D230031D3
:1003400007EC5CD44D003208EC8C46B15E003308FB
:10035000EC8C4651A7053408EC4CEAB5130035087F
:10036000ECCCCA1A25093608EC9CCAAB5A003707F0
:10037000ECCC2E73043808ECCCAA56B5003908EC46
:10038000CCAA7692003A08EC8CD4584A003B08EC90
:100390008CD45494003C08EC6C1B6594003D08EC34
:1003A0003CDA7043003E08EC4C4619C51A3F08EC95
:1003B000CC8E1A47004008EC9CAA64460A4108EC1F
:1003C000CCAA5617004208ECCCAA644A0B4307ECAF
:1003D000CCCAF5024408EC8C4CBD24004508ECCC9A
:1003E000CA2B2F004608ECCCCA2B67004708ECCC80
:1003F000CAA9B5004808EC4C6AAD2E004907ECCC00
:10040000CCE5024A07EC6CAEAA054B08EC4C6AC975
:10041000D4024C07EC4C6E2F004D08EC4C4AAB2F2D
:10042000004E07ECCCEA2F004F07ECCCEA6B0150F2
:1004300008ECCCAA56CE005107ECCCEAD20A5208FE
:10044000ECCCAA646A015308ECCCCA3B2D005407DB
:10045000ECCCCC4D005507EC4CEAD7025607EC4CDF
:10046000EA67045708EC4CEAB52A005808EC4C4AF5
:1004700033AE0A5908EC4C6ACD1C015A07ECCC8EFD
:10048000F5025B07EC9CCCB5025C09EC4CCE28670E
:1004900094005D07EC8C6E4A005E07EC5C4C990B97
:1004A0005F06EC3CAF056007EC5CD65C006108ECD5
:1004B0003C9AAA5A006207EC4C5E5D0B6308EC3C68
:1004C0005A392F006407EC6C5A5D0B6508EC3C5AF6
:1004D000955C006608EC9CCA3267006708EC3C5AE1
:1004E000A55A006807EC4C5E7D016907EC3CCC4DD9
:1004F000006A07EC3CAEAA056B09EC4C4E49CA9465
:10050000006C06EC8CEE046D08EC3CAA5617006EED
:1005100007EC3C5A7D016F07EC3C5A5D0B7008EC10
:100520003C5AD5CA007108EC3C5AD54E007207EC13
:100530003C5AED0C7308EC3C5A5A2D007408EC5CE4
:100540009C392B007507EC3CEA6B017607EC3CEA22
:1005500033027708EC3CEA5A15007808EC3C2A7321
:100560004C097907EC3CEA54127A08EC3C9A4A2E82
:10057000007B08EC9C8C3A2B007C06EC5CEE047D46
:1005800008EC8CCE324A007E07EC3CD29A017F0701
:10059000EC9CCCA50400000004FFFF000012000347
:1005A0000304040304060C0D00FE0BFD0BFE00000B
:1005B000000000F2200500C4122A0A566E3534915C
:1005C0004946012B1499479871481C1287040FC2A1
:1005D00038240E894382002C0943B532128A040064
:1005E0002D07245D1387002E0622C612042F0ED578
:1005F000B5736A31B5604C2DA61604300EB8C554DB
:10060000349144C88F12918C04310AB5C57492C3D9
:1006100048A61F3211B8C554A5C94426964E853444
:10062000DA707A083311B8C534A5C9442696D1E5E5
:1006300044DAC446023412B9C5945346896C221375
:10064000A9890E07AA5C043510B8C51417B1F26564
:100650003416D30EA312003612B8C554B4892848F4
:100660009650464546894846023710B8C51487B0AB
:10067000742A9D4AA7D2C521003811B8C5349651B5
:10068000B134A2892442C6D288043912B8C5543480
:100690009144482C4DCE629A483223013A0882C6D2
:1006A0001274080100000004FFFF0000120004049F
:1006B00005050405071B1F00FB19F919FB000000C5
:1006C0000002072006002054022A21AE71B7CE9006
:1006D0005144480D19672810A1070F841019648E22
:1006E000C4B021A388100B1408002B33B43E14A708
:1006F0007830E2C18807231E8C7830E2C188072356
:100700001E8CC8070F548A07231E8C7830E2C188DC
:1007100007231E8C7830E2C188072312002C102793
:10072000E95A4A113244C8901943CD20002D07A937
:10073000E45DC20F2E08A52C54C203052F238BABFA
:100740007BE2387203C75137701CB981E3C80D1CB6
:1007500047DDC071E4068EA36EE0387203070230F5
:100760002231279C96D174ABCA5455841C11722433
:10077000CAE97F57821C1172444A95A96A5DCA531F
:100780000031122B2F9C5AA133281EAC4872A85856
:10079000FDFF03321C31279C9A49658CDC143251D1
:1007A000AC44B1C2B52D6BD43E2D6AED831F20330E
:1007B00023302B9C9641456D5C182A51AC6C59A294
:1007C000C6D29D4498B8DAB2CA345B54C40D2B75B6
:1007D000A700342833239CE6E1B348B32451924464
:1007E0004122E58A9423538C50A942A548152A55E5
:1007F000885899077F10B678BD01352531279CC2EE
:10080000939F14AE13436E9E183251AC4439D28577
:100810002B26518E44B11286CAB869B5F01800363D
:100820002C31279C9A49658CDC9829628A48B11240
:1008300065CD96295422C91334254E2DDB59896282
:10084000254C953853C6113385A700371E302B9C95
:10085000C21F90ADB46CA5658B962D6AB46CD1B2F5
:10086000458D16355AD4D28200382831279CD63986
:10087000464F5E982A514E5D0972444A9569964EDC
:10088000599B4246C89128A777AB4C3C79B4F014E9
:1008900000392C31279CD641658CDC143251CA4476
:1008A000B112C57675A2D089074152142A53D6DAFF
:1008B00012C58A903252C65023662A8D013A0B45E2
:1008C000365CC203F5903E5000000004FFFF0000BC
:1008D000D50002020304030404050800FF06FF0616
:1008E00000011A0231032F2005007E032107316326
:1008F00033520022079B6E93AC00230D3D6257A636
:1009000034543554991200240A3D629B57BD53DA82
:10091000112508AB6613536700260A3C621753B3D0
:100920006AA6002705196F332807B262A79A012922
:1009300008B2621353A5002A0A2C6213931A49C500
:10094000002B0A2D629B511C32A3082C079B5EA72B
:100950004A002D060C6A33022E079B5E9756022F23
:100960000834625FB633003008B36257B92A0031E9
:1009700007B36297646B320A3462A7624E2A8F0013
:10098000330A34623362D4482605340A34621B5574
:1009900035624E00350A346233F446322900360A95
:1009A0003462A7F28A322900370A34623372CC31BA
:1009B0004700380A3462A76252512605390A346268
:1009C000A7A24C3B29003A07AA6233E2083B08B3CE
:1009D0005E672355023C07B3629BCA5C3D081C66F8
:1009E00033321A013E08B36293CB54023F09B3621B
:1009F000D74C192600400C455E2BA35C4925594372
:100A00000541093462A7A21C5306420A3462B3E2CC
:100A100048518E0443093462A7A22E93024409343C
:100A200062B3A27324004509346233F4CA790446E0
:100A300009346233F4CA3500470A3462A7A24E3340
:100A400029004809346213E59866004907B362B388
:100A5000626B4A09346237735546004B093462139E
:100A60005592A9334C08346293BB47004D09346258
:100A700013C711CD004E09346213D75867004F09D0
:100A80003462A7A2332900500A3462B3A21C29673A
:100A90000051093C5EA7A25C6E14520A3462B3A2F4
:100AA0001C29CA00530A3462A762CAA84C0A540817
:100AB000B362B362170055083462133D93025609BE
:100AC0003462139D492A005709346213CD71C40062
:100AD000580A34621365922ACA00590B356293751D
:100AE000AA33CA28025A09346233726C8F005B073A
:100AF000B3623362735C0A34629333CA28A31C5D09
:100B000007B362339B235E069372D7005F060C5EC9
:100B100033026006927213036108246237A24C0309
:100B2000620A346293F38A7224006307A36237B3C4
:100B300000640934625F8D28D30065082462A7D25F
:100B4000C80A660934625B9533470067092C5EA7C3
:100B500062DA49016809346293F38A66006908B36E
:100B6000629791AC066A09BB5E9B61A92A006B097A
:100B7000346293CB91A20C6C07B36223BB066D0960
:100B80002562A35A2AA9026E072462B3A2196F082C
:100B90002462A7A24C0A70092C5EB3E248390371A3
:100BA000082C5E3762DA057208246293929D017305
:100BB00007A36237F202740A346297E3CC29260055
:100BC0007507246213CD347607A36293AC0A7709C4
:100BD00025629355525D007808246213935431794D
:100BE0000A2C5E13651A3129007A082462336239AF
:100BF000027B0B3C62AB324A1AC58C047C05316324
:100C0000737D0C3C62A351CC48659424007E07148C
:100C10007297540200000004FFFF04010A3462339B
:100C2000F4CA790404020B3C5E33B34CED98000423
:100C3000030934623374370004040B3462A7E2CC36
:100C400031290004050B3462A762CAA84C0A0406C5
:100C500008B362B3626B040708B362B3626B040843
:100C6000093462DF96490104090C356227534CAA06
:100C700052C902040A0D356293628A23552A59002B
:100C8000040B09346233B34C3D040C0B346213552E
:100C900092329501040D06007E03040E0AB362939E
:100CA000AC324500040F0ABB5E93BC464A000410F8
:100CB0000A3462A7A21C530604110B3462B3F28AF1
:100CC00072240004120B3462B3E248518E04041300
:100CD00009346233A46E0304140A3C5EA7FA6BC89D
:100CE0000004150A346233F4CA790404160C356220
:100CF0009392AA56A5922A04170B3462A7628D64B8
:100D0000520004180A346213AD91A40C04190C3C6F
:100D10006213938A6A242903041A0B3462135592CE
:100D2000A99401041B093462ABFA2503041C0A349C
:100D30006213C711CD00041D0A346213E5986600E2
:100D4000041E0A3462A7A2332900041F0934623347
:100D5000A4670004200B3462B3A21C29670004219D
:100D60000A3462A7A22E9302042209B362B3621767
:100D70000004230A346213CDB4470204240B356205
:100D80009B57A5AA1D0104250AB362935499920AA0
:100D900004260A3C5E93FAD7C801042709B362937C
:100DA000AC240B04280D356293924A2AA9A4D218C8
:100DB00004290E3D5E93924A2AA9A4D2D828042A77
:100DC0000D3562B351463AC5141500042B0B35623C
:100DD00093F55449A519042C0AB36213A34A6A0176
:100DE000042D0B3462B351DA792400042E0D3562E0
:100DF000135335924A2AC904042F0B346237A24C8C
:100E000023CA00043009246237A24C0304310B3496
:100E100062A7F28A3229000432092462B3561C09FF
:100E2000043308A3623362090434092C5EB7921CB0
:100E3000330435092462A7D2C80A04360A2562930E
:100E4000AA55A902043708A362B3E40204380924AE
:100E50006213D5483204390B346213938A6A241919
:100E6000043A09246213476A06043B082462AB5A19
:100E700032043C0A256293D74AAA00043D09246241
:100E800013C79401043E092462A7A24C0A043F0838
:100E9000246233A41904400A2C5EB3A21C29030463
:100EA0004108A36237B300044208A362B362050499
:100EB000430A2C5E13652A4B0004440BBB5E23AB34
:100EC00091464A00044509246213935431044609AB
:100ED0002C5E13CDA10304470924621365DA0104D3
:100EE000480B256293924A2A8D0104490C2D5E938A
:100EF000924A2A8D8D02044A092462A3654A0A0493
:100F00004B09246213971A29044C09246293571C35
:100F100009044D08A36223E502044E0A2462939259
:100F20005A2A01044F08A362B7D20A04510B346253
:100F300093325669640504520B3C5E17679629C7C5
:100F40000404530934625B0E5D03045408A3623742
:100F50005216045509246237341A0A045609B3623A
:100F60009791AC06045709B36293B2AC0604580AD1
:100F7000BB5E9B61A92A0004590A256227D348C990
:100F800002045A0A256293E2489505045B0A34621A
:100F9000176796A901045C093462DB1CA919045D7A
:100FA00006007E03045E0B3C5E13938655590204D3
:100FB0005F0AAB5E93AC91120004900834623F76F6
:100FC0001B0491082C623F760D04920A3462B7E24A
:100FD000CC25000493092462B7E28C0004960E3DF0
:100FE0005E9392AA56A592AA510004970B2D5E9388
:100FF000AA55A91A05049A0D3D5E1353A953AC7264
:101000004601049B0B2D5E13D34CB1860104AE0C3C
:1010100035629375AA33CA280204AF0B2D5E935331
:101020009D51461104B00C35629375AA86CC2802F6
:1010300004B10B2D5E93533564461104B20BBC5EB4
:10104000939A39A6360A04B30A2D5E13A396350C7B
:1010500004BA0A346293F38A660004BB0AB36213CB
:10106000A34A560004D80B3462A7621E3329000439
:10107000D9092462A7474A0A04E209BB62B357AC04
:101080000604E308B362B3653504E80B3462A7E2F3
:101090009832290004E9092462A7864C0A04EE0B61
:1010A0003C6233328ACEA40004EF0A346233328ABF
:1010B000661A0000DE24343311241FBECFEFD8E0BF
:1010C000DEBFCDBF26E0AAE0B3E001C01D92A63787
:1010D000B207E1F713E0A0E0B1E0ECE6F4E702C00C
:1010E00005900D92AA30B107D9F718E0CBE5D8E00A
:1010F00004C02197FE010E941638CA35D107C9F7EE
:101100000E94CD250C94293A0C940000662329F006
:101110006A3019F0862F90E008958FEF9FEF0895C1
:101120000F93CF93DF93DC01ED91FC915089362F23
:101130003770E0E8F0E002C0F595E7953A95E2F700
:101140003E2FA52FB0E0FC01C0ADD1AD66956695F0
:101150006695E62FF0E0549FE00DF11D1124EC0F91
:10116000FD1FEC01C758DF4F011116C08881823086
:1011700018F49081932B90838881813019F09081AD
:1011800093279083369511F4319630E8215071F70A
:10119000DF91CF910F9108958881823018F490816A
:1011A000932B90838881813019F0908193279083CD
:1011B000EA0FFB1F215081F7EBCF80E0089580E01C
:1011C0000895833081F028F4813099F08230A9F0BD
:1011D00008958730A9F08830C9F08430B1F4809147
:1011E00080008F7D03C0809180008F778093800086
:1011F000089584B58F7784BD089584B58F7DFBCF26
:101200008091B0008F778093B00008958091B000F6
:101210008F7DF9CF1F93CF93DF93282F30E0F90113
:10122000EB56FD4F8491F901EF57FD4FD491F90131
:10123000E359FD4FC491CC23A9F0162F81110E94D0
:10124000E108EC2FF0E0EE0FFF1FED59FD4FA591E7
:10125000B4918FB7F894EC91111108C0D095DE23AA
:10126000DC938FBFDF91CF911F910895DE2BF8CFD4
:10127000CF93DF9390E0FC01EF57FD4F249183590A
:101280009D4FFC0184918823D1F090E0880F991F35
:10129000FC01E75AFD4FA591B491FC01ED59FD4FBA
:1012A000C591D491623071F49FB7F8943C91822F2C
:1012B000809583238C93E8812E2B28839FBFDF9119
:1012C000CF9108958FB7F894EC912E2B2C938FBF6C
:1012D000F6CF3FB7F89480913A0490913B04A091E7
:1012E0003C04B0913D0426B5A89B05C02F3F19F0E2
:1012F0000196A11DB11D3FBFBA2FA92F982F882796
:10130000BC01CD01620F711D811D911D42E0660F70
:10131000771F881F991F4A95D1F708958F929F9242
:10132000AF92BF92CF92DF92EF92FF926B017C015E
:101330000E9469094B015C01C114D104E104F1046C
:10134000B9F00E946909681979098A099B09683E00
:1013500073408105910580F321E0C21AD108E108AC
:10136000F10888EE880E83E0981EA11CB11CE4CF22
:10137000FF90EF90DF90CF90BF90AF909F908F90B5
:1013800008952FB7F89460913604709137048091D6
:101390003804909139042FBF08958B589F4FFC015A
:1013A00080818F5F089508950895DC01ED91FC918F
:1013B0000190F081E02D0994DB0114964D915C9130
:1013C00015976D917C91DC01ED91FC910280F38188
:1013D000E02D0994AF92BF92CF92DF92EF92FF92ED
:1013E0000F931F93CF93DF936C017B018B01040F4D
:1013F000151FEB015E01AE18BF08C017D10759F0E9
:101400006991D601ED91FC910190F081E02DC6012A
:101410000995892B79F7C501DF91CF911F910F9124
:10142000FF90EF90DF90CF90BF90AF900895FC01B8
:10143000538D448D252F30E0842F90E0821B930B39
:10144000541710F0CF96089501970895FC01918DDF
:10145000828D981761F0A28DAE0FBF2FB11D5D96E2
:101460008C91928D9F5F9F73928F90E008958FEF84
:101470009FEF08950F931F930E94C1096093460444
:101480007093470480934804909349048EE394E05A
:101490000E94260A97FF1DC00E94C10900914604C0
:1014A000109147042091480430914904601B710B4E
:1014B000820B930B00914204109143042091440449
:1014C000309145046017710782079307F8F28FEF98
:1014D0009FEF1F910F910895FC01918D828D9817B8
:1014E00031F0828DE80FF11D858D90E008958FEF2A
:1014F0009FEF0895FC01918D228D892F90E0805CF3
:101500009F4F821B91098F73992708958EE394E072
:101510000E947A0A21E0892B09F420E0822F0895A5
:1015200080E090E0892B29F00E94860A81110C94BA
:1015300000000895FC01A48DA80FB92FB11DA35A76
:10154000BF4F2C91848D90E001968F739927848FE3
:10155000A689B7892C93A089B1898C918370806406
:101560008C93938D848D981306C00288F389E02DA7
:1015700080818F7D80830895EF92FF920F931F9358
:10158000CF93DF93EC0181E0888F9B8D8C8D981336
:101590001AC0E889F989808185FF15C09FB7F89442
:1015A000EE89FF896083E889F9898081837080648E
:1015B00080839FBF81E090E0DF91CF911F910F91D9
:1015C000FF90EF900895F62E0B8D10E00F5F1F4FE8
:1015D0000F731127E02E8C8D8E110CC00FB607FCF7
:1015E000FACFE889F989808185FFF5CFCE010E9485
:1015F0009A0AF1CFEB8DEC0FFD2FF11DE35AFF4F4F
:10160000F0829FB7F8940B8FEA89FB898081806212
:10161000CFCFCF93DF93EC01888D8823B9F0AA89CF
:10162000BB89E889F9898C9185FD03C0808186FD9D
:101630000DC00FB607FCF7CF8C9185FFF2CF8081EC
:1016400085FFEDCFCE010E949A0AE9CFDF91CF91BD
:10165000089520917A03260F3327331F2132310555
:10166000ECF420919E03FC0190E080E0243069F0CE
:1016700082E00895A0917A032191AC01465A5C4F13
:10168000A40FB52FB11D2C930196861798F3809166
:101690007A03680F60937A0380E0089581E00895EB
:1016A00008958FEF9FEF08958FEF9FEF089580913A
:1016B000530390E09195819591090895CF93DF931D
:1016C000CB01EA01642F0E94290BCE01DF91CF915B
:1016D0000895CF93DF931F92CDB7DEB7698361E0A2
:1016E000CE0101960E94290B81E090E00F90DF91DE
:1016F000CF910895DC011A96ED91FC9130E020E045
:101700000994DC011696ED91FC9130E020E040E078
:1017100069E10994DC011696ED91FC9130E020E03E
:1017200040E068E109949A01DC011696ED91FC9184
:10173000462F67E10994EF92FF920F931F93CF9387
:10174000DF931F92CDB7DEB77C018B01D8016C917E
:10175000673129F150F46531A0F40F90DF91CF91FA
:101760001F910F91FF90EF9008956A3118F16E3F2D
:10177000A1F7F8014181498369E2C7010E947A0B10
:101780000BC0F80141814983D7011696ED91FC9178
:1017900030E020E0C70109950E5F1F4FD7CFF80159
:1017A00081818983AE014F5F5F4F61E0C7010E9475
:1017B000930BF2CF0F5F1F4FD7011696ED91FC915F
:1017C00030E020E040E0C7010995C0CF462FDC01A2
:1017D0001696ED91FC9130E020E065E10994AF921E
:1017E000BF92CF92DF92EF92FF920F931F93CF930E
:1017F000DF93EC01693089F481E491E09983888377
:101800001C8A81E0DF91CF911F910F91FF90EF90A3
:10181000DF90CF90BF90AF90089579016B3009F4BD
:1018200040C06F3009F444C080E06A3059F7EA855F
:10183000FB8530E020E040E068E2CE010995EE81D2
:10184000FF8130E020E040E064E1CE01099541E015
:101850006BE4CE010E947A0BE881F981448169E250
:10186000CE010E947A0B40E06BE4CE010E947A0B1D
:10187000E881F981448169E2CE010E947A0B41E05E
:101880006BE4CE010E947A0BE881F981458169E21F
:10189000CE010E947A0B6EE271E0CE010E949B0B9A
:1018A000B0CF67E271E04423C1F36CE171E0F5CFA2
:1018B000F9010481000F000F000F1381169500320B
:1018C00010F00052185FCE010E948A0BF701A08031
:1018D000B1806EE3CE010E94E60B6EE3CE010E9462
:1018E000E60BD12C1068602F6D0D6068CE010E9450
:1018F000E60B612FCE010E94E60BF701C280A50125
:101900006C2DCE010E94930BAC0CB11CD394F8E06B
:10191000DF12E9CFCE010E94810B73CF9A01DC0167
:101920001896ED91FC91462F67E10994CF93DF93D0
:101930001F92CDB7DEB76983AE014F5F5F4F61E0A5
:101940000E948E0C0F90DF91CF910895CF92DF927D
:10195000EF92FF920F931F93CF93DF93EC01142F1D
:1019600079016631C1F130F4643149F06531A9F093
:1019700080E040C0673109F446C06A31C8F7E885A5
:10198000F9859701412FCE01DF91CF911F910F91E2
:10199000FF90EF90DF90CF90099468EF0E94960C33
:1019A00041E06CE2CE010E947A0B612F607FCE0194
:1019B0000E94960C41E06CE2CE010E947A0B612FEE
:1019C0006295607FCE010E94960C41E06CE2CE01F0
:1019D0000E947A0B0EC068EF0E94960C612F607F08
:1019E000CE010E94960C612F6295607FCE010E940D
:1019F000960C81E0DF91CF911F910F91FF90EF90B6
:101A0000DF90CF9008956AEF0E94960C41E06CE25F
:101A1000CE010E947A0BDE2CCF2C012F083008F566
:101A2000012F069506950695D12E88EF089FD00CBC
:101A30001124E8E00E9F800111240E0D1F1DDD20F2
:101A400021F2F801F1908F016F2D607FCE010E948D
:101A5000960C6F2D6295607FCE010E94960CDA94F1
:101A6000EECFA3E4B3E0ED2DFC2D9F01285F3F4FA7
:101A70008191982F907F9C938295807F11968C9373
:101A800011971296E217F30799F7DE2ECF2E085022
:101A900043E453E060E1CE010E948E0CBFCFFC0115
:101AA0006623D9F16A30C9F1808D811125C06C3F60
:101AB00048F085E0808F617070E0738B628B2EEF51
:101AC0003FEF29C0683F20F084E0808F6370F4CF3F
:101AD000603F20F083E0808F6770EECF603E20F0A3
:101AE00082E0808F6F70E8CF262F30E0603C98F066
:101AF00081E0808F6F71E0CF8150808F22893389A0
:101B000096E0220F331F9A95E1F76F73262B338BE4
:101B1000228B8111D4CFC90108952FEF3FEFFBCF66
:101B20000F93DC01DE963C91DE97431BD496ED913A
:101B3000FC9109950F910895CF93DF93FC01A0814B
:101B4000B18182AD982F990F990F990F95AF50964B
:101B50009C915097903208F09FE1990F990F990F3F
:101B600094AF23AD922F990F990F990F96AF51967D
:101B70003C915197682F620F7727771F361717060A
:101B800014F4832F821B97AFEF01C05CDF4F880FE7
:101B9000880F880F890F8883219680EF8883549659
:101BA0008D919C915597813F910508F48883EE5B58
:101BB000FF4F56968C918083DF91CF9108950F93BC
:101BC000FC01EB5BFF4F308131965081451730F4BB
:101BD000301738F0041728F080E013C03017D0F326
:101BE000FBCFFC01ED5BFF4F30818C5B9F4FFC0115
:101BF0008081681740F481E0321718F081E02617E1
:101C000058F70F9108953217C8F3E6CF2F923F92FD
:101C10004F925F926F927F928F929F92AF92BF92FC
:101C2000CF92DF92EF92FF920F931F93CF93DF93A8
:101C3000EC014C0183E4880E911CF4011082329770
:101C400020805E01F4E4AF0EB11CF50120823FACB0
:101C50006E01F5E4CF0ED11CF6013082359740803D
:101C60007E01F6E4EF0EF11CF701408234961081FC
:101C7000329760803196708032975080012F262DE8
:101C8000472D652DCE010E94DF0DCD58DF4F81110C
:101C900014C01882DF91CF911F910F91FF90EF90A8
:101CA000DF90CF90BF90AF909F908F907F906F907C
:101CB0005F904F903F902F90089581E0888355204A
:101CC00011F0F4015082621410F4F50160823714AF
:101CD00010F4F60170821415E8F6F7011083DACFDC
:101CE0000F93DC01802FFD01ED58FF4F9081992368
:101CF000E9F12223D9F1223020F0023079F56F5F2B
:101D0000621B082F0170FD0180FD32C0EB5BFF4FAD
:101D10008081481758F131968081481738F53297FD
:101D2000908131978081260F2617F0F46917D8F437
:101D30002FEF290F8217D0F4681708F4682F29179E
:101D400008F4922F961BD696ED91FC91D7970480BC
:101D5000F581E02D292FCD01099508C0033089F6C2
:101D60004F5F421BCECF682F691720F30F91089564
:101D7000ED5BFF4F80816817C8F33196808168174B
:101D8000A8F73296908131978081240F241778F438
:101D9000491760F42FEF290F821740F7481708F40E
:101DA000482F291708F4922F941BCDCF482F49179D
:101DB000E8F6F2CF0F93909136066917A0F0909154
:101DC0003706691780F490913406891760F0909176
:101DD0003506891740F4462F682F00E021E081EF97
:101DE00095E00E94700E0F910895FF920F931F933C
:101DF000CF93DF93F82ED62F142FC22F00FF0CC0E5
:101E0000622F6D1B842F8F0D0E94DA0E6C2F6F19BD
:101E10008D2F810F0E94DA0E01FF0CC06C2F6D1BFD
:101E2000812F8F190E94DA0E6C2F6F19812F8D1B55
:101E30000E94DA0E03FF0CC06C2F6D0F812F8F0DE7
:101E40000E94DA0E6C2F6F0D8D2F810F0E94DA0E1B
:101E500002FF11C06C2F6D0F812F8F190E94DA0EB7
:101E60006C2F6F0D812F8D1BDF91CF911F910F91E3
:101E7000FF900C94DA0EDF91CF911F910F91FF909C
:101E80000895CF92DF92EF92FF920F931F93CF931B
:101E9000DF93F82EE62EC42E08E0060F28E0280F68
:101EA00049EF460F69EF680F81EF95E00E94DF0D63
:101EB0008823D1F00C2D2E2D4F2D67E080E00E945D
:101EC000F50EC0E017E082EFD82EDAEFCF5F8C2F4F
:101ED000880F8F5FD80F0C2D2E2D4F2D612F8C2F3B
:101EE0000E94F50EC11748F0DF91CF911F910F911D
:101EF000FF90EF90DF90CF900895D7FDE7CF11507E
:101F0000D394D394DD0DE2CF0F931F93CF93DF9340
:101F1000C82F2BE1280F0BE34CE1682F81EF95E0F0
:101F20000E94DF0D8823C9F117E01C0FD3E1DC0FFD
:101F300042E063E2812F0E94410F41E063E28D2F76
:101F40000E94410F44E063E3812F0E94410F48E06B
:101F500063E38D2F0E94410FD8E0DC0F00E02BE0FF
:101F60004CE16D2F81EF95E00E94700E2BE04AE36B
:101F70006D2F81EF95E00E94700E01E02FE044E2AA
:101F80006C2F81EF95E00E94700E6AE16C0F2FE0DC
:101F900044E281EF95E00E94700EDF91CF911F9196
:101FA0000F910895213039F020F0223031F0840F64
:101FB0000895860F0895841B0895861B0895213087
:101FC00039F020F0223031F0861B0895840F0895F7
:101FD000860F0895841B08955F926F927F928F926F
:101FE0009F92AF92BF92CF92DF92EF92FF920F93A8
:101FF0001F93CF93DF935C01162F642EEC01C15B1E
:10200000DF4FDC80ED804C0189E7880E911CFE805B
:10201000FD18C12EF11608F4CF2C5B800C85202F03
:102020004E2D6D2D8A810E94D20F782E202F4E2D9D
:102030006D2D852D0E94DF0F482F662071F08A8557
:10204000F40180832C2D672DC5010E94700E1F1591
:1020500048F01F19E394D12CDACF89858111F7CF8D
:102060008B85EECF1D0D1C83ED82DF91CF911F91EB
:102070000F91FF90EF90DF90CF90BF90AF909F9027
:102080008F907F906F905F900895DC0118964C912F
:102090001897ED91FC911197249130E0042E02C025
:1020A000359527950A94E2F7842F860F883068F0DB
:1020B00031961196FC93EE93E49198E0941B01C045
:1020C000EE0F9A95EAF72E2B885018968C938FEF87
:1020D0009FEF01C0880F6A95EAF7809582230895E3
:1020E000FC01E60FF11D849190E0982F882731962E
:1020F000E4918E0F911D0895CF93DF9320913C06BC
:1021000030913D062817390709F490C0EC019093EF
:102110003D0680933C06FC01849180934D063196E8
:10212000E491E0934E06FE013296E491E0934F066F
:10213000FE013396E491E0935006FE013496E4915B
:10214000E0935106FE013596E491E0935206FE01BC
:102150003696E491E0935306FE013796E491E093BE
:102160005406FE013896E491E0935506FE01399637
:10217000E491E0935606FE013A96E491E093570607
:10218000FE013B96E491E0935806FE013C96E491F3
:10219000E0935906FE013D96E491E0935A06FE0154
:1021A0003E96E491E0935B06FE013F96E491E09356
:1021B0005C06FE017096E491E0935D0661E1CE015C
:1021C0000E94701090935F0680935E0663E1CE01DB
:1021D0000E947010909361068093600665E1CE01C5
:1021E0000E947010909363068093620680913C0673
:1021F00090913D06892BD1F080915A068093660616
:1022000040915B064093670690916506992371F0B3
:10221000913079F490915C06891714F490936606D6
:1022200080915D06841714F480936706DF91CF9147
:1022300008953091570620915906082E000C990BED
:10224000622F022E000C770B630F711D37FD7A95FC
:10225000861797071CF4320F30936606241734F75D
:1022600020936706E3CF6F927F928F929F92AF92F7
:10227000BF92CF92DF92EF92FF920F931F93CF9373
:10228000DF93EC01062F142F7901FC01E55AFF4F73
:102290008081813009F445C0D0F1823009F44BC00F
:1022A000833009F452C0FE01EF5AFF4F008331968C
:1022B000108337978081918147962FEFE216F104C2
:1022C00011F008F0E6C0E1E6EE16F10408F447C0AC
:1022D000FE01E159FF4F20813181820F931F9C0144
:1022E0002F5F3F4FF9014491411142C0712C872D5E
:1022F000DF91CF911F910F91FF90EF90DF90CF90E2
:10230000BF90AF909F908F907F906F900895FE0147
:10231000E35BFF4F0190F081E02DCE010995180F8E
:10232000C2CFFE01E35BFF4F0190F081E02DCE01B3
:102330000995081BB8CFFE01E35BFF4F0190F081C8
:10234000E02DCE010995181BAECFFE01E35BFF4FD8
:102350000190F081E02DCE010995080FA4CFF1E4A2
:10236000EF16F10408F4BBCFFE01E359FF4FB3CFE2
:10237000FC0144914E151F0409F086C00296009797
:1023800009F4B4CF7E01FFE4EF0EF11CF701918355
:102390008083108671966081C7010E944510F70105
:1023A000868372966081C7010E944510A82EF701AE
:1023B00087836E01F9E7CF0ED11CF6019081F701FA
:1023C000928781E0911180E0F7018387FE01EE5949
:1023D000FF4FB0806B2DC7010E944510882EFE0173
:1023E000ED59FF4F1081612FC7010E944510982EB3
:1023F000FE01EC59FF4F0081602FC7010E9445107C
:10240000015041E050E09A0101C0220F0A95EAF71D
:10241000782E721AF701068110160CF068CFBA9464
:10242000CA0101C0880FBA94EAF7881AB4849A0CDA
:10243000115001C0440F1A95EAF7F42FF9199F2E95
:102440002B2D4F2F682DF70182810E94D20F182F5C
:10245000F70182832B2D492D682D83810E94DF0F88
:10246000F7018383F1E0BF1609F47CC0BF1608F4BE
:102470003FC022E0B21609F47BC093E0B91609F41C
:1024800082C0082F212F38C0F9012491820F911D9D
:1024900026CFFE01EF58FF4F00811181080F191F51
:1024A000680160E0C6010E947010080F191F62E009
:1024B000C6010E947010F4E0CF0ED11C8E159F054E
:1024C00080F3F801849190E0982F88273196E49169
:1024D0008E2B009709F40ACFE816F90619F4C80103
:1024E00003964DCFF8013296E4910E0F111DE9CFFE
:1024F000202F210F082F0A0D482F612FCE010E9497
:10250000DF0D882309F4F3CEF701148215828E01C2
:10251000025A1F4F4E01FFE58F0E911CF80160819A
:10252000C7010E944510682EF4016081C7010E9416
:102530004510B82E40E0662DCE010E94EC0F41E020
:102540006B2DCE010E94EC0F61E0C7010E94451087
:102550008111F0CFF70185818A1504F38285F60198
:102560008083C5CEBA1821E0210F080F1B0DC4CF00
:1025700091E0392F301B21E0210F9A1901E0080F5B
:10258000890F130FB9CF212F2A0D982F901B01E02F
:10259000080F81E0890FB0CFEF92FF921F93CF9386
:1025A000DF93109209068DE7E82E81E0F82E10E007
:1025B000D2E2C2E3F70161917F01E091F305F0916E
:1025C000F40581EF95E009958F3F9807F1F08E3F74
:1025D0002FEF920779F39C014D2F6C2F81EF95E03F
:1025E0000E94331190914C06913049F030F09230B6
:1025F00041F0933041F0180FDDCFC80FFCCFD80F5A
:10260000FACFC81BF8CFD81BF6CF812FDF91CF911F
:102610001F91FF90EF900895CF93DF93EC016BAF84
:10262000EEA9FFA90190F081E02D0995EEA9FFA97F
:102630000280F381E02DCE01DF91CF910994AF921A
:10264000BF92CF92DF92EF92FF920F931F93CF939F
:10265000DF9300D000D01F92CDB7DEB78C01DC0134
:10266000DA96AC90DA97DB96EC90DB97ED91FC91E3
:10267000B188FE2CD12CC12CD801ED91FC91119781
:102680008089D8962D913C911C82FD828B83B8E085
:102690008B9FC00111248C9DA0018D9D500D9C9D90
:1026A000500D1124240F351F3A832983D801149625
:1026B000ED91FC919E012F5F3F4F41E06FE0C8011B
:1026C0000995F3948F2D8E198A1528F4BFEFCB1A34
:1026D000DB0AFB1488F20F900F900F900F900F9071
:1026E000DF91CF911F910F91FF90EF90DF90CF90EE
:1026F000BF90AF9008950F931F93CF93DF93EC019A
:10270000862F642F8C3208F03AC08A3208F060C0FD
:10271000883209F44BC0893209F460C0803408F46F
:1027200075C0982F9F73FE01E90FF11D868D8F3FB5
:1027300009F44EC0903108F436C0282F30E0F9017A
:10274000EB56FD4F8491F901EF57FD4F0491F901CC
:10275000E359FD4F1491112379F081110E94E10892
:10276000E12FF0E0EE0FFF1FE653FF4FA591B4916C
:10277000EC910E2381E009F480E0898F29C08D322D
:1027800099F108F4CBCF94EB980F923008F0C6CFB4
:102790008F73C80FD11D8E8D411134C061E00E942E
:1027A000380960E08E8D0E940A0912C08E01025E17
:1027B0001F4FD0E0F80181918F018F3F31F061E030
:1027C000D03108F062E00E943809DF5FD63191F71E
:1027D00081E0DF91CF911F910F91089570E090E01B
:1027E00080E00E948E09F4CF85E090E0433010F045
:1027F00082E090E0880F991F880F991F0597019735
:10280000F1F7E6CF62E00E943809E2CF80E0E1CF45
:102810008DE995E00C947C1089EA92E00C947C1090
:102820008F929F92AF92BF92CF92DF92EF92FF92E0
:102830000E94C1096093F2037093F3038093F40341
:102840009093F503289A8091E603823019F082E094
:102850008093E6030E94C1096B017C0180913E03D5
:1028600090913F03A0914003B0914103B701A601AD
:10287000481B590B6A0B7B0B8091D40390E0B0E0AE
:10288000A0E084179507A607B70708F041C180911B
:102890000001811172C060913A0370913B038091F5
:1028A0003C0390913D0320E030E040E85FE30E946C
:1028B000D73660933A0370933B0380933C03909325
:1028C0003D036091DA037091DB038091DC0390910A
:1028D000DD0320E030E040E85FE30E94293581110C
:1028E00017C160913A0370913B0380913C03909132
:1028F0003D0320E030E040E85FE30E94D73660937C
:102900003A0370933B0380933C0390933D036091A3
:10291000130470911404809115049091160420E022
:1029200030E040E85FE30E94D73660931304709371
:10293000140480931504909316046091FF03709122
:102940000004809101049091020420E030E040E80E
:102950005FE30E94D7366093FF0370930004809377
:1029600001049093020480912304909124040A9618
:102970009093240480932304CBC06091DA03709178
:10298000DB038091DC039091DD0320E030E040E840
:102990005FE30E94E43718160CF093CF60910E01AC
:1029A00070910F01809110019091110120E030E0B1
:1029B00040E85FE30E94D73660930E0170930F01E9
:1029C00080931001909311016091F7037091F803C7
:1029D0008091F9039091FA0320E030E040E85FE352
:1029E0000E94D7366093F7037093F8038093F9033E
:1029F0009093FA0360913104709132048091330412
:102A00009091340420E030E040E85FE30E94D73644
:102A100060933104709332048093330490933404B0
:102A200060910E0170910F01809110019091110140
:102A30002091DA033091DB034091DC035091DD03F8
:102A400080900F0490901004A0901104B090120494
:102A50000E944337A50194010E94D7366093130466
:102A60007093140480931504909316046091F703F7
:102A70007091F8038091F9039091FA032091DA03A1
:102A80003091DB034091DC035091DD038090FB0328
:102A90009090FC03A090FD03B090FE030E9443378A
:102AA000A50194010E94D7366093FF037093000440
:102AB0008093010490930204609131047091320478
:102AC00080913304909134042091DA033091DB0338
:102AD0004091DC035091DD038090290490902A04FA
:102AE000A0902B04B0902C040E94433720E030E0EB
:102AF0004AE754E40E948F35A50194010E94D7361D
:102B000060932504709326048093270490932804EF
:102B1000C0923E03D0923F03E0924003F092410303
:102B200080911201882309F447C06091DA03709103
:102B3000DB038091DC039091DD0320E030E040E88E
:102B40005FE30E94E4371816BCF56091250470918C
:102B50002604809127049091280420E030E046EC80
:102B600052E40E94E43787FD27C0809123049091AE
:102B700024040196909324048093230460912504F7
:102B800070912604809127049091280420E030E081
:102B900048EC52E40E94D6366093290470932A04CC
:102BA00080932B0490932C041092310410923204E1
:102BB0001092330410923404FF90EF90DF90CF9086
:102BC000BF90AF909F908F9008958F929F92AF92F9
:102BD000BF92CF92DF92EF92FF920E94C109609361
:102BE000F2037093F3038093F4039093F503289A10
:102BF0008091E603813019F081E08093E6030E9422
:102C0000C1096B017C018091360390913703A0913B
:102C10003803B0913903B701A601481B590B6A0B61
:102C20007B0B8091D50390E0B0E0A0E0841795077E
:102C3000A607B707D0F480910001811127C06091E9
:102C4000320370913303809134039091350320E077
:102C500030E040E85FE30E94D73660933203709320
:102C600033038093340390933503C0923603D0929C
:102C70003703E0923803F0923903FF90EF90DF9032
:102C8000CF90BF90AF909F908F90089560912D044A
:102C900070912E0480912F049091300420E030E058
:102CA00040E85FE30E94E43718160CF08EC0609194
:102CB0001704709118048091190490911A0420E06F
:102CC00030E040E85FE30E94D736609317047093CA
:102CD00018048093190490931A046091030470916E
:102CE0000404809105049091060420E030E040E85F
:102CF0005FE30E94D73660930304709304048093CB
:102D0000050490930604609131047091320480911F
:102D100033049091340420E030E040E85FE30E9407
:102D2000D7366093310470933204809333049093C8
:102D300034046091170470911804809119049091E3
:102D40001A0420912D0430912E0440912F045091AB
:102D5000300480901B0490901C04A0901D04B0903F
:102D60001E040E944337A50194010E94D736609348
:102D70001F04709320048093210490932204609197
:102D8000030470910404809105049091060420913D
:102D90002D0430912E0440912F04509130048090E6
:102DA000070490900804A0900904B0900A040E94BF
:102DB0004337A50194010E94D73660930B047093AA
:102DC0000C0480930D0490930E0460912D04709177
:102DD0002E0480912F049091300420E030E040E8F0
:102DE0005FE30E942935811140CF609132037091D9
:102DF0003303809134039091350320E030E040E8C4
:102E00005FE30E94D736609332037093330380935D
:102E100034039093350360911F04709120048091D6
:102E200021049091220420E030E040E85FE30E941A
:102E3000D73660931F0470932004809321049093ED
:102E4000220460910B0470910C0480910D04909108
:102E50000E0420E030E040E85FE30E94D736609344
:102E60000B0470930C0480930D0490930E048091D6
:102E70002304909124040A969093240480932304BD
:102E8000F4CECF92DF92EF92FF920F931F93CF93E6
:102E9000DF936C01EB017B01E40EF51E10E000E016
:102EA000CE15DF0561F06991D601ED91FC9101909D
:102EB000F081E02DC6010995080F191FF1CFC80157
:102EC000DF91CF911F910F91FF90EF90DF90CF9006
:102ED0000895CF92DF92EF92FF920F931F93CF93BB
:102EE000DF93EC016C0124E0C20ED11CFC01E1581F
:102EF000FF4F0190F081E02DC60109958E3FEFEF65
:102F00009E07C8F48E010E571F4F7E01F1E8EF0EA9
:102F1000F11C9C01F8014081F7016081C6010E940B
:102F20003311C15ADF4F98819130A9F078F0923077
:102F3000A1F09330B9F081E090E0DF91CF911F9143
:102F40000F91FF90EF90DF90CF900895F70190815F
:102F5000890F8083F0CFF801FACFF7019081981B99
:102F6000892FF7CFF801FACF0F931F93CF93DF93F9
:102F70008C01D0E0C0E0F801EC0FFD1F64916623E6
:102F800041F08DEE95E00E946917892B11F0219692
:102F9000F2CFCE01DF91CF911F910F91089590E074
:102FA00080E008951F93CF93DF9385ED8093BC005D
:102FB0008091560390915703A0915803B091590303
:102FC0000796A11DB11D23E0B695A7959795879506
:102FD0002A95D1F72091BC0024FD03C010929E03D6
:102FE00052C040915603509157036091580370911D
:102FF0005903452B462B472B69F30097A105B105D3
:1030000041F02AE22A95F1F700C00197A109B10920
:10301000E1CF80915503C1E0C0935403882399F117
:10302000D091B8001091BA008091BC008A7B809347
:10303000BC0060E082E10E940A0960E083E10E9436
:103040000A0910929E03C093A00310929F0361E0AF
:1030500082E10E940A0961E083E10E940A098091ED
:10306000B9008E7F8093B9008091B9008D7F8093E5
:10307000B90088E48093B80085E48093BC00109385
:10308000BA00D093B800DF91CF911F910895CF93EC
:10309000DF93EC0188819981009711F00E94B83884
:1030A000198218821D821C821B821A82DF91CF91A5
:1030B0000895FC0180819181009711F00C94B8383B
:1030C0000895FB0101900020E9F73197AF01461BFD
:1030D000570BDC01ED91FC910280F381E02D099406
:1030E0008F929F92AF92BF92EF92FF920F931F9396
:1030F000CF93DF93CDB7DEB7A1970FB6F894DEBFBD
:103100000FBECDBF7C01FA01CB0119A2223008F419
:103110002AE08E010F5D1F4F822E912CB12CA12C25
:10312000BF01A50194010E946336F901CA016A300A
:103130000CF5605DD8016E938D01232B242B252B7C
:1031400079F790E080E0109721F0BD01C7010E945F
:103150006118A1960FB6F894DEBF0FBECDBFDF9108
:10316000CF911F910F91FF90EF90BF90AF909F90E4
:103170008F900895695CDECF462F50E070E060E0EC
:103180002AE00C947018CF92DF92EF92FF920F9387
:103190001F93CF93DF936B01770FEE08FF08F7FEC5
:1031A0001BC0EC016DE20E94D5098C014427552714
:1031B000BA014C195D096E097F092AE0CE010E940F
:1031C0007018800F911FDF91CF911F910F91FF9089
:1031D000EF90DF90CF9008952AE0B701A601DF912C
:1031E000CF911F910F91FF90EF90DF90CF900C94B3
:1031F00070184F925F926F927F928F929F92AF92D0
:10320000BF92EF92FF920F931F93CF93DF938C01A6
:103210004A015B01E22EAB019401CB01B4010E9493
:10322000E93768E871E0811126C024013501E8948E
:1032300077F82FEF3FEF4FE75FE7C301B2010E943E
:10324000E93781110CC02FEF3FEF4FE75FE7C30174
:10325000B2010E9429356CE871E0181664F02FEF76
:103260003FEF4FE75FE4C501B4010E94E437181651
:103270009CF460E971E0C801DF91CF911F910F913B
:10328000FF90EF90BF90AF909F908F907F906F9046
:103290005F904F900C9461182FEF3FEF4FE75FEC7A
:1032A000C501B4010E94293587FDE3CF20E030E05D
:1032B000A901C501B4010E942935D0E0C0E087FF13
:1032C00009C06DE2C8010E94D509EC01B7FAB094BB
:1032D000B7F8B094FE2C712C60E070E080E09FE3C2
:1032E0007E1440F420E030E040E251E40E94433795
:1032F0007394F6CFA50194010E94D7364B015C016F
:103300000E94B5372B013C012AE0BC01A201C80193
:103310000E947018C80FD91FEE20D1F1C301B2016D
:103320000E942E359B01AC01C501B4010E94D63626
:103330004B015C016EE2C8010E94D509C80FD91F7C
:10334000FA948FEFF81621F120E030E040E251E4EA
:10335000C501B4010E948F352B013C010E94B53795
:103360004B01B12CA12C2AE0B501A401C8010E9497
:103370007018C80FD91FC501B4010E942E359B01DA
:10338000AC01C301B2010E94D6364B015C01D8CF1B
:10339000CE01DF91CF911F910F91FF90EF90BF90E1
:1033A000AF909F908F907F906F905F904F90089517
:1033B0000C9461180F931F93CF93DF93EC01683146
:1033C00009F46EC058F46431F9F0F901673181F005
:1033D00080E0DF91CF911F910F910895693109F439
:1033E0009CC06032A9F76AE4CE010E947A0B56C0F5
:1033F000442309F453C081918EBD00000DB407FE33
:10340000FDCF8EB54150F4CFE881F9818C859D8543
:10341000AE85BF85892B8A2B8B2B41F480859185C6
:10342000A285B3858C879D87AE87BF87418169E47C
:10343000CE010E947A0BCFB7F8948091420381119C
:1034400027C0E7E7F2E08491EBE8F2E09491E82FFF
:10345000F0E0EE0FFF1FE75AFD4FA591B491EC91FC
:10346000E92321F461E08AE00E940A0961E08AE030
:103470000E9438098CB580618CBD8CB580648CBD90
:1034800061E08DE00E94380961E08BE00E9438091C
:10349000809142038F5F80934203CFBF81E099CF39
:1034A000E881F981E485E15090E0E33020F4F0E038
:1034B000E75EFE4F90810C851D852E853F8540E09F
:1034C00052E16AE770E080E0041715072607370726
:1034D00040F476956795579547958F5F8630A1F7AD
:1034E00087E09C709065282F2695922B809581709F
:1034F0009CBD8DBDE881F981408169E4CE010E94C7
:103500007A0BA881B981EA85FB8530E020E012962C
:103510004C916CE2CE010995C1CFA881B981EA85B1
:10352000FB8530E020E013964C916CE20995E88130
:10353000F981418169E458CFCF93DF93FC01248165
:1035400035814217530788F4C081D181062E000CC3
:10355000770BCE01840F951F0E940E3A009729F039
:103560008C1B9D0BDF91CF9108958FEF9FEFFACFCA
:10357000FC0124813581232B39F421E0FB0180817A
:10358000882349F020E007C0808191810E94193A88
:1035900021E0892BB9F7822F08950F931F93CF93C2
:1035A000DF93EC0188819981009759F02A813B8152
:1035B0002617370730F081E0DF91CF911F910F91EF
:1035C00008958B016F5F7F4F0E944139009759F03A
:1035D000998388831B830A832C813D81232B59F790
:1035E000FC011082E8CF80E0E7CFEF92FF920F93CB
:1035F0001F93CF93DF936115710541F480E0DF9154
:10360000CF911F910F91FF90EF90089541155105B3
:10361000B1F07B01EC010C811D81040F151FB80175
:103620000E94CD1A882351F3288139818C819D8194
:10363000B701820F931F0E94223A1D830C8381E001
:10364000DECFEF92FF920F931F93CF93DF93EC01A6
:103650007B018A01BA010E94CD1A81110BC0CE01F3
:103660000E944718CE01DF91CF911F910F91FF90DB
:10367000EF9008951D830C83B701888199810E9482
:10368000223AF0CFFC01118210821382128215823D
:103690001482FB0101900020E9F73197AF01461B2E
:1036A000570B0C94211BAF92BF92CF92DF92EF92F7
:1036B000FF920F931F93CF93DF937C016B015A010D
:1036C00089012417350720F48B2D5901042F182F59
:1036D0006AE971E0C7010E94421BD6011496CD91A0
:1036E000DC91AC16BD0620F50C171D0708F4E801A7
:1036F000D601ED91FC911197EC0FFD1F1081108206
:103700006D917C916A0D7B1D61157105E9F0FB01DE
:1037100001900020E9F73197AF01461B570BC70115
:103720000E94211BF60180819181C80FD91F188347
:10373000C701DF91CF911F910F91FF90EF90DF9024
:10374000CF90BF90AF900895C7010E944718EACF6D
:10375000FC01A081B18150962C9182AD38E0839F0D
:10376000C0011124289FA001299F500D112470E051
:1037700060E080AD91AD0C94073A1F93CF93DF9337
:10378000EC010E941F131BAD8AAD180FE881F9816F
:103790008189181768F0EC81FD8130E020E040E07D
:1037A00060E1CE01099580E0DF91CF911F910895EE
:1037B000FE01E658FF4F8081882319F0CE010E9458
:1037C000A81B612FCE010E940C1381E0EDCFCF9397
:1037D000DF93EC01FC01E658FF4F8081882319F04C
:1037E000CE010E94A81B60E0CE01DF91CF910C9426
:1037F0000C13CF93DF93EB010E944D368883CE01EB
:10380000DF91CF9108950F931F93CF93DF938C0196
:10381000EB010E944D368883C80101960E944D3607
:103820008983CE01DF91CF911F910F910895CF939E
:10383000DF93EB010E944D368883CE01DF91CF915B
:103840000895CF92DF92EF92FF920F931F93CF9341
:10385000DF93EB017B0124E0E20EF11C8B016C0194
:10386000C61AD70AC601800F911F0E944D36F80173
:1038700081938F01EE15FF05A9F7CE01DF91CF915E
:103880001F910F91FF90EF90DF90CF900895CF930D
:10389000DF936FE174E082E090E00E94211C809150
:1038A0001F0490912004A0912104B09122048093E0
:1038B0001B0490931C04A0931D04B0931E0463E1A9
:1038C00074E088E090E00E94211C809113049091A4
:1038D0001404A0911504B091160480930F049093E2
:1038E0001004A0931104B09312046BE074E08EE016
:1038F00090E00E94211C80910B0490910C04A091F7
:103900000D04B0910E048093070490930804A093D3
:103910000904B0930A046FEF73E084E190E00E9421
:10392000211C8091FF0390910004A0910104B091AB
:1039300002048093FB039093FC03A093FD03B093D8
:10394000FE0363E274E08AE190E00E94031C8EE1D2
:1039500090E00E944D36C5ECD3E088838FE190E083
:103960000E944D36898380E290E00E944D368A8322
:1039700081E290E00E944D368B836EEC73E083E22F
:1039800090E00E94171C6DEC73E084E290E00E94CE
:10399000171C6CEC73E085E290E00E94171C6BEC46
:1039A00073E086E290E00E94171C65ED73E087E209
:1039B00090E00E94171C64ED73E088E290E00E94A2
:1039C000171C66EF73E089E290E00E94171C66EE18
:1039D00073E08AE290E00E94171C6EED73E08BE2C8
:1039E00090E00E94031C69EC73E080E390E00E9489
:1039F000171C6CE071E085E390E00E94F91B6AE01F
:103A000071E086E390E00E94F91B63EE73E087E3C8
:103A100090E00E94F91B66ED73E089E390E00E945C
:103A2000211C6DE274E08EE390E00E94211C6AED9F
:103A300073E083E490E0DF91CF910C94211C85EE3C
:103A400095E19093020180930101809169008C7F40
:103A5000826080936900E89A80E194E19093040188
:103A60008093030180916900837F8860809369005F
:103A7000E99AE091F505F091F60530E020E040E0AC
:103A80006AE081EF95E0099581EF95E00E94E71BE0
:103A900081EF95E00E94BD1B8111FACF60E081EFBC
:103AA00095E00E940C13E091F505F091F60530E0E9
:103AB00020E040E06BE081EF95E009958FE49DE028
:103AC00090936D0680936C06E0914E04F0914F0444
:103AD00082E08083E0914A04F0914B041082E091EF
:103AE0004C04F0914D048FEC808310925604E091C9
:103AF0005204F091530486E08083E0915004F091E9
:103B00005104808180618083E0915004F0915104E0
:103B1000808188608083E0915004F091510480811D
:103B200080688083E0915004F091510480818F7D02
:103B3000808382E390E0A0E0B0E080934204909321
:103B40004304A0934404B093450452985A9A53985E
:103B50005B9A549A5C9A84B184B9289A0C94471C55
:103B6000FF920F931F93CF93DF93EC01F62E088102
:103B70001981C8010E944D36F81621F06F2DC80139
:103B80000E945536CE01DF91CF911F910F91FF908A
:103B90000895AF92BF92CF92DF92EF92FF920F9370
:103BA0001F93CF93DF9300D0CDB7DEB78B016B01AE
:103BB00024E0C20ED11C7B015C01A61AB70AC50124
:103BC0008E0D9F1D9A838983F70161917F01CE013C
:103BD00001960E94B01DEC14FD0489F7C8010F90F6
:103BE0000F90DF91CF911F910F91FF90EF90DF9099
:103BF000CF90BF90AF9008953F924F925F926F9297
:103C00007F928F929F92AF92BF92CF92DF92EF926C
:103C1000FF920F931F93CF93DF9310921201809125
:103C2000320390913303A0913403B0913503109285
:103C30003A0310923B0310923C0310923D03809193
:103C40000901813009F059C180E090E0A0E8BFE3AC
:103C500080932D0490932E04A0932F04B0933004EE
:103C60009DECC92E99E0D92E26E8A22E28E0B22E8E
:103C700039E6332ED8E245E0942E12E051E3F52EDA
:103C80006BE1E62EC2E28091120181116DC281EFDB
:103C900095E00E94E71B84E1882ED0923F06C092F7
:103CA0003E0680910901813009F045C04090320301
:103CB0005090330360903403709035036091E003BB
:103CC00070E090E080E00E9430359B01AC01C301C0
:103CD000B2010E94433760932E0370932F038093A9
:103CE0003003909331030E94081410936E06F092F3
:103CF0006F06409132035091330360913403709109
:103D0000350330E020E08DEE95E00E94F9180E9426
:103D10000C14E0926E06C0936F0640912E035091F2
:103D20002F03609130037091310322E030E08DEE7B
:103D300095E00E94F91800910901023009F045C090
:103D400040903A0350903B0360903C0370903D03D9
:103D50006091E00370E090E080E00E9430359B01CC
:103D6000AC01C301B2010E94433760932E037093EC
:103D70002F0380933003909331030E940814009323
:103D80006E06F0926F0640913A0350913B036091AA
:103D90003C0370913D0330E020E08DEE95E00E9401
:103DA000F9180E940C14E0926E06C0936F064091C1
:103DB0002E0350912F03609130037091310322E064
:103DC00030E08DEE95E00E94F9180E940C141093DB
:103DD0006E06C0936F0664E971E08DEE95E00E9477
:103DE000D819B092F405A092F3050E94CC1230923B
:103DF0006E06C0936F066091E0038DEE95E00E9421
:103E0000BC1886EC90E00E94B41780ED98E00E9408
:103E10007C10D0936E0690926F0681EB90E00E942A
:103E2000B417D0936E0680926F0683EA90E00E94EA
:103E3000B417609109018DEE95E00E94BC18809145
:103E40000501882301F18091CA038E3138F500E025
:103E500024E14AE268E681EF95E00E94700E22E1DB
:103E60004AE26AE181EF95E00E94700E8091CA03F8
:103E70008F5F8093CA038D3111F4109205018091F8
:103E8000050181110BC08091CA03882339F081504C
:103E90008093CA03813011F48093050181EF95E08E
:103EA0000E94BD1B8111F9CE4D9B10C06091320361
:103EB00070913303809134039091350320E030E01A
:103EC00040E251E40E94E43718163CF14D9B10C0CB
:103ED00060913A0370913B0380913C0390913D03C4
:103EE00020E030E040E251E40E94E4371816ACF0E4
:103EF0004D994FC11092D303C6CE823009F0B0CE97
:103F000080E090E0A0E8BFE38093DA039093DB03C6
:103F1000A093DC03B093DD03A3CE8091090181302F
:103F200009F08AC0C0903203D0903303E09034038C
:103F3000F09035036091E00370E090E080E00E9433
:103F400030359B01AC01C701B6010E944337609335
:103F50002E0370932F03809330039093310360916D
:103F60002E0370912F03809130039091310320E054
:103F700030E0A9010E94293581110CC080E090E059
:103F8000A0E8BFE380932E0390932F03A093300308
:103F9000B09331036EE273E08EE390E00E94C91D9E
:103FA0008FE39CE90197F1F700C000001092320303
:103FB00010923303109234031092350310921704B9
:103FC000109218041092190410921A0410923104DD
:103FD00010923204109233041092340410921F0491
:103FE00010922004109221041092220410921B04BB
:103FF00010921C0410921D0410921E048FE39CE981
:104000000197F1F700C000006DE274E08EE390E0EC
:104010000E94211C8FE39CE90197F1F700C000008A
:104020006FE174E082E090E00E94C91D8FE39CE99B
:104030000197F1F700C0000080910901823009F07A
:104040008AC0C0903A03D0903B03E0903C03F090CC
:104050003D036091E00370E090E080E00E94303525
:104060009B01AC01C701B6010E94433760932E0348
:1040700070932F03809330039093310360912E034C
:1040800070912F03809130039091310320E030E054
:10409000A9010E94293581110CC080E090E0A0E8C0
:1040A000BFE380932E0390932F03A0933003B0932C
:1040B00031036EE273E083E490E00E94C91D8FE358
:1040C0009CE90197F1F700C0000010923A031092AA
:1040D0003B0310923C0310923D0310920E0110928C
:1040E0000F011092100110921101109231041092E0
:1040F000320410923304109234041092130410927C
:104100001404109215041092160410920F041092C9
:10411000100410921104109212048FE39CE901978D
:10412000F1F700C000006AED73E083E490E00E94C4
:10413000211C8FE39CE90197F1F700C0000063E1C7
:1041400074E088E090E00E94C91D8FE39CE901972C
:10415000F1F700C000001092E00381E080931201AB
:10416000809300010E941F1D81E08093E603DF9190
:10417000CF911F910F91FF90EF90DF90CF90BF9064
:10418000AF909F908F907F906F905F904F903F90F7
:1041900008958091D3038F5F8093D303843609F011
:1041A00072CD1092D303809109018130C1F480E077
:1041B00090E0A0E8BFE380932D0490932E04A09399
:1041C0002F04B09330046DE274E08EE390E00E941F
:1041D000C91D62E370E080E090E00E948E0980914A
:1041E0000901823009F0B7CF80E090E0A0E8BFE39A
:1041F0008093DA039093DB03A093DC03B093DD0399
:104200006AED73E083E490E00E94C91D62E370E010
:1042100080E090E00E948E099ECFEF92FF920F9374
:104220001F93CF93DF9300D0CDB7DEB78C017B0116
:104230009A838983FB016081CE0101960E94B01DA3
:104240000F5F1F4F1A830983F7016181CE01019629
:104250000E94B01DC7010F900F90DF91CF911F9169
:104260000F91FF90EF9008950F931F93CF93DF93DB
:1042700000D0CDB7DEB78B019A838983FB016081C3
:10428000CE0101960E94B01DC8010F900F90DF91E2
:10429000CF911F910F9108950F931F93CF93DF93A9
:1042A00000D0CDB7DEB78B019A838983FB01608193
:1042B000CE0101960E94B01DC8010F900F90DF91B2
:1042C000CF911F910F910895EF92FF920F931F933B
:1042D000CF93DF93CDB7DEB76B970FB6F894DEBF01
:1042E0000FBECDBF1D8A81E08E8B95E09F8B9FE036
:1042F000988F94E1998F1C8A1B8A8A8F1B8E198252
:104300001A821B821C8280E090E0A0E8BFE38D83CC
:104310009E83AF83B88780E090E0A0E2B1E4898714
:104320009A87AB87BC8789E390E3A0E0B0E08D87F4
:104330009E87AF87B88BBE016F5F7F4F82E090E0B2
:104340000E94C91D62E370E080E090E00E948E0947
:10435000BE016F5F7F4F88E090E00E94C91D62E35D
:1043600070E080E090E00E948E09BE016F5F7F4F99
:104370008EE090E00E94C91D62E370E080E090E072
:104380000E948E09BE016F5F7F4F84E190E00E9422
:10439000C91D62E370E080E090E00E948E09BE01DA
:1043A0006D5E7F4F8AE190E00E940D2162E370E034
:1043B00080E090E00E948E097E018DE0E80EF11C05
:1043C0000EE110E01A8B098BF70161917F01CE019C
:1043D00041960E94B01D0F5F1F4F0232110591F7E9
:1043E00062E370E080E090E00E948E09BE016B5EA7
:1043F0007F4F83E290E00E944C2162E370E080E016
:1044000090E00E948E09BE016B5E7F4F84E290E0D7
:104410000E944C2162E370E080E090E00E948E09EF
:10442000BE016B5E7F4F85E290E00E944C2162E30B
:1044300070E080E090E00E948E09BE016B5E7F4FCD
:1044400086E290E00E944C2162E370E080E090E020
:104450000E948E09BE01685E7F4F87E290E00E9455
:104460004C2162E370E080E090E00E948E09BE0182
:10447000685E7F4F88E290E00E944C2162E370E02A
:1044800080E090E00E948E09BE01695E7F4F89E264
:1044900090E00E944C2162E370E080E090E00E9496
:1044A0008E09BE016A5E7F4F8AE290E00E944C2135
:1044B00062E370E080E090E00E948E09BE01675EDA
:1044C0007F4F80E390E00E944C2162E370E080E047
:1044D00090E00E948E09BE01665E7F4F85E390E00A
:1044E0000E94342162E370E080E090E00E948E0937
:1044F000BE01665E7F4F86E390E00E94342162E356
:1045000070E080E090E00E948E09BE01655E7F4F02
:1045100087E390E00E94342162E370E080E090E065
:104520000E948E09BE01655E7F4F88E390E00E9485
:10453000342162E370E080E090E00E948E09BE01C9
:10454000675F7F4F89E390E00E94C91D62E370E0DE
:1045500080E090E00E948E09BE016B5F7F4F8EE38A
:1045600090E00E94C91D62E370E080E090E00E944C
:104570008E09BE016B5F7F4F83E490E00E94C91DEE
:1045800062E370E080E090E00E948E096B960FB6C7
:10459000F894DEBF0FBECDBFDF91CF911F910F9179
:1045A000FF90EF9008951F920F920FB60F92112473
:1045B0002F933F938F939F93AF93BF938091360434
:1045C00090913704A0913804B091390430913504AA
:1045D00023E0230F2D3758F50196A11DB11D20931F
:1045E00035048093360490933704A0933804B09335
:1045F000390480913A0490913B04A0913C04B0911D
:104600003D040196A11DB11D80933A0490933B0493
:10461000A0933C04B0933D04BF91AF919F918F91C3
:104620003F912F910F900FBE0F901F90189526E885
:10463000230F0296A11DB11DD2CF1F920F920FB66C
:104640000F9211242F933F934F935F936F937F9318
:104650008F939F93AF93BF93EF93FF93E0910301E9
:10466000F09104010995FF91EF91BF91AF919F9156
:104670008F917F916F915F914F913F912F910F900B
:104680000FBE0F901F9018951F920F920FB60F92AA
:1046900011242F933F934F935F936F937F938F9347
:1046A0009F93AF93BF93EF93FF93E0910101F0913C
:1046B00002010995FF91EF91BF91AF919F918F9169
:1046C0007F916F915F914F913F912F910F900FBE0E
:1046D0000F901F9018951F920F920FB60F921124F2
:1046E0002F933F934F935F936F937F938F939F93FA
:1046F000AF93BF93EF93FF938EE394E00E949A0AE7
:10470000FF91EF91BF91AF919F918F917F916F91A9
:104710005F914F913F912F910F900FBE0F901F907F
:1047200018951F920F920FB60F9211242F938F930B
:104730009F93EF93FF93E0914E04F0914F0480819B
:10474000E0915404F091550482FD1BC0908180914A
:1047500057048F5F8F7320915804821741F0E091C6
:104760005704F0E0E25CFB4F958F80935704FF9174
:10477000EF919F918F912F910F900FBE0F901F90EF
:1047800018958081F4CF1F920F920FB60F921124CB
:104790002F933F934F935F936F937F938F939F9349
:1047A000AF93BF93EF93FF938091B900887F8036DA
:1047B00009F44AC0F0F5883209F4A5C018F5803133
:1047C00009F499C0B8F4882309F4F5C0883009F4D5
:1047D00092C0FF91EF91BF91AF919F918F917F9187
:1047E0006F915F914F913F912F910F900FBE0F905E
:1047F0001F901895883109F486C0803251F7809354
:104800009D0314C0803409F49BC040F48033B9F395
:104810008833F9F680939D0385ECAEC0803509F4AA
:1048200083C0883509F494C0883499F60E94D21761
:10483000D0CF883909F48AC038F5883729F050F488
:10484000883611F0803729F683E080939E0310921A
:104850009C0355C0883809F479C0803919F0803834
:1048600009F0B7CF80919C03803208F06FC0E091CF
:104870009C0381E08E0F80939C038091BB00F0E04D
:10488000E458FC4F80833BC0803B39F0D0F4803A41
:1048900009F477C0883A09F09CCF84E080939E03A6
:1048A00010927B0310927A03F0E0E0E0099580918A
:1048B0007A0381110FC081E080937A0310925A032A
:1048C00009C0803C09F4A8CF883C09F4A5CF883BF7
:1048D00009F07FCFE0917B0381E08E0F80937B0313
:1048E000F0E0E65AFC4F80818093BB0090917B03FF
:1048F00080917A0329C08091C3038093BB0085EC2B
:104900008093BC0066CF9091C2038091C103981739
:1049100058F5E091C20381E08E0F8093C203F0E06E
:10492000EF55FC4F8081E9CFE091C20381E08E0F0B
:104930008093C2038091BB00F0E0EF55FC4F808371
:104940009091C2038091C1039817C8F285E8D8CF2F
:10495000E091C20381E08E0F8093C2038091BB007F
:10496000F0E0EF55FC4F80838091A00381115ECF72
:1049700081E080939F0384EA8093BC0010929E03A1
:1049800028CF85EC8093BC0010929E0380919C03FD
:10499000803230F4E0919C03F0E0E458FC4F108248
:1049A00060919C0370E08CE793E0F0E0E0E0099513
:1049B00010929C030ECF10929D0338CFCF9310928C
:1049C00041041092400488EE93E0A0E0B0E08093B0
:1049D000420490934304A0934404B09345048DE5AE
:1049E00091E090933F0480933E0485EC90E0909397
:1049F0004B0480934A0484EC90E090934D048093A0
:104A00004C0480EC90E090934F0480934E0481EC32
:104A100090E0909351048093500482EC90E0909346
:104A200053048093520486EC90E090935504809355
:104A30005404109257041092580410925904109282
:104A40005A041092F0051092EF0586E898E09093D2
:104A50006D0680936C0610926E0610926F0610928F
:104A600009068FE691E09093EE058093ED05109294
:104A7000F2051092F105109206061092FD051092B3
:104A8000FE051092FF05109200068FEF8093070637
:104A900080930B06EFE0F6E085E296E0CFEFC1935E
:104AA0008E179F07E1F78FEE9BE09093F6058093BA
:104AB000F50586EA9CE09093F8058093F7058AED6A
:104AC00099E19093FA058093F9058BE793E1909330
:104AD000FC058093FB0530E020E040E069E081EFD9
:104AE00095E00E94EF0B10923D0610923C0680E983
:104AF00098E090932606809325068BED94E09093A2
:104B00002A068093290682E080932B0610922C06B9
:104B1000109249061092690681E080936A0680939C
:104B20006B0687E791E0909328068093270681EF34
:104B300095E00E949C0D1092380610923A06C093A0
:104B40003906C0933B06E0912706F09128060280C3
:104B5000F381E02D81EF95E009958FED98E090933A
:104B60003F0680933E0610924C068CE08093180618
:104B7000C0931A066BE971E087EE95E00E94421B34
:104B80006EE971E081EE95E00E94421B68EA71E0F7
:104B90008BED95E0CF910C94421BCF93DF93CDB773
:104BA000DEB7EC970FB6F894DEBF0FBECDBF78949A
:104BB00084B5826084BD84B5816084BD85B5826022
:104BC00085BD85B5816085BD80916E0081608093D3
:104BD0006E0010928100809181008260809381003C
:104BE000809181008160809381008091800081604C
:104BF000809380008091B10084608093B1008091A7
:104C0000B00081608093B00080917A0084608093CE
:104C10007A0080917A00826080937A0080917A0095
:104C2000816080937A0080917A00806880937A0016
:104C30001092C1000E941F1DCE0101962C0111E0AF
:104C400002E06091310470913204809133049091BC
:104C5000340420912D0430912E0440912F04509162
:104C60003004C0902904D0902A04E0902B04F090E6
:104C70002C040E94433720E030E04AE754E40E94CD
:104C80008F35A70196010E94D73660932504709353
:104C9000260480932704909328048091120188238E
:104CA00009F447C060912D0470912E0480912F0467
:104CB0009091300420E030E040E85FE30E94E43768
:104CC0001816BCF560912504709126048091270484
:104CD0009091280420E030E046EC52E40E94E43752
:104CE00087FD27C08091230490912404019690931E
:104CF00024048093230460912504709126048091FC
:104D000027049091280420E030E048EC52E40E940F
:104D1000D6366093290470932A0480932B049093D1
:104D20002C04109231041092320410923304109229
:104D3000340460911F0470912004809121049091AB
:104D4000220420E03CE34CE156E40E94E43787FD76
:104D50001EC080911F0490912004A0912104B09165
:104D6000220480911B0490911C04A0911D04B09119
:104D70001E04109217041092180410921904109235
:104D80001A046FE174E082E090E00E94C91D609116
:104D9000130470911404809115049091160420E07E
:104DA0003CE34CE156E40E94E43787FD1EC080914D
:104DB000130490911404A0911504B09116048091ED
:104DC0000F0490911004A0911104B091120410925C
:104DD0000E0110920F01109210011092110163E167
:104DE00074E088E090E00E94C91D60910B0470910E
:104DF0000C0480910D0490910E0420EF33E244E7FF
:104E000059E40E94E43787FD1EC080910B04909105
:104E10000C04A0910D04B0910E04809107049091B0
:104E20000804A0910904B0910A041092030410929E
:104E3000040410920504109206046BE074E08EE006
:104E400090E00E94C91D6091FF0370910004809161
:104E500001049091020420EF33E244E759E40E94F8
:104E6000E43787FD1EC08091FF0390910004A0915C
:104E70000104B09102048091FB039091FC03A09186
:104E8000FD03B091FE031092F7031092F803109205
:104E9000F9031092FA036FEF73E084E190E00E944F
:104EA000C91D60912D0470912E0480912F04909162
:104EB000300420E030E040E85FE30E9429358111B2
:104EC00005C08091F603811110920D0180910C01B3
:104ED000882309F4FBC04D991EC00E94C109C090EF
:104EE000F203D090F303E090F403F090F5036C1913
:104EF0007D098E099F0960367A4E8105910558F02B
:104F00000E94C1096093F2037093F3038093F4034A
:104F10009093F50328984D9B0BC00E94C1096093A4
:104F2000F2037093F3038093F4039093F503289AAC
:104F300099B18091F103B92FB072FB2E95FD02C09B
:104F40000C94C33281110AC00E94C1096093ED0321
:104F50007093EE038093EF039093F00381E0F110E0
:104F600001C080E08093F1038091E503882391F1F3
:104F70000E94C109C090E903D090EA03E090EB03DE
:104F8000F090EC036C197D098E099F096F3E724009
:104F900081059105F8F01092E5038091E703909167
:104FA000E8039C01225031092330310510F00697A7
:104FB00024F01092E8031092E7038091E7039091A8
:104FC000E803059739F41092E8031092E70383E0B1
:104FD0008093E60380910B01882309F456C04D9B12
:104FE00090C08091E4038F5F8093E403843609F0DE
:104FF0004CC010921F0410922004109221041092B1
:10500000220410921B0410921C0410921D04109292
:105010001E04109217041092180410921904109292
:105020001A046FE174E082E090E00E94C91D6AE01A
:1050300070E080E090E00E948E09109213041092BC
:105040001404109215041092160410920F0410927A
:105050001004109211041092120410920E0110927A
:105060000F01109210011092110163E174E088E0C9
:1050700090E00E94C91D6AE070E080E090E00E942C
:105080008E091092E4031093E6038EE394E00E94ED
:105090007A0A892B09F401C170909A010E943A0A98
:1050A00097FF782E6AE971E0CE01C5960E94421BF7
:1050B0000E943A0A97FD28C089831A8241E050E095
:1050C000B201CE01C5960E94F51AF2CF289830CFD2
:1050D0000093E60343CF8091E7039091E8030196A4
:1050E0009093E8038093E7030E94C1096093E9036A
:1050F0007093EA038093EB039093EC031093E50322
:105100002DCF1092E403C1CF6AE971E0CE0143963E
:105110000E94421B8FEF9FEF9A8F898F9C8F8B8FFE
:10512000EB8CFC8CC9ACDAACEC14FD0409F089C33F
:1051300018AA1FA61AAA19AA1CAA1BAA6B897C89DD
:105140006115710509F0C7C350E040E06DE3CE0181
:105150008F960E949C1A7C019C0150E040E0BE01A9
:10516000615D7F4FCE0189960E94531BEFEFEE1ACF
:10517000FE0ACBA8DCA8EC14FD04F0F4A7016EE253
:10518000CE018F960E949C1A9601A701BE01615D17
:105190007F4F97FDA7C3C2010E94531B89819A814B
:1051A000812C912C5401009721F00E9440334B0137
:1051B0005C01C2010E9459181E8E1D8E18A21F8EFE
:1051C0001AA219A24AE0B20188E190E00E94743369
:1051D000F20101900020E9F73197AF014419550918
:1051E000B201CE014D960E94211B62EB71E0C2011B
:1051F0000E94421B49A15AA16D8D7E8DC2010E9461
:10520000F51A811103C0C2010E94471846E050E020
:1052100065EB71E0C2010E94F51A811103C0C20161
:105220000E9447181CA21BA21EA21DA218A61FA204
:1052300069817A816115710531F04D815E81CE0100
:1052400083960E94211BC2010E945918CE014D96DF
:105250000E945918F5E27F1609F462C4F7150CF4A0
:1052600051C323E2721609F4F4C484E2781609F4F7
:10527000EEC3CE0183960E945918CE0189960E94F2
:105280005918CE018F960E945918CE0143960E945C
:105290005918CE01C5960E94591880912304909107
:1052A000240497FD1CC00E94C1090E94C1095C989A
:1052B0006091C90370E090E080E00E948E095C9AE2
:1052C0008091230490912404019790932404809367
:1052D000230463E274E08AE190E00E940D2181EFF3
:1052E00095E00E94E71B25E0222E3FE0F32E49E0E7
:1052F000E42E52E1D52E6BE1C62E74E2772EEDE25C
:105300006E2E8DEC99E090933F0680933E06309090
:10531000E60391E039124AC080910A01882309F41A
:1053200046C78CEA96E00E947C1030926E0600938D
:105330006F0640911F0450912004609121047091E8
:10534000220421E030E08DEE95E00E94F9186FE133
:1053500074E082E090E00E94C91D0E940C14A3E258
:10536000A0936E06B2E2B0936F0661EE75E08DEE2B
:1053700095E00E94DC090E94081400936E06EFE29B
:10538000E0936F0640910B0450910C0460910D0462
:1053900070910E0430E020E08DEE95E00E94F91847
:1053A0006BE074E08EE090E00E94C91D3090E6034F
:1053B000F2E03F124AC08091E303882309F4FAC661
:1053C0008CEA96E00E947C1010936E0630926F0675
:1053D00040911304509114046091150470911604C7
:1053E00021E030E08DEE95E00E94F91863E174E071
:1053F00088E090E00E94C91D0E940C1423E22093D3
:105400006E0682E280936F066BED75E08DEE95E09F
:105410000E94DC090E94081430926E069FE290936D
:105420006F064091FF035091000460910104709158
:10543000020430E020E08DEE95E00E94F9186FEF55
:1054400073E084E190E00E94C91D8091E6038330FF
:1054500009F0C9C080910D018111EDC680ED98E081
:105460000E947C10F0926E0610926F068BE492E020
:105470000E94B417609109018DEE95E00E94BC185E
:10548000F0926E06E0926F0680E392E00E94B417FD
:10549000F0926E06D0926F0685E192E00E94B417FA
:1054A000F0926E06C0926F068AEF91E00E94B417E8
:1054B000F0926E0670926F068EED91E00E94B41726
:1054C000F0926E0660926F0685ED91E00E94B4172F
:1054D000F0926E0696E3392E30926F068AEC91E0D8
:1054E0000E94B41780910801813009F066C60093CC
:1054F000E20310920701809107019091E2039093DB
:105500006E0680936F0667EE75E08DEE95E00E9463
:10551000DC098091F1034D9902C00C941133811183
:105520000AC00E94C1096093ED037093EE0380935B
:10553000EF039093F00310920B014D9B52C08091AA
:10554000E1038F5F8093E103803509F04CC08091C7
:105550000801813009F062C680930B019091090126
:10556000913009F458C68093090180910801833075
:1055700049F410930B011093080184E18093E00338
:105580000E94FC1D80910801843049F410930B01A6
:105590001093080182E38093E0030E94FC1D809138
:1055A0000801853049F410930B011093080184E63B
:1055B0008093E0030E94FC1D80910801863039F43D
:1055C00010930B011093080184E08093E60380910F
:1055D0000801873031F410930B01109308011093E8
:1055E000E6031092E1038091E603843009F092C053
:1055F00080ED98E00E947C1010936E0610926F066A
:1056000080EC91E00E94B41762EB71E08DEE95E0C2
:105610000E94D81930E020E040E050E060EC71E4F6
:105620008DEE95E00E94F91865EB71E08DEE95E046
:105630000E94D8196091DE037091DF038DEE95E032
:105640000E94C31810936E06E0926F0682EB91E001
:105650000E94B41740912D0450912E0460912F04A4
:105660007091300422E030E08DEE95E00E94F91850
:1056700010936E06D0926F0684EA91E00E94B417F0
:105680004091DA035091DB036091DC037091DD03FC
:1056900022E030E08DEE95E00E94F91810936E063E
:1056A000C0926F0687E991E00E94B4174091D6033B
:1056B0005091D7036091D8037091D90322E030E074
:1056C0008DEE95E00E94F91810936E0670926F06A9
:1056D00089E891E00E94B4176091D5038DEE95E0C2
:1056E0000E94BC1810936E0660926F068BE791E0E3
:1056F0000E94B4176091D4038DEE95E00E94BC180F
:105700004D9BA1C58091D3038F5F823309F496C569
:105710008093D3038091E603853009F07FC0ADEC20
:10572000B9E0B0933F06A0933E068CEA96E00E9453
:105730007C10E0926E068EE1382E30926F066091FA
:10574000D2038DEE95E00E94BC1889E791E00E949B
:10575000B4176091D1038DEE95E00E94BC1887E7E5
:1057600091E00E94B4176091D0038DEE95E00E9405
:10577000BC1885E791E00E94B4176091CF038DEECD
:1057800095E00E94BC1880ED98E00E947C1080910A
:10579000F603811163C5F0926E0610926F068FE6D4
:1057A00091E00E94B41762EB71E08DEE95E00E94EB
:1057B000D81930E020E040E050E060EC71E48DEE7C
:1057C00095E00E94F91865EB71E08DEE95E00E947E
:1057D000D8196091DE037091DF038DEE95E00E9491
:1057E000C3188CE080936E0688E080936F0686E491
:1057F00091E00E94B41786E080936E06D0926F0607
:1058000089E191E00E94B4174D9B25C58091D30397
:105810008F5F843609F41AC58093D30381EF95E036
:105820000E94BD1B81116DCD80E090E0892B09F4B1
:1058300008CA0E94860A882309F401CA0E9400004F
:10584000FEC9BFEFEB1AFB0AFA8EE98EA7016AE3E5
:10585000CE01C5960E949C1A97FD27C09C8F8B8F06
:105860002B8D3C8DA701BE016B5C7F4FC2010E9456
:10587000531B8B899C890097E9F069817A816115B6
:105880007105B1F04D895E892D813E814217530724
:1058900078F00E94223A8D819E81988F8F8B1E8294
:1058A0001D82C2010E9459183BCCDC8ECB8ED8CF12
:1058B0000E94B83889819A819C8B8B8B8B819C81CB
:1058C0009E8B8D8B8D819E81988F8F8B1A821982F2
:1058D0001C821B82E4CF4F89588DCE018F960E9487
:1058E000211B32CCC2010E94531B89819A810097EF
:1058F00029F00E9444337CAF6BAF5BCC60E070E07A
:10590000CB01F9CF9DE2791609F473C0AFE37A16A3
:10591000A9F1BAE27B12ADCC8091C403882309F4CB
:10592000A8CC64E572E0CE0189960E94B81A88235B
:1059300009F49FCC8BAD9CAD019709F09ACC60E641
:1059400072E08EE394E00E94D81969EC71E08EE376
:1059500094E00E94D8196091F6038EE394E00E94CF
:10596000BC1889E390E3A0E0B0E08093C503909376
:10597000C603A093C703B093C80364C06CEB71E087
:10598000CE0189960E94B81A882309F472CC62EC81
:1059900071E08EE394E00E94D8196091F6038EE3E3
:1059A00094E00E94BC186BEC71E08EE394E00E94DE
:1059B000D819BE016D5D7F4F8EE394E00E94DC0933
:1059C0006091DE037091DF038EE394E00E94C318C0
:1059D00069EC71E08EE394E00E94D81921E030E098
:1059E0004AE959E969E170E48EE394E00E94F9180C
:1059F00040CC60ED71E0CE0189960E94B81A8823F0
:105A000009F437CC8091DE039091DF03439664E183
:105A100070E00E94EE376D5F7F4F81E291E0689FFA
:105A20009001699F300D789F300D11248BAD9CAD96
:105A30002817390709F01DCC64ED71E08EE394E07E
:105A40000E94D8190E9464210E941F1D12CC6EED85
:105A500071E0CE0189960E94B81A882309F409CC16
:105A60008BAD9CAD092E000CAA0BBB0B4091C5035E
:105A70005091C6036091C7037091C80384179507BE
:105A8000A607B707B1F51093C40385E08093F6032A
:105A900066EF73E089E290E00E944C21EFEFF0E7BF
:105AA00022E0E150F0402040E1F700C0000064EE49
:105AB00071E08EE394E00E94D8196091F6038EE3C2
:105AC00094E00E94BC186BEC71E08EE394E00E94BD
:105AD000D819BE016D5D7F4F8EE394E00E94DC0912
