:100000000C945D080C9445230C941E230C948508D5
:100010000C9485080C9485080C9485080C9485082C
:100020000C9485080C9485080C9485080C9485081C
:100030000C9485080C9485080C9485080C9485080C
:100040000C94D4220C9485080C9492230C946C2369
:100050000C9485080C9485080C9485080C948508EC
:100060000C94C4230C9485084E414E494E49545972
:10007000494E46CDCCCC3D0AD7233C17B7D1387773
:10008000CC2B329595E6241FB14F0A000020410089
:1000900000C84200401C4620BCBE4CCA1B0E5AAED3
:1000A000C59D74D09AD090D09DD090D09B202D200B
:1000B00000D09AD090D09BD086D091D0A0D09ED0A6
:1000C00092D09AD09000204C2E0000000000230017
:1000D00026002900D097D090D09BD098D0A8D09857
:1000E000D09BD09ED0A1D0AC20D0A1D09FD0A0D00A
:1000F0009ED091202D20004944202D2000D092D068
:1001000092D095D094D086D0A2D0AC20D09FD09061
:10011000D0A0D09ED09BD0AC00D097D092D095D01C
:10012000A0D09DD086D0A2D0ACD0A1D0AF20D0940A
:10013000D09E20D092D098D0A0D09ED091D09DD0EB
:1001400098D09AD09000D09FD0A0D098D0A1D0A223
:10015000D0A0D086D09920D097D090D091D09BD0ED
:100160009ED09AD09ED092D090D09DD09E21004912
:1001700044202D200020002000200036202D204487
:100180005245425F32203D200035202D204452450B
:10019000425F31203D200034202D204B5F4F5554CD
:1001A000203D200033202D204B5F494E5F32203D03
:1001B000200032202D204B5F494E5F31203D200032
:1001C00031202D20564552203D2000D092D098D08D
:1001D000A5D086D09400D086D09DD0A4D09E00D04B
:1001E0009AD090D09BD086D091D0A0D09ED092D0E3
:1001F0009AD09020313030D0BB2E00D09AD090D001
:100200009BD086D091D0A0D09ED092D09AD0902072
:100210003530D0BB2E00D09AD090D09BD086D091D4
:10022000D0A0D09ED092D09AD090203230D0BB2E89
:1002300000D09AD090D09BD086D091D0A0D09ED024
:1002400092D09AD090203130D0BB2E00D09AD0904E
:10025000D09DD090D09B202D2000000000002400D5
:1002600027002A0000000000250028002B000404BD
:10027000040404040404020202020202030303034E
:10028000030301020408102040800102040810202A
:100290000102040810200000000800020100000311
:1002A0000407000000000000000012000303040423
:1002B0000304060C0D00FE0BFD0BFE000000000009
:1002C000F2200500C4122A0A566E353491494601BF
:1002D0002B1499479871481C1287040FC238240EBA
:1002E000894382002C0943B532128A04002D072469
:1002F0005D1387002E0622C612042F0ED5B5736A31
:1003000031B5604C2DA61604300EB8C55434914456
:10031000C88F12918C04310AB5C57492C348A61FC8
:100320003211B8C554A5C94426964E8534DA707A80
:10033000083311B8C534A5C9442696D1E544DAC4BA
:1003400046023412B9C5945346896C2213A9890E0A
:1003500007AA5C043510B8C51417B1F2653416D37A
:100360000EA312003612B8C554B4892848965046D8
:100370004546894846023710B8C51487B0742A9D8F
:100380004AA7D2C521003811B8C5349651B134A25C
:10039000892442C6D288043912B8C55434914448DD
:1003A0002C4DCE629A483223013A0882C612740854
:1003B0000100000004FFFF00001200040405050412
:1003C00005071B1F00FB19F919FB000000000207BD
:1003D0002006002054022A21AE71B7CE9051444825
:1003E0000D19672810A1070F841019648EC4B0215D
:1003F000A388100B1408002B33B43E14A77830E206
:10040000C18807231E8C7830E2C18807231E8CC860
:10041000070F548A07231E8C7830E2C18807231EF9
:100420008C7830E2C188072312002C1027E95A4A41
:10043000113244C8901943CD20002D07A9E45DC2B4
:100440000F2E08A52C54C203052F238BAB7BE2385B
:100450007203C75137701CB981E3C80D1C47DDC05A
:1004600071E4068EA36EE038720307023022312752
:100470009C96D174ABCA5455841C117224CAE97F6E
:1004800057821C1172444A95A96A5DCA5300311201
:100490002B2F9C5AA133281EAC4872A858FDFF038D
:1004A000321C31279C9A49658CDC143251AC44B122
:1004B000C2B52D6BD43E2D6AED831F203323302B24
:1004C0009C9641456D5C182A51AC6C59A2C6D29DD0
:1004D0004498B8DAB2CA345B54C40D2B75A7003403
:1004E0002833239CE6E1B348B3245192444122E5EA
:1004F0008A9423538C50A942A548152A55885899A7
:10050000077F10B678BD01352531279CC2939F1413
:10051000AE13436E9E183251AC4439D2852B26510E
:100520008E44B11286CAB869B5F01800362C31274E
:100530009C9A49658CDC9829628A48B11265CD96EF
:10054000295422C91334254E2DDB598962254C9537
:100550003853C6113385A700371E302B9CC21F901D
:10056000ADB46CA5658B962D6AB46CD1B2458D1671
:10057000355AD4D28200382831279CD639464F5E6E
:10058000982A514E5D0972444A9569964E599B428C
:1005900046C89128A777AB4C3C79B4F01400392CAD
:1005A00031279CD641658CDC143251CA44B112C546
:1005B0007675A2D089074152142A53D6DA12C58A19
:1005C000903252C65023662A8D013A0B45365CC2E2
:1005D00003F5903E5000000004FFFF00006002029F
:1005E000020303010104040500000500050000FDED
:1005F00001ED02D72006EC3C9F002107EC8CB4B142
:10060000042207EC4C6A73012309EC4C4AAB5A15DF
:10061000002408EC5C5C5A2D002509EC4C8A4AA6A3
:100620000C012608EC5C8E4B47002707EC6CD45C71
:10063000002807EC6C5DA3042908EC4C46B9CC00FB
:100640002A08EC4C8A7156092B07EC3C8C33132C8E
:1006500007EC3C5794002D06EC3CB9192E07EC3CF6
:100660005B4A002F08EC6C8E3966003008EC5C4C5D
:100670003D23003107EC5CD44D003208EC8C46B1D0
:100680005E003308EC8C4651A7053408EC4CEAB503
:1006900013003508ECCCCA1A25093608EC9CCAAB05
:1006A0005A003707ECCC2E73043808ECCCAA56B5A8
:1006B000003908ECCCAA7692003A08EC8CD4584A5F
:1006C000003B08EC8CD45494003C08EC6C1B659403
:1006D000003D08EC3CDA7043003E08EC4C4619C57E
:1006E0001A3F08ECCC8E1A47004008EC9CAA6446DE
:1006F0000A4108ECCCAA5617004208ECCCAA644A7E
:100700000B4307ECCCCAF5024408EC8C4CBD24002A
:100710004508ECCCCA2B2F004608ECCCCA2B67004E
:100720004708ECCCCAA9B5004808EC4C6AAD2E00CD
:100730004907ECCCCCE5024A07EC6CAEAA054B08A5
:10074000EC4C6AC9D4024C07EC4C6E2F004D08ECFF
:100750004C4AAB2F004E07ECCCEA2F004F07ECCCF5
:10076000EA6B015008ECCCAA56CE005107ECCCEA5B
:10077000D20A5208ECCCAA646A015308ECCCCA3BFA
:100780002D005407ECCCCC4D005507EC4CEAD702B9
:100790005607EC4CEA67045708EC4CEAB52A0058B7
:1007A00008EC4C4A33AE0A5908EC4C6ACD1C015A8D
:1007B00007ECCC8EF5025B07EC9CCCB5025C09EC37
:1007C0004CCE286794005D07EC8C6E4A005E07EC07
:1007D0005C4C990B5F06EC3CAF056007EC5CD65CAB
:1007E000006108EC3C9AAA5A006207EC4C5E5D0B73
:1007F0006308EC3C5A392F006407EC6C5A5D0B65BA
:1008000008EC3C5A955C006608EC9CCA32670067AD
:1008100008EC3C5AA55A006807EC4C5E7D0169075C
:10082000EC3CCC4D006A07EC3CAEAA056B09EC4CE5
:100830004E49CA94006C06EC8CEE046D08EC3CAAA0
:100840005617006E07EC3C5A7D016F07EC3C5A5D71
:100850000B7008EC3C5AD5CA007108EC3C5AD54ED6
:10086000007207EC3C5AED0C7308EC3C5A5A2D0010
:100870007408EC5C9C392B007507EC3CEA6B017644
:1008800007EC3CEA33027708EC3CEA5A150078089A
:10089000EC3C2A734C097907EC3CEA54127A08ECD8
:1008A0003C9A4A2E007B08EC9C8C3A2B007C06EC90
:1008B0005CEE047D08EC8CCE324A007E07EC3CD224
:1008C0009A017F07EC9CCCA50400000004FFFF0008
:1008D00000D50002020304030404050800FF06FF1C
:1008E0000600011A0231032F2005007E0321073183
:1008F0006333520022079B6E93AC00230D3D625779
:10090000A634543554991200240A3D629B57BD53B6
:10091000DA112508AB6613536700260A3C621753A9
:10092000B36AA6002705196F332807B262A79A0198
:100930002908B2621353A5002A0A2C6213931A499C
:10094000C5002B0A2D629B511C32A3082C079B5E0D
:10095000A74A002D060C6A33022E079B5E975602AB
:100960002F0834625FB633003008B36257B92A00EB
:100970003107B36297646B320A3462A7624E2A8FE2
:1009800000330A34623362D4482605340A34621BC9
:100990005535624E00350A346233F446322900364A
:1009A0000A3462A7F28A322900370A34623372CCE1
:1009B000314700380A3462A76252512605390A3499
:1009C00062A7A24C3B29003A07AA6233E2083B081F
:1009D000B35E672355023C07B3629BCA5C3D081CAB
:1009E0006633321A013E08B36293CB54023F09B317
:1009F00062D74C192600400C455E2BA35C49255953
:100A0000430541093462A7A21C5306420A3462B36B
:100A1000E248518E0443093462A7A22E930244098E
:100A20003462B3A27324004509346233F4CA7904F2
:100A30004609346233F4CA3500470A3462A7A24E2D
:100A40003329004809346213E59866004907B36208
:100A5000B3626B4A09346237735546004B093462FE
:100A6000135592A9334C08346293BB47004D0934A7
:100A70006213C711CD004E09346213D75867004F77
:100A8000093462A7A2332900500A3462B3A21C2998
:100A9000670051093C5EA7A25C6E14520A3462B32F
:100AA000A21C29CA00530A3462A762CAA84C0A547D
:100AB00008B362B362170055083462133D930256BF
:100AC000093462139D492A005709346213CD71C459
:100AD00000580A34621365922ACA00590B35629392
:100AE00075AA33CA28025A09346233726C8F005BCC
:100AF00007B3623362735C0A34629333CA28A31C5F
:100B00005D07B362339B235E069372D7005F060CCA
:100B10005E33026006927213036108246237A24CAE
:100B200003620A346293F38A7224006307A3623774
:100B3000B300640934625F8D28D30065082462A77E
:100B4000D2C80A660934625B9533470067092C5E98
:100B5000A762DA49016809346293F38A660069087A
:100B6000B3629791AC066A09BB5E9B61A92A006BD0
:100B700009346293CB91A20C6C07B36223BB066D60
:100B8000092562A35A2AA9026E072462B3A2196F2B
:100B9000082462A7A24C0A70092C5EB3E24839030C
:100BA00071082C5E3762DA057208246293929D0107
:100BB0007307A36237F202740A346297E3CC2926E2
:100BC000007507246213CD347607A36293AC0A77CD
:100BD0000925629355525D007808246213935431BD
:100BE000790A2C5E13651A3129007A08246233626F
:100BF00039027B0B3C62AB324A1AC58C047C05314E
:100C000063737D0C3C62A351CC48659424007E073D
:100C1000147297540200000004FFFF04010A3462BA
:100C200033F4CA790404020B3C5E33B34CED9800F4
:100C300004030934623374370004040B3462A7E2FE
:100C4000CC31290004050B3462A762CAA84C0A04FF
:100C50000608B362B3626B040708B362B3626B0445
:100C600008093462DF96490104090C356227534CA8
:100C7000AA52C902040A0D356293628A23552A5981
:100C800000040B09346233B34C3D040C0B34621383
:100C90005592329501040D06007E03040E0AB362DC
:100CA00093AC324500040F0ABB5E93BC464A000475
:100CB000100A3462A7A21C530604110B3462B3F26B
:100CC0008A72240004120B3462B3E248518E040489
:100CD0001309346233A46E0304140A3C5EA7FA6B52
:100CE000C80004150A346233F4CA790404160C35BA
:100CF000629392AA56A5922A04170B3462A7628DBA
:100D000064520004180A346213AD91A40C04190C47
:100D10003C6213938A6A242903041A0B3462135524
:100D200092A99401041B093462ABFA2503041C0A3E
:100D3000346213C711CD00041D0A346213E59866AE
:100D400000041E0A3462A7A2332900041F0934627A
:100D500033A4670004200B3462B3A21C296700048B
:100D6000210A3462A7A22E9302042209B362B3625D
:100D7000170004230A346213CDB4470204240B3550
:100D8000629B57A5AA1D0104250AB3629354999248
:100D90000A04260A3C5E93FAD7C801042709B36205
:100DA00093AC240B04280D356293924A2AA9A4D24D
:100DB0001804290E3D5E93924A2AA9A4D2D8280489
:100DC0002A0D3562B351463AC5141500042B0B3574
:100DD0006293F55449A519042C0AB36213A34A6A15
:100DE00001042D0B3462B351DA792400042E0D3541
:100DF00062135335924A2AC904042F0B346237A276
:100E00004C23CA00043009246237A24C0304310B7E
:100E10003462A7F28A3229000432092462B3561CD4
:100E200009043308A3623362090434092C5EB792C3
:100E30001C330435092462A7D2C80A04360A256285
:100E400093AA55A902043708A362B3E4020438093F
:100E5000246213D5483204390B346213938A6A240E
:100E600019043A09246213476A06043B082462AB5A
:100E70005A32043C0A256293D74AAA00043D092449
:100E80006213C79401043E092462A7A24C0A043FDE
:100E900008246233A41904400A2C5EB3A21C29035F
:100EA000044108A36237B300044208A362B3620599
:100EB00004430A2C5E13652A4B0004440BBB5E23DB
:100EC000AB91464A00044509246213935431044609
:100ED000092C5E13CDA10304470924621365DA01CE
:100EE00004480B256293924A2A8D0104490C2D5E19
:100EF00093924A2A8D8D02044A092462A3654A0A04
:100F0000044B09246213971A29044C09246293574D
:100F10001C09044D08A36223E502044E0A246293CF
:100F2000925A2A01044F08A362B7D20A04510B3423
:100F30006293325669640504520B3C5E176796292A
:100F4000C70404530934625B0E5D03045408A362B2
:100F5000375216045509246237341A0A045609B365
:100F6000629791AC06045709B36293B2AC06045879
:100F70000ABB5E9B61A92A0004590A256227D3484F
:100F8000C902045A0A256293E2489505045B0A34B3
:100F900062176796A901045C093462DB1CA9190475
:100FA0005D06007E03045E0B3C5E1393865559027A
:100FB000045F0AAB5E93AC91120004900834623F68
:100FC000761B0491082C623F760D04920A3462B7B6
:100FD000E2CC25000493092462B7E28C0004960E4B
:100FE0003D5E9392AA56A592AA510004970B2D5EDE
:100FF00093AA55A91A05049A0D3D5E1353A953AC43
:10100000724601049B0B2D5E13D34CB1860104AED6
:101010000C35629375AA33CA280204AF0B2D5E9378
:10102000539D51461104B00C35629375AA86CC28A5
:101030000204B10B2D5E93533564461104B20BBC10
:101040005E939A39A6360A04B30A2D5E13A3963529
:101050000C04BA0A346293F38A660004BB0AB362D2
:1010600013A34A560004D80B3462A7621E3329002A
:1010700004D9092462A7474A0A04E209BB62B357AC
:10108000AC0604E308B362B3653504E80B3462A729
:10109000E29832290004E9092462A7864C0A04EE8A
:1010A0000B3C6233328ACEA40004EF0A346233323E
:1010B0008A661A000000DF240C3311241FBECFEF14
:1010C000D8E0DEBFCDBF26E0AAE0B3E001C01D92AC
:1010D000A637B207E1F713E0A0E0B1E0ECE1F4E7F6
:1010E00002C005900D92AA30B107D9F718E0CCE5FF
:1010F000D8E004C02197FE010E94EE37CB35D1071E
:10110000C9F70E94CE250C94013A0C940000662386
:1011100029F06A3019F0862F90E008958FEF9FEF45
:1011200008950F93CF93DF93DC01ED91FC915089EB
:10113000362F3770E0E8F0E002C0F595E7953A9574
:10114000E2F73E2FA52FB0E0FC01C0ADD1AD669512
:1011500066956695E62FF0E0549FE00DF11D112491
:10116000EC0FFD1FEC01C758DF4F011116C088813D
:10117000823018F49081932B90838881813019F00C
:10118000908193279083369511F4319630E8215061
:1011900071F7DF91CF910F9108958881823018F413
:1011A0009081932B90838881813019F090819327CF
:1011B0009083EA0FFB1F215081F7EBCF80E0089569
:1011C00080E00895833081F028F4813099F08230F6
:1011D000A9F008958730A9F08830C9F08430B1F4BF
:1011E000809180008F7D03C0809180008F778093F5
:1011F0008000089584B58F7784BD089584B58F7D70
:10120000FBCF8091B0008F778093B00008958091DC
:10121000B0008F7DF9CF1F93CF93DF93282F30E05D
:10122000F901EA56FD4F8491F901EE57FD4FD49133
:10123000F901E259FD4FC491CC23A9F0162F811179
:101240000E94E208EC2FF0E0EE0FFF1FEC59FD4F7B
:10125000A591B4918FB7F894EC91111108C0D09575
:10126000DE23DC938FBFDF91CF911F910895DE2B9A
:10127000F8CFCF93DF9390E0FC01EE57FD4F249120
:1012800082599D4FFC0184918823D1F090E0880F12
:10129000991FFC01E65AFD4FA591B491FC01EC5950
:1012A000FD4FC591D491623071F49FB7F8943C9191
:1012B000822F809583238C93E8812E2B28839FBFD8
:1012C000DF91CF9108958FB7F894EC912E2B2C934A
:1012D0008FBFF6CF3FB7F89480913A0490913B04CA
:1012E000A0913C04B0913D0426B5A89B05C02F3FBA
:1012F00019F00196A11DB11D3FBFBA2FA92F982F3C
:101300008827BC01CD01620F711D811D911D42E036
:10131000660F771F881F991F4A95D1F708958F92FE
:101320009F92AF92BF92CF92DF92EF92FF926B01AA
:101330007C010E946A094B015C01C114D104E104E3
:10134000F104B9F00E946A09681979098A099B09B0
:10135000683E73408105910580F321E0C21AD108EF
:10136000E108F10888EE880E83E0981EA11CB11CEC
:10137000E4CFFF90EF90DF90CF90BF90AF909F9021
:101380008F9008952FB7F8946091360470913704C8
:1013900080913804909139042FBF08958B589F4F46
:1013A000FC0180818F5F089508950895DC01ED911F
:1013B000FC910190F081E02D0994DB0114964D9190
:1013C0005C9115976D917C91DC01ED91FC9102800F
:1013D000F381E02D0994AF92BF92CF92DF92EF920A
:1013E000FF920F931F93CF93DF936C017B018B01CF
:1013F000040F151FEB015E01AE18BF08C017D1071F
:1014000059F06991D601ED91FC910190F081E02DA8
:10141000C6010995892B79F7C501DF91CF911F91FD
:101420000F91FF90EF90DF90CF90BF90AF90089515
:10143000FC01538D448D252F30E0842F90E0821BDA
:10144000930B541710F0CF96089501970895FC015F
:10145000918D828D981761F0A28DAE0FBF2FB11DB7
:101460005D968C91928D9F5F9F73928F90E008950F
:101470008FEF9FEF08950F931F930E94C20960930F
:1014800046047093470480934804909349048EE384
:1014900094E00E94270A97FF1DC00E94C209009194
:1014A0004604109147042091480430914904601B80
:1014B000710B820B930B0091420410914304209115
:1014C0004404309145046017710782079307F8F2CE
:1014D0008FEF9FEF1F910F910895FC01918D828DE9
:1014E000981731F0828DE80FF11D858D90E00895F9
:1014F0008FEF9FEF0895FC01918D228D892F90E051
:10150000805C9F4F821B91098F73992708958EE30A
:1015100094E00E947B0A21E0892B09F420E0822FCD
:10152000089580E090E0892B29F00E94870A8111BC
:101530000C9400000895FC01A48DA80FB92FB11DD3
:10154000A35ABF4F2C91848D90E001968F739927F9
:10155000848FA689B7892C93A089B1898C918370D7
:1015600080648C93938D848D981306C00288F389D0
:10157000E02D80818F7D80830895EF92FF920F93FD
:101580001F93CF93DF93EC0181E0888F9B8D8C8D2F
:1015900098131AC0E889F989808185FF15C09FB723
:1015A000F894EE89FF896083E889F98980818370E6
:1015B000806480839FBF81E090E0DF91CF911F9195
:1015C0000F91FF90EF900895F62E0B8D10E00F5FB6
:1015D0001F4F0F731127E02E8C8D8E110CC00FB68C
:1015E00007FCFACFE889F989808185FFF5CFCE0124
:1015F0000E949B0AF1CFEB8DEC0FFD2FF11DE35AFA
:10160000FF4FF0829FB7F8940B8FEA89FB898081A6
:101610008062CFCFCF93DF93EC01888D8823B9F020
:10162000AA89BB89E889F9898C9185FD03C08081ED
:1016300086FD0DC00FB607FCF7CF8C9185FFF2CF6A
:10164000808185FFEDCFCE010E949B0AE9CFDF911B
:10165000CF91089520917A03260F3327331F21322B
:101660003105ECF420919E03FC0190E080E02430F1
:1016700069F082E00895A0917A032191AC01465A65
:101680005C4FA40FB52FB11D2C930196861798F3CC
:1016900080917A03680F60937A0380E0089581E077
:1016A000089508958FEF9FEF08958FEF9FEF0895AE
:1016B0008091530390E09195819591090895CF937E
:1016C000DF93CB01EA01642F0E942A0BCE01DF9148
:1016D000CF910895CF93DF931F92CDB7DEB7698383
:1016E00061E0CE0101960E942A0B81E090E00F900C
:1016F000DF91CF910895DC011A96ED91FC9130E0D5
:1017000020E00994DC011696ED91FC9130E020E098
:1017100040E069E10994DC011696ED91FC9130E01E
:1017200020E040E068E109949A01DC011696ED9111
:10173000FC91462F67E10994EF92FF920F931F935C
:10174000CF93DF931F92CDB7DEB77C018B01D80119
:101750006C91673129F150F46531A0F40F90DF915D
:10176000CF911F910F91FF90EF9008956A3118F17A
:101770006E3FA1F7F8014181498369E2C7010E94E8
:101780007B0B0BC0F80141814983D7011696ED917F
:10179000FC9130E020E0C70109950E5F1F4FD7CFC5
:1017A000F80181818983AE014F5F5F4F61E0C7011E
:1017B0000E94940BF2CF0F5F1F4FD7011696ED9149
:1017C000FC9130E020E040E0C7010995C0CF462FF2
:1017D000DC011696ED91FC9130E020E065E1099482
:1017E000AF92BF92CF92DF92EF92FF920F931F932F
:1017F000CF93DF93EC01693089F481E491E0998320
:1018000088831C8A81E0DF91CF911F910F91FF9017
:10181000EF90DF90CF90BF90AF90089579016B303B
:1018200009F440C06F3009F444C080E06A3059F7D1
:10183000EA85FB8530E020E040E068E2CE010995D2
:10184000EE81FF8130E020E040E064E1CE010995C7
:1018500041E06BE4CE010E947B0BE881F981448179
:1018600069E2CE010E947B0B40E06BE4CE010E9456
:101870007B0BE881F981448169E2CE010E947B0BF8
:1018800041E06BE4CE010E947B0BE881F981458148
:1018900069E2CE010E947B0B6EE271E0CE010E94F4
:1018A0009C0BB0CF67E271E04423C1F36CE171E0BF
:1018B000F5CFF9010481000F000F000F1381169579
:1018C000003210F00052185FCE010E948B0BF7011E
:1018D000A080B1806EE3CE010E94E70B6EE3CE01E3
:1018E0000E94E70BD12C1068602F6D0D6068CE014F
:1018F0000E94E70B612FCE010E94E70BF701C28027
:10190000A5016C2DCE010E94940BAC0CB11CD3949C
:10191000F8E0DF12E9CFCE010E94820B73CF9A016B
:10192000DC011896ED91FC91462F67E10994CF9365
:10193000DF931F92CDB7DEB76983AE014F5F5F4F74
:1019400061E00E948F0C0F90DF91CF910895CF92AC
:10195000DF92EF92FF920F931F93CF93DF93EC01EF
:10196000142F79016631C1F130F4643149F06531E9
:10197000A9F080E040C0673109F446C06A31C8F779
:10198000E885F9859701412FCE01DF91CF911F9115
:101990000F91FF90EF90DF90CF90099468EF0E9435
:1019A000970C41E06CE2CE010E947B0B612F607FBF
:1019B000CE010E94970C41E06CE2CE010E947B0BAD
:1019C000612F6295607FCE010E94970C41E06CE22E
:1019D000CE010E947B0B0EC068EF0E94970C612F16
:1019E000607FCE010E94970C612F6295607FCE01CF
:1019F0000E94970C81E0DF91CF911F910F91FF9092
:101A0000EF90DF90CF9008956AEF0E94970C41E02D
:101A10006CE2CE010E947B0BDE2CCF2C012F083014
:101A200008F5012F069506950695D12E88EF089F9B
:101A3000D00C1124E8E00E9F800111240E0D1F1D13
:101A4000DD2021F2F801F1908F016F2D607FCE0132
:101A50000E94970C6F2D6295607FCE010E94970CBB
:101A6000DA94EECFA3E4B3E0ED2DFC2D9F01285FC7
:101A70003F4F8191982F907F9C938295807F119604
:101A80008C9311971296E217F30799F7DE2ECF2E5B
:101A9000085043E453E060E1CE010E948F0CBFCFB9
:101AA000FC016623D9F16A30C9F1808D811125C00E
:101AB0006C3F48F085E0808F617070E0738B628BC3
:101AC0002EEF3FEF29C0683F20F084E0808F6370E5
:101AD000F4CF603F20F083E0808F6770EECF603EF0
:101AE00020F082E0808F6F70E8CF262F30E0603CDE
:101AF00098F081E0808F6F71E0CF8150808F2289D4
:101B0000338996E0220F331F9A95E1F76F73262BE6
:101B1000338B228B8111D4CFC90108952FEF3FEF72
:101B2000FBCF0F93DC01DE963C91DE97431BD496EE
:101B3000ED91FC9109950F910895CF93DF93FC01EE
:101B4000A081B18182AD982F990F990F990F95AF10
:101B500050969C915097903208F09FE1990F990F01
:101B6000990F94AF23AD922F990F990F990F96AFBC
:101B700051963C915197682F620F7727771F361740
:101B8000170614F4832F821B97AFEF01C05CDF4F61
:101B9000880F880F880F890F8883219680EF8883AC
:101BA00054968D919C915597813F910508F48883B7
:101BB000EE5BFF4F56968C918083DF91CF91089515
:101BC0000F93FC01EB5BFF4F30813196508145173D
:101BD00030F4301738F0041728F080E013C03017C5
:101BE000D0F3FBCFFC01ED5BFF4F30818C5B9F4F4F
:101BF000FC018081681740F481E0321718F081E021
:101C0000261758F70F9108953217C8F3E6CF2F9291
:101C10003F924F925F926F927F928F929F92AF927C
:101C2000BF92CF92DF92EF92FF920F931F93CF93C9
:101C3000DF93EC014C0183E4880E911CF4011082C7
:101C4000329720805E01F4E4AF0EB11CF5012082D2
:101C50003FAC6E01F5E4CF0ED11CF6013082359712
:101C600040807E01F6E4EF0EF11CF70140823496CD
:101C70001081329760803196708032975080012FAA
:101C8000262D472D652DCE010E94E00DCD58DF4F4A
:101C9000811114C01882DF91CF911F910F91FF9095
:101CA000EF90DF90CF90BF90AF909F908F907F90FC
:101CB0006F905F904F903F902F90089581E08883C0
:101CC000552011F0F4015082621410F4F501608285
:101CD000371410F4F60170821415E8F6F70110833A
:101CE000DACF0F93DC01802FFD01ED58FF4F90817B
:101CF0009923E9F12223D9F1223020F0023079F53D
:101D00006F5F621B082F0170FD0180FD32C0EB5B2D
:101D1000FF4F8081481758F131968081481738F578
:101D20003297908131978081260F2617F0F469173A
:101D3000D8F42FEF290F8217D0F4681708F4682F12
:101D4000291708F4922F961BD696ED91FC91D79700
:101D50000480F581E02D292FCD01099508C00330BD
:101D600089F64F5F421BCECF682F691720F30F9182
:101D70000895ED5BFF4F80816817C8F3319680812D
:101D80006817A8F73296908131978081240F241725
:101D900078F4491760F42FEF290F821740F748179E
:101DA00008F4482F291708F4922F941BCDCF482F01
:101DB0004917E8F6F2CF0F93909136066917A0F015
:101DC00090913706691780F490913406891760F076
:101DD00090913506891740F4462F682F00E021E0E6
:101DE00081EF95E00E94710E0F910895FF920F937D
:101DF0001F93CF93DF93F82ED62F142FC22F00FFFF
:101E00000CC0622F6D1B842F8F0D0E94DB0E6C2F78
:101E10006F198D2F810F0E94DB0E01FF0CC06C2FFC
:101E20006D1B812F8F190E94DB0E6C2F6F19812F74
:101E30008D1B0E94DB0E03FF0CC06C2F6D0F812FDA
:101E40008F0D0E94DB0E6C2F6F0D8D2F810F0E9466
:101E5000DB0E02FF11C06C2F6D0F812F8F190E94B6
:101E6000DB0E6C2F6F0D812F8D1BDF91CF911F919A
:101E70000F91FF900C94DB0EDF91CF911F910F918A
:101E8000FF900895CF92DF92EF92FF920F931F93EE
:101E9000CF93DF93F82EE62EC42E08E0060F28E03D
:101EA000280F49EF460F69EF680F81EF95E00E9418
:101EB000E00D8823D1F00C2D2E2D4F2D67E080E012
:101EC0000E94F60EC0E017E082EFD82EDAEFCF5F67
:101ED0008C2F880F8F5FD80F0C2D2E2D4F2D612F3B
:101EE0008C2F0E94F60EC11748F0DF91CF911F9101
:101EF0000F91FF90EF90DF90CF900895D7FDE7CF3F
:101F00001150D394D394DD0DE2CF0F931F93CF9351
:101F1000DF93C82F2BE1280F0BE34CE1682F81EFF3
:101F200095E00E94E00D8823C9F117E01C0FD3E172
:101F3000DC0F42E063E2812F0E94420F41E063E246
:101F40008D2F0E94420F44E063E3812F0E94420FD5
:101F500048E063E38D2F0E94420FD8E0DC0F00E0E1
:101F60002BE04CE16D2F81EF95E00E94710E2BE08C
:101F70004AE36D2F81EF95E00E94710E01E02FE0A2
:101F800044E26C2F81EF95E00E94710E6AE16C0FC4
:101F90002FE044E281EF95E00E94710EDF91CF9136
:101FA0001F910F910895213039F020F0223031F047
:101FB000840F0895860F0895841B0895861B089545
:101FC000213039F020F0223031F0861B0895840F43
:101FD0000895860F0895841B08955F926F927F92F3
:101FE0008F929F92AF92BF92CF92DF92EF92FF9229
:101FF0000F931F93CF93DF935C01162F642EEC0198
:10200000C15BDF4FDC80ED804C0189E7880E911CBD
:10201000FE80FD18C12EF11608F4CF2C5B800C85D4
:10202000202F4E2D6D2D8A810E94D30F782E202FC8
:102030004E2D6D2D852D0E94E00F482F662071F0EA
:102040008A85F40180832C2D672DC5010E94710EB5
:102050001F1548F01F19E394D12CDACF898581111F
:10206000F7CF8B85EECF1D0D1C83ED82DF91CF91D5
:102070001F910F91FF90EF90DF90CF90BF90AF90A6
:102080009F908F907F906F905F900895DC011896DD
:102090004C911897ED91FC911197249130E0042E0A
:1020A00002C0359527950A94E2F7842F860F883071
:1020B00068F031961196FC93EE93E49198E0941BAE
:1020C00001C0EE0F9A95EAF72E2B885018968C9344
:1020D0008FEF9FEF01C0880F6A95EAF78095822302
:1020E0000895FC01E60FF11D849190E0982F882758
:1020F0003196E4918E0F911D0895CF93DF93209137
:102100003C0630913D062817390709F490C0EC01D0
:1021100090933D0680933C06FC01849180934D068C
:102120003196E491E0934E06FE013296E491E093FD
:102130004F06FE013396E491E0935006FE0134967B
:10214000E491E0935106FE013596E491E093520646
:10215000FE013696E491E0935306FE013796E49132
:10216000E0935406FE013896E491E0935506FE0193
:102170003996E491E0935606FE013A96E491E09395
:102180005706FE013B96E491E0935806FE013C960B
:10219000E491E0935906FE013D96E491E0935A06DE
:1021A000FE013E96E491E0935B06FE013F96E491CA
:1021B000E0935C06FE017096E491E0935D0661E1B8
:1021C000CE010E94711090935F0680935E0663E1DA
:1021D000CE010E947110909361068093600665E1C4
:1021E000CE010E94711090936306809362068091E5
:1021F0003C0690913D06892BD1F080915A06809340
:10220000660640915B0640936706909165069923A8
:1022100071F0913079F490915C06891714F49093E1
:10222000660680915D06841714F480936706DF913B
:10223000CF9108953091570620915906082E000C31
:10224000990B622F022E000C770B630F711D37FD67
:102250007A95861797071CF4320F30936606241779
:1022600034F720936706E3CF6F927F928F929F920D
:10227000AF92BF92CF92DF92EF92FF920F931F9394
:10228000CF93DF93EC01062F142F7901FC01E55A5F
:10229000FF4F8081813009F445C0D0F1823009F4CC
:1022A0004BC0833009F452C0FE01EF5AFF4F008348
:1022B0003196108337978081918147962FEFE216F0
:1022C000F10411F008F0E6C0E1E6EE16F10408F4BE
:1022D00047C0FE01E159FF4F20813181820F931FDA
:1022E0009C012F5F3F4FF9014491411142C0712C75
:1022F000872DDF91CF911F910F91FF90EF90DF908D
:10230000CF90BF90AF909F908F907F906F900895E7
:10231000FE01E35BFF4F0190F081E02DCE010995B6
:10232000180FC2CFFE01E35BFF4F0190F081E02D5B
:10233000CE010995081BB8CFFE01E35BFF4F01906A
:10234000F081E02DCE010995181BAECFFE01E35BB5
:10235000FF4F0190F081E02DCE010995080FA4CF29
:10236000F1E4EF16F10408F4BBCFFE01E359FF4F8F
:10237000B3CFFC0144914E151F0409F086C00296AC
:10238000009709F4B4CF7E01FFE4EF0EF11CF701D2
:1023900091838083108671966081C7010E944610E8
:1023A000F701868372966081C7010E944610A82EAD
:1023B000F70187836E01F9E7CF0ED11CF6019081FA
:1023C000F701928781E0911180E0F7018387FE0198
:1023D000EE59FF4FB0806B2DC7010E944610882E2A
:1023E000FE01ED59FF4F1081612FC7010E94461079
:1023F000982EFE01EC59FF4F0081602FC7010E940B
:102400004610015041E050E09A0101C0220F0A95A8
:10241000EAF7782E721AF701068110160CF068CFD1
:10242000BA94CA0101C0880FBA94EAF7881AB48432
:102430009A0C115001C0440F1A95EAF7F42FF919BC
:102440009F2E2B2D4F2F682DF70182810E94D30FD5
:10245000182FF70182832B2D492D682D83810E942F
:10246000E00FF7018383F1E0BF1609F47CC0BF16CB
:1024700008F43FC022E0B21609F47BC093E0B9161D
:1024800009F482C0082F212F38C0F9012491820F4E
:10249000911D26CFFE01EF58FF4F00811181080FDB
:1024A000191F680160E0C6010E947110080F191F12
:1024B00062E0C6010E947110F4E0CF0ED11C8E15AF
:1024C0009F0580F3F801849190E0982F882731963A
:1024D000E4918E2B009709F40ACFE816F90619F457
:1024E000C80103964DCFF8013296E4910E0F111DED
:1024F000E9CF202F210F082F0A0D482F612FCE0181
:102500000E94E00D882309F4F3CEF70114821582AE
:102510008E01025A1F4F4E01FFE58F0E911CF801EC
:102520006081C7010E944610682EF4016081C701D6
:102530000E944610B82E40E0662DCE010E94ED0F9D
:1025400041E06B2DCE010E94ED0F61E0C7010E94BA
:1025500046108111F0CFF70185818A1504F3828539
:10256000F6018083C5CEBA1821E0210F080F1B0D9C
:10257000C4CF91E0392F301B21E0210F9A1901E0DF
:10258000080F890F130FB9CF212F2A0D982F901BF9
:1025900001E0080F81E0890FB0CFEF92FF921F9307
:1025A000CF93DF93109209068DE7E82E81E0F82E95
:1025B00010E0D2E2C2E3F70161917F01E091F305FF
:1025C000F091F40581EF95E009958F3F9807F1F0C0
:1025D0008E3F2FEF920779F39C014D2F6C2F81EFE7
:1025E00095E00E94341190914C06913049F030F002
:1025F000923041F0933041F0180FDDCFC80FFCCF7F
:10260000D80FFACFC81BF8CFD81BF6CF812FDF9198
:10261000CF911F91FF90EF900895CF93DF93EC013E
:102620006BAFEEA9FFA90190F081E02D0995EEA90D
:10263000FFA90280F381E02DCE01DF91CF910994B3
:10264000AF92BF92CF92DF92EF92FF920F931F93C0
:10265000CF93DF9300D000D01F92CDB7DEB78C01AF
:10266000DC01DA96AC90DA97DB96EC90DB97ED9193
:10267000FC91B188FE2CD12CC12CD801ED91FC919C
:1026800011978089D8962D913C911C82FD828B8375
:10269000B8E08B9FC00111248C9DA0018D9D500D31
:1026A0009C9D500D1124240F351F3A832983D80196
:1026B0001496ED91FC919E012F5F3F4F41E06FE03A
:1026C000C8010995F3948F2D8E198A1528F4BFEF50
:1026D000CB1ADB0AFB1488F20F900F900F900F902B
:1026E0000F90DF91CF911F910F91FF90EF90DF90AE
:1026F000CF90BF90AF9008950F931F93CF93DF9328
:10270000EC01862F642F8C3208F03AC08A3208F030
:1027100060C0883209F44BC0893209F460C080344B
:1027200008F475C0982F9F73FE01E90FF11D868D87
:102730008F3F09F44EC0903108F436C0282F30E0A6
:10274000F901EA56FD4F8491F901EE57FD4F0491CE
:10275000F901E259FD4F1491112379F081110E9482
:10276000E208E12FF0E0EE0FFF1FE653FF4FA591C7
:10277000B491EC910E2381E009F480E0898F29C0A7
:102780008D3299F108F4CBCF94EB980F923008F08A
:10279000C6CF8F73C80FD11D8E8D411134C061E03B
:1027A0000E94390960E08E8D0E940B0912C08E01D3
:1027B000025E1F4FD0E0F80181918F018F3F31F011
:1027C00061E0D03108F062E00E943909DF5FD63164
:1027D00091F781E0DF91CF911F910F91089570E003
:1027E00090E080E00E948F09F4CF85E090E04330D4
:1027F00010F082E090E0880F991F880F991F0597CD
:102800000197F1F7E6CF62E00E943909E2CF80E05C
:10281000E1CF8AEA92E00C947D108DED95E00C9466
:102820007D108F929F92AF92BF92CF92DF92EF92E4
:10283000FF920E94C2096093F2037093F3038093A6
:10284000F4039093F503289A8091E603823019F0FF
:1028500082E08093E6030E94C2096B017C018091B3
:102860003E0390913F03A0914003B0914103B70113
:10287000A601481B590B6A0B7B0B8091D60390E095
:10288000B0E0A0E084179507A607B70708F041C19C
:1028900080910001811172C060913A0370913B03F5
:1028A00080913C0390913D0320E030E040E85FE3FD
:1028B0000E94AF3660933A0370933B0380933C03CE
:1028C00090933D036091DC037091DD038091DE0302
:1028D0009091DF0320E030E040E85FE30E940135A3
:1028E000811117C160913A0370913B0380913C03C1
:1028F00090913D0320E030E040E85FE30E94AF3676
:1029000060933A0370933B0380933C0390933D03A1
:102910006091130470911404809115049091160431
:1029200020E030E040E85FE30E94AF36609313049C
:102930007093140480931504909316046091FF0320
:1029400070910004809101049091020420E030E035
:1029500040E85FE30E94AF366093FF03709300048A
:1029600080930104909302048091230490912404A5
:102970000A969093240480932304CBC06091DC03D7
:102980007091DD038091DE039091DF0320E030E061
:1029900040E85FE30E94BC3718160CF093CF6091BB
:1029A0000E0170910F01809110019091110120E0B2
:1029B00030E040E85FE30E94AF3660930E01709311
:1029C0000F0180931001909311016091F7037091B2
:1029D000F8038091F9039091FA0320E030E040E899
:1029E0005FE30E94AF366093F7037093F803809320
:1029F000F9039093FA03609131047091320480914D
:102A000033049091340420E030E040E85FE30E941A
:102A1000AF36609331047093320480933304909303
:102A2000340460910E0170910F018091100190911A
:102A300011012091DC033091DD034091DE035091C0
:102A4000DF0380900F0490901004A0901104B090C8
:102A500012040E941B37A50194010E94AF366093B7
:102A600013047093140480931504909316046091DA
:102A7000F7037091F8038091F9039091FA03209184
:102A8000DC033091DD034091DE035091DF03809041
:102A9000FB039090FC03A090FD03B090FE030E9406
:102AA0001B37A50194010E94AF366093FF0370931A
:102AB00000048093010490930204609131047091AA
:102AC000320480913304909134042091DC033091DE
:102AD000DD034091DE035091DF0380902904909044
:102AE0002A04A0902B04B0902C040E941B3720E0F5
:102AF00030E04AE754E40E946735A50194010E9442
:102B0000AF36609325047093260480932704909336
:102B10002804C0923E03D0923F03E0924003F0921B
:102B2000410380911201882309F447C06091DC03BE
:102B30007091DD038091DE039091DF0320E030E0AF
:102B400040E85FE30E94BC371816BCF5609125048D
:102B500070912604809127049091280420E030E0B1
:102B600046EC52E40E94BC3787FD27C080912304C5
:102B700090912404019690932404809323046091FF
:102B8000250470912604809127049091280420E068
:102B900030E048EC52E40E94AE3660932904709312
:102BA0002A0480932B0490932C04109231041092E9
:102BB00032041092330410923404FF90EF90DF90AF
:102BC000CF90BF90AF909F908F9008958F929F92DB
:102BD000AF92BF92CF92DF92EF92FF920E94C20912
:102BE0006093F2037093F3038093F4039093F503DF
:102BF000289A8091E603813019F081E08093E60302
:102C00000E94C2096B017C018091360390913703C9
:102C1000A0913803B0913903B701A601481B590BA5
:102C20006A0B7B0B8091D70390E0B0E0A0E08417A3
:102C30009507A607B707D0F480910001811127C03E
:102C40006091320370913303809134039091350386
:102C500020E030E040E85FE30E94AF36609332034B
:102C6000709333038093340390933503C0923603FB
:102C7000D0923703E0923803F0923903FF90EF903F
:102C8000DF90CF90BF90AF909F908F90089560910C
:102C90002D0470912E0480912F049091300420E037
:102CA00030E040E85FE30E94BC3718160CF08EC09D
:102CB00060911704709118048091190490911A047E
:102CC00020E030E040E85FE30E94AF3660931704F5
:102CD000709318048093190490931A04609103046C
:102CE00070910404809105049091060420E030E086
:102CF00040E85FE30E94AF366093030470930404DE
:102D0000809305049093060460913104709132041D
:102D1000809133049091340420E030E040E85FE398
:102D20000E94AF3660933104709332048093330471
:102D300090933404609117047091180480911904E1
:102D400090911A0420912D0430912E0440912F046B
:102D50005091300480901B0490901C04A0901D049E
:102D6000B0901E040E941B37A50194010E94AF364B
:102D700060931F0470932004809321049093220495
:102D800060910304709104048091050490910604FD
:102D900020912D0430912E0440912F045091300445
:102DA0008090070490900804A0900904B0900A0451
:102DB0000E941B37A50194010E94AF3660930B045B
:102DC00070930C0480930D0490930E0460912D0475
:102DD00070912E0480912F049091300420E030E017
:102DE00040E85FE30E940135811140CF60913203DA
:102DF00070913303809134039091350320E030E0EB
:102E000040E85FE30E94AF36609332037093330370
:102E1000809334039093350360911F0470912004D4
:102E2000809121049091220420E030E040E85FE3AB
:102E30000E94AF3660931F04709320048093210496
:102E40009093220460910B0470910C0480910D0406
:102E500090910E0420E030E040E85FE30E94AF363E
:102E600060930B0470930C0480930D0490930E04F4
:102E700080912304909124040A96909324048093D3
:102E80002304F4CECF92DF92EF92FF920F931F9321
:102E9000CF93DF936C01EB017B01E40EF51E10E094
:102EA00000E0CE15DF0561F06991D601ED91FC914E
:102EB0000190F081E02DC6010995080F191FF1CF8F
:102EC000C801DF91CF911F910F91FF90EF90DF909C
:102ED000CF900895CF92DF92EF92FF920F931F93BE
:102EE000CF93DF93EC016C0124E0C20ED11CFC01F6
:102EF000E158FF4F0190F081E02DC60109958E3F0A
:102F0000EFEF9E07C8F48E010E571F4F7E01F1E8C8
:102F1000EF0EF11C9C01F8014081F7016081C601B0
:102F20000E943411C15ADF4F98819130A9F078F096
:102F30009230A1F09330B9F081E090E0DF91CF9131
:102F40001F910F91FF90EF90DF90CF900895F701C0
:102F50009081890F8083F0CFF801FACFF70190813B
:102F6000981B892FF7CFF801FACF0F931F93CF93B8
:102F7000DF938C01D0E0C0E0F801EC0FFD1F6491FD
:102F8000662341F08DEE95E00E946A17892B11F0BF
:102F90002196F2CFCE01DF91CF911F910F9108952D
:102FA00090E080E008951F93CF93DF9385ED8093A9
:102FB000BC008091560390915703A0915803B091A3
:102FC00059030796A11DB11D23E0B695A7959795C6
:102FD00087952A95D1F72091BC0024FD03C010925B
:102FE0009E0352C04091560350915703609158037D
:102FF00070915903452B462B472B69F30097A10588
:10300000B10541F02AE22A95F1F700C00197A10924
:10301000B109E1CF80915503C1E0C09354038823E7
:1030200099F1D091B8001091BA008091BC008A7BD0
:103030008093BC0060E082E10E940B0960E083E1C4
:103040000E940B0910929E03C093A00310929F034D
:1030500061E082E10E940B0961E083E10E940B09BB
:103060008091B9008E7F8093B9008091B9008D7FE7
:103070008093B90088E48093B80085E48093BC0015
:103080001093BA00D093B800DF91CF911F910895AB
:10309000CF93DF93EC0188819981009711F00E9412
:1030A0009038198218821D821C821B821A82DF913D
:1030B000CF910895FC0180819181009711F00C94CB
:1030C00090380895FB0101900020E9F73197AF0196
:1030D000461B570BDC01ED91FC910280F381E02D42
:1030E00009948F929F92AF92BF92EF92FF920F93AB
:1030F0001F93CF93DF93CDB7DEB7A1970FB6F894A8
:10310000DEBF0FBECDBF7C01FA01CB0119A2223078
:1031100008F42AE08E010F5D1F4F822E912CB12CF6
:10312000A12CBF01A50194010E943B36F901CA01FF
:103130006A300CF5605DD8016E938D01232B242B32
:10314000252B79F790E080E0109721F0BD01C701B1
:103150000E946218A1960FB6F894DEBF0FBECDBFD5
:10316000DF91CF911F910F91FF90EF90BF90AF90A3
:103170009F908F900895695CDECF462F50E070E0FD
:1031800060E02AE00C947118CF92DF92EF92FF92E8
:103190000F931F93CF93DF936B01770FEE08FF0818
:1031A000F7FE1BC0EC016DE20E94D6098C0144279A
:1031B0005527BA014C195D096E097F092AE0CE0135
:1031C0000E947118800F911FDF91CF911F910F9175
:1031D000FF90EF90DF90CF9008952AE0B701A6010D
:1031E000DF91CF911F910F91FF90EF90DF90CF90E3
:1031F0000C9471184F925F926F927F928F929F9270
:10320000AF92BF92EF92FF920F931F93CF93DF93F2
:103210008C014A015B01E22EAB019401CB01B401A8
:103220000E94C13768E871E0811126C02401350190
:10323000E89477F82FEF3FEF4FE75FE7C301B20164
:103240000E94C13781110CC02FEF3FEF4FE75FE7BE
:10325000C301B2010E9401356CE871E0181664F0F8
:103260002FEF3FEF4FE75FE4C501B4010E94BC3789
:1032700018169CF460E971E0C801DF91CF911F91AD
:103280000F91FF90EF90BF90AF909F908F907F90A5
:103290006F905F904F900C9462182FEF3FEF4FE7C5
:1032A0005FECC501B4010E94013587FDE3CF20E04A
:1032B00030E0A901C501B4010E940135D0E0C0E0B1
:1032C00087FF09C06DE2C8010E94D609EC01B7FA78
:1032D000B094B7F8B094FE2C712C60E070E080E000
:1032E0009FE37E1440F420E030E040E251E40E948D
:1032F0001B377394F6CFA50194010E94AF364B01A2
:103300005C010E948D372B013C012AE0BC01A20127
:10331000C8010E947118C80FD91FEE20D1F1C30156
:10332000B2010E9406359B01AC01C501B4010E94A7
:10333000AE364B015C016EE2C8010E94D609C80F8F
:10334000D91FFA948FEFF81621F120E030E040E227
:1033500051E4C501B4010E9467352B013C010E9474
:103360008D374B01B12CA12C2AE0B501A401C80175
:103370000E947118C80FD91FC501B4010E940635FB
:103380009B01AC01C301B2010E94AE364B015C014E
:10339000D8CFCE01DF91CF911F910F91FF90EF9089
:1033A000BF90AF909F908F907F906F905F904F9065
:1033B00008950C9462180F931F93CF93DF93EC0141
:1033C000683109F46EC058F46431F9F0F9016731DD
:1033D00081F080E0DF91CF911F910F9108956931C5
:1033E00009F49CC06032A9F76AE4CE010E947B0B0D
:1033F00056C0442309F453C081918EBD00000DB422
:1034000007FEFDCF8EB54150F4CFE881F9818C8560
:103410009D85AE85BF85892B8A2B8B2B41F48085BA
:103420009185A285B3858C879D87AE87BF874181B3
:1034300069E4CE010E947B0BCFB7F89480914203E0
:10344000811127C0E8E7F2E08491ECE8F2E0949182
:10345000E82FF0E0EE0FFF1FE65AFD4FA591B49163
:10346000EC91E92321F461E08AE00E940B0961E01C
:103470008AE00E9439098CB580618CBD8CB580646E
:103480008CBD61E08DE00E94390961E08BE00E9413
:103490003909809142038F5F80934203CFBF81E05F
:1034A00099CFE881F981E485E15090E0E33020F4A0
:1034B000F0E0E75EFE4F90810C851D852E853F85EF
:1034C00040E052E16AE770E080E004171507260744
:1034D000370740F476956795579547958F5F863007
:1034E000A1F787E09C709065282F2695922B8095F8
:1034F00081709CBD8DBDE881F981408169E4CE0178
:103500000E947B0BA881B981EA85FB8530E020E031
:1035100012964C916CE2CE010995C1CFA881B98178
:10352000EA85FB8530E020E013964C916CE209952A
:10353000E881F981418169E458CFCF93DF93FC01A1
:10354000248135814217530788F4C081D181062E2A
:10355000000C770BCE01840F951F0E94E63900976F
:1035600029F08C1B9D0BDF91CF9108958FEF9FEF7A
:10357000FACFFC0124813581232B39F421E0FB01B2
:103580008081882349F020E007C0808191810E94DA
:10359000F13921E0892BB9F7822F08950F931F93FA
:1035A000CF93DF93EC0188819981009759F02A81AC
:1035B0003B812617370730F081E0DF91CF911F91D3
:1035C0000F9108958B016F5F7F4F0E94193900970B
:1035D00059F0998388831B830A832C813D81232B97
:1035E00059F7FC011082E8CF80E0E7CFEF92FF921D
:1035F0000F931F93CF93DF936115710541F480E022
:10360000DF91CF911F910F91FF90EF900895411599
:103610005105B1F07B01EC010C811D81040F151FD8
:10362000B8010E94CE1A882351F3288139818C81F8
:103630009D81B701820F931F0E94FA391D830C836D
:1036400081E0DECFEF92FF920F931F93CF93DF9332
:10365000EC017B018A01BA010E94CE1A81110BC0D4
:10366000CE010E944818CE01DF91CF911F910F919A
:10367000FF90EF9008951D830C83B7018881998195
:103680000E94FA39F0CFFC0111821082138212825B
:1036900015821482FB0101900020E9F73197AF01F8
:1036A000461B570B0C94221BAF92BF92CF92DF9216
:1036B000EF92FF920F931F93CF93DF937C016B01E7
:1036C0005A0189012417350720F48B2D5901042F45
:1036D000182F6AE971E0C7010E94431BD6011496B6
:1036E000CD91DC91AC16BD0620F50C171D0708F432
:1036F000E801D601ED91FC911197EC0FFD1F1081AF
:1037000010826D917C916A0D7B1D61157105E9F048
:10371000FB0101900020E9F73197AF01461B570BE1
:10372000C7010E94221BF60180819181C80FD91F19
:103730001883C701DF91CF911F910F91FF90EF90F8
:10374000DF90CF90BF90AF900895C7010E944818B6
:10375000EACFFC01A081B18150962C9182AD38E076
:10376000839FC0011124289FA001299F500D11247F
:1037700070E060E080AD91AD0C94DF391F93CF9382
:10378000DF93EC010E9420131BAD8AAD180FE88176
:10379000F9818189181768F0EC81FD8130E020E023
:1037A00040E060E1CE01099580E0DF91CF911F916B
:1037B0000895FE01E658FF4F8081882319F0CE015D
:1037C0000E94A91B612FCE010E940D1381E0EDCF55
:1037D000CF93DF93EC01FC01E658FF4F80818823F3
:1037E00019F0CE010E94A91B60E0CE01DF91CF91BC
:1037F0000C940D13CF93DF93EB010E942536888341
:10380000CE01DF91CF9108950F931F93CF93DF9354
:103810008C01EB010E9425368883C80101960E9425
:1038200025368983CE01DF91CF911F910F910895A5
:10383000CF93DF93EB010E9425368883CE01DF9181
:10384000CF910895CF92DF92EF92FF920F931F9343
:10385000CF93DF93EB017B0124E0E20EF11C8B019F
:103860006C01C61AD70AC601800F911F0E94253627
:10387000F80181938F01EE15FF05A9F7CE01DF91C5
:10388000CF911F910F91FF90EF90DF90CF9008950F
:10389000CF93DF936FE174E082E090E00E94221CFE
:1038A00080911F0490912004A0912104B0912204E2
:1038B00080931B0490931C04A0931D04B0931E04DA
:1038C00063E174E088E090E00E94221C8091130480
:1038D00090911404A0911504B091160480930F04E4
:1038E00090931004A0931104B09312046BE074E061
:1038F0008EE090E00E94221C80910B0490910C04B9
:10390000A0910D04B0910E048093070490930804D5
:10391000A0930904B0930A046FEF73E084E190E090
:103920000E94221C8091FF0390910004A091010449
:10393000B09102048093FB039093FC03A093FD03DA
:10394000B093FE0363E274E08AE190E00E94041CFD
:103950008EE190E00E942536C5ECD3E088838FE1AC
:1039600090E00E942536898380E290E00E9425360F
:103970008A8381E290E00E9425368B836EEC73E0AF
:1039800083E290E00E94181C6DEC73E084E290E00A
:103990000E94181C6CEC73E085E290E00E94181CF9
:1039A0006BEC73E086E290E00E94181C67ED73E018
:1039B00087E290E00E94181C66ED73E088E290E0D8
:1039C0000E94181C66EF73E089E290E00E94181CC8
:1039D00066EE73E08AE290E00E94181C6FEC73E0E0
:1039E0008BE290E00E94041C69EC73E080E390E0BD
:1039F0000E94181C6CE071E085E390E00E94FA1BC5
:103A00006AE071E086E390E00E94FA1B63EE73E0E7
:103A100087E390E00E94FA1B68ED73E089E390E091
:103A20000E94221C6DE274E08EE390E00E94221C52
:103A30006CED73E083E490E0DF91CF910C94221C55
:103A400086EE95E1909302018093010180916900D7
:103A50008C7F826080936900E89A81E194E1909381
:103A600004018093030180916900837F88608093C3
:103A70006900E99AE091F505F091F60530E020E063
:103A800040E06AE081EF95E0099581EF95E00E94C2
:103A9000E81B81EF95E00E94BE1B8111FACF60E028
:103AA00081EF95E00E940D13E091F505F091F60588
:103AB00030E020E040E06BE081EF95E0099580E5A3
:103AC0009DE090936D0680936C06E0914E04F0911A
:103AD0004F0482E08083E0914A04F0914B0410820D
:103AE000E0914C04F0914D048FEC808310925604C9
:103AF000E0915204F091530486E08083E0915004F9
:103B0000F0915104808180618083E0915004F091B4
:103B10005104808188608083E0915004F0915104C9
:103B2000808180688083E0915004F091510480810D
:103B30008F7D808382E390E0A0E0B0E08093420438
:103B400090934304A0934404B093450452985A9A26
:103B500053985B9A549A5C9A84B184B9289A0C94CD
:103B6000481CFF920F931F93CF93DF93EC01F62E27
:103B700008811981C8010E942536F81621F06F2DA1
:103B8000C8010E942D36CE01DF91CF911F910F9178
:103B9000FF900895AF92BF92CF92DF92EF92FF9283
:103BA0000F931F93CF93DF9300D0CDB7DEB78B0178
:103BB0006B0124E0C20ED11C7B015C01A61AB70A7E
:103BC000C5018E0D9F1D9A838983F70161917F0145
:103BD000CE0101960E94B11DEC14FD0489F7C801C5
:103BE0000F900F90DF91CF911F910F91FF90EF9069
:103BF000DF90CF90BF90AF9008953F924F925F9229
:103C00006F927F928F929F92AF92BF92CF92DF92EC
:103C1000EF92FF920F931F93CF93DF9310921201B5
:103C20008091320390913303A0913403B091350316
:103C300010923A0310923B0310923C0310923D0302
:103C400080910901813009F059C180E090E0A0E83D
:103C5000BFE380932D0490932E04A0932F04B09380
:103C600030049EECC92E99E0D92E27E8A22E28E038
:103C7000B22E39E6332ED8E245E0942E12E051E31D
:103C8000F52E6BE1E62EC2E28091120181116DC228
:103C900081EF95E00E94E81B84E1882ED0923F06D8
:103CA000C0923E0680910901813009F045C04090E4
:103CB0003203509033036090340370903503609169
:103CC000E00370E090E080E00E9408359B01AC01C9
:103CD000C301B2010E941B3760932E0370932F0320
:103CE00080933003909331030E94091410936E0661
:103CF000F0926F0640913203509133036091340388
:103D00007091350330E020E08DEE95E00E94FA18C6
:103D10000E940D14E0926E06C0936F0640912E0330
:103D200050912F03609130037091310322E030E015
:103D30008DEE95E00E94FA1800910901023009F019
:103D400045C040903A0350903B0360903C03709014
:103D50003D036091E00370E090E080E00E94083550
:103D60009B01AC01C301B2010E941B3760932E037B
:103D700070932F0380933003909331030E940914B2
:103D800000936E06F0926F0640913A0350913B0308
:103D900060913C0370913D0330E020E08DEE95E0B2
:103DA0000E94FA180E940D14E0926E06C0936F06EE
:103DB00040912E0350912F03609130037091310395
:103DC00022E030E08DEE95E00E94FA180E940D147A
:103DD00010936E06C0936F0664E971E08DEE95E076
:103DE0000E94D919B092F405A092F3050E94CD1259
:103DF00030926E06C0936F066091E0038DEE95E001
:103E00000E94BD1886EC90E00E94B51781ED98E005
:103E10000E947D10D0936E0690926F0681EB90E029
:103E20000E94B517D0936E0680926F0683EA90E0E9
:103E30000E94B517609109018DEE95E00E94BD18B2
:103E400080910501882301F18091CA038E3138F5F4
:103E500000E024E14AE268E681EF95E00E94710EFD
:103E600022E14AE26AE181EF95E00E94710E8091C1
:103E7000CA038F5F8093CA038D3111F4109205013C
:103E80008091050181110BC08091CA03882339F00C
:103E900081508093CA03813011F48093050181EF32
:103EA00095E00E94BE1B8111F9CE4D9B10C0609120
:103EB000320370913303809134039091350320E0F5
:103EC00030E040E251E40E94BC3718163CF14D9BB3
:103ED00010C060913A0370913B0380913C03909134
:103EE0003D0320E030E040E251E40E94BC37181668
:103EF000ACF04D994FC11092D503C6CE823009F077
:103F0000B0CE80E090E0A0E8BFE38093DC03909324
:103F1000DD03A093DE03B093DF03A3CE80910901FC
:103F2000813009F08AC0C0903203D0903303E09012
:103F30003403F09035036091E00370E090E080E09E
:103F40000E9408359B01AC01C701B6010E941B37D6
:103F500060932E0370932F0380933003909331036B
:103F600060912E0370912F03809130039091310363
:103F700020E030E0A9010E94013581110CC080E0F1
:103F800090E0A0E8BFE380932E0390932F03A093CB
:103F90003003B09331036EE273E08EE390E00E9451
:103FA000CA1D8FE39CE90197F1F700C00000109251
:103FB000320310923303109234031092350310929F
:103FC0001704109218041092190410921A041092F7
:103FD000310410923204109233041092340410927F
:103FE0001F041092200410922104109222041092B7
:103FF0001B0410921C0410921D0410921E048FE3E7
:104000009CE90197F1F700C000006DE274E08EE3D7
:1040100090E00E94221C8FE39CE90197F1F700C019
:1040200000006FE174E082E090E00E94CA1D8FE31F
:104030009CE90197F1F700C00000809109018230EE
:1040400009F08AC0C0903A03D0903B03E0903C0353
:10405000F0903D036091E00370E090E080E00E940A
:1040600008359B01AC01C701B6010E941B37609364
:104070002E0370932F03809330039093310360914C
:104080002E0370912F03809130039091310320E033
:1040900030E0A9010E94013581110CC080E090E060
:1040A000A0E8BFE380932E0390932F03A0933003E7
:1040B000B09331036EE273E083E490E00E94CA1D86
:1040C0008FE39CE90197F1F700C0000010923A03DA
:1040D00010923B0310923C0310923D0310920E018C
:1040E00010920F01109210011092110110923104E0
:1040F000109232041092330410923404109213047C
:1041000010921404109215041092160410920F04C9
:104110001092100410921104109212048FE39CE983
:104120000197F1F700C000006CED73E083E490E0CC
:104130000E94221C8FE39CE90197F1F700C0000068
:1041400063E174E088E090E00E94CA1D8FE39CE97F
:104150000197F1F700C000001092E00381E0809326
:104160001201809300010E94201D81E08093E603EC
:10417000DF91CF911F910F91FF90EF90DF90CF9043
:10418000BF90AF909F908F907F906F905F904F9077
:104190003F9008958091D5038F5F8093D503843637
:1041A00009F072CD1092D503809109018130C1F4DC
:1041B00080E090E0A0E8BFE380932D0490932E046C
:1041C000A0932F04B09330046DE274E08EE390E08E
:1041D0000E94CA1D62E370E080E090E00E948F09B7
:1041E00080910901823009F0B7CF80E090E0A0E82B
:1041F000BFE38093DC039093DD03A093DE03B093D1
:10420000DF036CED73E083E490E00E94CA1D62E37B
:1042100070E080E090E00E948F099ECFEF92FF92C5
:104220000F931F93CF93DF9300D0CDB7DEB78C01F0
:104230007B019A838983FB016081CE0101960E94F4
:10424000B11D0F5F1F4F1A830983F7016181CE01F2
:1042500001960E94B11DC7010F900F90DF91CF9181
:104260001F910F91FF90EF9008950F931F93CF939D
:10427000DF9300D0CDB7DEB78B019A838983FB0132
:104280006081CE0101960E94B11DC8010F900F9070
:10429000DF91CF911F910F9108950F931F93CF93AB
:1042A000DF9300D0CDB7DEB78B019A838983FB0102
:1042B0006081CE0101960E94B11DC8010F900F9040
:1042C000DF91CF911F910F910895EF92FF920F937D
:1042D0001F93CF93DF93CDB7DEB76B970FB6F894EC
:1042E000DEBF0FBECDBF1D8A81E08E8B95E09F8B18
:1042F0009FE0988F94E1998F1C8A1B8A8A8F1B8E6E
:1043000019821A821B821C8280E090E0A0E8BFE341
:104310008D839E83AF83B88780E090E0A0E2B1E414
:1043200089879A87AB87BC8789E390E3A0E0B0E0F8
:104330008D879E87AF87B88BBE016F5F7F4F82E00E
:1043400090E00E94CA1D62E370E080E090E00E946D
:104350008F09BE016F5F7F4F88E090E00E94CA1D09
:1043600062E370E080E090E00E948F09BE016F5F21
:104370007F4F8EE090E00E94CA1D62E370E080E013
:1043800090E00E948F09BE016F5F7F4F84E190E053
:104390000E94CA1D62E370E080E090E00E948F09F5
:1043A000BE016D5E7F4F8AE190E00E940E2162E3C4
:1043B00070E080E090E00E948F097E018DE0E80EC1
:1043C000F11C0EE110E01A8B098BF70161917F015E
:1043D000CE0141960E94B11D0F5F1F4F02321105A1
:1043E00091F762E370E080E090E00E948F09BE01E7
:1043F0006B5E7F4F83E290E00E944D2162E370E0AC
:1044000080E090E00E948F09BE016B5E7F4F84E2E6
:1044100090E00E944D2162E370E080E090E00E9415
:104420008F09BE016B5E7F4F85E290E00E944D21B7
:1044300062E370E080E090E00E948F09BE016B5E55
:104440007F4F86E290E00E944D2162E370E080E0C1
:1044500090E00E948F09BE01685E7F4F87E290E086
:104460000E944D2162E370E080E090E00E948F099D
:10447000BE01685E7F4F88E290E00E944D2162E3BA
:1044800070E080E090E00E948F09BE01695E7F4F7E
:1044900089E290E00E944D2162E370E080E090E0CC
:1044A0000E948F09BE016A5E7F4F8AE290E00E94FF
:1044B0004D2162E370E080E090E00E948F09BE0130
:1044C000675E7F4F80E390E00E944D2162E370E0E1
:1044D00080E090E00E948F09BE01665E7F4F85E319
:1044E00090E00E94352162E370E080E090E00E945D
:1044F0008F09BE01665E7F4F86E390E00E94352102
:1045000062E370E080E090E00E948F09BE01655E8A
:104510007F4F87E390E00E94352162E370E080E006
:1045200090E00E948F09BE01655E7F4F88E390E0B6
:104530000E94352162E370E080E090E00E948F09E4
:10454000BE01675F7F4F89E390E00E94CA1D62E36E
:1045500070E080E090E00E948F09BE016B5F7F4FAA
:104560008EE390E00E94CA1D62E370E080E090E07C
:104570000E948F09BE016B5F7F4F83E490E00E9431
:10458000CA1D62E370E080E090E00E948F096B96A4
:104590000FB6F894DEBF0FBECDBFDF91CF911F9154
:1045A0000F91FF90EF9008951F920F920FB60F9208
:1045B00011242F933F938F939F93AF93BF93809139
:1045C000360490913704A0913804B09139043091A9
:1045D000350423E0230F2D3758F50196A11DB11D99
:1045E000209335048093360490933704A0933804C5
:1045F000B093390480913A0490913B04A0913C041B
:10460000B0913D040196A11DB11D80933A04909391
:104610003B04A0933C04B0933D04BF91AF919F91A4
:104620008F913F912F910F900FBE0F901F90189573
:1046300026E8230F0296A11DB11DD2CF1F920F9223
:104640000FB60F9211242F933F934F935F936F9365
:104650007F938F939F93AF93BF93EF93FF93E091DB
:104660000301F09104010995FF91EF91BF91AF9182
:104670009F918F917F916F915F914F913F912F917A
:104680000F900FBE0F901F9018951F920F920FB6AC
:104690000F9211242F933F934F935F936F937F93C8
:1046A0008F939F93AF93BF93EF93FF93E09101019B
:1046B000F09102010995FF91EF91BF91AF919F9108
:1046C0008F917F916F915F914F913F912F910F90BB
:1046D0000FBE0F901F9018951F920F920FB60F925A
:1046E00011242F933F934F935F936F937F938F93F7
:1046F0009F93AF93BF93EF93FF938EE394E00E9459
:104700009B0AFF91EF91BF91AF919F918F917F9104
:104710006F915F914F913F912F910F900FBE0F902E
:104720001F9018951F920F920FB60F9211242F937E
:104730008F939F93EF93FF93E0914E04F0914F047A
:104740008081E0915404F091550482FD1BC090815A
:10475000809157048F5F8F7320915804821741F026
:10476000E0915704F0E0E25CFB4F958F8093570493
:10477000FF91EF919F918F912F910F900FBE0F900E
:104780001F9018958081F4CF1F920F920FB60F9251
:1047900011242F933F934F935F936F937F938F9346
:1047A0009F93AF93BF93EF93FF938091B900887F5E
:1047B000803609F44AC0F0F5883209F4A5C018F52E
:1047C000803109F499C0B8F4882309F4F5C0883021
:1047D00009F492C0FF91EF91BF91AF919F918F919A
:1047E0007F916F915F914F913F912F910F900FBEED
:1047F0000F901F901895883109F486C0803251F7C8
:1048000080939D0314C0803409F49BC040F480332E
:10481000B9F38833F9F680939D0385ECAEC08035FB
:1048200009F483C0883509F494C0883499F60E944D
:10483000D317D0CF883909F48AC038F5883729F0E2
:1048400050F4883611F0803729F683E080939E0378
:1048500010929C0355C0883809F479C0803919F04A
:10486000803809F0B7CF80919C03803208F06FC088
:10487000E0919C0381E08E0F80939C038091BB00AC
:10488000F0E0E458FC4F80833BC0803B39F0D0F42B
:10489000803A09F477C0883A09F09CCF84E080938D
:1048A0009E0310927B0310927A03F0E0E0E00995FA
:1048B00080917A0381110FC081E080937A03109276
:1048C0005A0309C0803C09F4A8CF883C09F4A5CF5D
:1048D000883B09F07FCFE0917B0381E08E0F8093CE
:1048E0007B03F0E0E65AFC4F80818093BB009091FF
:1048F0007B0380917A0329C08091C3038093BB001E
:1049000085EC8093BC0066CF9091C2038091C10377
:10491000981758F5E091C20381E08E0F8093C2038F
:10492000F0E0EF55FC4F8081E9CFE091C20381E0D8
:104930008E0F8093C2038091BB00F0E0EF55FC4FD7
:1049400080839091C2038091C1039817C8F285E8D3
:10495000D8CFE091C20381E08E0F8093C203809193
:10496000BB00F0E0EF55FC4F80838091A0038111E4
:104970005ECF81E080939F0384EA8093BC00109215
:104980009E0328CF85EC8093BC0010929E038091FB
:104990009C03803230F4E0919C03F0E0E458FC4F3B
:1049A000108260919C0370E08CE793E0F0E0E0E01F
:1049B000099510929C030ECF10929D0338CFCF9390
:1049C000109241041092400488EE93E0A0E0B0E021
:1049D0008093420490934304A0934404B09345040D
:1049E0008DE591E090933F0480933E0485EC90E048
:1049F00090934B0480934A0484EC90E090934D0490
:104A000080934C0480EC90E090934F0480934E048C
:104A100081EC90E0909351048093500482EC90E0FC
:104A2000909353048093520486EC90E09093550445
:104A30008093540410925704109258041092590411
:104A400010925A041092F0051092EF0587E898E052
:104A500090936D0680936C0610926E0610926F060E
:104A6000109209068FE691E09093EE058093ED0594
:104A70001092F2051092F105109206061092FD05B3
:104A80001092FE051092FF05109200068FEF8093A2
:104A9000070680930B06EFE0F6E085E296E0CFEFA5
:104AA000C1938E179F07E1F780EF9BE09093F60587
:104AB0008093F50587EA9CE09093F8058093F705CD
:104AC0008BED99E19093FA058093F9058CE793E1DA
:104AD0009093FC058093FB0530E020E040E069E026
:104AE00081EF95E00E94F00B10923D0610923C067B
:104AF00081E998E090932606809325068BED94E05B
:104B000090932A068093290682E080932B061092C8
:104B10002C06109249061092690681E080936A067D
:104B200080936B0687E791E0909328068093270691
:104B300081EF95E00E949D0D1092380610923A0682
:104B4000C0933906C0933B06E0912706F0912806F2
:104B50000280F381E02D81EF95E0099580EE98E0E9
:104B600090933F0680933E0610924C068CE0809313
:104B70001806C0931A066BE971E087EE95E00E9473
:104B8000431B6EE971E081EE95E00E94431B68EAE9
:104B900071E08BED95E0CF910C94431BCF93DF93A5
:104BA000CDB7DEB7EC970FB6F894DEBF0FBECDBF22
:104BB000789484B5826084BD84B5816084BD85B5F8
:104BC000826085BD85B5816085BD80916E00816004
:104BD00080936E00109281008091810082608093AA
:104BE00081008091810081608093810080918000AC
:104BF0008160809380008091B10084608093B100D7
:104C00008091B00081608093B00080917A008460D0
:104C100080937A0080917A00826080937A008091FC
:104C20007A00816080937A0080917A008068809316
:104C30007A001092C1000E94201DCE0101962C0125
:104C400011E002E0609131047091320480913304EC
:104C50009091340420912D0430912E0440912F0422
:104C600050913004C0902904D0902A04E0902B0485
:104C7000F0902C040E941B3720E030E04AE754E417
:104C80000E946735A70196010E94AF366093250404
:104C90007093260480932704909328048091120136
:104CA000882309F447C060912D0470912E048091EF
:104CB0002F049091300420E030E040E85FE30E9450
:104CC000BC371816BCF560912504709126048091BC
:104CD00027049091280420E030E046EC52E40E9442
:104CE000BC3787FD27C0809123049091240401964E
:104CF00090932404809323046091250470912604EA
:104D0000809127049091280420E030E048EC52E4A0
:104D10000E94AE366093290470932A0480932B047A
:104D200090932C04109231041092320410923304A8
:104D30001092340460911F0470912004809121042A
:104D40009091220420E03CE34CE156E40E94BC3701
:104D500087FD1EC080911F0490912004A091210422
:104D6000B091220480911B0490911C04A0911D0419
:104D7000B0911E0410921704109218041092190496
:104D800010921A046FE174E082E090E00E94CA1D64
:104D9000609113047091140480911504909116048D
:104DA00020E03CE34CE156E40E94BC3787FD1EC086
:104DB0008091130490911404A0911504B0911604ED
:104DC00080910F0490911004A0911104B0911204ED
:104DD00010920E0110920F01109210011092110109
:104DE00063E174E088E090E00E94CA1D60910B04CA
:104DF00070910C0480910D0490910E0420EF33E229
:104E000044E759E40E94BC3787FD1EC080910B0423
:104E100090910C04A0910D04B0910E0480910704B0
:104E200090910804A0910904B0910A04109203041F
:104E30001092040410920504109206046BE074E0D2
:104E40008EE090E00E94CA1D6091FF037091000403
:104E5000809101049091020420EF33E244E759E489
:104E60000E94BC3787FD1EC08091FF039091000413
:104E7000A0910104B09102048091FB039091FC0386
:104E8000A091FD03B091FE031092F7031092F80376
:104E90001092F9031092FA036FEF73E084E190E04F
:104EA0000E94CA1D60912D0470912E0480912F04E0
:104EB0009091300420E030E040E85FE30E9401354B
:104EC000811105C08091F603811110920D0180912E
:104ED0000C01882309F4FBC04D991EC00E94C20931
:104EE000C090F203D090F303E090F403F090F50348
:104EF0006C197D098E099F0960367A4E81059105EE
:104F000058F00E94C2096093F2037093F3038093F8
:104F1000F4039093F50328984D9B0BC00E94C2099F
:104F20006093F2037093F3038093F4039093F5037B
:104F3000289A99B18091F103B92FB072FB2E95FD9B
:104F400002C00C949B3281110AC00E94C209609376
:104F5000ED037093EE038093EF039093F00381E0F1
:104F6000F11001C080E08093F1038091E503882374
:104F700091F10E94C209C090E903D090EA03E09049
:104F8000EB03F090EC036C197D098E099F096F3ECD
:104F9000724081059105F8F01092E5038091E703D6
:104FA0009091E8039C01225031092330310510F023
:104FB000069724F01092E8031092E7038091E7032C
:104FC0009091E803059739F41092E8031092E703F3
:104FD00083E08093E60380910B01882309F456C097
:104FE0004D9B90C08091E4038F5F8093E4038436EF
:104FF00009F04CC010921F0410922004109221045A
:105000001092220410921B0410921C0410921D0492
:1050100010921E0410921704109218041092190492
:1050200010921A046FE174E082E090E00E94CA1DC1
:105030006AE070E080E090E00E948F091092130413
:1050400010921404109215041092160410920F047A
:1050500010921004109211041092120410920E017A
:1050600010920F01109210011092110163E174E08F
:1050700088E090E00E94CA1D6AE070E080E090E065
:105080000E948F091092E4031093E6038EE394E0EC
:105090000E947B0A892B09F401C170909A010E9439
:1050A0003B0A97FF782E6AE971E0CE01C5960E940F
:1050B000431B0E943B0A97FD28C089831A8241E066
:1050C00050E0B201CE01C5960E94F61AF2CF2898A0
:1050D00030CF0093E60343CF8091E7039091E8033C
:1050E00001969093E8038093E7030E94C2096093BE
:1050F000E9037093EA038093EB039093EC0310931E
:10510000E5032DCF1092E403C1CF6AE971E0CE012F
:1051100043960E94431B8FEF9FEF9A8F898F9C8F3E
:105120008B8FEB8CFC8CC9ACDAACEC14FD0409F071
:1051300060C318AA1FA61AAA19AA1CAA1BAA6B89BF
:105140007C896115710509F09EC350E040E06DE374
:10515000CE018F960E949D1A7C019C0150E040E098
:10516000BE01615D7F4FCE0189960E94541BEFEF17
:10517000EE1AFE0ACBA8DCA8EC14FD04F0F4A7019B
:105180006EE2CE018F960E949D1A9601A701BE0184
:10519000615D7F4F97FD7EC3C2010E94541B8981D0
:1051A0009A81812C912C5401009721F00E94183390
:1051B0004B015C01C2010E945A181E8E1D8E18A25E
:1051C0001F8E1AA219A24AE0B20188E190E00E9463
:1051D0004C33F20101900020E9F73197AF014419F7
:1051E0005509B201CE014D960E94221B62EB71E07F
:1051F000C2010E94431B49A15AA16D8D7E8DC2013F
:105200000E94F61A811103C0C2010E94481846E0AC
:1052100050E065EB71E0C2010E94F61A811103C0F3
:10522000C2010E9448181CA21BA21EA21DA218A601
:105230001FA269817A816115710531F04D815E810E
:10524000CE0183960E94221BC2010E945A18CE01F1
:105250004D960E945A18F5E27F1609F439C4F715E5
:105260000CF428C323E2721609F4CBC484E2781646
:1052700009F4C5C3CE0183960E945A18CE018996BF
:105280000E945A18CE018F960E945A18CE0143965A
:105290000E945A18CE01C5960E945A188091230484
:1052A0009091240497FD1CC00E94C2090E94C2096B
:1052B0005C986091C90370E090E080E00E948F09E3
:1052C0005C9A809123049091240401979093240484
:1052D0008093230463E274E08AE190E00E940E214F
:1052E00081EF95E00E94E81B25E0222E3FE0F32E9F
:1052F00049E0E42E52E1D52E6BE1C62E74E2772E02
:10530000EDE26E2E8EEC99E090933F0680933E0680
:105310003090E60391E039124AC080910A01882357
:1053200009F41DC789EB93E00E947D1030926E0650
:1053300000936F0640911F04509120046091210456
:105340007091220421E030E08DEE95E00E94FA1881
:105350006FE174E082E090E00E94CA1D0E940D148B
:10536000A3E2A0936E06B2E2B0936F0661EE75E021
:105370008DEE95E00E94DD090E94091400936E06EF
:10538000EFE2E0936F0640910B0450910C046091A2
:105390000D0470910E0430E020E08DEE95E00E9447
:1053A000FA186BE074E08EE090E00E94CA1D309025
:1053B000E603F2E03F124AC08091E303882309F438
:1053C000D1C689EB93E00E947D1010936E06309257
:1053D0006F0640911304509114046091150470916C
:1053E000160421E030E08DEE95E00E94FA1863E1AA
:1053F00074E088E090E00E94CA1D0E940D1423E230
:1054000020936E0682E280936F066BED75E08DEE61
:1054100095E00E94DD090E94091430926E069FE219
:1054200090936F064091FF03509100046091010436
:105430007091020430E020E08DEE95E00E94FA18B1
:105440006FEF73E084E190E00E94CA1D8091E60353
:10545000833009F0C9C080910D018111C4C681ED6E
:1054600098E00E947D10F0926E0610926F068CE418
:1054700092E00E94B517609109018DEE95E00E94BF
:10548000BD18F0926E06E0926F0681E392E00E94F2
:10549000B517F0926E06D0926F0686E192E00E94F8
:1054A000B517F0926E06C0926F068BEF91E00E94E6
:1054B000B517F0926E0670926F068FED91E00E9424
:1054C000B517F0926E0660926F0686ED91E00E942D
:1054D000B517F0926E0696E3392E30926F068BEC7C
:1054E00091E00E94B51780910801813009F03DC616
:1054F0000093E20310920701809107019091E2036B
:1055000090936E0680936F0667EE75E08DEE95E0E2
:105510000E94DD098091F1034D9902C00C94E9329B
:1055200081110AC00E94C2096093ED037093EE03DB
:105530008093EF039093F00310920B014D9B52C0A8
:105540008091E1038F5F8093E103803509F04CC0C7
:1055500080910801813009F039C680930B01909148
:105560000901913009F42FC6809309018091080147
:10557000833049F410930B011093080184E1809368
:10558000E0030E94FD1D80910801843049F41093CE
:105590000B011093080182E38093E0030E94FD1D3C
:1055A00080910801853049F410930B011093080194
:1055B00084E68093E0030E94FD1D809108018630FF
:1055C00039F410930B011093080184E08093E603F3
:1055D00080910801873031F410930B01109308017A
:1055E0001093E6031092E1038091E603843009F002
:1055F0007EC08DED95E00E947D10F0926E061092B7
:105600006F0680EC91E00E94B51722E030E04AE995
:1056100059E969E170E48DEE95E00E94FA18F09284
:105620006E06E0926F0682EB91E00E94B517409102
:105630002D0450912E0460912F047091300422E0CB
:1056400030E08DEE95E00E94FA18F0926E06D0924E
:105650006F0684EA91E00E94B5174091DC035091F7
:10566000DD036091DE037091DF0322E030E08DEE18
:1056700095E00E94FA18F0926E06C0926F0687E9D4
:1056800091E00E94B5174091D8035091D9036091E1
:10569000DA037091DB0322E030E08DEE95E00E94AA
:1056A000FA18F0926E0670926F0689E891E00E94F7
:1056B000B5176091D7038DEE95E00E94BD18F0926A
:1056C0006E0660926F068BE791E00E94B5176091BD
:1056D000D6038DEE95E00E94BD184D9B8CC5809140
:1056E000D5038F5F823309F481C58093D503809100
:1056F000E603853009F06AC0AEECB9E0B0933F062E
:10570000A0933E0689EB93E00E947D10E0926E0626
:105710008EE1382E30926F066091D4038DEE95E0C5
:105720000E94BD1889E791E00E94B5176091D303EC
:105730008DEE95E00E94BD1887E791E00E94B517B5
:105740006091D2038DEE95E00E94BD1885E791E04F
:105750000E94B5176091D1038DEE95E00E94BD18AF
:1057600081ED98E00E947D108091F60381114EC575
:1057700088E280936E0610926F068FE691E00E9499
:10578000B5176091CF037091D0038DEE95E00E9424
:10579000C4188CE080936E0688E080936F0686E4E0
:1057A00091E00E94B51786E080936E06D0926F0656
:1057B00089E191E00E94B5174D9B25C58091D503E5
:1057C0008F5F843609F41AC58093D50381EF95E085
:1057D0000E94BE1B811196CD80E090E0892B09F4D8
:1057E00031CA0E94870A882309F42ACA0E9400004D
:1057F00027CABFEFEB1AFB0AFA8EE98EA7016AE30C
:10580000CE01C5960E949D1A97FD27C09C8F8B8F55
:105810002B8D3C8DA701BE016B5C7F4FC2010E94A6
:10582000541B8B899C890097E9F069817A81611505
:105830007105B1F04D895E892D813E814217530774
:1058400078F00E94FA398D819E81988F8F8B1E820D
:105850001D82C2010E945A1864CCDC8ECB8ED8CF38
:105860000E94903889819A819C8B8B8B8B819C8143
:105870009E8B8D8B8D819E81988F8F8B1A82198242
:105880001C821B82E4CF4F89588DCE018F960E94D7
:10589000221B5BCCC2010E94541B89819A81009714
:1058A00029F00E941C337CAF6BAF84CC60E070E0C9
:1058B000CB01F9CF9DE2791609F473C0AFE37A16F4
:1058C000A9F1BAE27B12D6CC8091C403882309F4F3
:1058D000D1CC64E572E0CE0189960E94B91A882382
:1058E00009F4C8CC8BAD9CAD019709F0C3CC60E640
:1058F00072E08EE394E00E94D91969EC71E08EE3C6
:1059000094E00E94D9196091F6038EE394E00E941E
:10591000BD1889E390E3A0E0B0E08093C5039093C5
:10592000C603A093C703B093C80364C06CEB71E0D7
:10593000CE0189960E94B91A882309F49BCC62ECA7
:1059400071E08EE394E00E94D9196091F6038EE332
:1059500094E00E94BD186BEC71E08EE394E00E942D
:10596000D919BE016D5D7F4F8EE394E00E94DD0981
:105970006091CF037091D0038EE394E00E94C4182D
:1059800069EC71E08EE394E00E94D91921E030E0E7
:105990004AE959E969E170E48EE394E00E94FA185B
:1059A00069CC60ED71E0CE0189960E94B91A882316
:1059B00009F460CC8091CF039091D003439664E1C9
:1059C00070E00E94C6376D5F7F4F81E291E0689F73
:1059D0009001699F300D789F300D11248BAD9CADE7
:1059E0002817390709F046CC64ED71E08EE394E0A6
:1059F0000E94D9190E9465210E94201D3BCC6EEDAA
:105A000071E0CE0189960E94B91A882309F432CC3C
:105A10008BAD9CAD092E000CAA0BBB0B4091C503AE
:105A20005091C6036091C7037091C803841795070E
:105A3000A607B707B1F51093C40385E08093F6037A
:105A400066EF73E089E290E00E944D21EFEFF0E70E
:105A500022E0E150F0402040E1F700C0000064EE99
:105A600071E08EE394E00E94D9196091F6038EE311
:105A700094E00E94BD186BEC71E08EE394E00E940C
:105A8000D919BE016D5D7F4F8EE394E00E94DD0960
:105A90006091CF037091D0038EE394E00E94C4180C
:105AA000E9CB8091F60381508093F60366EF73E0B3
:105AB00089E290E00E944D218FEF90E7A2E08150B3
:105AC0009040A040E1F700C000006FEE71E0C9CF48
:105AD0008091C403882309F4CDCB6DEF71E0CE0132
